{
  "_format": "hh-sol-artifact-1",
  "contractName": "BlockDAGRouter",
  "sourceName": "contracts/BlockDAGRouter.sol",
  "abi": [
    {
      "inputs": [
        {
          "internalType": "address payable",
          "name": "_crossCreditToken",
          "type": "address"
        }
      ],
      "stateMutability": "nonpayable",
      "type": "constructor"
    },
    {
      "inputs": [],
      "name": "InvalidChainId",
      "type": "error"
    },
    {
      "inputs": [],
      "name": "InvalidTransferAmount",
      "type": "error"
    },
    {
      "inputs": [],
      "name": "NotBridgeOperator",
      "type": "error"
    },
    {
      "inputs": [],
      "name": "TransactionAlreadyProcessed",
      "type": "error"
    },
    {
      "inputs": [],
      "name": "TransactionNotFound",
      "type": "error"
    },
    {
      "inputs": [],
      "name": "UnsupportedChain",
      "type": "error"
    },
    {
      "anonymous": false,
      "inputs": [
        {
          "indexed": true,
          "internalType": "address",
          "name": "operator",
          "type": "address"
        }
      ],
      "name": "BridgeOperatorAdded",
      "type": "event"
    },
    {
      "anonymous": false,
      "inputs": [
        {
          "indexed": true,
          "internalType": "address",
          "name": "operator",
          "type": "address"
        }
      ],
      "name": "BridgeOperatorRemoved",
      "type": "event"
    },
    {
      "anonymous": false,
      "inputs": [
        {
          "indexed": true,
          "internalType": "uint256",
          "name": "chainId",
          "type": "uint256"
        },
        {
          "indexed": false,
          "internalType": "string",
          "name": "name",
          "type": "string"
        },
        {
          "indexed": false,
          "internalType": "string",
          "name": "rpcUrl",
          "type": "string"
        }
      ],
      "name": "ChainAdded",
      "type": "event"
    },
    {
      "anonymous": false,
      "inputs": [
        {
          "indexed": true,
          "internalType": "uint256",
          "name": "chainId",
          "type": "uint256"
        }
      ],
      "name": "ChainRemoved",
      "type": "event"
    },
    {
      "anonymous": false,
      "inputs": [
        {
          "indexed": true,
          "internalType": "bytes32",
          "name": "txHash",
          "type": "bytes32"
        },
        {
          "indexed": true,
          "internalType": "address",
          "name": "receiver",
          "type": "address"
        },
        {
          "indexed": false,
          "internalType": "uint256",
          "name": "amount",
          "type": "uint256"
        }
      ],
      "name": "CrossChainTransferCompleted",
      "type": "event"
    },
    {
      "anonymous": false,
      "inputs": [
        {
          "indexed": true,
          "internalType": "bytes32",
          "name": "txHash",
          "type": "bytes32"
        },
        {
          "indexed": true,
          "internalType": "address",
          "name": "sender",
          "type": "address"
        },
        {
          "indexed": true,
          "internalType": "address",
          "name": "receiver",
          "type": "address"
        },
        {
          "indexed": false,
          "internalType": "uint256",
          "name": "amount",
          "type": "uint256"
        },
        {
          "indexed": false,
          "internalType": "uint256",
          "name": "targetChain",
          "type": "uint256"
        }
      ],
      "name": "CrossChainTransferInitiated",
      "type": "event"
    },
    {
      "anonymous": false,
      "inputs": [
        {
          "indexed": true,
          "internalType": "address",
          "name": "previousOwner",
          "type": "address"
        },
        {
          "indexed": true,
          "internalType": "address",
          "name": "newOwner",
          "type": "address"
        }
      ],
      "name": "OwnershipTransferred",
      "type": "event"
    },
    {
      "inputs": [],
      "name": "BLOCKDAG_CHAIN_ID",
      "outputs": [
        {
          "internalType": "uint256",
          "name": "",
          "type": "uint256"
        }
      ],
      "stateMutability": "view",
      "type": "function"
    },
    {
      "inputs": [],
      "name": "MAX_TRANSFER_AMOUNT",
      "outputs": [
        {
          "internalType": "uint256",
          "name": "",
          "type": "uint256"
        }
      ],
      "stateMutability": "view",
      "type": "function"
    },
    {
      "inputs": [],
      "name": "MIN_TRANSFER_AMOUNT",
      "outputs": [
        {
          "internalType": "uint256",
          "name": "",
          "type": "uint256"
        }
      ],
      "stateMutability": "view",
      "type": "function"
    },
    {
      "inputs": [
        {
          "internalType": "address",
          "name": "operator",
          "type": "address"
        }
      ],
      "name": "addBridgeOperator",
      "outputs": [],
      "stateMutability": "nonpayable",
      "type": "function"
    },
    {
      "inputs": [
        {
          "internalType": "uint256",
          "name": "chainId",
          "type": "uint256"
        },
        {
          "internalType": "string",
          "name": "name",
          "type": "string"
        },
        {
          "internalType": "string",
          "name": "rpcUrl",
          "type": "string"
        }
      ],
      "name": "addChain",
      "outputs": [],
      "stateMutability": "nonpayable",
      "type": "function"
    },
    {
      "inputs": [
        {
          "internalType": "address",
          "name": "",
          "type": "address"
        }
      ],
      "name": "bridgeOperators",
      "outputs": [
        {
          "internalType": "bool",
          "name": "",
          "type": "bool"
        }
      ],
      "stateMutability": "view",
      "type": "function"
    },
    {
      "inputs": [
        {
          "internalType": "uint256",
          "name": "",
          "type": "uint256"
        }
      ],
      "name": "chainNames",
      "outputs": [
        {
          "internalType": "string",
          "name": "",
          "type": "string"
        }
      ],
      "stateMutability": "view",
      "type": "function"
    },
    {
      "inputs": [
        {
          "internalType": "uint256",
          "name": "",
          "type": "uint256"
        }
      ],
      "name": "chainRpcUrls",
      "outputs": [
        {
          "internalType": "string",
          "name": "",
          "type": "string"
        }
      ],
      "stateMutability": "view",
      "type": "function"
    },
    {
      "inputs": [
        {
          "internalType": "bytes32",
          "name": "txHash",
          "type": "bytes32"
        },
        {
          "internalType": "address",
          "name": "receiver",
          "type": "address"
        },
        {
          "internalType": "uint256",
          "name": "amount",
          "type": "uint256"
        },
        {
          "internalType": "uint256",
          "name": "sourceChain",
          "type": "uint256"
        }
      ],
      "name": "completeCrossChainTransfer",
      "outputs": [],
      "stateMutability": "nonpayable",
      "type": "function"
    },
    {
      "inputs": [
        {
          "internalType": "bytes32",
          "name": "",
          "type": "bytes32"
        }
      ],
      "name": "crossChainTransactions",
      "outputs": [
        {
          "internalType": "address",
          "name": "sender",
          "type": "address"
        },
        {
          "internalType": "address",
          "name": "receiver",
          "type": "address"
        },
        {
          "internalType": "uint256",
          "name": "amount",
          "type": "uint256"
        },
        {
          "internalType": "uint256",
          "name": "sourceChain",
          "type": "uint256"
        },
        {
          "internalType": "uint256",
          "name": "targetChain",
          "type": "uint256"
        },
        {
          "internalType": "uint256",
          "name": "timestamp",
          "type": "uint256"
        },
        {
          "internalType": "bool",
          "name": "processed",
          "type": "bool"
        },
        {
          "internalType": "bytes32",
          "name": "txHash",
          "type": "bytes32"
        }
      ],
      "stateMutability": "view",
      "type": "function"
    },
    {
      "inputs": [],
      "name": "crossCreditToken",
      "outputs": [
        {
          "internalType": "contract CrossCreditToken",
          "name": "",
          "type": "address"
        }
      ],
      "stateMutability": "view",
      "type": "function"
    },
    {
      "inputs": [
        {
          "internalType": "address payable",
          "name": "token",
          "type": "address"
        },
        {
          "internalType": "uint256",
          "name": "amount",
          "type": "uint256"
        }
      ],
      "name": "emergencyWithdraw",
      "outputs": [],
      "stateMutability": "nonpayable",
      "type": "function"
    },
    {
      "inputs": [
        {
          "internalType": "uint256",
          "name": "chainId",
          "type": "uint256"
        }
      ],
      "name": "getChainInfo",
      "outputs": [
        {
          "internalType": "bool",
          "name": "supported",
          "type": "bool"
        },
        {
          "internalType": "string",
          "name": "name",
          "type": "string"
        },
        {
          "internalType": "string",
          "name": "rpcUrl",
          "type": "string"
        }
      ],
      "stateMutability": "view",
      "type": "function"
    },
    {
      "inputs": [
        {
          "internalType": "bytes32",
          "name": "txHash",
          "type": "bytes32"
        }
      ],
      "name": "getTransaction",
      "outputs": [
        {
          "components": [
            {
              "internalType": "address",
              "name": "sender",
              "type": "address"
            },
            {
              "internalType": "address",
              "name": "receiver",
              "type": "address"
            },
            {
              "internalType": "uint256",
              "name": "amount",
              "type": "uint256"
            },
            {
              "internalType": "uint256",
              "name": "sourceChain",
              "type": "uint256"
            },
            {
              "internalType": "uint256",
              "name": "targetChain",
              "type": "uint256"
            },
            {
              "internalType": "uint256",
              "name": "timestamp",
              "type": "uint256"
            },
            {
              "internalType": "bool",
              "name": "processed",
              "type": "bool"
            },
            {
              "internalType": "bytes32",
              "name": "txHash",
              "type": "bytes32"
            }
          ],
          "internalType": "struct BlockDAGRouter.CrossChainTx",
          "name": "transaction",
          "type": "tuple"
        }
      ],
      "stateMutability": "view",
      "type": "function"
    },
    {
      "inputs": [
        {
          "internalType": "address",
          "name": "user",
          "type": "address"
        }
      ],
      "name": "getUserTransactions",
      "outputs": [
        {
          "internalType": "bytes32[]",
          "name": "txHashes",
          "type": "bytes32[]"
        }
      ],
      "stateMutability": "view",
      "type": "function"
    },
    {
      "inputs": [
        {
          "internalType": "address",
          "name": "receiver",
          "type": "address"
        },
        {
          "internalType": "uint256",
          "name": "amount",
          "type": "uint256"
        },
        {
          "internalType": "uint256",
          "name": "targetChain",
          "type": "uint256"
        }
      ],
      "name": "initiateCrossChainTransfer",
      "outputs": [
        {
          "internalType": "bytes32",
          "name": "txHash",
          "type": "bytes32"
        }
      ],
      "stateMutability": "nonpayable",
      "type": "function"
    },
    {
      "inputs": [],
      "name": "owner",
      "outputs": [
        {
          "internalType": "address",
          "name": "",
          "type": "address"
        }
      ],
      "stateMutability": "view",
      "type": "function"
    },
    {
      "inputs": [
        {
          "internalType": "address",
          "name": "operator",
          "type": "address"
        }
      ],
      "name": "removeBridgeOperator",
      "outputs": [],
      "stateMutability": "nonpayable",
      "type": "function"
    },
    {
      "inputs": [
        {
          "internalType": "uint256",
          "name": "chainId",
          "type": "uint256"
        }
      ],
      "name": "removeChain",
      "outputs": [],
      "stateMutability": "nonpayable",
      "type": "function"
    },
    {
      "inputs": [],
      "name": "renounceOwnership",
      "outputs": [],
      "stateMutability": "nonpayable",
      "type": "function"
    },
    {
      "inputs": [
        {
          "internalType": "uint256",
          "name": "",
          "type": "uint256"
        }
      ],
      "name": "supportedChains",
      "outputs": [
        {
          "internalType": "bool",
          "name": "",
          "type": "bool"
        }
      ],
      "stateMutability": "view",
      "type": "function"
    },
    {
      "inputs": [
        {
          "internalType": "address",
          "name": "newOwner",
          "type": "address"
        }
      ],
      "name": "transferOwnership",
      "outputs": [],
      "stateMutability": "nonpayable",
      "type": "function"
    },
    {
      "inputs": [
        {
          "internalType": "address",
          "name": "",
          "type": "address"
        },
        {
          "internalType": "uint256",
          "name": "",
          "type": "uint256"
        }
      ],
      "name": "userTransactions",
      "outputs": [
        {
          "internalType": "bytes32",
          "name": "",
          "type": "bytes32"
        }
      ],
      "stateMutability": "view",
      "type": "function"
    },
    {
      "stateMutability": "payable",
      "type": "receive"
    }
  ],
  "bytecode": "0x60a034620023fd57601f620038f738819003918201601f19168301916001600160401b038311848410176200151057808492602094604052833981010312620023fd57516001600160a01b0380821691829003620023fd5760008054336001600160a01b03198216811783559216907f8be0079c531659141344cd1fd0a4f28419497f9722a3daafe3b4186f6b6457e09080a360018055608052620000a362002402565b601081526f115d1a195c995d5b4813585a5b9b995d60821b6020820152620000ca62002402565b601d81527f68747470733a2f2f6d61696e6e65742e696e667572612e696f2f76332f000000602080830191909152600160008190527fe90b7bceb6e7df5418fb78d8ee546e97c83a08bbccc01a0644d599ccd2a7c2e0805460ff19169091179055600390528151917fa15bc60c955c405d20d9149c709e2460f1c2d9a497496a7f46004d1772c3054c6001600160401b03841162001510578054600181811c91168015620023f2575b6020821014620014ef57601f8111620023a5575b50602093601f81116001146200233b5780919293946000916200232f575b508160011b916000199060031b1c19161790555b600160005260046020528151917fabd6e7cb50984ff9c2f3e18a2660c3353dadf4e3291deeb275dae2cd1e44fe056001600160401b03841162001510578054600181811c9116801562002324575b6020821014620014ef57601f8111620022db575b50602093601f81116001146200226f576200027c92600080516020620038d78339815191529492826200028b9360019860009162002263575b50600019600383901b1c191690881b1790555b60405193849360408552604085019062002442565b90838203602085015262002442565b0390a26200029862002402565b601081526f457468657265756d205365706f6c696160801b6020820152620002bf62002402565b601d81527f68747470733a2f2f7365706f6c69612e696e667572612e696f2f76332f00000060208083019190915262aa36a76000527fe11a92942536b845da9a1f431f37793176a4b22e5871c079dbb83bc320163350805460ff19166001179055600390528151917f2b74969026b51da63916d305b53f8b6fe255c38667d340559e51ada80fbdc0366001600160401b03841162001510578054600181811c9116801562002258575b6020821014620014ef57601f81116200220f575b50602093601f8111600114620021a357809192939460009162002197575b508160011b916000199060031b1c19161790555b62aa36a760005260046020528151917fe6f5028abde3098c94a5c990974a4c29d9fabeecd4a89cf4f080dcffff8ac88e6001600160401b03841162001510578054600181811c911680156200218c575b6020821014620014ef57601f811162002143575b50602093601f8111600114620020d4576200027c92600080516020620038d7833981519152949282620004759362aa36a7986000916200140f575b508160011b916000199060031b1c191617905560405193849360408552604085019062002442565b0390a26200048262002402565b600f81526e141bdb1e59dbdb8813585a5b9b995d608a1b6020820152620004a862002402565b601781527f68747470733a2f2f706f6c79676f6e2d7270632e636f6d00000000000000000060208083019190915260896000527f0cb0be258cd4e0f89ef5514ec447dd8846b0cf865c7d0d8ea82ff58a1eae81a1805460ff19166001179055600390528151917f0f7c2a22036bfa20acc9ee73aa9ab92bebf1413ecc0991a7c2b4d6178e9838ed6001600160401b03841162001510578054600181811c91168015620020c9575b6020821014620014ef57601f811162002080575b50602093601f81116001146200201457809192939460009162002008575b508160011b916000199060031b1c19161790555b608960005260046020528151917f907b08434ac958ede2a264ebafec1874958c44bd102e1bc36a06cd703932da0b6001600160401b03841162001510578054600181811c9116801562001ffd575b6020821014620014ef57601f811162001fb4575b50602093601f811160011462001f47576200027c92600080516020620038d783398151915294928262000657936089986000916200140f57508160011b916000199060031b1c191617905560405193849360408552604085019062002442565b0390a26200066462002402565b600e81526d506f6c79676f6e204d756d62616960901b60208201526200068962002422565b602181527f68747470733a2f2f7270632d6d756d6261692e6d61746963766967696c2e636f602080830191909152606d60f81b6040830152620138816000527f2af04f721798314fc694a46b3db9f8005ee5d928ceb0c93e438e01e3ac240ed4805460ff19166001179055600390528151917fdcb06883458ea50914626defda05e41b08347a7ab71dc9fa1dc89dada3554b9c6001600160401b03841162001510578054600181811c9116801562001f3c575b6020821014620014ef57601f811162001ef3575b50602093601f811160011462001e8757809192939460009162001e7b575b508160011b916000199060031b1c19161790555b6201388160005260046020528151917ffb386c4a28b5dcf5e15b39968bac2720d34c4c9ae0717c49579250d3f517f29a6001600160401b03841162001510578054600181811c9116801562001e70575b6020821014620014ef57601f811162001e27575b50602093601f811160011462001db8576200027c92600080516020620038d7833981519152949282620008489362013881986000916200140f57508160011b916000199060031b1c191617905560405193849360408552604085019062002442565b0390a26200085562002402565b600c81526b417262697472756d204f6e6560a01b60208201526200087862002402565b601c81527f68747470733a2f2f617262312e617262697472756d2e696f2f7270630000000060208083019190915261a4b16000527f5fa80452b166d50ac062987ccf92fbd09d4d791a0828f45943bd937cb4ec5085805460ff19166001179055600390528151917f6da21496ee3c71e35693bb2fb88efaa21b54d17c105fc747d0ca398ed7bab9d46001600160401b03841162001510578054600181811c9116801562001dad575b6020821014620014ef57601f811162001d64575b50602093601f811160011462001cf857809192939460009162001cec575b508160011b916000199060031b1c19161790555b61a4b160005260046020528151917f6b9ac384f7f53524c5ccf3206e339a1858e866a93c0b5f8485b15dfdf97905e26001600160401b03841162001510578054600181811c9116801562001ce1575b6020821014620014ef57601f811162001c98575b50602093601f811160011462001c2a576200027c92600080516020620038d783398151915294928262000a2a9361a4b1986000916200140f57508160011b916000199060031b1c191617905560405193849360408552604085019062002442565b0390a262000a3762002402565b600f81526e417262697472756d20476f65726c6960881b602082015262000a5d62002422565b602581527f68747470733a2f2f676f65726c692d726f6c6c75702e617262697472756d2e69602080830191909152646f2f72706360d81b604083015262066eed6000527f6802d06716dfcef23834e0b69bf8932eeb63f3fc678096c05fa1c542245c75a0805460ff19166001179055600390528151917f0c1cb8b57e1e0ed1e6b374ef5392f72dc75a364507df1cc836f7ede0e23009006001600160401b03841162001510578054600181811c9116801562001c1f575b6020821014620014ef57601f811162001bd6575b50602093601f811160011462001b6a57809192939460009162001b5e575b508160011b916000199060031b1c19161790555b62066eed60005260046020528151917faf8ba0ecb798c119f4b3ca14ce76df268b6353f9b79dc2788c68dbc21ab9da4e6001600160401b03841162001510578054600181811c9116801562001b53575b6020821014620014ef57601f811162001b0a575b50602093601f811160011462001a9b576200027c92600080516020620038d783398151915294928262000c209362066eed986000916200140f57508160011b916000199060031b1c191617905560405193849360408552604085019062002442565b0390a262000c2d62002402565b60088152674f7074696d69736d60c01b602082015262000c4c62002402565b601b81527f68747470733a2f2f6d61696e6e65742e6f7074696d69736d2e696f0000000000602080830191909152600a6000527fd3604db978f6137b0d18816b77b2ce810487a3af08a922e0b184963be5f3adfc805460ff19166001179055600390528151917f9dcb9783ba5cd0b54745f65f4f918525e461e91888c334e5342cb380ac558d536001600160401b03841162001510578054600181811c9116801562001a90575b6020821014620014ef57601f811162001a47575b50602093601f8111600114620019db578091929394600091620019cf575b508160011b916000199060031b1c19161790555b600a60005260046020528151917f5c6b02db8b672415ffad906d7ccee10bd53dbad7d0b29e2bc0e50c93d5f310936001600160401b03841162001510578054600181811c91168015620019c4575b6020821014620014ef57601f81116200197b575b50602093601f81116001146200190e576200027c92600080516020620038d783398151915294928262000dfb93600a986000916200140f57508160011b916000199060031b1c191617905560405193849360408552604085019062002442565b0390a262000e0862002402565b600f81526e4f7074696d69736d20476f65726c6960881b602082015262000e2e62002402565b601a81527f68747470733a2f2f676f65726c692e6f7074696d69736d2e696f0000000000006020808301919091526101a46000527f3ecc0f8ce3c4ed8d35a791cb0dde66b3e5a832e6385ea29bdb3e8415d4b9c28e805460ff19166001179055600390528151917ff2a2ec5d69b58f6ba1d23097f753653b74910c4844802dc7e970711a1a5da58b6001600160401b03841162001510578054600181811c9116801562001903575b6020821014620014ef57601f8111620018ba575b50602093601f81116001146200184e57809192939460009162001842575b508160011b916000199060031b1c19161790555b6101a460005260046020528151917faee785832dba190a1fb5c131a14e29ba480e2b694d08bf2808f8be678b7a67076001600160401b03841162001510578054600181811c9116801562001837575b6020821014620014ef57601f8111620017ee575b50602093601f811160011462001780576200027c92600080516020620038d783398151915294928262000fe0936101a4986000916200140f57508160011b916000199060031b1c191617905560405193849360408552604085019062002442565b0390a262000fed62002402565b601181527020bb30b630b731b432902196a1b430b4b760791b60208201526200101562002422565b602581527f68747470733a2f2f6170692e617661782e6e6574776f726b2f6578742f62632f60208083019190915264432f72706360d81b604083015261a86a6000527f3f06966e66c0f44a3add9bdf355d4fd8e6c39fe649026d2546d3ff630c014a88805460ff19166001179055600390528151917f6353a2894b0ada7d44d3686559ffe101bad4b0f0ca34085216884833369671886001600160401b03841162001510578054600181811c9116801562001775575b6020821014620014ef57601f81116200172c575b50602093601f8111600114620016c0578091929394600091620016b4575b508160011b916000199060031b1c19161790555b61a86a60005260046020528151917f358d1fdc9aee870adc64cfdb4387a242fe332dc007bd1f0d64edca35e9f2959d6001600160401b03841162001510578054600181811c91168015620016a9575b6020821014620014ef57601f811162001660575b50602093601f8111600114620015f2576200027c92600080516020620038d7833981519152949282620011d59361a86a986000916200140f57508160011b916000199060031b1c191617905560405193849360408552604085019062002442565b0390a2620011e262002402565b600e81526d4176616c616e6368652046756a6960901b60208201526200120762002422565b602a81527f68747470733a2f2f6170692e617661782d746573742e6e6574776f726b2f657860208083019190915269742f62632f432f72706360b01b604083015261a8696000527f0fb8c657098019904c0f4694678a2e23e95dc8c56b24875b9fd9be0415301008805460ff19166001179055600390528151917fe65095f8037442aeb33a32e63c3e2e921ff4ad979ccf3561630428817c9ab0c56001600160401b03841162001510578054600181811c91168015620015e7575b6020821014620014ef57601f81116200159e575b50602093601f81116001146200153257809192939460009162001526575b508160011b916000199060031b1c19161790555b61a86960005260046020528151917f9744363bfc06711f3658ed2b3f754102114ab588d3dd3cddff3e17f37c6c8bbb6001600160401b03841162001510578054600181811c9116801562001505575b6020821014620014ef57601f8111620014a2575b50602093601f81116001146200141b576200027c92600080516020620038d7833981519152949282620013cc9361a869986000916200140f57508160011b916000199060031b1c191617905560405193849360408552604085019062002442565b0390a23360005260056020526040600020600160ff198254161790556040516114529081620024858239608051818181610324015281816109b40152610f3b0152f35b9050830151386200044d565b601f1981168260005260206000209060005b818110620014895750926001836200027c969361a86999620013cc96600080516020620038d78339815191529a98106200146f575b5050811b01905562000267565b85015160001960f88460031b161c19169055388062001462565b858801518355602097880197600190930192016200142d565b816000526020600020601f860160051c81019160208710620014e4575b601f0160051c01905b818110620014d757506200136b565b60008155600101620014c8565b9091508190620014bf565b634e487b7160e01b600052602260045260246000fd5b90607f169062001357565b634e487b7160e01b600052604160045260246000fd5b905083015138620012f4565b81600052602060002060005b601f198316811062001585575060019293949582601f198116106200156b575b5050811b01905562001308565b85015160001960f88460031b161c1916905538806200155e565b848701518255602096870196600190920191016200153e565b816000526020600020601f860160051c810160208710620015df575b601f830160051c82018110620015d2575050620012d6565b60008155600101620015ba565b5080620015ba565b90607f1690620012c2565b81600052602060002060005b601f198316811062001647575092600080516020620038d783398151915294926001836200027c9661a86a99620011d596601f198116106200146f575050811b01905562000267565b84870151825560209687019660019092019101620015fe565b816000526020600020601f860160051c810160208710620016a1575b601f830160051c820181106200169457505062001174565b600081556001016200167c565b50806200167c565b90607f169062001160565b905083015138620010fd565b81600052602060002060005b601f198316811062001713575060019293949582601f19811610620016f9575b5050811b01905562001111565b85015160001960f88460031b161c191690553880620016ec565b84870151825560209687019660019092019101620016cc565b816000526020600020601f860160051c8101602087106200176d575b601f830160051c8201811062001760575050620010df565b6000815560010162001748565b508062001748565b90607f1690620010cb565b81600052602060002060005b601f1983168110620017d5575092600080516020620038d783398151915294926001836200027c966101a49962000fe096601f198116106200146f575050811b01905562000267565b848701518255602096870196600190920191016200178c565b816000526020600020601f860160051c8101602087106200182f575b601f830160051c820181106200182257505062000f7f565b600081556001016200180a565b50806200180a565b90607f169062000f6b565b90508301513862000f08565b81600052602060002060005b601f1983168110620018a1575060019293949582601f1981161062001887575b5050811b01905562000f1c565b85015160001960f88460031b161c1916905538806200187a565b848701518255602096870196600190920191016200185a565b816000526020600020601f860160051c810160208710620018fb575b601f830160051c82018110620018ee57505062000eea565b60008155600101620018d6565b5080620018d6565b90607f169062000ed6565b81600052602060002060005b601f198316811062001962575092600080516020620038d783398151915294926001836200027c96600a9962000dfb96601f198116106200146f575050811b01905562000267565b848701518255602096870196600190920191016200191a565b816000526020600020601f860160051c810160208710620019bc575b601f830160051c82018110620019af57505062000d9b565b6000815560010162001997565b508062001997565b90607f169062000d87565b90508301513862000d25565b81600052602060002060005b601f198316811062001a2e575060019293949582601f1981161062001a14575b5050811b01905562000d39565b85015160001960f88460031b161c19169055388062001a07565b84870151825560209687019660019092019101620019e7565b816000526020600020601f860160051c81016020871062001a88575b601f830160051c8201811062001a7b57505062000d07565b6000815560010162001a63565b508062001a63565b90607f169062000cf3565b81600052602060002060005b601f198316811062001af1575092600080516020620038d783398151915294926001836200027c9662066eed9962000c2096601f198116106200146f575050811b01905562000267565b8487015182556020968701966001909201910162001aa7565b816000526020600020601f860160051c81016020871062001b4b575b601f830160051c8201811062001b3e57505062000bbe565b6000815560010162001b26565b508062001b26565b90607f169062000baa565b90508301513862000b46565b81600052602060002060005b601f198316811062001bbd575060019293949582601f1981161062001ba3575b5050811b01905562000b5a565b85015160001960f88460031b161c19169055388062001b96565b8487015182556020968701966001909201910162001b76565b816000526020600020601f860160051c81016020871062001c17575b601f830160051c8201811062001c0a57505062000b28565b6000815560010162001bf2565b508062001bf2565b90607f169062000b14565b81600052602060002060005b601f198316811062001c7f575092600080516020620038d783398151915294926001836200027c9661a4b19962000a2a96601f198116106200146f575050811b01905562000267565b8487015182556020968701966001909201910162001c36565b816000526020600020601f860160051c81016020871062001cd9575b601f830160051c8201811062001ccc575050620009c9565b6000815560010162001cb4565b508062001cb4565b90607f1690620009b5565b90508301513862000952565b81600052602060002060005b601f198316811062001d4b575060019293949582601f1981161062001d31575b5050811b01905562000966565b85015160001960f88460031b161c19169055388062001d24565b8487015182556020968701966001909201910162001d04565b816000526020600020601f860160051c81016020871062001da5575b601f830160051c8201811062001d9857505062000934565b6000815560010162001d80565b508062001d80565b90607f169062000920565b81600052602060002060005b601f198316811062001e0e575092600080516020620038d783398151915294926001836200027c9662013881996200084896601f198116106200146f575050811b01905562000267565b8487015182556020968701966001909201910162001dc4565b816000526020600020601f860160051c81016020871062001e68575b601f830160051c8201811062001e5b575050620007e6565b6000815560010162001e43565b508062001e43565b90607f1690620007d2565b9050830151386200076e565b81600052602060002060005b601f198316811062001eda575060019293949582601f1981161062001ec0575b5050811b01905562000782565b85015160001960f88460031b161c19169055388062001eb3565b8487015182556020968701966001909201910162001e93565b816000526020600020601f860160051c81016020871062001f34575b601f830160051c8201811062001f2757505062000750565b6000815560010162001f0f565b508062001f0f565b90607f16906200073c565b81600052602060002060005b601f198316811062001f9b575092600080516020620038d783398151915294926001836200027c966089996200065796601f198116106200146f575050811b01905562000267565b8487015182556020968701966001909201910162001f53565b816000526020600020601f860160051c81016020871062001ff5575b601f830160051c8201811062001fe8575050620005f7565b6000815560010162001fd0565b508062001fd0565b90607f1690620005e3565b90508301513862000581565b81600052602060002060005b601f198316811062002067575060019293949582601f198116106200204d575b5050811b01905562000595565b85015160001960f88460031b161c19169055388062002040565b8487015182556020968701966001909201910162002020565b816000526020600020601f860160051c810160208710620020c1575b601f830160051c82018110620020b457505062000563565b600081556001016200209c565b50806200209c565b90607f16906200054f565b81600052602060002060005b601f19831681106200212a575092600080516020620038d783398151915294926001836200027c9662aa36a7996200047596601f198116106200146f575050811b01905562000267565b84870151825560209687019660019092019101620020e0565b816000526020600020601f860160051c81016020871062002184575b601f830160051c820181106200217757505062000412565b600081556001016200215f565b50806200215f565b90607f1690620003fe565b9050830151386200039a565b81600052602060002060005b601f1983168110620021f6575060019293949582601f19811610620021dc575b5050811b019055620003ae565b85015160001960f88460031b161c191690553880620021cf565b84870151825560209687019660019092019101620021af565b816000526020600020601f860160051c81016020871062002250575b601f830160051c82018110620022435750506200037c565b600081556001016200222b565b50806200222b565b90607f169062000368565b90508301513862000254565b81600052602060002060005b601f1983168110620022c2575092600080516020620038d783398151915294926001836200027c9682996200028b96601f198116106200146f575050811b01905562000267565b848701518255602096870196600190920191016200227b565b816000526020600020601f860160051c8101602087106200231c575b601f830160051c820181106200230f5750506200021b565b60008155600101620022f7565b5080620022f7565b90607f169062000207565b905083015138620001a5565b601f198116948260005260206000209060005b8781106200238c5750826001949596971062002372575b5050811b019055620001b9565b85015160001960f88460031b161c19169055388062002365565b909160206001819285890151815501930191016200234e565b816000526020600020601f860160051c81019160208710620023e7575b601f0160051c01905b818110620023da575062000187565b60008155600101620023cb565b9091508190620023c2565b90607f169062000173565b600080fd5b60408051919082016001600160401b038111838210176200151057604052565b60405190606082016001600160401b038111838210176200151057604052565b919082519283825260005b8481106200246f575050826000602080949584010152601f8019910116010190565b6020818301810151848301820152016200244d56fe6080604081815260049182361015610022575b505050361561002057600080fd5b005b600092833560e01c918263025437611461103d575081632581041614610ebe57816334894b9c14610e555781633c3dbbc714610e325781634aae13ca14610d2f57816350ae749e14610d06578163548d496f14610cd9578163715018a614610c7f5781637223c6ba14610c42578163788aaa3914610936578163804ea334146108cd5781638da5cb5b146108a55781639184ba2f1461083f57816395ccea671461076b578163a2554ce21461074e578163b842ec44146106f8578163cbf50bb61461067e578163cd79000614610353578163e45edf5e1461030f578163ef9253991461025f578163f2fde38b1461019357508063f83a1a7f146101565763fc1b31131461012f5780610012565b346101525781600319360112610152576020905169d3c21bcecceda10000008152f35b5080fd5b50346101525760203660031901126101525760209160ff9082906001600160a01b036101806110c3565b1681526005855220541690519015158152f35b90503461025b57602036600319011261025b576101ae6110c3565b906101b76112af565b6001600160a01b03918216928315610209575050600054826001600160601b0360a01b821617600055167f8be0079c531659141344cd1fd0a4f28419497f9722a3daafe3b4186f6b6457e0600080a380f35b906020608492519162461bcd60e51b8352820152602660248201527f4f776e61626c653a206e6577206f776e657220697320746865207a65726f206160448201526564647265737360d01b6064820152fd5b8280fd5b82843461030c576020908160031936011261030c5782906001600160a01b036102866110c3565b16815260078352818120908251808584549182815201908194845286842090845b8181106102f857505050816102bd91038261114b565b83519485948186019282875251809352850193925b8281106102e157505050500390f35b8351855286955093810193928101926001016102d2565b8254845292880192600192830192016102a7565b80fd5b505034610152578160031936011261015257517f00000000000000000000000000000000000000000000000000000000000000006001600160a01b03168152602090f35b83915034610152576060366003190112610152578035906024359367ffffffffffffffff9485811161067a5761038c9036908401611281565b60449391933587811161067657906103bf6103ad6103c79336908601611281565b9690926103b86112af565b3691611375565b943691611375565b90841561066857848652602096600288528387206001908160ff19825416179055600389528488208651908382116106555761040381546110de565b918a8c601f9485808211610628575b50505050808c8c8583116001146105c457916105b9575b50600019600383901b1c191690841b1790555b878952838a528589209385519384116105a6575061045a84546110de565b8a82821161056f575b5050899083116001146104e7579180808a9b95936104d697957f87a8e724ad3a898c5e1b302ee6affe04572066fc956880e6a5952c4c8b43e3639b9c936104dc575b501b916000199060031b1c19161790555b6104c98451958587968752860190611213565b9184830390850152611213565b0390a280f35b86015192508d6104a5565b83895289892091929190601f1983168a5b81811061055a57509183917f87a8e724ad3a898c5e1b302ee6affe04572066fc956880e6a5952c4c8b43e3639a9b9c96946104d698969410610541575b5050811b0190556104b6565b85015160001960f88460031b161c191690558b80610535565b87830151845592850192918c01918c016104f8565b61059691868c5283828d209181880160051c830193881061059d575b0160051c01906113bc565b8a8a610463565b9250819261058b565b634e487b7160e01b8a5260419052602489fd5b90508901518d610429565b908693508e8c601f1985169187855280852094915b83831061060f5750505083116105f6575b5050811b01905561043c565b8b015160001960f88460031b161c191690558d806105ea565b840151855589969094019392830192908101908e6105d9565b82848761064c9652209181860160051c830193861061059d570160051c01906113bc565b8a8c8e85610412565b634e487b7160e01b8a526041855260248afd5b8251633d23e4d160e11b8152fd5b8680fd5b8480fd5b9190503461025b57602036600319011261025b576106d1908235926106a16112af565b838552600260205281852060ff19815416905560036020526106c48286206113d3565b83855260205283206113d3565b7f11a9d1a77f76361ed131c19b1dc5758504c51dbde2e49fc973a0ef9577ad13d58280a280f35b5050346101525780600319360112610152576107126110c3565b6001600160a01b0316825260076020528082208054602435939084101561030c575060209261074091611253565b91905490519160031b1c8152f35b505034610152578160031936011261015257602090516104138152f35b9190503461025b578060031936011261025b57826001600160a01b0383358181169081900361025b57602435946107a06112af565b816107d55750508180939481928254168282156107cc575bf1156107c2575080f35b51903d90823e3d90fd5b506108fc6107b8565b83604492936020955416938651978895869463a9059cbb60e01b865285015260248401525af1908115610836575061080b575080f35b61082b9060203d811161082f575b610823818361114b565b810190611307565b5080f35b503d610819565b513d84823e3d90fd5b5050346101525760203660031901126101525761085a6110c3565b6108626112af565b6001600160a01b03168083526005602052908220805460ff191690557f2541c2ea3c7f2551d38f10f93951cf51468465433cf85cbb32292d083fad2a2b8280a280f35b505034610152578160031936011261015257905490516001600160a01b039091168152602090f35b838334610152576020366003190112610152576109329083358352600260205261091561090f8260ff818720541695600360205281812097602052209561116d565b9461116d565b6104c9825195869515158652606060208701526060860190611213565b0390f35b838334610152576060366003190112610152576109516110c3565b6024356044359361096061131f565b8481526020956002875260ff858320541615610c3457670de0b6b3a764000083108015610c21575b610c135784516323b872dd60e01b81523382820152306024820152604481018490526001600160a01b037f000000000000000000000000000000000000000000000000000000000000000081169291898160648188885af18015610c095790899594939291610bec575b5060078a858a8051838101903360601b8252868d169c6001600160601b03199060601b1660348201528b604882015261041360688201528a60888201524260a88201524360c882015260c88152610a4881611118565b5190209c8d938b8d888551998a96610a5f88611118565b33885285880193845280880194855288600660608a0197610413895260808b01998a528c60e060a08d019c8d42905260c081019e8f52019d8e52835252209a5116906001600160601b0360a01b91828c5416178b5560018b01925116908254161790555160028801555160038701555186860155516005850155600684019051151560ff80198354169116179055519101553383526007895286832080549068010000000000000000821015610bd9578a92610b248360649360018c96018155611253565b81549060031b908d821b91600019901b1916179055858a5195869485936347b9362b60e01b85528401528960248401528860448401525af18015610bcf57908891610ba6575b505050835191825285820152837f9d3e6d42000ef267c4468a2b60182d337e8a294a48421c7123f4e92626a94ed2843393a46001805551908152f35b813d8311610bc8575b610bb9818361114b565b8101031261030c578681610b6a565b503d610baf565b86513d84823e3d90fd5b634e487b7160e01b855260418352602485fd5b610c02908b3d8d1161082f57610823818361114b565b508a6109f2565b88513d87823e3d90fd5b8451630f16a02160e21b8152fd5b5069d3c21bcecceda10000008311610988565b845163d21eab3760e01b8152fd5b90503461025b57602036600319011261025b578161093293610c6c9235815260036020522061116d565b9051918291602083526020830190611213565b833461030c578060031936011261030c57610c986112af565b600080546001600160a01b0319811682556001600160a01b03167f8be0079c531659141344cd1fd0a4f28419497f9722a3daafe3b4186f6b6457e08280a380f35b90503461025b57602036600319011261025b578160209360ff923581526002855220541690519015158152f35b90503461025b57602036600319011261025b57816109329382610c6c933582526020522061116d565b9190503461025b57602036600319011261025b5780836101009460e08351610d5681611118565b82815282602082015282858201528260608201528260808201528260a08201528260c0820152015283358152600660205220815191610d9483611118565b60018060a01b038083541694858552816001850154169260208601938452600285015481870190815260038601549260608801938452860154936080880194855260058701549560a0890196875260e0600760ff60068b0154169960c08c019a15158b52015499019889528351998a525116602089015251908701525160608601525160808501525160a084015251151560c08301525160e0820152f35b50503461015257816003193601126101525760209051670de0b6b3a76400008152f35b50503461015257602036600319011261015257610e706110c3565b610e786112af565b6001600160a01b03168083526005602052908220805460ff191660011790557f07fd8bdde00dfde785188345a6ff568350febf16700961392c8b079cc7e413c78280a280f35b90503461025b57608036600319011261025b576001600160a01b036024358181169383359390918590036110395760443592338752600560205260ff83882054161561102a57610f0c61131f565b8487526006602052828720818154161561101a57600601805460ff811661100a5760ff191660011790558691907f000000000000000000000000000000000000000000000000000000000000000016803b1561025b5782906084855180958193636c12516160e01b83528b8784015289602484015260643560448401528a60648401525af1801561100057610fcf575b50507fa3fb1fdca3e6a59a3846c92573a5ef77e64e67e318bf125538fcaf0aef7509da9160209151908152a36001805580f35b67ffffffffffffffff8297939711610fed5750855293816020610f9c565b634e487b7160e01b835260419052602482fd5b83513d89823e3d90fd5b845163eb4156ad60e01b81528490fd5b83516331fb878f60e01b81528390fd5b5090516360fb4b4960e01b8152fd5b8580fd5b929150346110bf5760203660031901126110bf578161010094823581526006602052209060018060a01b0392838354169360018401541691600284015460038501549185015492600586015494600760ff60068901541697015497895260208901528701526060860152608085015260a0840152151560c083015260e0820152f35b8380fd5b600435906001600160a01b03821682036110d957565b600080fd5b90600182811c9216801561110e575b60208310146110f857565b634e487b7160e01b600052602260045260246000fd5b91607f16916110ed565b610100810190811067ffffffffffffffff82111761113557604052565b634e487b7160e01b600052604160045260246000fd5b90601f8019910116810190811067ffffffffffffffff82111761113557604052565b9060405191826000825492611181846110de565b9081845260019485811690816000146111f057506001146111ad575b50506111ab9250038361114b565b565b9093915060005260209081600020936000915b8183106111d85750506111ab9350820101388061119d565b855488840185015294850194879450918301916111c0565b9150506111ab94506020925060ff191682840152151560051b820101388061119d565b919082519283825260005b84811061123f575050826000602080949584010152601f8019910116010190565b60208183018101518483018201520161121e565b805482101561126b5760005260206000200190600090565b634e487b7160e01b600052603260045260246000fd5b9181601f840112156110d95782359167ffffffffffffffff83116110d957602083818601950101116110d957565b6000546001600160a01b031633036112c357565b606460405162461bcd60e51b815260206004820152602060248201527f4f776e61626c653a2063616c6c6572206973206e6f7420746865206f776e65726044820152fd5b908160209103126110d9575180151581036110d95790565b600260015414611330576002600155565b60405162461bcd60e51b815260206004820152601f60248201527f5265656e7472616e637947756172643a207265656e7472616e742063616c6c006044820152606490fd5b92919267ffffffffffffffff8211611135576040519161139f601f8201601f19166020018461114b565b8294818452818301116110d9578281602093846000960137010152565b8181106113c7575050565b600081556001016113bc565b6113dd81546110de565b90816113e7575050565b81601f600093116001146113f9575055565b908083918252611418601f60208420940160051c8401600185016113bc565b555556fea2646970667358221220780b4fa875d6a8ee72277bd635d04791e8704f6393fb246f1bb0b1134a7a361564736f6c6343000814003387a8e724ad3a898c5e1b302ee6affe04572066fc956880e6a5952c4c8b43e363",
  "linkReferences": {},
  "deployedLinkReferences": {}
}