{"contracts/MainRouter.sol":{"MainRouter":{"abi":[{"inputs":[{"internalType":"address","name":"_router","type":"address"},{"internalType":"address","name":"_functionsRouter","type":"address"},{"internalType":"bytes32","name":"_donId","type":"bytes32"},{"internalType":"uint64","name":"_subscriptionId","type":"uint64"}],"stateMutability":"nonpayable","type":"constructor"},{"inputs":[{"internalType":"uint64","name":"destinationChainSelector","type":"uint64"}],"name":"DestinationChainNotAllowed","type":"error"},{"inputs":[],"name":"EmptyArgs","type":"error"},{"inputs":[],"name":"EmptySource","type":"error"},{"inputs":[{"internalType":"address","name":"owner","type":"address"},{"internalType":"address","name":"target","type":"address"},{"internalType":"uint256","name":"value","type":"uint256"}],"name":"FailedToWithdrawEth","type":"error"},{"inputs":[{"internalType":"uint256","name":"healthFactor","type":"uint256"}],"name":"HealthFactorTooLow","type":"error"},{"inputs":[],"name":"InsufficientCollateral","type":"error"},{"inputs":[],"name":"InvalidCreditScore","type":"error"},{"inputs":[{"internalType":"address","name":"router","type":"address"}],"name":"InvalidRouter","type":"error"},{"inputs":[],"name":"NoInlineSecrets","type":"error"},{"inputs":[{"internalType":"uint256","name":"currentBalance","type":"uint256"},{"internalType":"uint256","name":"calculatedFees","type":"uint256"}],"name":"NotEnoughBalance","type":"error"},{"inputs":[],"name":"NothingToWithdraw","type":"error"},{"inputs":[],"name":"OnlyRouterCanFulfill","type":"error"},{"inputs":[{"internalType":"address","name":"sender","type":"address"}],"name":"SenderNotAllowed","type":"error"},{"inputs":[{"internalType":"uint64","name":"sourceChainSelector","type":"uint64"}],"name":"SourceChainNotAllowed","type":"error"},{"anonymous":false,"inputs":[{"indexed":true,"internalType":"address","name":"user","type":"address"},{"indexed":false,"internalType":"uint256","name":"amount","type":"uint256"},{"indexed":false,"internalType":"uint64","name":"destinationChain","type":"uint64"},{"indexed":false,"internalType":"uint256","name":"creditScore","type":"uint256"}],"name":"BorrowApproved","type":"event"},{"anonymous":false,"inputs":[{"indexed":true,"internalType":"address","name":"user","type":"address"},{"indexed":false,"internalType":"uint256","name":"newScore","type":"uint256"}],"name":"CreditScoreUpdated","type":"event"},{"anonymous":false,"inputs":[{"indexed":true,"internalType":"address","name":"user","type":"address"},{"indexed":true,"internalType":"address","name":"token","type":"address"},{"indexed":false,"internalType":"uint256","name":"amount","type":"uint256"},{"indexed":false,"internalType":"uint64","name":"sourceChain","type":"uint64"}],"name":"DepositReceived","type":"event"},{"anonymous":false,"inputs":[{"indexed":true,"internalType":"uint64","name":"chainSelector","type":"uint64"},{"indexed":false,"internalType":"bool","name":"allowed","type":"bool"}],"name":"DestinationChainAllowlisted","type":"event"},{"anonymous":false,"inputs":[{"indexed":true,"internalType":"bytes32","name":"messageId","type":"bytes32"},{"indexed":true,"internalType":"uint64","name":"sourceChainSelector","type":"uint64"},{"indexed":false,"internalType":"address","name":"sender","type":"address"},{"indexed":false,"internalType":"string","name":"message","type":"string"}],"name":"MessageReceived","type":"event"},{"anonymous":false,"inputs":[{"indexed":true,"internalType":"bytes32","name":"messageId","type":"bytes32"},{"indexed":true,"internalType":"uint64","name":"destinationChainSelector","type":"uint64"},{"indexed":false,"internalType":"address","name":"receiver","type":"address"},{"indexed":false,"internalType":"string","name":"message","type":"string"},{"indexed":false,"internalType":"uint256","name":"fees","type":"uint256"}],"name":"MessageSent","type":"event"},{"anonymous":false,"inputs":[{"indexed":true,"internalType":"address","name":"from","type":"address"},{"indexed":true,"internalType":"address","name":"to","type":"address"}],"name":"OwnershipTransferRequested","type":"event"},{"anonymous":false,"inputs":[{"indexed":true,"internalType":"address","name":"from","type":"address"},{"indexed":true,"internalType":"address","name":"to","type":"address"}],"name":"OwnershipTransferred","type":"event"},{"anonymous":false,"inputs":[{"indexed":true,"internalType":"address","name":"token","type":"address"},{"indexed":true,"internalType":"address","name":"priceFeed","type":"address"}],"name":"PriceFeedSet","type":"event"},{"anonymous":false,"inputs":[{"indexed":true,"internalType":"bytes32","name":"id","type":"bytes32"}],"name":"RequestFulfilled","type":"event"},{"anonymous":false,"inputs":[{"indexed":true,"internalType":"bytes32","name":"id","type":"bytes32"}],"name":"RequestSent","type":"event"},{"anonymous":false,"inputs":[{"indexed":true,"internalType":"address","name":"sender","type":"address"},{"indexed":false,"internalType":"bool","name":"allowed","type":"bool"}],"name":"SenderAllowlisted","type":"event"},{"inputs":[],"name":"CREDIT_SCORE_MULTIPLIER","outputs":[{"internalType":"uint256","name":"","type":"uint256"}],"stateMutability":"view","type":"function"},{"inputs":[],"name":"MAX_LTV","outputs":[{"internalType":"uint256","name":"","type":"uint256"}],"stateMutability":"view","type":"function"},{"inputs":[],"name":"MIN_HEALTH_FACTOR","outputs":[{"internalType":"uint256","name":"","type":"uint256"}],"stateMutability":"view","type":"function"},{"inputs":[],"name":"acceptOwnership","outputs":[],"stateMutability":"nonpayable","type":"function"},{"inputs":[{"internalType":"uint64","name":"_destinationChainSelector","type":"uint64"},{"internalType":"bool","name":"allowed","type":"bool"}],"name":"allowlistDestinationChain","outputs":[],"stateMutability":"nonpayable","type":"function"},{"inputs":[{"internalType":"address","name":"_sender","type":"address"},{"internalType":"bool","name":"allowed","type":"bool"}],"name":"allowlistSender","outputs":[],"stateMutability":"nonpayable","type":"function"},{"inputs":[{"internalType":"uint64","name":"_sourceChainSelector","type":"uint64"},{"internalType":"bool","name":"allowed","type":"bool"}],"name":"allowlistSourceChain","outputs":[],"stateMutability":"nonpayable","type":"function"},{"inputs":[{"internalType":"uint64","name":"","type":"uint64"}],"name":"allowlistedDestinationChains","outputs":[{"internalType":"bool","name":"","type":"bool"}],"stateMutability":"view","type":"function"},{"inputs":[{"internalType":"address","name":"","type":"address"}],"name":"allowlistedSenders","outputs":[{"internalType":"bool","name":"","type":"bool"}],"stateMutability":"view","type":"function"},{"inputs":[{"internalType":"uint64","name":"","type":"uint64"}],"name":"allowlistedSourceChains","outputs":[{"internalType":"bool","name":"","type":"bool"}],"stateMutability":"view","type":"function"},{"inputs":[{"internalType":"address","name":"user","type":"address"},{"internalType":"uint256","name":"amount","type":"uint256"},{"internalType":"uint64","name":"destinationChain","type":"uint64"}],"name":"approveBorrow","outputs":[],"stateMutability":"nonpayable","type":"function"},{"inputs":[{"components":[{"internalType":"bytes32","name":"messageId","type":"bytes32"},{"internalType":"uint64","name":"sourceChainSelector","type":"uint64"},{"internalType":"bytes","name":"sender","type":"bytes"},{"internalType":"bytes","name":"data","type":"bytes"},{"components":[{"internalType":"address","name":"token","type":"address"},{"internalType":"uint256","name":"amount","type":"uint256"}],"internalType":"struct Client.EVMTokenAmount[]","name":"destTokenAmounts","type":"tuple[]"}],"internalType":"struct Client.Any2EVMMessage","name":"message","type":"tuple"}],"name":"ccipReceive","outputs":[],"stateMutability":"nonpayable","type":"function"},{"inputs":[{"internalType":"address","name":"","type":"address"}],"name":"creditScores","outputs":[{"internalType":"uint256","name":"","type":"uint256"}],"stateMutability":"view","type":"function"},{"inputs":[],"name":"donId","outputs":[{"internalType":"bytes32","name":"","type":"bytes32"}],"stateMutability":"view","type":"function"},{"inputs":[],"name":"gasLimit","outputs":[{"internalType":"uint32","name":"","type":"uint32"}],"stateMutability":"view","type":"function"},{"inputs":[{"internalType":"address","name":"user","type":"address"}],"name":"getHealthFactor","outputs":[{"internalType":"uint256","name":"","type":"uint256"}],"stateMutability":"view","type":"function"},{"inputs":[],"name":"getRouter","outputs":[{"internalType":"address","name":"","type":"address"}],"stateMutability":"view","type":"function"},{"inputs":[{"internalType":"address","name":"user","type":"address"}],"name":"getUserCreditScore","outputs":[{"internalType":"uint256","name":"","type":"uint256"}],"stateMutability":"view","type":"function"},{"inputs":[{"internalType":"address","name":"user","type":"address"}],"name":"getUserProfile","outputs":[{"components":[{"internalType":"uint256","name":"totalDeposited","type":"uint256"},{"internalType":"uint256","name":"totalBorrowed","type":"uint256"},{"internalType":"uint256","name":"creditScore","type":"uint256"},{"internalType":"uint256","name":"healthFactor","type":"uint256"},{"internalType":"bool","name":"hasNFT","type":"bool"},{"internalType":"uint256","name":"lastUpdated","type":"uint256"}],"internalType":"struct MainRouter.UserProfile","name":"","type":"tuple"}],"stateMutability":"view","type":"function"},{"inputs":[{"internalType":"bytes32","name":"requestId","type":"bytes32"},{"internalType":"bytes","name":"response","type":"bytes"},{"internalType":"bytes","name":"err","type":"bytes"}],"name":"handleOracleFulfillment","outputs":[],"stateMutability":"nonpayable","type":"function"},{"inputs":[],"name":"lastRequestId","outputs":[{"internalType":"bytes32","name":"","type":"bytes32"}],"stateMutability":"view","type":"function"},{"inputs":[],"name":"owner","outputs":[{"internalType":"address","name":"","type":"address"}],"stateMutability":"view","type":"function"},{"inputs":[{"internalType":"address","name":"","type":"address"}],"name":"priceFeeds","outputs":[{"internalType":"address","name":"","type":"address"}],"stateMutability":"view","type":"function"},{"inputs":[{"internalType":"address","name":"user","type":"address"},{"internalType":"address","name":"token","type":"address"},{"internalType":"uint256","name":"amount","type":"uint256"},{"internalType":"uint64","name":"sourceChain","type":"uint64"}],"name":"processDeposit","outputs":[],"stateMutability":"nonpayable","type":"function"},{"inputs":[{"internalType":"address","name":"user","type":"address"},{"internalType":"string","name":"source","type":"string"}],"name":"requestCreditScoreUpdate","outputs":[{"internalType":"bytes32","name":"requestId","type":"bytes32"}],"stateMutability":"nonpayable","type":"function"},{"inputs":[{"internalType":"bytes32","name":"","type":"bytes32"}],"name":"requestToUser","outputs":[{"internalType":"address","name":"","type":"address"}],"stateMutability":"view","type":"function"},{"inputs":[{"internalType":"address","name":"user","type":"address"},{"internalType":"uint256","name":"score","type":"uint256"}],"name":"setCreditScore","outputs":[],"stateMutability":"nonpayable","type":"function"},{"inputs":[{"internalType":"address","name":"_token","type":"address"},{"internalType":"address","name":"_priceFeed","type":"address"}],"name":"setPriceFeed","outputs":[],"stateMutability":"nonpayable","type":"function"},{"inputs":[],"name":"subscriptionId","outputs":[{"internalType":"uint64","name":"","type":"uint64"}],"stateMutability":"view","type":"function"},{"inputs":[{"internalType":"bytes4","name":"interfaceId","type":"bytes4"}],"name":"supportsInterface","outputs":[{"internalType":"bool","name":"","type":"bool"}],"stateMutability":"view","type":"function"},{"inputs":[{"internalType":"address","name":"to","type":"address"}],"name":"transferOwnership","outputs":[],"stateMutability":"nonpayable","type":"function"},{"inputs":[{"internalType":"address","name":"","type":"address"}],"name":"userBorrows","outputs":[{"internalType":"uint256","name":"","type":"uint256"}],"stateMutability":"view","type":"function"},{"inputs":[{"internalType":"address","name":"","type":"address"},{"internalType":"address","name":"","type":"address"}],"name":"userDeposits","outputs":[{"internalType":"uint256","name":"","type":"uint256"}],"stateMutability":"view","type":"function"},{"inputs":[{"internalType":"address","name":"","type":"address"}],"name":"userProfiles","outputs":[{"internalType":"uint256","name":"totalDeposited","type":"uint256"},{"internalType":"uint256","name":"totalBorrowed","type":"uint256"},{"internalType":"uint256","name":"creditScore","type":"uint256"},{"internalType":"uint256","name":"healthFactor","type":"uint256"},{"internalType":"bool","name":"hasNFT","type":"bool"},{"internalType":"uint256","name":"lastUpdated","type":"uint256"}],"stateMutability":"view","type":"function"},{"inputs":[{"internalType":"address","name":"_beneficiary","type":"address"}],"name":"withdraw","outputs":[],"stateMutability":"nonpayable","type":"function"},{"inputs":[{"internalType":"address","name":"_beneficiary","type":"address"},{"internalType":"address","name":"_token","type":"address"}],"name":"withdrawToken","outputs":[],"stateMutability":"nonpayable","type":"function"},{"stateMutability":"payable","type":"receive"}],"evm":{"bytecode":{"linkReferences":{},"object":"60c03461016557601f61297338819003918201601f19168301916001600160401b0383118484101761016a578084926080946040528339810103126101655761004781610180565b9061005460208201610180565b91606060408301519201519160018060401b038316809303610165576001600160a01b03821691821561014f57608052331561010a57600080546001600160a01b031990811633179091556001600160a01b0390941660a052600c805460028054909616909317909455600b556001600160601b031916176a0493e000000000000000001790556040516127de90816101958239608051818181610cb30152611083015260a0518181816104c80152611b980152f35b60405162461bcd60e51b815260206004820152601860248201527f43616e6e6f7420736574206f776e657220746f207a65726f00000000000000006044820152606490fd5b6335fdcccd60e21b600052600060045260246000fd5b600080fd5b634e487b7160e01b600052604160045260246000fd5b51906001600160a01b03821682036101655756fe6080604052600436101561001b575b361561001957600080fd5b005b60003560e01c806301ffc9a71461025657806307de83941461025157806309c1ba2e1461024c5780630ca761751461024757806330268bb414610242578063332d56d71461023d57806335e5b7bb146102385780633aeac4e1146102335780634030d5211461022e578063436d8039146102295780634dd601b41461020657806351cff8d9146102245780636159ada11461021f57806375c67c661461021a57806376e112861461021557806377593cc41461021057806379ba50971461020b57806380bb72731461020657806381bf8d3d1461020157806385572ffb146101fc57806386da4cb6146101f75780638da5cb5b146101f25780638dbe7b9d146101ed57806396d3b83d146101e857806397ed81cf146101e3578063987ee156146101de5780639dcb511a146101d9578063b0f479a1146101d4578063b5627e42146101cf578063cc168d7c146101ca578063db04fa49146101c5578063eab5b02c146101c0578063f2fde38b146101bb578063f68016b7146101b6578063fc2a88c3146101b15763fe6bcd7c0361000e576113d8565b6113ba565b611393565b6112d3565b611253565b6111fb565b6110d5565b6110b2565b61106d565b611028565b610f38565b610e95565b610e0d565b610de5565b610dbc565b610da0565b610c81565b610c65565b6109ac565b610ba4565b610b67565b610afa565b610abb565b610a79565b6109e9565b610967565b610928565b610826565b610649565b61056c565b610538565b610474565b61033f565b6102c2565b346102ac5760203660031901126102ac5760043563ffffffff60e01b81168091036102ac576020906385572ffb60e01b811490811561029b575b506040519015158152f35b6301ffc9a760e01b14905038610290565b600080fd5b6001600160a01b038116036102ac57565b346102ac5760403660031901126102ac576004356102df816102b1565b6024356001600160401b0381116102ac57366023820112156102ac5780600401356001600160401b0381116102ac5736602482840101116102ac5761033b92602461032b930190611495565b6040519081529081906020820190565b0390f35b346102ac5760003660031901126102ac5760206001600160401b03600c5416604051908152f35b634e487b7160e01b600052604160045260246000fd5b60c081019081106001600160401b0382111761039757604052565b610366565b60e081019081106001600160401b0382111761039757604052565b604081019081106001600160401b0382111761039757604052565b90601f801991011681019081106001600160401b0382111761039757604052565b6040519061040260a0836103d2565b565b6001600160401b03811161039757601f01601f191660200190565b92919261042b82610404565b9161043960405193846103d2565b8294818452818301116102ac578281602093846000960137010152565b9080601f830112156102ac578160206104719335910161041f565b90565b346102ac5760603660031901126102ac576004356024356001600160401b0381116102ac576104a7903690600401610456565b6044356001600160401b0381116102ac576104c6903690600401610456565b7f00000000000000000000000000000000000000000000000000000000000000006001600160a01b03163303610527576105009183611c1a565b7f85e1543bf2f84fe80c6badbce3648c8539ad1df4d2b3d822938ca0538be727e6600080a2005b63c6829f8360e01b60005260046000fd5b346102ac5760203660031901126102ac57600435600052600e602052602060018060a01b0360406000205416604051908152f35b346102ac5760203660031901126102ac57600435610589816102b1565b60018060a01b031660005260066020526040600020805461033b6001830154926002810154906003810154600560ff60048401541692015492604051968796879260a094919796959260c08501988552602085015260408401526060830152151560808201520152565b604435906001600160401b03821682036102ac57565b600435906001600160401b03821682036102ac57565b606435906001600160401b03821682036102ac57565b35906001600160401b03821682036102ac57565b346102ac5760603660031901126102ac57600435610666816102b1565b6024356106716105f3565b6001600160401b03811680600052600360205260ff60406000205416156107ed57506001600160a01b038316600090815260096020526040902054926101f484106107dc576106bf81611cc4565b6001600160a01b03821660009081526008602052604090206106e3908590546115c5565b9081116107cb576001600160a01b03821660009081526008602090815260408083208490556006909152902060018101919091554260059091015561072781611cf4565b936714d1120d7b16000085106107b5576107b0907f22984f68941237d785be47dbc3a4034a25a23bd9832c103015dd92ace62471729495600361077c8560018060a01b03166000526006602052604060002090565b0155604080519687526001600160401b039094166020870152928501929092526001600160a01b0316929081906060820190565b0390a2005b63b8dfb2c160e01b600052600485905260246000fd5b633a23d82560e01b60005260046000fd5b6301069b4760e21b60005260046000fd5b63206abad760e01b60005260045260246000fd5b60409060031901126102ac57600435610819816102b1565b90602435610471816102b1565b346102ac5761083436610801565b61083c611d6d565b6040516370a0823160e01b81523060048201526001600160a01b03919091169190602081602481865afa9081156108e3576000916108f9575b5080156108e85760405163a9059cbb60e01b81526001600160a01b03929092166004830152602482015290602090829060449082906000905af180156108e3576108bb57005b6100199060203d6020116108dc575b6108d481836103d2565b8101906115ed565b503d6108ca565b6115e1565b630686827b60e51b60005260046000fd5b61091b915060203d602011610921575b61091381836103d2565b8101906115d2565b38610875565b503d610909565b346102ac5760203660031901126102ac576001600160401b03610949610609565b166000526004602052602060ff604060002054166040519015158152f35b346102ac5760206109a361097a36610801565b6001600160a01b0391821660009081526007855260408082209290931681526020919091522090565b54604051908152f35b346102ac5760203660031901126102ac576004356109c9816102b1565b60018060a01b031660005260096020526020604060002054604051908152f35b346102ac5760203660031901126102ac57600435610a06816102b1565b610a0e611d6d565b4780156108e857600080808084865af13d15610a74573d610a2e81610404565b90610a3c60405192836103d2565b8152600060203d92013e5b15610a4e57005b639d11f56360e01b600052336004526001600160a01b0390911660245260445260646000fd5b610a47565b346102ac5760203660031901126102ac57600435610a96816102b1565b60018060a01b03166000526005602052602060ff604060002054166040519015158152f35b346102ac5760203660031901126102ac576001600160401b03610adc610609565b166000526003602052602060ff604060002054166040519015158152f35b346102ac57610b0836610801565b90610b11611d6d565b6001600160a01b039081166000818152600a6020526040812080546001600160a01b03191694909316938417909255907fd2d8394cf7549a5ddbc2ba3dd7b2de8d53c891472d1f2907008ed6a10045fdae9080a3005b346102ac5760203660031901126102ac57600435610b84816102b1565b60018060a01b031660005260086020526020604060002054604051908152f35b346102ac5760003660031901126102ac576001546001600160a01b03163303610c27576000546001600160a01b0316600080546001600160a01b03191633179055600180546001600160a01b031916905533906001600160a01b03167f8be0079c531659141344cd1fd0a4f28419497f9722a3daafe3b4186f6b6457e0600080a3005b60405162461bcd60e51b815260206004820152601660248201527526bab9ba10313290383937b837b9b2b21037bbb732b960511b6044820152606490fd5b346102ac5760003660031901126102ac576020604051604b8152f35b346102ac5760203660031901126102ac576004356001600160401b0381116102ac5760a060031982360301126102ac577f00000000000000000000000000000000000000000000000000000000000000006001600160a01b03163303610d8b57600090610cec6103f3565b81600401358152610cff60248301610635565b602082015260448201356001600160401b038111610d8757610d279060043691850101610456565b604082015260648201356001600160401b038111610d8757610d4f9060043691850101610456565b606082015260848201356001600160401b038111610d8757610d84926004610d7a9236920101611602565b6080820152611de1565b80f35b8380fd5b6335fdcccd60e21b6000523360045260246000fd5b346102ac5760003660031901126102ac576020604051600a8152f35b346102ac5760003660031901126102ac576000546040516001600160a01b039091168152602090f35b346102ac5760003660031901126102ac576020600b54604051908152f35b801515036102ac57565b346102ac5760403660031901126102ac57610e26610609565b7f9e831877a5c5b0c6bf39118c59f437de0882033ff7d60a84dbc1f453584a0d1160206001600160401b0360243593610e5e85610e03565b610e66611d6d565b16928360005260038252610e8a8160406000209060ff801983541691151516179055565b6040519015158152a2005b346102ac5760403660031901126102ac57600435610eb2816102b1565b602435610ebd611d6d565b6103e88111610f2f575b6001600160a01b0391909116600081815260096020908152604080832085905560068252918290206002810185905542600590910155905192835290917f79c012a0cfae660e09134956bc432c8497ec80e86a3a108d130e8b3fca52b3ad91819081016107b0565b506103e8610ec7565b346102ac5760203660031901126102ac57600435610f55816102b1565b600060a0604051610f658161037c565b828152826020820152826040820152826060820152826080820152015260018060a01b0316600052600660205261033b6040600020600560405191610fa98361037c565b8054835260018101546020840152600281015460408401526003810154606084015260ff60048201541615156080840152015460a08201526040519182918291909160a08060c0830194805184526020810151602085015260408101516040850152606081015160608501526080810151151560808501520151910152565b346102ac5760203660031901126102ac57600435611045816102b1565b60018060a01b0316600052600a602052602060018060a01b0360406000205416604051908152f35b346102ac5760003660031901126102ac576040517f00000000000000000000000000000000000000000000000000000000000000006001600160a01b03168152602090f35b346102ac5760003660031901126102ac5760206040516714d1120d7b1600008152f35b346102ac5760803660031901126102ac576004356110f2816102b1565b6024356110fe816102b1565b6044359161110a61061f565b6001600160a01b0382811660008181526007602090815260408083209488168352939052919091209093908054938685018095116111f6577ff664b7cf4a6eb64372b17892837e5eda83dc15187b074ff156cf853d8bf1e220946111d1925561118861117e61117885611f4c565b896116b7565b6305f5e100900490565b6001600160a01b03821660009081526006602052604090206111ac909182546115c5565b90556001600160a01b038116600090815260066020526040902042906005015561200f565b604080519586526001600160401b039290921660208601526001600160a01b031693a3005b611585565b346102ac5760403660031901126102ac57610019611217610609565b6001600160401b036024359161122c83610e03565b611234611d6d565b16600052600460205260406000209060ff801983541691151516179055565b346102ac5760403660031901126102ac57600435611270816102b1565b7f9a3d70b7815e59466fffdf86a6fda9753a1d8228523b33db2345e12200b3030c6020602435926112a084610e03565b6112a8611d6d565b6001600160a01b031660008181526005835260409020805460ff191660ff8615151617905592610e8a565b346102ac5760203660031901126102ac576004356112f0816102b1565b6112f8611d6d565b6001600160a01b031633811461134e57600180546001600160a01b03191682179055600080546001600160a01b0316907fed8889f560326eb138920d842192f0eb3dd22b4f139c87a2c57538e05bae12789080a3005b60405162461bcd60e51b815260206004820152601760248201527f43616e6e6f74207472616e7366657220746f2073656c660000000000000000006044820152606490fd5b346102ac5760003660031901126102ac57602063ffffffff600c5460401c16604051908152f35b346102ac5760003660031901126102ac576020600d54604051908152f35b346102ac5760203660031901126102ac5760206113ff6004356113fa816102b1565b611cf4565b604051908152f35b6001600160401b0381116103975760051b60200190565b6040805190919061142f83826103d2565b6001815291601f19018260005b82811061144857505050565b80606060208093850101520161143c565b634e487b7160e01b600052603260045260246000fd5b80511561147c5760200190565b611459565b805182101561147c5760209160051b010190565b91611521611548916114ee6114e861157c95604051936114b48561039c565b60008552600060208601526000604086015260608086015260606080860152606060a0860152606060c0860152369161041f565b82612037565b61151c6114f961141e565b6115028761170b565b61150b8261146f565b526115158161146f565b50826117cf565b61192b565b600c5461153e6001600160401b0382169160401c63ffffffff1690565b90600b5492611b40565b9161155d83600052600e602052604060002090565b80546001600160a01b0319166001600160a01b03909216919091179055565b61047181600d55565b634e487b7160e01b600052601160045260246000fd5b60020190816002116111f657565b60030190816003116111f657565b90602082018092116111f657565b919082018092116111f657565b908160209103126102ac575190565b6040513d6000823e3d90fd5b908160209103126102ac575161047181610e03565b81601f820112156102ac5780359061161982611407565b9261162760405194856103d2565b82845260208085019360061b830101918183116102ac57602001925b828410611651575050505090565b6040848303126102ac576020604091825161166b816103b7565b8635611676816102b1565b81528287013583820152815201930192611643565b908160011b91808304600214901517156111f657565b906064820291808304606414901517156111f657565b818102929181159184041417156111f657565b81156116d4570490565b634e487b7160e01b600052601260045260246000fd5b80516001101561147c5760210190565b90815181101561147c570160200190565b90604051606061171b81836103d2565b602a8252601f190136602083013760306117348261146f565b536078611740826116ea565b5360005b6014811061175157509150565b6001906117a961177e606087901b6bffffffffffffffffffffffff1916831a611783600482901c600f1683565b612060565b6117a26117976117928761168b565b61159b565b9160001a91886116fa565b53600f1690565b6117c86117bd6117b88461168b565b6115a9565b9160001a91856116fa565b5301611744565b8151156117dc5760a00152565b63fe936cb760e01b60005260046000fd5b604051906117fc6040836103d2565b600c82526b31b7b232a637b1b0ba34b7b760a11b6020830152565b634e487b7160e01b600052602160045260246000fd5b6003111561183757565b611817565b6040519061184b6040836103d2565b60088252676c616e677561676560c01b6020830152565b6001111561183757565b6040519061187b6040836103d2565b6006825265736f7572636560d01b6020830152565b6040519061189f6040836103d2565b60048252636172677360e01b6020830152565b604051906118c16040836103d2565b600f82526e39b2b1b932ba39a637b1b0ba34b7b760891b6020830152565b604051906118ee6040836103d2565b60078252667365637265747360c81b6020830152565b604051906119136040836103d2565b600982526862797465734172677360b81b6020830152565b6119336120bc565b9061194561193f6117ed565b836120ed565b61196281516119538161182d565b61195c8161182d565b836121d6565b61196d61193f61183c565b611987604082015161197e81611862565b61195c81611862565b61199261193f61186c565b6119a06060820151836120ed565b60a08101805151611a9f575b506080810190815151611a20575b60c09150018051516119cd575b50515190565b916119d961193f611904565b6119e282612203565b60005b83518051821015611a0d5790611a07611a0082600194611481565b5185612266565b016119e5565b50509150611a1a81612243565b386119c7565b602081018051611a2f8161182d565b611a388161182d565b15611a8e5760c092611a71611a8992611a58611a526118b2565b886120ed565b51611a628161182d565b611a6b8161182d565b866121d6565b611a82611a7c6118df565b866120ed565b5184612266565b6119ba565b63a80d31f760e01b60005260046000fd5b92611ab1611aab611890565b846120ed565b611aba83612203565b60005b84518051821015611ae55790611adf611ad882600194611481565b51866120ed565b01611abd565b50509250611af282612243565b386119ac565b60005b838110611b0b5750506000910152565b8181015183820152602001611afb565b90602091611b3481518092818552858086019101611af8565b601f01601f1916010190565b92906020926001600160401b039263ffffffff611b7f604051978896879663230e93b160e11b885216600487015260a0602487015260a4860190611b1b565b60016044860152921660648401526084830152038160007f00000000000000000000000000000000000000000000000000000000000000006001600160a01b03165af19081156108e357600091611bfb575b50807f1131472297a800fee664d1d89cfa8f7676ff07189ecc53f80bbb5f4969099db8600080a290565b611c14915060203d6020116109215761091381836103d2565b38611bd1565b909151611cc057600052600e602052611c4b604060002060018060a01b0390541691602080825183010191016115d2565b906103e88211611cb6575b6001600160a01b0316600081815260096020908152604080832085905560068252918290206002810185905542600590910155905192835290917f79c012a0cfae660e09134956bc432c8497ec80e86a3a108d130e8b3fca52b3ad9190a2565b6103e89150611c56565b5050565b60018060a01b03166000526006602052604060002054604b810290808204604b14901517156111f6576064900490565b6001600160a01b0316600090815260066020908152604080832054600890925290912054908115611d65576050810290808204605014811517156111f6576804563918244f4000000290808204670de0b6b3a764000014901517156111f657611d5f610471926116a1565b906116ca565b505060001990565b6000546001600160a01b03163303611d8157565b60405162461bcd60e51b815260206004820152601660248201527527b7363c9031b0b63630b1363290313c9037bbb732b960511b6044820152606490fd5b6001600160a01b03909116815260406020820181905261047192910190611b1b565b80516001600160401b036020830151169160408101516020818051810103126102ac576020606091015191611e15836102b1565b015180518101906020818184019303126102ac576020810151906001600160401b0382116102ac57019181603f840112156102ac57602083015192611e5984610404565b92611e6760405194856103d2565b848452604082860101116102ac577fb1e312a29937cc11967b0e4a346fef1ae132424ebaba9dc6d90249dba053e87c93611ea8916040602086019101611af8565b604051918291611ec291906001600160a01b031683611dbf565b0390a3565b519069ffffffffffffffffffff821682036102ac57565b908160a09103126102ac57611ef281611ec7565b91602082015191604081015191610471608060608401519301611ec7565b15611f1757565b60405162461bcd60e51b815260206004820152600d60248201526c496e76616c696420707269636560981b6044820152606490fd5b6001600160a01b039081166000908152600a6020526040902054168015611fd55760a060049160405192838092633fabe5a360e21b82525afa9081156108e357600091611fa1575b5061047160008213611f10565b611fc3915060a03d60a011611fce575b611fbb81836103d2565b810190611ede565b505050905038611f94565b503d611fb1565b60405162461bcd60e51b8152602060048201526012602482015271141c9a58d94819995959081b9bdd081cd95d60721b6044820152606490fd5b61201881611cf4565b6001600160a01b03909116600090815260066020526040902060030155565b600082511561205157506000808252604082015260600152565b6322ce3edd60e01b8152600490fd5b60ff16600a8110156120875760300160ff81116111f65760f81b6001600160f81b03191690565b60570160ff81116111f65760f81b6001600160f81b03191690565b604051906120af826103b7565b6000602083606081520152565b6040516120c8816103b7565b60006120d26120a2565b8083526120e861010060208501928484526122ff565b505290565b815161213e9291906001600160401b031660178111612141578151612129916121239061211c60605b60ff1690565b1760ff1690565b90612481565b505b51906121356120a2565b508051916126eb565b50565b60ff811161216e578151612168919061216090601860605b1790612481565b50825161266b565b5061212b565b61ffff8111612193578151612168919061218b9060196060612159565b5082516125f2565b63ffffffff81116121ba57815161216891906121b290601a6060612159565b508251612579565b815161216891906121ce90601b6060612159565b5082516124fb565b90610402916121e58151612411565b50604051916020830152602082526121fe6040836103d2565b612266565b602090612212609f8251612481565b5001805190600182018092116111f65752565b601f198101919082116111f657565b6000198101919082116111f657565b60209061225260ff8251612481565b500180516000198101919082116111f65752565b815161213e9291906001600160401b031660178111612293578151612129916121239061211c6040612116565b60ff81116122af57815161216891906121609060186040612159565b61ffff81116122cc578151612168919061218b9060196040612159565b63ffffffff81116122eb57815161216891906121b290601a6040612159565b815161216891906121ce90601b6040612159565b906123086120a2565b50601f811680612337575b50806020830152604051908183526000825281016020019081106102ac5760405290565b602003602081116111f65781018091116111f65738612313565b9061235a6120a2565b5080516123656120a2565b5061237382518211156126e4565b8251519161238182846115c5565b90602085015182116123fa575b6020918551838151968201019582116123f2575b505001905b60208110156123cc57600019906020036101000a019081199051169082511617905290565b90916123e76123e16123ed92855181526115b7565b936115b7565b91612225565b6123a7565b5238806123a2565b61240c6124068361168b565b86612791565b61238e565b6124196120a2565b5080515160018101908181116111f6576020830151811015612452575b60c26020845192830101538051821161244e57505090565b5290565b8160011b828104600214831517156111f65761247b90612474855191866122ff565b5084612351565b50612436565b9061248a6120a2565b5081515160018101918282116111f65760208401518210156124bd575b6020845192830101538051821161244e57505090565b8260011b838104600214841517156111f6576124e6906124df865191876122ff565b5085612351565b506124a7565b601f81116111f6576101000a90565b906125046120a2565b508151518060080191826008116111f65760208401518311612551575b61253361252e60086124ec565b612234565b90600885519384010191198251161790528051821161244e57505090565b8260011b838104600214841517156111f657612573906124df865191876122ff565b50612521565b906125826120a2565b508151518060040191826004116111f657602084015183116125ca575b6125ac61252e60046124ec565b90600485519384010191198251161790528051821161244e57505090565b8260011b838104600214841517156111f6576125ec906124df865191876122ff565b5061259f565b906125fb6120a2565b508151518060020191826002116111f65760208401518311612643575b61262561252e60026124ec565b90600285519384010191198251161790528051821161244e57505090565b8260011b838104600214841517156111f657612665906124df865191876122ff565b50612618565b906126746120a2565b508151518060010191826001116111f657602084015183116126bc575b61269e61252e60016124ec565b90600185519384010191198251161790528051821161244e57505090565b8260011b838104600214841517156111f6576126de906124df865191876122ff565b50612691565b156102ac57565b916126f46120a2565b5061270282518211156126e4565b60208351519261271283856115c5565b82860151811161277a575b855183815196820101958211612772575b505001905b602081101561275857600019906020036101000a019081199051169082511617905290565b90916123e76123e161276d92855181526115b7565b612733565b52388061272e565b61278c6127868261168b565b87612791565b61271d565b9061213e916127a2815192826122ff565b5061235156fea2646970667358221220755ccfbe7b5fac0c08d3298f4d8411adcd1cbd3f131f27ec97ae9a0eaf6df97e64736f6c634300081c0033","opcodes":"PUSH1 0xC0 CALLVALUE PUSH2 0x165 JUMPI PUSH1 0x1F PUSH2 0x2973 CODESIZE DUP2 SWAP1 SUB SWAP2 DUP3 ADD PUSH1 0x1F NOT AND DUP4 ADD SWAP2 PUSH1 0x1 PUSH1 0x1 PUSH1 0x40 SHL SUB DUP4 GT DUP5 DUP5 LT OR PUSH2 0x16A JUMPI DUP1 DUP5 SWAP3 PUSH1 0x80 SWAP5 PUSH1 0x40 MSTORE DUP4 CODECOPY DUP2 ADD SUB SLT PUSH2 0x165 JUMPI PUSH2 0x47 DUP2 PUSH2 0x180 JUMP JUMPDEST SWAP1 PUSH2 0x54 PUSH1 0x20 DUP3 ADD PUSH2 0x180 JUMP JUMPDEST SWAP2 PUSH1 0x60 PUSH1 0x40 DUP4 ADD MLOAD SWAP3 ADD MLOAD SWAP2 PUSH1 0x1 DUP1 PUSH1 0x40 SHL SUB DUP4 AND DUP1 SWAP4 SUB PUSH2 0x165 JUMPI PUSH1 0x1 PUSH1 0x1 PUSH1 0xA0 SHL SUB DUP3 AND SWAP2 DUP3 ISZERO PUSH2 0x14F JUMPI PUSH1 0x80 MSTORE CALLER ISZERO PUSH2 0x10A JUMPI PUSH1 0x0 DUP1 SLOAD PUSH1 0x1 PUSH1 0x1 PUSH1 0xA0 SHL SUB NOT SWAP1 DUP2 AND CALLER OR SWAP1 SWAP2 SSTORE PUSH1 0x1 PUSH1 0x1 PUSH1 0xA0 SHL SUB SWAP1 SWAP5 AND PUSH1 0xA0 MSTORE PUSH1 0xC DUP1 SLOAD PUSH1 0x2 DUP1 SLOAD SWAP1 SWAP7 AND SWAP1 SWAP4 OR SWAP1 SWAP5 SSTORE PUSH1 0xB SSTORE PUSH1 0x1 PUSH1 0x1 PUSH1 0x60 SHL SUB NOT AND OR PUSH11 0x493E00000000000000000 OR SWAP1 SSTORE PUSH1 0x40 MLOAD PUSH2 0x27DE SWAP1 DUP2 PUSH2 0x195 DUP3 CODECOPY PUSH1 0x80 MLOAD DUP2 DUP2 DUP2 PUSH2 0xCB3 ADD MSTORE PUSH2 0x1083 ADD MSTORE PUSH1 0xA0 MLOAD DUP2 DUP2 DUP2 PUSH2 0x4C8 ADD MSTORE PUSH2 0x1B98 ADD MSTORE RETURN JUMPDEST PUSH1 0x40 MLOAD PUSH3 0x461BCD PUSH1 0xE5 SHL DUP2 MSTORE PUSH1 0x20 PUSH1 0x4 DUP3 ADD MSTORE PUSH1 0x18 PUSH1 0x24 DUP3 ADD MSTORE PUSH32 0x43616E6E6F7420736574206F776E657220746F207A65726F0000000000000000 PUSH1 0x44 DUP3 ADD MSTORE PUSH1 0x64 SWAP1 REVERT JUMPDEST PUSH4 0x35FDCCCD PUSH1 0xE2 SHL PUSH1 0x0 MSTORE PUSH1 0x0 PUSH1 0x4 MSTORE PUSH1 0x24 PUSH1 0x0 REVERT JUMPDEST PUSH1 0x0 DUP1 REVERT JUMPDEST PUSH4 0x4E487B71 PUSH1 0xE0 SHL PUSH1 0x0 MSTORE PUSH1 0x41 PUSH1 0x4 MSTORE PUSH1 0x24 PUSH1 0x0 REVERT JUMPDEST MLOAD SWAP1 PUSH1 0x1 PUSH1 0x1 PUSH1 0xA0 SHL SUB DUP3 AND DUP3 SUB PUSH2 0x165 JUMPI JUMP INVALID PUSH1 0x80 PUSH1 0x40 MSTORE PUSH1 0x4 CALLDATASIZE LT ISZERO PUSH2 0x1B JUMPI JUMPDEST CALLDATASIZE ISZERO PUSH2 0x19 JUMPI PUSH1 0x0 DUP1 REVERT JUMPDEST STOP JUMPDEST PUSH1 0x0 CALLDATALOAD PUSH1 0xE0 SHR DUP1 PUSH4 0x1FFC9A7 EQ PUSH2 0x256 JUMPI DUP1 PUSH4 0x7DE8394 EQ PUSH2 0x251 JUMPI DUP1 PUSH4 0x9C1BA2E EQ PUSH2 0x24C JUMPI DUP1 PUSH4 0xCA76175 EQ PUSH2 0x247 JUMPI DUP1 PUSH4 0x30268BB4 EQ PUSH2 0x242 JUMPI DUP1 PUSH4 0x332D56D7 EQ PUSH2 0x23D JUMPI DUP1 PUSH4 0x35E5B7BB EQ PUSH2 0x238 JUMPI DUP1 PUSH4 0x3AEAC4E1 EQ PUSH2 0x233 JUMPI DUP1 PUSH4 0x4030D521 EQ PUSH2 0x22E JUMPI DUP1 PUSH4 0x436D8039 EQ PUSH2 0x229 JUMPI DUP1 PUSH4 0x4DD601B4 EQ PUSH2 0x206 JUMPI DUP1 PUSH4 0x51CFF8D9 EQ PUSH2 0x224 JUMPI DUP1 PUSH4 0x6159ADA1 EQ PUSH2 0x21F JUMPI DUP1 PUSH4 0x75C67C66 EQ PUSH2 0x21A JUMPI DUP1 PUSH4 0x76E11286 EQ PUSH2 0x215 JUMPI DUP1 PUSH4 0x77593CC4 EQ PUSH2 0x210 JUMPI DUP1 PUSH4 0x79BA5097 EQ PUSH2 0x20B JUMPI DUP1 PUSH4 0x80BB7273 EQ PUSH2 0x206 JUMPI DUP1 PUSH4 0x81BF8D3D EQ PUSH2 0x201 JUMPI DUP1 PUSH4 0x85572FFB EQ PUSH2 0x1FC JUMPI DUP1 PUSH4 0x86DA4CB6 EQ PUSH2 0x1F7 JUMPI DUP1 PUSH4 0x8DA5CB5B EQ PUSH2 0x1F2 JUMPI DUP1 PUSH4 0x8DBE7B9D EQ PUSH2 0x1ED JUMPI DUP1 PUSH4 0x96D3B83D EQ PUSH2 0x1E8 JUMPI DUP1 PUSH4 0x97ED81CF EQ PUSH2 0x1E3 JUMPI DUP1 PUSH4 0x987EE156 EQ PUSH2 0x1DE JUMPI DUP1 PUSH4 0x9DCB511A EQ PUSH2 0x1D9 JUMPI DUP1 PUSH4 0xB0F479A1 EQ PUSH2 0x1D4 JUMPI DUP1 PUSH4 0xB5627E42 EQ PUSH2 0x1CF JUMPI DUP1 PUSH4 0xCC168D7C EQ PUSH2 0x1CA JUMPI DUP1 PUSH4 0xDB04FA49 EQ PUSH2 0x1C5 JUMPI DUP1 PUSH4 0xEAB5B02C EQ PUSH2 0x1C0 JUMPI DUP1 PUSH4 0xF2FDE38B EQ PUSH2 0x1BB JUMPI DUP1 PUSH4 0xF68016B7 EQ PUSH2 0x1B6 JUMPI DUP1 PUSH4 0xFC2A88C3 EQ PUSH2 0x1B1 JUMPI PUSH4 0xFE6BCD7C SUB PUSH2 0xE JUMPI PUSH2 0x13D8 JUMP JUMPDEST PUSH2 0x13BA JUMP JUMPDEST PUSH2 0x1393 JUMP JUMPDEST PUSH2 0x12D3 JUMP JUMPDEST PUSH2 0x1253 JUMP JUMPDEST PUSH2 0x11FB JUMP JUMPDEST PUSH2 0x10D5 JUMP JUMPDEST PUSH2 0x10B2 JUMP JUMPDEST PUSH2 0x106D JUMP JUMPDEST PUSH2 0x1028 JUMP JUMPDEST PUSH2 0xF38 JUMP JUMPDEST PUSH2 0xE95 JUMP JUMPDEST PUSH2 0xE0D JUMP JUMPDEST PUSH2 0xDE5 JUMP JUMPDEST PUSH2 0xDBC JUMP JUMPDEST PUSH2 0xDA0 JUMP JUMPDEST PUSH2 0xC81 JUMP JUMPDEST PUSH2 0xC65 JUMP JUMPDEST PUSH2 0x9AC JUMP JUMPDEST PUSH2 0xBA4 JUMP JUMPDEST PUSH2 0xB67 JUMP JUMPDEST PUSH2 0xAFA JUMP JUMPDEST PUSH2 0xABB JUMP JUMPDEST PUSH2 0xA79 JUMP JUMPDEST PUSH2 0x9E9 JUMP JUMPDEST PUSH2 0x967 JUMP JUMPDEST PUSH2 0x928 JUMP JUMPDEST PUSH2 0x826 JUMP JUMPDEST PUSH2 0x649 JUMP JUMPDEST PUSH2 0x56C JUMP JUMPDEST PUSH2 0x538 JUMP JUMPDEST PUSH2 0x474 JUMP JUMPDEST PUSH2 0x33F JUMP JUMPDEST PUSH2 0x2C2 JUMP JUMPDEST CALLVALUE PUSH2 0x2AC JUMPI PUSH1 0x20 CALLDATASIZE PUSH1 0x3 NOT ADD SLT PUSH2 0x2AC JUMPI PUSH1 0x4 CALLDATALOAD PUSH4 0xFFFFFFFF PUSH1 0xE0 SHL DUP2 AND DUP1 SWAP2 SUB PUSH2 0x2AC JUMPI PUSH1 0x20 SWAP1 PUSH4 0x85572FFB PUSH1 0xE0 SHL DUP2 EQ SWAP1 DUP2 ISZERO PUSH2 0x29B JUMPI JUMPDEST POP PUSH1 0x40 MLOAD SWAP1 ISZERO ISZERO DUP2 MSTORE RETURN JUMPDEST PUSH4 0x1FFC9A7 PUSH1 0xE0 SHL EQ SWAP1 POP CODESIZE PUSH2 0x290 JUMP JUMPDEST PUSH1 0x0 DUP1 REVERT JUMPDEST PUSH1 0x1 PUSH1 0x1 PUSH1 0xA0 SHL SUB DUP2 AND SUB PUSH2 0x2AC JUMPI JUMP JUMPDEST CALLVALUE PUSH2 0x2AC JUMPI PUSH1 0x40 CALLDATASIZE PUSH1 0x3 NOT ADD SLT PUSH2 0x2AC JUMPI PUSH1 0x4 CALLDATALOAD PUSH2 0x2DF DUP2 PUSH2 0x2B1 JUMP JUMPDEST PUSH1 0x24 CALLDATALOAD PUSH1 0x1 PUSH1 0x1 PUSH1 0x40 SHL SUB DUP2 GT PUSH2 0x2AC JUMPI CALLDATASIZE PUSH1 0x23 DUP3 ADD SLT ISZERO PUSH2 0x2AC JUMPI DUP1 PUSH1 0x4 ADD CALLDATALOAD PUSH1 0x1 PUSH1 0x1 PUSH1 0x40 SHL SUB DUP2 GT PUSH2 0x2AC JUMPI CALLDATASIZE PUSH1 0x24 DUP3 DUP5 ADD ADD GT PUSH2 0x2AC JUMPI PUSH2 0x33B SWAP3 PUSH1 0x24 PUSH2 0x32B SWAP4 ADD SWAP1 PUSH2 0x1495 JUMP JUMPDEST PUSH1 0x40 MLOAD SWAP1 DUP2 MSTORE SWAP1 DUP2 SWAP1 PUSH1 0x20 DUP3 ADD SWAP1 JUMP JUMPDEST SUB SWAP1 RETURN JUMPDEST CALLVALUE PUSH2 0x2AC JUMPI PUSH1 0x0 CALLDATASIZE PUSH1 0x3 NOT ADD SLT PUSH2 0x2AC JUMPI PUSH1 0x20 PUSH1 0x1 PUSH1 0x1 PUSH1 0x40 SHL SUB PUSH1 0xC SLOAD AND PUSH1 0x40 MLOAD SWAP1 DUP2 MSTORE RETURN JUMPDEST PUSH4 0x4E487B71 PUSH1 0xE0 SHL PUSH1 0x0 MSTORE PUSH1 0x41 PUSH1 0x4 MSTORE PUSH1 0x24 PUSH1 0x0 REVERT JUMPDEST PUSH1 0xC0 DUP2 ADD SWAP1 DUP2 LT PUSH1 0x1 PUSH1 0x1 PUSH1 0x40 SHL SUB DUP3 GT OR PUSH2 0x397 JUMPI PUSH1 0x40 MSTORE JUMP JUMPDEST PUSH2 0x366 JUMP JUMPDEST PUSH1 0xE0 DUP2 ADD SWAP1 DUP2 LT PUSH1 0x1 PUSH1 0x1 PUSH1 0x40 SHL SUB DUP3 GT OR PUSH2 0x397 JUMPI PUSH1 0x40 MSTORE JUMP JUMPDEST PUSH1 0x40 DUP2 ADD SWAP1 DUP2 LT PUSH1 0x1 PUSH1 0x1 PUSH1 0x40 SHL SUB DUP3 GT OR PUSH2 0x397 JUMPI PUSH1 0x40 MSTORE JUMP JUMPDEST SWAP1 PUSH1 0x1F DUP1 NOT SWAP2 ADD AND DUP2 ADD SWAP1 DUP2 LT PUSH1 0x1 PUSH1 0x1 PUSH1 0x40 SHL SUB DUP3 GT OR PUSH2 0x397 JUMPI PUSH1 0x40 MSTORE JUMP JUMPDEST PUSH1 0x40 MLOAD SWAP1 PUSH2 0x402 PUSH1 0xA0 DUP4 PUSH2 0x3D2 JUMP JUMPDEST JUMP JUMPDEST PUSH1 0x1 PUSH1 0x1 PUSH1 0x40 SHL SUB DUP2 GT PUSH2 0x397 JUMPI PUSH1 0x1F ADD PUSH1 0x1F NOT AND PUSH1 0x20 ADD SWAP1 JUMP JUMPDEST SWAP3 SWAP2 SWAP3 PUSH2 0x42B DUP3 PUSH2 0x404 JUMP JUMPDEST SWAP2 PUSH2 0x439 PUSH1 0x40 MLOAD SWAP4 DUP5 PUSH2 0x3D2 JUMP JUMPDEST DUP3 SWAP5 DUP2 DUP5 MSTORE DUP2 DUP4 ADD GT PUSH2 0x2AC JUMPI DUP3 DUP2 PUSH1 0x20 SWAP4 DUP5 PUSH1 0x0 SWAP7 ADD CALLDATACOPY ADD ADD MSTORE JUMP JUMPDEST SWAP1 DUP1 PUSH1 0x1F DUP4 ADD SLT ISZERO PUSH2 0x2AC JUMPI DUP2 PUSH1 0x20 PUSH2 0x471 SWAP4 CALLDATALOAD SWAP2 ADD PUSH2 0x41F JUMP JUMPDEST SWAP1 JUMP JUMPDEST CALLVALUE PUSH2 0x2AC JUMPI PUSH1 0x60 CALLDATASIZE PUSH1 0x3 NOT ADD SLT PUSH2 0x2AC JUMPI PUSH1 0x4 CALLDATALOAD PUSH1 0x24 CALLDATALOAD PUSH1 0x1 PUSH1 0x1 PUSH1 0x40 SHL SUB DUP2 GT PUSH2 0x2AC JUMPI PUSH2 0x4A7 SWAP1 CALLDATASIZE SWAP1 PUSH1 0x4 ADD PUSH2 0x456 JUMP JUMPDEST PUSH1 0x44 CALLDATALOAD PUSH1 0x1 PUSH1 0x1 PUSH1 0x40 SHL SUB DUP2 GT PUSH2 0x2AC JUMPI PUSH2 0x4C6 SWAP1 CALLDATASIZE SWAP1 PUSH1 0x4 ADD PUSH2 0x456 JUMP JUMPDEST PUSH32 0x0 PUSH1 0x1 PUSH1 0x1 PUSH1 0xA0 SHL SUB AND CALLER SUB PUSH2 0x527 JUMPI PUSH2 0x500 SWAP2 DUP4 PUSH2 0x1C1A JUMP JUMPDEST PUSH32 0x85E1543BF2F84FE80C6BADBCE3648C8539AD1DF4D2B3D822938CA0538BE727E6 PUSH1 0x0 DUP1 LOG2 STOP JUMPDEST PUSH4 0xC6829F83 PUSH1 0xE0 SHL PUSH1 0x0 MSTORE PUSH1 0x4 PUSH1 0x0 REVERT JUMPDEST CALLVALUE PUSH2 0x2AC JUMPI PUSH1 0x20 CALLDATASIZE PUSH1 0x3 NOT ADD SLT PUSH2 0x2AC JUMPI PUSH1 0x4 CALLDATALOAD PUSH1 0x0 MSTORE PUSH1 0xE PUSH1 0x20 MSTORE PUSH1 0x20 PUSH1 0x1 DUP1 PUSH1 0xA0 SHL SUB PUSH1 0x40 PUSH1 0x0 KECCAK256 SLOAD AND PUSH1 0x40 MLOAD SWAP1 DUP2 MSTORE RETURN JUMPDEST CALLVALUE PUSH2 0x2AC JUMPI PUSH1 0x20 CALLDATASIZE PUSH1 0x3 NOT ADD SLT PUSH2 0x2AC JUMPI PUSH1 0x4 CALLDATALOAD PUSH2 0x589 DUP2 PUSH2 0x2B1 JUMP JUMPDEST PUSH1 0x1 DUP1 PUSH1 0xA0 SHL SUB AND PUSH1 0x0 MSTORE PUSH1 0x6 PUSH1 0x20 MSTORE PUSH1 0x40 PUSH1 0x0 KECCAK256 DUP1 SLOAD PUSH2 0x33B PUSH1 0x1 DUP4 ADD SLOAD SWAP3 PUSH1 0x2 DUP2 ADD SLOAD SWAP1 PUSH1 0x3 DUP2 ADD SLOAD PUSH1 0x5 PUSH1 0xFF PUSH1 0x4 DUP5 ADD SLOAD AND SWAP3 ADD SLOAD SWAP3 PUSH1 0x40 MLOAD SWAP7 DUP8 SWAP7 DUP8 SWAP3 PUSH1 0xA0 SWAP5 SWAP2 SWAP8 SWAP7 SWAP6 SWAP3 PUSH1 0xC0 DUP6 ADD SWAP9 DUP6 MSTORE PUSH1 0x20 DUP6 ADD MSTORE PUSH1 0x40 DUP5 ADD MSTORE PUSH1 0x60 DUP4 ADD MSTORE ISZERO ISZERO PUSH1 0x80 DUP3 ADD MSTORE ADD MSTORE JUMP JUMPDEST PUSH1 0x44 CALLDATALOAD SWAP1 PUSH1 0x1 PUSH1 0x1 PUSH1 0x40 SHL SUB DUP3 AND DUP3 SUB PUSH2 0x2AC JUMPI JUMP JUMPDEST PUSH1 0x4 CALLDATALOAD SWAP1 PUSH1 0x1 PUSH1 0x1 PUSH1 0x40 SHL SUB DUP3 AND DUP3 SUB PUSH2 0x2AC JUMPI JUMP JUMPDEST PUSH1 0x64 CALLDATALOAD SWAP1 PUSH1 0x1 PUSH1 0x1 PUSH1 0x40 SHL SUB DUP3 AND DUP3 SUB PUSH2 0x2AC JUMPI JUMP JUMPDEST CALLDATALOAD SWAP1 PUSH1 0x1 PUSH1 0x1 PUSH1 0x40 SHL SUB DUP3 AND DUP3 SUB PUSH2 0x2AC JUMPI JUMP JUMPDEST CALLVALUE PUSH2 0x2AC JUMPI PUSH1 0x60 CALLDATASIZE PUSH1 0x3 NOT ADD SLT PUSH2 0x2AC JUMPI PUSH1 0x4 CALLDATALOAD PUSH2 0x666 DUP2 PUSH2 0x2B1 JUMP JUMPDEST PUSH1 0x24 CALLDATALOAD PUSH2 0x671 PUSH2 0x5F3 JUMP JUMPDEST PUSH1 0x1 PUSH1 0x1 PUSH1 0x40 SHL SUB DUP2 AND DUP1 PUSH1 0x0 MSTORE PUSH1 0x3 PUSH1 0x20 MSTORE PUSH1 0xFF PUSH1 0x40 PUSH1 0x0 KECCAK256 SLOAD AND ISZERO PUSH2 0x7ED JUMPI POP PUSH1 0x1 PUSH1 0x1 PUSH1 0xA0 SHL SUB DUP4 AND PUSH1 0x0 SWAP1 DUP2 MSTORE PUSH1 0x9 PUSH1 0x20 MSTORE PUSH1 0x40 SWAP1 KECCAK256 SLOAD SWAP3 PUSH2 0x1F4 DUP5 LT PUSH2 0x7DC JUMPI PUSH2 0x6BF DUP2 PUSH2 0x1CC4 JUMP JUMPDEST PUSH1 0x1 PUSH1 0x1 PUSH1 0xA0 SHL SUB DUP3 AND PUSH1 0x0 SWAP1 DUP2 MSTORE PUSH1 0x8 PUSH1 0x20 MSTORE PUSH1 0x40 SWAP1 KECCAK256 PUSH2 0x6E3 SWAP1 DUP6 SWAP1 SLOAD PUSH2 0x15C5 JUMP JUMPDEST SWAP1 DUP2 GT PUSH2 0x7CB JUMPI PUSH1 0x1 PUSH1 0x1 PUSH1 0xA0 SHL SUB DUP3 AND PUSH1 0x0 SWAP1 DUP2 MSTORE PUSH1 0x8 PUSH1 0x20 SWAP1 DUP2 MSTORE PUSH1 0x40 DUP1 DUP4 KECCAK256 DUP5 SWAP1 SSTORE PUSH1 0x6 SWAP1 SWAP2 MSTORE SWAP1 KECCAK256 PUSH1 0x1 DUP2 ADD SWAP2 SWAP1 SWAP2 SSTORE TIMESTAMP PUSH1 0x5 SWAP1 SWAP2 ADD SSTORE PUSH2 0x727 DUP2 PUSH2 0x1CF4 JUMP JUMPDEST SWAP4 PUSH8 0x14D1120D7B160000 DUP6 LT PUSH2 0x7B5 JUMPI PUSH2 0x7B0 SWAP1 PUSH32 0x22984F68941237D785BE47DBC3A4034A25A23BD9832C103015DD92ACE6247172 SWAP5 SWAP6 PUSH1 0x3 PUSH2 0x77C DUP6 PUSH1 0x1 DUP1 PUSH1 0xA0 SHL SUB AND PUSH1 0x0 MSTORE PUSH1 0x6 PUSH1 0x20 MSTORE PUSH1 0x40 PUSH1 0x0 KECCAK256 SWAP1 JUMP JUMPDEST ADD SSTORE PUSH1 0x40 DUP1 MLOAD SWAP7 DUP8 MSTORE PUSH1 0x1 PUSH1 0x1 PUSH1 0x40 SHL SUB SWAP1 SWAP5 AND PUSH1 0x20 DUP8 ADD MSTORE SWAP3 DUP6 ADD SWAP3 SWAP1 SWAP3 MSTORE PUSH1 0x1 PUSH1 0x1 PUSH1 0xA0 SHL SUB AND SWAP3 SWAP1 DUP2 SWAP1 PUSH1 0x60 DUP3 ADD SWAP1 JUMP JUMPDEST SUB SWAP1 LOG2 STOP JUMPDEST PUSH4 0xB8DFB2C1 PUSH1 0xE0 SHL PUSH1 0x0 MSTORE PUSH1 0x4 DUP6 SWAP1 MSTORE PUSH1 0x24 PUSH1 0x0 REVERT JUMPDEST PUSH4 0x3A23D825 PUSH1 0xE0 SHL PUSH1 0x0 MSTORE PUSH1 0x4 PUSH1 0x0 REVERT JUMPDEST PUSH4 0x1069B47 PUSH1 0xE2 SHL PUSH1 0x0 MSTORE PUSH1 0x4 PUSH1 0x0 REVERT JUMPDEST PUSH4 0x206ABAD7 PUSH1 0xE0 SHL PUSH1 0x0 MSTORE PUSH1 0x4 MSTORE PUSH1 0x24 PUSH1 0x0 REVERT JUMPDEST PUSH1 0x40 SWAP1 PUSH1 0x3 NOT ADD SLT PUSH2 0x2AC JUMPI PUSH1 0x4 CALLDATALOAD PUSH2 0x819 DUP2 PUSH2 0x2B1 JUMP JUMPDEST SWAP1 PUSH1 0x24 CALLDATALOAD PUSH2 0x471 DUP2 PUSH2 0x2B1 JUMP JUMPDEST CALLVALUE PUSH2 0x2AC JUMPI PUSH2 0x834 CALLDATASIZE PUSH2 0x801 JUMP JUMPDEST PUSH2 0x83C PUSH2 0x1D6D JUMP JUMPDEST PUSH1 0x40 MLOAD PUSH4 0x70A08231 PUSH1 0xE0 SHL DUP2 MSTORE ADDRESS PUSH1 0x4 DUP3 ADD MSTORE PUSH1 0x1 PUSH1 0x1 PUSH1 0xA0 SHL SUB SWAP2 SWAP1 SWAP2 AND SWAP2 SWAP1 PUSH1 0x20 DUP2 PUSH1 0x24 DUP2 DUP7 GAS STATICCALL SWAP1 DUP2 ISZERO PUSH2 0x8E3 JUMPI PUSH1 0x0 SWAP2 PUSH2 0x8F9 JUMPI JUMPDEST POP DUP1 ISZERO PUSH2 0x8E8 JUMPI PUSH1 0x40 MLOAD PUSH4 0xA9059CBB PUSH1 0xE0 SHL DUP2 MSTORE PUSH1 0x1 PUSH1 0x1 PUSH1 0xA0 SHL SUB SWAP3 SWAP1 SWAP3 AND PUSH1 0x4 DUP4 ADD MSTORE PUSH1 0x24 DUP3 ADD MSTORE SWAP1 PUSH1 0x20 SWAP1 DUP3 SWAP1 PUSH1 0x44 SWAP1 DUP3 SWAP1 PUSH1 0x0 SWAP1 GAS CALL DUP1 ISZERO PUSH2 0x8E3 JUMPI PUSH2 0x8BB JUMPI STOP JUMPDEST PUSH2 0x19 SWAP1 PUSH1 0x20 RETURNDATASIZE PUSH1 0x20 GT PUSH2 0x8DC JUMPI JUMPDEST PUSH2 0x8D4 DUP2 DUP4 PUSH2 0x3D2 JUMP JUMPDEST DUP2 ADD SWAP1 PUSH2 0x15ED JUMP JUMPDEST POP RETURNDATASIZE PUSH2 0x8CA JUMP JUMPDEST PUSH2 0x15E1 JUMP JUMPDEST PUSH4 0x686827B PUSH1 0xE5 SHL PUSH1 0x0 MSTORE PUSH1 0x4 PUSH1 0x0 REVERT JUMPDEST PUSH2 0x91B SWAP2 POP PUSH1 0x20 RETURNDATASIZE PUSH1 0x20 GT PUSH2 0x921 JUMPI JUMPDEST PUSH2 0x913 DUP2 DUP4 PUSH2 0x3D2 JUMP JUMPDEST DUP2 ADD SWAP1 PUSH2 0x15D2 JUMP JUMPDEST CODESIZE PUSH2 0x875 JUMP JUMPDEST POP RETURNDATASIZE PUSH2 0x909 JUMP JUMPDEST CALLVALUE PUSH2 0x2AC JUMPI PUSH1 0x20 CALLDATASIZE PUSH1 0x3 NOT ADD SLT PUSH2 0x2AC JUMPI PUSH1 0x1 PUSH1 0x1 PUSH1 0x40 SHL SUB PUSH2 0x949 PUSH2 0x609 JUMP JUMPDEST AND PUSH1 0x0 MSTORE PUSH1 0x4 PUSH1 0x20 MSTORE PUSH1 0x20 PUSH1 0xFF PUSH1 0x40 PUSH1 0x0 KECCAK256 SLOAD AND PUSH1 0x40 MLOAD SWAP1 ISZERO ISZERO DUP2 MSTORE RETURN JUMPDEST CALLVALUE PUSH2 0x2AC JUMPI PUSH1 0x20 PUSH2 0x9A3 PUSH2 0x97A CALLDATASIZE PUSH2 0x801 JUMP JUMPDEST PUSH1 0x1 PUSH1 0x1 PUSH1 0xA0 SHL SUB SWAP2 DUP3 AND PUSH1 0x0 SWAP1 DUP2 MSTORE PUSH1 0x7 DUP6 MSTORE PUSH1 0x40 DUP1 DUP3 KECCAK256 SWAP3 SWAP1 SWAP4 AND DUP2 MSTORE PUSH1 0x20 SWAP2 SWAP1 SWAP2 MSTORE KECCAK256 SWAP1 JUMP JUMPDEST SLOAD PUSH1 0x40 MLOAD SWAP1 DUP2 MSTORE RETURN JUMPDEST CALLVALUE PUSH2 0x2AC JUMPI PUSH1 0x20 CALLDATASIZE PUSH1 0x3 NOT ADD SLT PUSH2 0x2AC JUMPI PUSH1 0x4 CALLDATALOAD PUSH2 0x9C9 DUP2 PUSH2 0x2B1 JUMP JUMPDEST PUSH1 0x1 DUP1 PUSH1 0xA0 SHL SUB AND PUSH1 0x0 MSTORE PUSH1 0x9 PUSH1 0x20 MSTORE PUSH1 0x20 PUSH1 0x40 PUSH1 0x0 KECCAK256 SLOAD PUSH1 0x40 MLOAD SWAP1 DUP2 MSTORE RETURN JUMPDEST CALLVALUE PUSH2 0x2AC JUMPI PUSH1 0x20 CALLDATASIZE PUSH1 0x3 NOT ADD SLT PUSH2 0x2AC JUMPI PUSH1 0x4 CALLDATALOAD PUSH2 0xA06 DUP2 PUSH2 0x2B1 JUMP JUMPDEST PUSH2 0xA0E PUSH2 0x1D6D JUMP JUMPDEST SELFBALANCE DUP1 ISZERO PUSH2 0x8E8 JUMPI PUSH1 0x0 DUP1 DUP1 DUP1 DUP5 DUP7 GAS CALL RETURNDATASIZE ISZERO PUSH2 0xA74 JUMPI RETURNDATASIZE PUSH2 0xA2E DUP2 PUSH2 0x404 JUMP JUMPDEST SWAP1 PUSH2 0xA3C PUSH1 0x40 MLOAD SWAP3 DUP4 PUSH2 0x3D2 JUMP JUMPDEST DUP2 MSTORE PUSH1 0x0 PUSH1 0x20 RETURNDATASIZE SWAP3 ADD RETURNDATACOPY JUMPDEST ISZERO PUSH2 0xA4E JUMPI STOP JUMPDEST PUSH4 0x9D11F563 PUSH1 0xE0 SHL PUSH1 0x0 MSTORE CALLER PUSH1 0x4 MSTORE PUSH1 0x1 PUSH1 0x1 PUSH1 0xA0 SHL SUB SWAP1 SWAP2 AND PUSH1 0x24 MSTORE PUSH1 0x44 MSTORE PUSH1 0x64 PUSH1 0x0 REVERT JUMPDEST PUSH2 0xA47 JUMP JUMPDEST CALLVALUE PUSH2 0x2AC JUMPI PUSH1 0x20 CALLDATASIZE PUSH1 0x3 NOT ADD SLT PUSH2 0x2AC JUMPI PUSH1 0x4 CALLDATALOAD PUSH2 0xA96 DUP2 PUSH2 0x2B1 JUMP JUMPDEST PUSH1 0x1 DUP1 PUSH1 0xA0 SHL SUB AND PUSH1 0x0 MSTORE PUSH1 0x5 PUSH1 0x20 MSTORE PUSH1 0x20 PUSH1 0xFF PUSH1 0x40 PUSH1 0x0 KECCAK256 SLOAD AND PUSH1 0x40 MLOAD SWAP1 ISZERO ISZERO DUP2 MSTORE RETURN JUMPDEST CALLVALUE PUSH2 0x2AC JUMPI PUSH1 0x20 CALLDATASIZE PUSH1 0x3 NOT ADD SLT PUSH2 0x2AC JUMPI PUSH1 0x1 PUSH1 0x1 PUSH1 0x40 SHL SUB PUSH2 0xADC PUSH2 0x609 JUMP JUMPDEST AND PUSH1 0x0 MSTORE PUSH1 0x3 PUSH1 0x20 MSTORE PUSH1 0x20 PUSH1 0xFF PUSH1 0x40 PUSH1 0x0 KECCAK256 SLOAD AND PUSH1 0x40 MLOAD SWAP1 ISZERO ISZERO DUP2 MSTORE RETURN JUMPDEST CALLVALUE PUSH2 0x2AC JUMPI PUSH2 0xB08 CALLDATASIZE PUSH2 0x801 JUMP JUMPDEST SWAP1 PUSH2 0xB11 PUSH2 0x1D6D JUMP JUMPDEST PUSH1 0x1 PUSH1 0x1 PUSH1 0xA0 SHL SUB SWAP1 DUP2 AND PUSH1 0x0 DUP2 DUP2 MSTORE PUSH1 0xA PUSH1 0x20 MSTORE PUSH1 0x40 DUP2 KECCAK256 DUP1 SLOAD PUSH1 0x1 PUSH1 0x1 PUSH1 0xA0 SHL SUB NOT AND SWAP5 SWAP1 SWAP4 AND SWAP4 DUP5 OR SWAP1 SWAP3 SSTORE SWAP1 PUSH32 0xD2D8394CF7549A5DDBC2BA3DD7B2DE8D53C891472D1F2907008ED6A10045FDAE SWAP1 DUP1 LOG3 STOP JUMPDEST CALLVALUE PUSH2 0x2AC JUMPI PUSH1 0x20 CALLDATASIZE PUSH1 0x3 NOT ADD SLT PUSH2 0x2AC JUMPI PUSH1 0x4 CALLDATALOAD PUSH2 0xB84 DUP2 PUSH2 0x2B1 JUMP JUMPDEST PUSH1 0x1 DUP1 PUSH1 0xA0 SHL SUB AND PUSH1 0x0 MSTORE PUSH1 0x8 PUSH1 0x20 MSTORE PUSH1 0x20 PUSH1 0x40 PUSH1 0x0 KECCAK256 SLOAD PUSH1 0x40 MLOAD SWAP1 DUP2 MSTORE RETURN JUMPDEST CALLVALUE PUSH2 0x2AC JUMPI PUSH1 0x0 CALLDATASIZE PUSH1 0x3 NOT ADD SLT PUSH2 0x2AC JUMPI PUSH1 0x1 SLOAD PUSH1 0x1 PUSH1 0x1 PUSH1 0xA0 SHL SUB AND CALLER SUB PUSH2 0xC27 JUMPI PUSH1 0x0 SLOAD PUSH1 0x1 PUSH1 0x1 PUSH1 0xA0 SHL SUB AND PUSH1 0x0 DUP1 SLOAD PUSH1 0x1 PUSH1 0x1 PUSH1 0xA0 SHL SUB NOT AND CALLER OR SWAP1 SSTORE PUSH1 0x1 DUP1 SLOAD PUSH1 0x1 PUSH1 0x1 PUSH1 0xA0 SHL SUB NOT AND SWAP1 SSTORE CALLER SWAP1 PUSH1 0x1 PUSH1 0x1 PUSH1 0xA0 SHL SUB AND PUSH32 0x8BE0079C531659141344CD1FD0A4F28419497F9722A3DAAFE3B4186F6B6457E0 PUSH1 0x0 DUP1 LOG3 STOP JUMPDEST PUSH1 0x40 MLOAD PUSH3 0x461BCD PUSH1 0xE5 SHL DUP2 MSTORE PUSH1 0x20 PUSH1 0x4 DUP3 ADD MSTORE PUSH1 0x16 PUSH1 0x24 DUP3 ADD MSTORE PUSH22 0x26BAB9BA10313290383937B837B9B2B21037BBB732B9 PUSH1 0x51 SHL PUSH1 0x44 DUP3 ADD MSTORE PUSH1 0x64 SWAP1 REVERT JUMPDEST CALLVALUE PUSH2 0x2AC JUMPI PUSH1 0x0 CALLDATASIZE PUSH1 0x3 NOT ADD SLT PUSH2 0x2AC JUMPI PUSH1 0x20 PUSH1 0x40 MLOAD PUSH1 0x4B DUP2 MSTORE RETURN JUMPDEST CALLVALUE PUSH2 0x2AC JUMPI PUSH1 0x20 CALLDATASIZE PUSH1 0x3 NOT ADD SLT PUSH2 0x2AC JUMPI PUSH1 0x4 CALLDATALOAD PUSH1 0x1 PUSH1 0x1 PUSH1 0x40 SHL SUB DUP2 GT PUSH2 0x2AC JUMPI PUSH1 0xA0 PUSH1 0x3 NOT DUP3 CALLDATASIZE SUB ADD SLT PUSH2 0x2AC JUMPI PUSH32 0x0 PUSH1 0x1 PUSH1 0x1 PUSH1 0xA0 SHL SUB AND CALLER SUB PUSH2 0xD8B JUMPI PUSH1 0x0 SWAP1 PUSH2 0xCEC PUSH2 0x3F3 JUMP JUMPDEST DUP2 PUSH1 0x4 ADD CALLDATALOAD DUP2 MSTORE PUSH2 0xCFF PUSH1 0x24 DUP4 ADD PUSH2 0x635 JUMP JUMPDEST PUSH1 0x20 DUP3 ADD MSTORE PUSH1 0x44 DUP3 ADD CALLDATALOAD PUSH1 0x1 PUSH1 0x1 PUSH1 0x40 SHL SUB DUP2 GT PUSH2 0xD87 JUMPI PUSH2 0xD27 SWAP1 PUSH1 0x4 CALLDATASIZE SWAP2 DUP6 ADD ADD PUSH2 0x456 JUMP JUMPDEST PUSH1 0x40 DUP3 ADD MSTORE PUSH1 0x64 DUP3 ADD CALLDATALOAD PUSH1 0x1 PUSH1 0x1 PUSH1 0x40 SHL SUB DUP2 GT PUSH2 0xD87 JUMPI PUSH2 0xD4F SWAP1 PUSH1 0x4 CALLDATASIZE SWAP2 DUP6 ADD ADD PUSH2 0x456 JUMP JUMPDEST PUSH1 0x60 DUP3 ADD MSTORE PUSH1 0x84 DUP3 ADD CALLDATALOAD PUSH1 0x1 PUSH1 0x1 PUSH1 0x40 SHL SUB DUP2 GT PUSH2 0xD87 JUMPI PUSH2 0xD84 SWAP3 PUSH1 0x4 PUSH2 0xD7A SWAP3 CALLDATASIZE SWAP3 ADD ADD PUSH2 0x1602 JUMP JUMPDEST PUSH1 0x80 DUP3 ADD MSTORE PUSH2 0x1DE1 JUMP JUMPDEST DUP1 RETURN JUMPDEST DUP4 DUP1 REVERT JUMPDEST PUSH4 0x35FDCCCD PUSH1 0xE2 SHL PUSH1 0x0 MSTORE CALLER PUSH1 0x4 MSTORE PUSH1 0x24 PUSH1 0x0 REVERT JUMPDEST CALLVALUE PUSH2 0x2AC JUMPI PUSH1 0x0 CALLDATASIZE PUSH1 0x3 NOT ADD SLT PUSH2 0x2AC JUMPI PUSH1 0x20 PUSH1 0x40 MLOAD PUSH1 0xA DUP2 MSTORE RETURN JUMPDEST CALLVALUE PUSH2 0x2AC JUMPI PUSH1 0x0 CALLDATASIZE PUSH1 0x3 NOT ADD SLT PUSH2 0x2AC JUMPI PUSH1 0x0 SLOAD PUSH1 0x40 MLOAD PUSH1 0x1 PUSH1 0x1 PUSH1 0xA0 SHL SUB SWAP1 SWAP2 AND DUP2 MSTORE PUSH1 0x20 SWAP1 RETURN JUMPDEST CALLVALUE PUSH2 0x2AC JUMPI PUSH1 0x0 CALLDATASIZE PUSH1 0x3 NOT ADD SLT PUSH2 0x2AC JUMPI PUSH1 0x20 PUSH1 0xB SLOAD PUSH1 0x40 MLOAD SWAP1 DUP2 MSTORE RETURN JUMPDEST DUP1 ISZERO ISZERO SUB PUSH2 0x2AC JUMPI JUMP JUMPDEST CALLVALUE PUSH2 0x2AC JUMPI PUSH1 0x40 CALLDATASIZE PUSH1 0x3 NOT ADD SLT PUSH2 0x2AC JUMPI PUSH2 0xE26 PUSH2 0x609 JUMP JUMPDEST PUSH32 0x9E831877A5C5B0C6BF39118C59F437DE0882033FF7D60A84DBC1F453584A0D11 PUSH1 0x20 PUSH1 0x1 PUSH1 0x1 PUSH1 0x40 SHL SUB PUSH1 0x24 CALLDATALOAD SWAP4 PUSH2 0xE5E DUP6 PUSH2 0xE03 JUMP JUMPDEST PUSH2 0xE66 PUSH2 0x1D6D JUMP JUMPDEST AND SWAP3 DUP4 PUSH1 0x0 MSTORE PUSH1 0x3 DUP3 MSTORE PUSH2 0xE8A DUP2 PUSH1 0x40 PUSH1 0x0 KECCAK256 SWAP1 PUSH1 0xFF DUP1 NOT DUP4 SLOAD AND SWAP2 ISZERO ISZERO AND OR SWAP1 SSTORE JUMP JUMPDEST PUSH1 0x40 MLOAD SWAP1 ISZERO ISZERO DUP2 MSTORE LOG2 STOP JUMPDEST CALLVALUE PUSH2 0x2AC JUMPI PUSH1 0x40 CALLDATASIZE PUSH1 0x3 NOT ADD SLT PUSH2 0x2AC JUMPI PUSH1 0x4 CALLDATALOAD PUSH2 0xEB2 DUP2 PUSH2 0x2B1 JUMP JUMPDEST PUSH1 0x24 CALLDATALOAD PUSH2 0xEBD PUSH2 0x1D6D JUMP JUMPDEST PUSH2 0x3E8 DUP2 GT PUSH2 0xF2F JUMPI JUMPDEST PUSH1 0x1 PUSH1 0x1 PUSH1 0xA0 SHL SUB SWAP2 SWAP1 SWAP2 AND PUSH1 0x0 DUP2 DUP2 MSTORE PUSH1 0x9 PUSH1 0x20 SWAP1 DUP2 MSTORE PUSH1 0x40 DUP1 DUP4 KECCAK256 DUP6 SWAP1 SSTORE PUSH1 0x6 DUP3 MSTORE SWAP2 DUP3 SWAP1 KECCAK256 PUSH1 0x2 DUP2 ADD DUP6 SWAP1 SSTORE TIMESTAMP PUSH1 0x5 SWAP1 SWAP2 ADD SSTORE SWAP1 MLOAD SWAP3 DUP4 MSTORE SWAP1 SWAP2 PUSH32 0x79C012A0CFAE660E09134956BC432C8497EC80E86A3A108D130E8B3FCA52B3AD SWAP2 DUP2 SWAP1 DUP2 ADD PUSH2 0x7B0 JUMP JUMPDEST POP PUSH2 0x3E8 PUSH2 0xEC7 JUMP JUMPDEST CALLVALUE PUSH2 0x2AC JUMPI PUSH1 0x20 CALLDATASIZE PUSH1 0x3 NOT ADD SLT PUSH2 0x2AC JUMPI PUSH1 0x4 CALLDATALOAD PUSH2 0xF55 DUP2 PUSH2 0x2B1 JUMP JUMPDEST PUSH1 0x0 PUSH1 0xA0 PUSH1 0x40 MLOAD PUSH2 0xF65 DUP2 PUSH2 0x37C JUMP JUMPDEST DUP3 DUP2 MSTORE DUP3 PUSH1 0x20 DUP3 ADD MSTORE DUP3 PUSH1 0x40 DUP3 ADD MSTORE DUP3 PUSH1 0x60 DUP3 ADD MSTORE DUP3 PUSH1 0x80 DUP3 ADD MSTORE ADD MSTORE PUSH1 0x1 DUP1 PUSH1 0xA0 SHL SUB AND PUSH1 0x0 MSTORE PUSH1 0x6 PUSH1 0x20 MSTORE PUSH2 0x33B PUSH1 0x40 PUSH1 0x0 KECCAK256 PUSH1 0x5 PUSH1 0x40 MLOAD SWAP2 PUSH2 0xFA9 DUP4 PUSH2 0x37C JUMP JUMPDEST DUP1 SLOAD DUP4 MSTORE PUSH1 0x1 DUP2 ADD SLOAD PUSH1 0x20 DUP5 ADD MSTORE PUSH1 0x2 DUP2 ADD SLOAD PUSH1 0x40 DUP5 ADD MSTORE PUSH1 0x3 DUP2 ADD SLOAD PUSH1 0x60 DUP5 ADD MSTORE PUSH1 0xFF PUSH1 0x4 DUP3 ADD SLOAD AND ISZERO ISZERO PUSH1 0x80 DUP5 ADD MSTORE ADD SLOAD PUSH1 0xA0 DUP3 ADD MSTORE PUSH1 0x40 MLOAD SWAP2 DUP3 SWAP2 DUP3 SWAP2 SWAP1 SWAP2 PUSH1 0xA0 DUP1 PUSH1 0xC0 DUP4 ADD SWAP5 DUP1 MLOAD DUP5 MSTORE PUSH1 0x20 DUP2 ADD MLOAD PUSH1 0x20 DUP6 ADD MSTORE PUSH1 0x40 DUP2 ADD MLOAD PUSH1 0x40 DUP6 ADD MSTORE PUSH1 0x60 DUP2 ADD MLOAD PUSH1 0x60 DUP6 ADD MSTORE PUSH1 0x80 DUP2 ADD MLOAD ISZERO ISZERO PUSH1 0x80 DUP6 ADD MSTORE ADD MLOAD SWAP2 ADD MSTORE JUMP JUMPDEST CALLVALUE PUSH2 0x2AC JUMPI PUSH1 0x20 CALLDATASIZE PUSH1 0x3 NOT ADD SLT PUSH2 0x2AC JUMPI PUSH1 0x4 CALLDATALOAD PUSH2 0x1045 DUP2 PUSH2 0x2B1 JUMP JUMPDEST PUSH1 0x1 DUP1 PUSH1 0xA0 SHL SUB AND PUSH1 0x0 MSTORE PUSH1 0xA PUSH1 0x20 MSTORE PUSH1 0x20 PUSH1 0x1 DUP1 PUSH1 0xA0 SHL SUB PUSH1 0x40 PUSH1 0x0 KECCAK256 SLOAD AND PUSH1 0x40 MLOAD SWAP1 DUP2 MSTORE RETURN JUMPDEST CALLVALUE PUSH2 0x2AC JUMPI PUSH1 0x0 CALLDATASIZE PUSH1 0x3 NOT ADD SLT PUSH2 0x2AC JUMPI PUSH1 0x40 MLOAD PUSH32 0x0 PUSH1 0x1 PUSH1 0x1 PUSH1 0xA0 SHL SUB AND DUP2 MSTORE PUSH1 0x20 SWAP1 RETURN JUMPDEST CALLVALUE PUSH2 0x2AC JUMPI PUSH1 0x0 CALLDATASIZE PUSH1 0x3 NOT ADD SLT PUSH2 0x2AC JUMPI PUSH1 0x20 PUSH1 0x40 MLOAD PUSH8 0x14D1120D7B160000 DUP2 MSTORE RETURN JUMPDEST CALLVALUE PUSH2 0x2AC JUMPI PUSH1 0x80 CALLDATASIZE PUSH1 0x3 NOT ADD SLT PUSH2 0x2AC JUMPI PUSH1 0x4 CALLDATALOAD PUSH2 0x10F2 DUP2 PUSH2 0x2B1 JUMP JUMPDEST PUSH1 0x24 CALLDATALOAD PUSH2 0x10FE DUP2 PUSH2 0x2B1 JUMP JUMPDEST PUSH1 0x44 CALLDATALOAD SWAP2 PUSH2 0x110A PUSH2 0x61F JUMP JUMPDEST PUSH1 0x1 PUSH1 0x1 PUSH1 0xA0 SHL SUB DUP3 DUP2 AND PUSH1 0x0 DUP2 DUP2 MSTORE PUSH1 0x7 PUSH1 0x20 SWAP1 DUP2 MSTORE PUSH1 0x40 DUP1 DUP4 KECCAK256 SWAP5 DUP9 AND DUP4 MSTORE SWAP4 SWAP1 MSTORE SWAP2 SWAP1 SWAP2 KECCAK256 SWAP1 SWAP4 SWAP1 DUP1 SLOAD SWAP4 DUP7 DUP6 ADD DUP1 SWAP6 GT PUSH2 0x11F6 JUMPI PUSH32 0xF664B7CF4A6EB64372B17892837E5EDA83DC15187B074FF156CF853D8BF1E220 SWAP5 PUSH2 0x11D1 SWAP3 SSTORE PUSH2 0x1188 PUSH2 0x117E PUSH2 0x1178 DUP6 PUSH2 0x1F4C JUMP JUMPDEST DUP10 PUSH2 0x16B7 JUMP JUMPDEST PUSH4 0x5F5E100 SWAP1 DIV SWAP1 JUMP JUMPDEST PUSH1 0x1 PUSH1 0x1 PUSH1 0xA0 SHL SUB DUP3 AND PUSH1 0x0 SWAP1 DUP2 MSTORE PUSH1 0x6 PUSH1 0x20 MSTORE PUSH1 0x40 SWAP1 KECCAK256 PUSH2 0x11AC SWAP1 SWAP2 DUP3 SLOAD PUSH2 0x15C5 JUMP JUMPDEST SWAP1 SSTORE PUSH1 0x1 PUSH1 0x1 PUSH1 0xA0 SHL SUB DUP2 AND PUSH1 0x0 SWAP1 DUP2 MSTORE PUSH1 0x6 PUSH1 0x20 MSTORE PUSH1 0x40 SWAP1 KECCAK256 TIMESTAMP SWAP1 PUSH1 0x5 ADD SSTORE PUSH2 0x200F JUMP JUMPDEST PUSH1 0x40 DUP1 MLOAD SWAP6 DUP7 MSTORE PUSH1 0x1 PUSH1 0x1 PUSH1 0x40 SHL SUB SWAP3 SWAP1 SWAP3 AND PUSH1 0x20 DUP7 ADD MSTORE PUSH1 0x1 PUSH1 0x1 PUSH1 0xA0 SHL SUB AND SWAP4 LOG3 STOP JUMPDEST PUSH2 0x1585 JUMP JUMPDEST CALLVALUE PUSH2 0x2AC JUMPI PUSH1 0x40 CALLDATASIZE PUSH1 0x3 NOT ADD SLT PUSH2 0x2AC JUMPI PUSH2 0x19 PUSH2 0x1217 PUSH2 0x609 JUMP JUMPDEST PUSH1 0x1 PUSH1 0x1 PUSH1 0x40 SHL SUB PUSH1 0x24 CALLDATALOAD SWAP2 PUSH2 0x122C DUP4 PUSH2 0xE03 JUMP JUMPDEST PUSH2 0x1234 PUSH2 0x1D6D JUMP JUMPDEST AND PUSH1 0x0 MSTORE PUSH1 0x4 PUSH1 0x20 MSTORE PUSH1 0x40 PUSH1 0x0 KECCAK256 SWAP1 PUSH1 0xFF DUP1 NOT DUP4 SLOAD AND SWAP2 ISZERO ISZERO AND OR SWAP1 SSTORE JUMP JUMPDEST CALLVALUE PUSH2 0x2AC JUMPI PUSH1 0x40 CALLDATASIZE PUSH1 0x3 NOT ADD SLT PUSH2 0x2AC JUMPI PUSH1 0x4 CALLDATALOAD PUSH2 0x1270 DUP2 PUSH2 0x2B1 JUMP JUMPDEST PUSH32 0x9A3D70B7815E59466FFFDF86A6FDA9753A1D8228523B33DB2345E12200B3030C PUSH1 0x20 PUSH1 0x24 CALLDATALOAD SWAP3 PUSH2 0x12A0 DUP5 PUSH2 0xE03 JUMP JUMPDEST PUSH2 0x12A8 PUSH2 0x1D6D JUMP JUMPDEST PUSH1 0x1 PUSH1 0x1 PUSH1 0xA0 SHL SUB AND PUSH1 0x0 DUP2 DUP2 MSTORE PUSH1 0x5 DUP4 MSTORE PUSH1 0x40 SWAP1 KECCAK256 DUP1 SLOAD PUSH1 0xFF NOT AND PUSH1 0xFF DUP7 ISZERO ISZERO AND OR SWAP1 SSTORE SWAP3 PUSH2 0xE8A JUMP JUMPDEST CALLVALUE PUSH2 0x2AC JUMPI PUSH1 0x20 CALLDATASIZE PUSH1 0x3 NOT ADD SLT PUSH2 0x2AC JUMPI PUSH1 0x4 CALLDATALOAD PUSH2 0x12F0 DUP2 PUSH2 0x2B1 JUMP JUMPDEST PUSH2 0x12F8 PUSH2 0x1D6D JUMP JUMPDEST PUSH1 0x1 PUSH1 0x1 PUSH1 0xA0 SHL SUB AND CALLER DUP2 EQ PUSH2 0x134E JUMPI PUSH1 0x1 DUP1 SLOAD PUSH1 0x1 PUSH1 0x1 PUSH1 0xA0 SHL SUB NOT AND DUP3 OR SWAP1 SSTORE PUSH1 0x0 DUP1 SLOAD PUSH1 0x1 PUSH1 0x1 PUSH1 0xA0 SHL SUB AND SWAP1 PUSH32 0xED8889F560326EB138920D842192F0EB3DD22B4F139C87A2C57538E05BAE1278 SWAP1 DUP1 LOG3 STOP JUMPDEST PUSH1 0x40 MLOAD PUSH3 0x461BCD PUSH1 0xE5 SHL DUP2 MSTORE PUSH1 0x20 PUSH1 0x4 DUP3 ADD MSTORE PUSH1 0x17 PUSH1 0x24 DUP3 ADD MSTORE PUSH32 0x43616E6E6F74207472616E7366657220746F2073656C66000000000000000000 PUSH1 0x44 DUP3 ADD MSTORE PUSH1 0x64 SWAP1 REVERT JUMPDEST CALLVALUE PUSH2 0x2AC JUMPI PUSH1 0x0 CALLDATASIZE PUSH1 0x3 NOT ADD SLT PUSH2 0x2AC JUMPI PUSH1 0x20 PUSH4 0xFFFFFFFF PUSH1 0xC SLOAD PUSH1 0x40 SHR AND PUSH1 0x40 MLOAD SWAP1 DUP2 MSTORE RETURN JUMPDEST CALLVALUE PUSH2 0x2AC JUMPI PUSH1 0x0 CALLDATASIZE PUSH1 0x3 NOT ADD SLT PUSH2 0x2AC JUMPI PUSH1 0x20 PUSH1 0xD SLOAD PUSH1 0x40 MLOAD SWAP1 DUP2 MSTORE RETURN JUMPDEST CALLVALUE PUSH2 0x2AC JUMPI PUSH1 0x20 CALLDATASIZE PUSH1 0x3 NOT ADD SLT PUSH2 0x2AC JUMPI PUSH1 0x20 PUSH2 0x13FF PUSH1 0x4 CALLDATALOAD PUSH2 0x13FA DUP2 PUSH2 0x2B1 JUMP JUMPDEST PUSH2 0x1CF4 JUMP JUMPDEST PUSH1 0x40 MLOAD SWAP1 DUP2 MSTORE RETURN JUMPDEST PUSH1 0x1 PUSH1 0x1 PUSH1 0x40 SHL SUB DUP2 GT PUSH2 0x397 JUMPI PUSH1 0x5 SHL PUSH1 0x20 ADD SWAP1 JUMP JUMPDEST PUSH1 0x40 DUP1 MLOAD SWAP1 SWAP2 SWAP1 PUSH2 0x142F DUP4 DUP3 PUSH2 0x3D2 JUMP JUMPDEST PUSH1 0x1 DUP2 MSTORE SWAP2 PUSH1 0x1F NOT ADD DUP3 PUSH1 0x0 JUMPDEST DUP3 DUP2 LT PUSH2 0x1448 JUMPI POP POP POP JUMP JUMPDEST DUP1 PUSH1 0x60 PUSH1 0x20 DUP1 SWAP4 DUP6 ADD ADD MSTORE ADD PUSH2 0x143C JUMP JUMPDEST PUSH4 0x4E487B71 PUSH1 0xE0 SHL PUSH1 0x0 MSTORE PUSH1 0x32 PUSH1 0x4 MSTORE PUSH1 0x24 PUSH1 0x0 REVERT JUMPDEST DUP1 MLOAD ISZERO PUSH2 0x147C JUMPI PUSH1 0x20 ADD SWAP1 JUMP JUMPDEST PUSH2 0x1459 JUMP JUMPDEST DUP1 MLOAD DUP3 LT ISZERO PUSH2 0x147C JUMPI PUSH1 0x20 SWAP2 PUSH1 0x5 SHL ADD ADD SWAP1 JUMP JUMPDEST SWAP2 PUSH2 0x1521 PUSH2 0x1548 SWAP2 PUSH2 0x14EE PUSH2 0x14E8 PUSH2 0x157C SWAP6 PUSH1 0x40 MLOAD SWAP4 PUSH2 0x14B4 DUP6 PUSH2 0x39C JUMP JUMPDEST PUSH1 0x0 DUP6 MSTORE PUSH1 0x0 PUSH1 0x20 DUP7 ADD MSTORE PUSH1 0x0 PUSH1 0x40 DUP7 ADD MSTORE PUSH1 0x60 DUP1 DUP7 ADD MSTORE PUSH1 0x60 PUSH1 0x80 DUP7 ADD MSTORE PUSH1 0x60 PUSH1 0xA0 DUP7 ADD MSTORE PUSH1 0x60 PUSH1 0xC0 DUP7 ADD MSTORE CALLDATASIZE SWAP2 PUSH2 0x41F JUMP JUMPDEST DUP3 PUSH2 0x2037 JUMP JUMPDEST PUSH2 0x151C PUSH2 0x14F9 PUSH2 0x141E JUMP JUMPDEST PUSH2 0x1502 DUP8 PUSH2 0x170B JUMP JUMPDEST PUSH2 0x150B DUP3 PUSH2 0x146F JUMP JUMPDEST MSTORE PUSH2 0x1515 DUP2 PUSH2 0x146F JUMP JUMPDEST POP DUP3 PUSH2 0x17CF JUMP JUMPDEST PUSH2 0x192B JUMP JUMPDEST PUSH1 0xC SLOAD PUSH2 0x153E PUSH1 0x1 PUSH1 0x1 PUSH1 0x40 SHL SUB DUP3 AND SWAP2 PUSH1 0x40 SHR PUSH4 0xFFFFFFFF AND SWAP1 JUMP JUMPDEST SWAP1 PUSH1 0xB SLOAD SWAP3 PUSH2 0x1B40 JUMP JUMPDEST SWAP2 PUSH2 0x155D DUP4 PUSH1 0x0 MSTORE PUSH1 0xE PUSH1 0x20 MSTORE PUSH1 0x40 PUSH1 0x0 KECCAK256 SWAP1 JUMP JUMPDEST DUP1 SLOAD PUSH1 0x1 PUSH1 0x1 PUSH1 0xA0 SHL SUB NOT AND PUSH1 0x1 PUSH1 0x1 PUSH1 0xA0 SHL SUB SWAP1 SWAP3 AND SWAP2 SWAP1 SWAP2 OR SWAP1 SSTORE JUMP JUMPDEST PUSH2 0x471 DUP2 PUSH1 0xD SSTORE JUMP JUMPDEST PUSH4 0x4E487B71 PUSH1 0xE0 SHL PUSH1 0x0 MSTORE PUSH1 0x11 PUSH1 0x4 MSTORE PUSH1 0x24 PUSH1 0x0 REVERT JUMPDEST PUSH1 0x2 ADD SWAP1 DUP2 PUSH1 0x2 GT PUSH2 0x11F6 JUMPI JUMP JUMPDEST PUSH1 0x3 ADD SWAP1 DUP2 PUSH1 0x3 GT PUSH2 0x11F6 JUMPI JUMP JUMPDEST SWAP1 PUSH1 0x20 DUP3 ADD DUP1 SWAP3 GT PUSH2 0x11F6 JUMPI JUMP JUMPDEST SWAP2 SWAP1 DUP3 ADD DUP1 SWAP3 GT PUSH2 0x11F6 JUMPI JUMP JUMPDEST SWAP1 DUP2 PUSH1 0x20 SWAP2 SUB SLT PUSH2 0x2AC JUMPI MLOAD SWAP1 JUMP JUMPDEST PUSH1 0x40 MLOAD RETURNDATASIZE PUSH1 0x0 DUP3 RETURNDATACOPY RETURNDATASIZE SWAP1 REVERT JUMPDEST SWAP1 DUP2 PUSH1 0x20 SWAP2 SUB SLT PUSH2 0x2AC JUMPI MLOAD PUSH2 0x471 DUP2 PUSH2 0xE03 JUMP JUMPDEST DUP2 PUSH1 0x1F DUP3 ADD SLT ISZERO PUSH2 0x2AC JUMPI DUP1 CALLDATALOAD SWAP1 PUSH2 0x1619 DUP3 PUSH2 0x1407 JUMP JUMPDEST SWAP3 PUSH2 0x1627 PUSH1 0x40 MLOAD SWAP5 DUP6 PUSH2 0x3D2 JUMP JUMPDEST DUP3 DUP5 MSTORE PUSH1 0x20 DUP1 DUP6 ADD SWAP4 PUSH1 0x6 SHL DUP4 ADD ADD SWAP2 DUP2 DUP4 GT PUSH2 0x2AC JUMPI PUSH1 0x20 ADD SWAP3 JUMPDEST DUP3 DUP5 LT PUSH2 0x1651 JUMPI POP POP POP POP SWAP1 JUMP JUMPDEST PUSH1 0x40 DUP5 DUP4 SUB SLT PUSH2 0x2AC JUMPI PUSH1 0x20 PUSH1 0x40 SWAP2 DUP3 MLOAD PUSH2 0x166B DUP2 PUSH2 0x3B7 JUMP JUMPDEST DUP7 CALLDATALOAD PUSH2 0x1676 DUP2 PUSH2 0x2B1 JUMP JUMPDEST DUP2 MSTORE DUP3 DUP8 ADD CALLDATALOAD DUP4 DUP3 ADD MSTORE DUP2 MSTORE ADD SWAP4 ADD SWAP3 PUSH2 0x1643 JUMP JUMPDEST SWAP1 DUP2 PUSH1 0x1 SHL SWAP2 DUP1 DUP4 DIV PUSH1 0x2 EQ SWAP1 ISZERO OR ISZERO PUSH2 0x11F6 JUMPI JUMP JUMPDEST SWAP1 PUSH1 0x64 DUP3 MUL SWAP2 DUP1 DUP4 DIV PUSH1 0x64 EQ SWAP1 ISZERO OR ISZERO PUSH2 0x11F6 JUMPI JUMP JUMPDEST DUP2 DUP2 MUL SWAP3 SWAP2 DUP2 ISZERO SWAP2 DUP5 DIV EQ OR ISZERO PUSH2 0x11F6 JUMPI JUMP JUMPDEST DUP2 ISZERO PUSH2 0x16D4 JUMPI DIV SWAP1 JUMP JUMPDEST PUSH4 0x4E487B71 PUSH1 0xE0 SHL PUSH1 0x0 MSTORE PUSH1 0x12 PUSH1 0x4 MSTORE PUSH1 0x24 PUSH1 0x0 REVERT JUMPDEST DUP1 MLOAD PUSH1 0x1 LT ISZERO PUSH2 0x147C JUMPI PUSH1 0x21 ADD SWAP1 JUMP JUMPDEST SWAP1 DUP2 MLOAD DUP2 LT ISZERO PUSH2 0x147C JUMPI ADD PUSH1 0x20 ADD SWAP1 JUMP JUMPDEST SWAP1 PUSH1 0x40 MLOAD PUSH1 0x60 PUSH2 0x171B DUP2 DUP4 PUSH2 0x3D2 JUMP JUMPDEST PUSH1 0x2A DUP3 MSTORE PUSH1 0x1F NOT ADD CALLDATASIZE PUSH1 0x20 DUP4 ADD CALLDATACOPY PUSH1 0x30 PUSH2 0x1734 DUP3 PUSH2 0x146F JUMP JUMPDEST MSTORE8 PUSH1 0x78 PUSH2 0x1740 DUP3 PUSH2 0x16EA JUMP JUMPDEST MSTORE8 PUSH1 0x0 JUMPDEST PUSH1 0x14 DUP2 LT PUSH2 0x1751 JUMPI POP SWAP2 POP JUMP JUMPDEST PUSH1 0x1 SWAP1 PUSH2 0x17A9 PUSH2 0x177E PUSH1 0x60 DUP8 SWAP1 SHL PUSH12 0xFFFFFFFFFFFFFFFFFFFFFFFF NOT AND DUP4 BYTE PUSH2 0x1783 PUSH1 0x4 DUP3 SWAP1 SHR PUSH1 0xF AND DUP4 JUMP JUMPDEST PUSH2 0x2060 JUMP JUMPDEST PUSH2 0x17A2 PUSH2 0x1797 PUSH2 0x1792 DUP8 PUSH2 0x168B JUMP JUMPDEST PUSH2 0x159B JUMP JUMPDEST SWAP2 PUSH1 0x0 BYTE SWAP2 DUP9 PUSH2 0x16FA JUMP JUMPDEST MSTORE8 PUSH1 0xF AND SWAP1 JUMP JUMPDEST PUSH2 0x17C8 PUSH2 0x17BD PUSH2 0x17B8 DUP5 PUSH2 0x168B JUMP JUMPDEST PUSH2 0x15A9 JUMP JUMPDEST SWAP2 PUSH1 0x0 BYTE SWAP2 DUP6 PUSH2 0x16FA JUMP JUMPDEST MSTORE8 ADD PUSH2 0x1744 JUMP JUMPDEST DUP2 MLOAD ISZERO PUSH2 0x17DC JUMPI PUSH1 0xA0 ADD MSTORE JUMP JUMPDEST PUSH4 0xFE936CB7 PUSH1 0xE0 SHL PUSH1 0x0 MSTORE PUSH1 0x4 PUSH1 0x0 REVERT JUMPDEST PUSH1 0x40 MLOAD SWAP1 PUSH2 0x17FC PUSH1 0x40 DUP4 PUSH2 0x3D2 JUMP JUMPDEST PUSH1 0xC DUP3 MSTORE PUSH12 0x31B7B232A637B1B0BA34B7B7 PUSH1 0xA1 SHL PUSH1 0x20 DUP4 ADD MSTORE JUMP JUMPDEST PUSH4 0x4E487B71 PUSH1 0xE0 SHL PUSH1 0x0 MSTORE PUSH1 0x21 PUSH1 0x4 MSTORE PUSH1 0x24 PUSH1 0x0 REVERT JUMPDEST PUSH1 0x3 GT ISZERO PUSH2 0x1837 JUMPI JUMP JUMPDEST PUSH2 0x1817 JUMP JUMPDEST PUSH1 0x40 MLOAD SWAP1 PUSH2 0x184B PUSH1 0x40 DUP4 PUSH2 0x3D2 JUMP JUMPDEST PUSH1 0x8 DUP3 MSTORE PUSH8 0x6C616E6775616765 PUSH1 0xC0 SHL PUSH1 0x20 DUP4 ADD MSTORE JUMP JUMPDEST PUSH1 0x1 GT ISZERO PUSH2 0x1837 JUMPI JUMP JUMPDEST PUSH1 0x40 MLOAD SWAP1 PUSH2 0x187B PUSH1 0x40 DUP4 PUSH2 0x3D2 JUMP JUMPDEST PUSH1 0x6 DUP3 MSTORE PUSH6 0x736F75726365 PUSH1 0xD0 SHL PUSH1 0x20 DUP4 ADD MSTORE JUMP JUMPDEST PUSH1 0x40 MLOAD SWAP1 PUSH2 0x189F PUSH1 0x40 DUP4 PUSH2 0x3D2 JUMP JUMPDEST PUSH1 0x4 DUP3 MSTORE PUSH4 0x61726773 PUSH1 0xE0 SHL PUSH1 0x20 DUP4 ADD MSTORE JUMP JUMPDEST PUSH1 0x40 MLOAD SWAP1 PUSH2 0x18C1 PUSH1 0x40 DUP4 PUSH2 0x3D2 JUMP JUMPDEST PUSH1 0xF DUP3 MSTORE PUSH15 0x39B2B1B932BA39A637B1B0BA34B7B7 PUSH1 0x89 SHL PUSH1 0x20 DUP4 ADD MSTORE JUMP JUMPDEST PUSH1 0x40 MLOAD SWAP1 PUSH2 0x18EE PUSH1 0x40 DUP4 PUSH2 0x3D2 JUMP JUMPDEST PUSH1 0x7 DUP3 MSTORE PUSH7 0x73656372657473 PUSH1 0xC8 SHL PUSH1 0x20 DUP4 ADD MSTORE JUMP JUMPDEST PUSH1 0x40 MLOAD SWAP1 PUSH2 0x1913 PUSH1 0x40 DUP4 PUSH2 0x3D2 JUMP JUMPDEST PUSH1 0x9 DUP3 MSTORE PUSH9 0x627974657341726773 PUSH1 0xB8 SHL PUSH1 0x20 DUP4 ADD MSTORE JUMP JUMPDEST PUSH2 0x1933 PUSH2 0x20BC JUMP JUMPDEST SWAP1 PUSH2 0x1945 PUSH2 0x193F PUSH2 0x17ED JUMP JUMPDEST DUP4 PUSH2 0x20ED JUMP JUMPDEST PUSH2 0x1962 DUP2 MLOAD PUSH2 0x1953 DUP2 PUSH2 0x182D JUMP JUMPDEST PUSH2 0x195C DUP2 PUSH2 0x182D JUMP JUMPDEST DUP4 PUSH2 0x21D6 JUMP JUMPDEST PUSH2 0x196D PUSH2 0x193F PUSH2 0x183C JUMP JUMPDEST PUSH2 0x1987 PUSH1 0x40 DUP3 ADD MLOAD PUSH2 0x197E DUP2 PUSH2 0x1862 JUMP JUMPDEST PUSH2 0x195C DUP2 PUSH2 0x1862 JUMP JUMPDEST PUSH2 0x1992 PUSH2 0x193F PUSH2 0x186C JUMP JUMPDEST PUSH2 0x19A0 PUSH1 0x60 DUP3 ADD MLOAD DUP4 PUSH2 0x20ED JUMP JUMPDEST PUSH1 0xA0 DUP2 ADD DUP1 MLOAD MLOAD PUSH2 0x1A9F JUMPI JUMPDEST POP PUSH1 0x80 DUP2 ADD SWAP1 DUP2 MLOAD MLOAD PUSH2 0x1A20 JUMPI JUMPDEST PUSH1 0xC0 SWAP2 POP ADD DUP1 MLOAD MLOAD PUSH2 0x19CD JUMPI JUMPDEST POP MLOAD MLOAD SWAP1 JUMP JUMPDEST SWAP2 PUSH2 0x19D9 PUSH2 0x193F PUSH2 0x1904 JUMP JUMPDEST PUSH2 0x19E2 DUP3 PUSH2 0x2203 JUMP JUMPDEST PUSH1 0x0 JUMPDEST DUP4 MLOAD DUP1 MLOAD DUP3 LT ISZERO PUSH2 0x1A0D JUMPI SWAP1 PUSH2 0x1A07 PUSH2 0x1A00 DUP3 PUSH1 0x1 SWAP5 PUSH2 0x1481 JUMP JUMPDEST MLOAD DUP6 PUSH2 0x2266 JUMP JUMPDEST ADD PUSH2 0x19E5 JUMP JUMPDEST POP POP SWAP2 POP PUSH2 0x1A1A DUP2 PUSH2 0x2243 JUMP JUMPDEST CODESIZE PUSH2 0x19C7 JUMP JUMPDEST PUSH1 0x20 DUP2 ADD DUP1 MLOAD PUSH2 0x1A2F DUP2 PUSH2 0x182D JUMP JUMPDEST PUSH2 0x1A38 DUP2 PUSH2 0x182D JUMP JUMPDEST ISZERO PUSH2 0x1A8E JUMPI PUSH1 0xC0 SWAP3 PUSH2 0x1A71 PUSH2 0x1A89 SWAP3 PUSH2 0x1A58 PUSH2 0x1A52 PUSH2 0x18B2 JUMP JUMPDEST DUP9 PUSH2 0x20ED JUMP JUMPDEST MLOAD PUSH2 0x1A62 DUP2 PUSH2 0x182D JUMP JUMPDEST PUSH2 0x1A6B DUP2 PUSH2 0x182D JUMP JUMPDEST DUP7 PUSH2 0x21D6 JUMP JUMPDEST PUSH2 0x1A82 PUSH2 0x1A7C PUSH2 0x18DF JUMP JUMPDEST DUP7 PUSH2 0x20ED JUMP JUMPDEST MLOAD DUP5 PUSH2 0x2266 JUMP JUMPDEST PUSH2 0x19BA JUMP JUMPDEST PUSH4 0xA80D31F7 PUSH1 0xE0 SHL PUSH1 0x0 MSTORE PUSH1 0x4 PUSH1 0x0 REVERT JUMPDEST SWAP3 PUSH2 0x1AB1 PUSH2 0x1AAB PUSH2 0x1890 JUMP JUMPDEST DUP5 PUSH2 0x20ED JUMP JUMPDEST PUSH2 0x1ABA DUP4 PUSH2 0x2203 JUMP JUMPDEST PUSH1 0x0 JUMPDEST DUP5 MLOAD DUP1 MLOAD DUP3 LT ISZERO PUSH2 0x1AE5 JUMPI SWAP1 PUSH2 0x1ADF PUSH2 0x1AD8 DUP3 PUSH1 0x1 SWAP5 PUSH2 0x1481 JUMP JUMPDEST MLOAD DUP7 PUSH2 0x20ED JUMP JUMPDEST ADD PUSH2 0x1ABD JUMP JUMPDEST POP POP SWAP3 POP PUSH2 0x1AF2 DUP3 PUSH2 0x2243 JUMP JUMPDEST CODESIZE PUSH2 0x19AC JUMP JUMPDEST PUSH1 0x0 JUMPDEST DUP4 DUP2 LT PUSH2 0x1B0B JUMPI POP POP PUSH1 0x0 SWAP2 ADD MSTORE JUMP JUMPDEST DUP2 DUP2 ADD MLOAD DUP4 DUP3 ADD MSTORE PUSH1 0x20 ADD PUSH2 0x1AFB JUMP JUMPDEST SWAP1 PUSH1 0x20 SWAP2 PUSH2 0x1B34 DUP2 MLOAD DUP1 SWAP3 DUP2 DUP6 MSTORE DUP6 DUP1 DUP7 ADD SWAP2 ADD PUSH2 0x1AF8 JUMP JUMPDEST PUSH1 0x1F ADD PUSH1 0x1F NOT AND ADD ADD SWAP1 JUMP JUMPDEST SWAP3 SWAP1 PUSH1 0x20 SWAP3 PUSH1 0x1 PUSH1 0x1 PUSH1 0x40 SHL SUB SWAP3 PUSH4 0xFFFFFFFF PUSH2 0x1B7F PUSH1 0x40 MLOAD SWAP8 DUP9 SWAP7 DUP8 SWAP7 PUSH4 0x230E93B1 PUSH1 0xE1 SHL DUP9 MSTORE AND PUSH1 0x4 DUP8 ADD MSTORE PUSH1 0xA0 PUSH1 0x24 DUP8 ADD MSTORE PUSH1 0xA4 DUP7 ADD SWAP1 PUSH2 0x1B1B JUMP JUMPDEST PUSH1 0x1 PUSH1 0x44 DUP7 ADD MSTORE SWAP3 AND PUSH1 0x64 DUP5 ADD MSTORE PUSH1 0x84 DUP4 ADD MSTORE SUB DUP2 PUSH1 0x0 PUSH32 0x0 PUSH1 0x1 PUSH1 0x1 PUSH1 0xA0 SHL SUB AND GAS CALL SWAP1 DUP2 ISZERO PUSH2 0x8E3 JUMPI PUSH1 0x0 SWAP2 PUSH2 0x1BFB JUMPI JUMPDEST POP DUP1 PUSH32 0x1131472297A800FEE664D1D89CFA8F7676FF07189ECC53F80BBB5F4969099DB8 PUSH1 0x0 DUP1 LOG2 SWAP1 JUMP JUMPDEST PUSH2 0x1C14 SWAP2 POP PUSH1 0x20 RETURNDATASIZE PUSH1 0x20 GT PUSH2 0x921 JUMPI PUSH2 0x913 DUP2 DUP4 PUSH2 0x3D2 JUMP JUMPDEST CODESIZE PUSH2 0x1BD1 JUMP JUMPDEST SWAP1 SWAP2 MLOAD PUSH2 0x1CC0 JUMPI PUSH1 0x0 MSTORE PUSH1 0xE PUSH1 0x20 MSTORE PUSH2 0x1C4B PUSH1 0x40 PUSH1 0x0 KECCAK256 PUSH1 0x1 DUP1 PUSH1 0xA0 SHL SUB SWAP1 SLOAD AND SWAP2 PUSH1 0x20 DUP1 DUP3 MLOAD DUP4 ADD ADD SWAP2 ADD PUSH2 0x15D2 JUMP JUMPDEST SWAP1 PUSH2 0x3E8 DUP3 GT PUSH2 0x1CB6 JUMPI JUMPDEST PUSH1 0x1 PUSH1 0x1 PUSH1 0xA0 SHL SUB AND PUSH1 0x0 DUP2 DUP2 MSTORE PUSH1 0x9 PUSH1 0x20 SWAP1 DUP2 MSTORE PUSH1 0x40 DUP1 DUP4 KECCAK256 DUP6 SWAP1 SSTORE PUSH1 0x6 DUP3 MSTORE SWAP2 DUP3 SWAP1 KECCAK256 PUSH1 0x2 DUP2 ADD DUP6 SWAP1 SSTORE TIMESTAMP PUSH1 0x5 SWAP1 SWAP2 ADD SSTORE SWAP1 MLOAD SWAP3 DUP4 MSTORE SWAP1 SWAP2 PUSH32 0x79C012A0CFAE660E09134956BC432C8497EC80E86A3A108D130E8B3FCA52B3AD SWAP2 SWAP1 LOG2 JUMP JUMPDEST PUSH2 0x3E8 SWAP2 POP PUSH2 0x1C56 JUMP JUMPDEST POP POP JUMP JUMPDEST PUSH1 0x1 DUP1 PUSH1 0xA0 SHL SUB AND PUSH1 0x0 MSTORE PUSH1 0x6 PUSH1 0x20 MSTORE PUSH1 0x40 PUSH1 0x0 KECCAK256 SLOAD PUSH1 0x4B DUP2 MUL SWAP1 DUP1 DUP3 DIV PUSH1 0x4B EQ SWAP1 ISZERO OR ISZERO PUSH2 0x11F6 JUMPI PUSH1 0x64 SWAP1 DIV SWAP1 JUMP JUMPDEST PUSH1 0x1 PUSH1 0x1 PUSH1 0xA0 SHL SUB AND PUSH1 0x0 SWAP1 DUP2 MSTORE PUSH1 0x6 PUSH1 0x20 SWAP1 DUP2 MSTORE PUSH1 0x40 DUP1 DUP4 KECCAK256 SLOAD PUSH1 0x8 SWAP1 SWAP3 MSTORE SWAP1 SWAP2 KECCAK256 SLOAD SWAP1 DUP2 ISZERO PUSH2 0x1D65 JUMPI PUSH1 0x50 DUP2 MUL SWAP1 DUP1 DUP3 DIV PUSH1 0x50 EQ DUP2 ISZERO OR ISZERO PUSH2 0x11F6 JUMPI PUSH9 0x4563918244F400000 MUL SWAP1 DUP1 DUP3 DIV PUSH8 0xDE0B6B3A7640000 EQ SWAP1 ISZERO OR ISZERO PUSH2 0x11F6 JUMPI PUSH2 0x1D5F PUSH2 0x471 SWAP3 PUSH2 0x16A1 JUMP JUMPDEST SWAP1 PUSH2 0x16CA JUMP JUMPDEST POP POP PUSH1 0x0 NOT SWAP1 JUMP JUMPDEST PUSH1 0x0 SLOAD PUSH1 0x1 PUSH1 0x1 PUSH1 0xA0 SHL SUB AND CALLER SUB PUSH2 0x1D81 JUMPI JUMP JUMPDEST PUSH1 0x40 MLOAD PUSH3 0x461BCD PUSH1 0xE5 SHL DUP2 MSTORE PUSH1 0x20 PUSH1 0x4 DUP3 ADD MSTORE PUSH1 0x16 PUSH1 0x24 DUP3 ADD MSTORE PUSH22 0x27B7363C9031B0B63630B1363290313C9037BBB732B9 PUSH1 0x51 SHL PUSH1 0x44 DUP3 ADD MSTORE PUSH1 0x64 SWAP1 REVERT JUMPDEST PUSH1 0x1 PUSH1 0x1 PUSH1 0xA0 SHL SUB SWAP1 SWAP2 AND DUP2 MSTORE PUSH1 0x40 PUSH1 0x20 DUP3 ADD DUP2 SWAP1 MSTORE PUSH2 0x471 SWAP3 SWAP2 ADD SWAP1 PUSH2 0x1B1B JUMP JUMPDEST DUP1 MLOAD PUSH1 0x1 PUSH1 0x1 PUSH1 0x40 SHL SUB PUSH1 0x20 DUP4 ADD MLOAD AND SWAP2 PUSH1 0x40 DUP2 ADD MLOAD PUSH1 0x20 DUP2 DUP1 MLOAD DUP2 ADD SUB SLT PUSH2 0x2AC JUMPI PUSH1 0x20 PUSH1 0x60 SWAP2 ADD MLOAD SWAP2 PUSH2 0x1E15 DUP4 PUSH2 0x2B1 JUMP JUMPDEST ADD MLOAD DUP1 MLOAD DUP2 ADD SWAP1 PUSH1 0x20 DUP2 DUP2 DUP5 ADD SWAP4 SUB SLT PUSH2 0x2AC JUMPI PUSH1 0x20 DUP2 ADD MLOAD SWAP1 PUSH1 0x1 PUSH1 0x1 PUSH1 0x40 SHL SUB DUP3 GT PUSH2 0x2AC JUMPI ADD SWAP2 DUP2 PUSH1 0x3F DUP5 ADD SLT ISZERO PUSH2 0x2AC JUMPI PUSH1 0x20 DUP4 ADD MLOAD SWAP3 PUSH2 0x1E59 DUP5 PUSH2 0x404 JUMP JUMPDEST SWAP3 PUSH2 0x1E67 PUSH1 0x40 MLOAD SWAP5 DUP6 PUSH2 0x3D2 JUMP JUMPDEST DUP5 DUP5 MSTORE PUSH1 0x40 DUP3 DUP7 ADD ADD GT PUSH2 0x2AC JUMPI PUSH32 0xB1E312A29937CC11967B0E4A346FEF1AE132424EBABA9DC6D90249DBA053E87C SWAP4 PUSH2 0x1EA8 SWAP2 PUSH1 0x40 PUSH1 0x20 DUP7 ADD SWAP2 ADD PUSH2 0x1AF8 JUMP JUMPDEST PUSH1 0x40 MLOAD SWAP2 DUP3 SWAP2 PUSH2 0x1EC2 SWAP2 SWAP1 PUSH1 0x1 PUSH1 0x1 PUSH1 0xA0 SHL SUB AND DUP4 PUSH2 0x1DBF JUMP JUMPDEST SUB SWAP1 LOG3 JUMP JUMPDEST MLOAD SWAP1 PUSH10 0xFFFFFFFFFFFFFFFFFFFF DUP3 AND DUP3 SUB PUSH2 0x2AC JUMPI JUMP JUMPDEST SWAP1 DUP2 PUSH1 0xA0 SWAP2 SUB SLT PUSH2 0x2AC JUMPI PUSH2 0x1EF2 DUP2 PUSH2 0x1EC7 JUMP JUMPDEST SWAP2 PUSH1 0x20 DUP3 ADD MLOAD SWAP2 PUSH1 0x40 DUP2 ADD MLOAD SWAP2 PUSH2 0x471 PUSH1 0x80 PUSH1 0x60 DUP5 ADD MLOAD SWAP4 ADD PUSH2 0x1EC7 JUMP JUMPDEST ISZERO PUSH2 0x1F17 JUMPI JUMP JUMPDEST PUSH1 0x40 MLOAD PUSH3 0x461BCD PUSH1 0xE5 SHL DUP2 MSTORE PUSH1 0x20 PUSH1 0x4 DUP3 ADD MSTORE PUSH1 0xD PUSH1 0x24 DUP3 ADD MSTORE PUSH13 0x496E76616C6964207072696365 PUSH1 0x98 SHL PUSH1 0x44 DUP3 ADD MSTORE PUSH1 0x64 SWAP1 REVERT JUMPDEST PUSH1 0x1 PUSH1 0x1 PUSH1 0xA0 SHL SUB SWAP1 DUP2 AND PUSH1 0x0 SWAP1 DUP2 MSTORE PUSH1 0xA PUSH1 0x20 MSTORE PUSH1 0x40 SWAP1 KECCAK256 SLOAD AND DUP1 ISZERO PUSH2 0x1FD5 JUMPI PUSH1 0xA0 PUSH1 0x4 SWAP2 PUSH1 0x40 MLOAD SWAP3 DUP4 DUP1 SWAP3 PUSH4 0x3FABE5A3 PUSH1 0xE2 SHL DUP3 MSTORE GAS STATICCALL SWAP1 DUP2 ISZERO PUSH2 0x8E3 JUMPI PUSH1 0x0 SWAP2 PUSH2 0x1FA1 JUMPI JUMPDEST POP PUSH2 0x471 PUSH1 0x0 DUP3 SGT PUSH2 0x1F10 JUMP JUMPDEST PUSH2 0x1FC3 SWAP2 POP PUSH1 0xA0 RETURNDATASIZE PUSH1 0xA0 GT PUSH2 0x1FCE JUMPI JUMPDEST PUSH2 0x1FBB DUP2 DUP4 PUSH2 0x3D2 JUMP JUMPDEST DUP2 ADD SWAP1 PUSH2 0x1EDE JUMP JUMPDEST POP POP POP SWAP1 POP CODESIZE PUSH2 0x1F94 JUMP JUMPDEST POP RETURNDATASIZE PUSH2 0x1FB1 JUMP JUMPDEST PUSH1 0x40 MLOAD PUSH3 0x461BCD PUSH1 0xE5 SHL DUP2 MSTORE PUSH1 0x20 PUSH1 0x4 DUP3 ADD MSTORE PUSH1 0x12 PUSH1 0x24 DUP3 ADD MSTORE PUSH18 0x141C9A58D94819995959081B9BDD081CD95D PUSH1 0x72 SHL PUSH1 0x44 DUP3 ADD MSTORE PUSH1 0x64 SWAP1 REVERT JUMPDEST PUSH2 0x2018 DUP2 PUSH2 0x1CF4 JUMP JUMPDEST PUSH1 0x1 PUSH1 0x1 PUSH1 0xA0 SHL SUB SWAP1 SWAP2 AND PUSH1 0x0 SWAP1 DUP2 MSTORE PUSH1 0x6 PUSH1 0x20 MSTORE PUSH1 0x40 SWAP1 KECCAK256 PUSH1 0x3 ADD SSTORE JUMP JUMPDEST PUSH1 0x0 DUP3 MLOAD ISZERO PUSH2 0x2051 JUMPI POP PUSH1 0x0 DUP1 DUP3 MSTORE PUSH1 0x40 DUP3 ADD MSTORE PUSH1 0x60 ADD MSTORE JUMP JUMPDEST PUSH4 0x22CE3EDD PUSH1 0xE0 SHL DUP2 MSTORE PUSH1 0x4 SWAP1 REVERT JUMPDEST PUSH1 0xFF AND PUSH1 0xA DUP2 LT ISZERO PUSH2 0x2087 JUMPI PUSH1 0x30 ADD PUSH1 0xFF DUP2 GT PUSH2 0x11F6 JUMPI PUSH1 0xF8 SHL PUSH1 0x1 PUSH1 0x1 PUSH1 0xF8 SHL SUB NOT AND SWAP1 JUMP JUMPDEST PUSH1 0x57 ADD PUSH1 0xFF DUP2 GT PUSH2 0x11F6 JUMPI PUSH1 0xF8 SHL PUSH1 0x1 PUSH1 0x1 PUSH1 0xF8 SHL SUB NOT AND SWAP1 JUMP JUMPDEST PUSH1 0x40 MLOAD SWAP1 PUSH2 0x20AF DUP3 PUSH2 0x3B7 JUMP JUMPDEST PUSH1 0x0 PUSH1 0x20 DUP4 PUSH1 0x60 DUP2 MSTORE ADD MSTORE JUMP JUMPDEST PUSH1 0x40 MLOAD PUSH2 0x20C8 DUP2 PUSH2 0x3B7 JUMP JUMPDEST PUSH1 0x0 PUSH2 0x20D2 PUSH2 0x20A2 JUMP JUMPDEST DUP1 DUP4 MSTORE PUSH2 0x20E8 PUSH2 0x100 PUSH1 0x20 DUP6 ADD SWAP3 DUP5 DUP5 MSTORE PUSH2 0x22FF JUMP JUMPDEST POP MSTORE SWAP1 JUMP JUMPDEST DUP2 MLOAD PUSH2 0x213E SWAP3 SWAP2 SWAP1 PUSH1 0x1 PUSH1 0x1 PUSH1 0x40 SHL SUB AND PUSH1 0x17 DUP2 GT PUSH2 0x2141 JUMPI DUP2 MLOAD PUSH2 0x2129 SWAP2 PUSH2 0x2123 SWAP1 PUSH2 0x211C PUSH1 0x60 JUMPDEST PUSH1 0xFF AND SWAP1 JUMP JUMPDEST OR PUSH1 0xFF AND SWAP1 JUMP JUMPDEST SWAP1 PUSH2 0x2481 JUMP JUMPDEST POP JUMPDEST MLOAD SWAP1 PUSH2 0x2135 PUSH2 0x20A2 JUMP JUMPDEST POP DUP1 MLOAD SWAP2 PUSH2 0x26EB JUMP JUMPDEST POP JUMP JUMPDEST PUSH1 0xFF DUP2 GT PUSH2 0x216E JUMPI DUP2 MLOAD PUSH2 0x2168 SWAP2 SWAP1 PUSH2 0x2160 SWAP1 PUSH1 0x18 PUSH1 0x60 JUMPDEST OR SWAP1 PUSH2 0x2481 JUMP JUMPDEST POP DUP3 MLOAD PUSH2 0x266B JUMP JUMPDEST POP PUSH2 0x212B JUMP JUMPDEST PUSH2 0xFFFF DUP2 GT PUSH2 0x2193 JUMPI DUP2 MLOAD PUSH2 0x2168 SWAP2 SWAP1 PUSH2 0x218B SWAP1 PUSH1 0x19 PUSH1 0x60 PUSH2 0x2159 JUMP JUMPDEST POP DUP3 MLOAD PUSH2 0x25F2 JUMP JUMPDEST PUSH4 0xFFFFFFFF DUP2 GT PUSH2 0x21BA JUMPI DUP2 MLOAD PUSH2 0x2168 SWAP2 SWAP1 PUSH2 0x21B2 SWAP1 PUSH1 0x1A PUSH1 0x60 PUSH2 0x2159 JUMP JUMPDEST POP DUP3 MLOAD PUSH2 0x2579 JUMP JUMPDEST DUP2 MLOAD PUSH2 0x2168 SWAP2 SWAP1 PUSH2 0x21CE SWAP1 PUSH1 0x1B PUSH1 0x60 PUSH2 0x2159 JUMP JUMPDEST POP DUP3 MLOAD PUSH2 0x24FB JUMP JUMPDEST SWAP1 PUSH2 0x402 SWAP2 PUSH2 0x21E5 DUP2 MLOAD PUSH2 0x2411 JUMP JUMPDEST POP PUSH1 0x40 MLOAD SWAP2 PUSH1 0x20 DUP4 ADD MSTORE PUSH1 0x20 DUP3 MSTORE PUSH2 0x21FE PUSH1 0x40 DUP4 PUSH2 0x3D2 JUMP JUMPDEST PUSH2 0x2266 JUMP JUMPDEST PUSH1 0x20 SWAP1 PUSH2 0x2212 PUSH1 0x9F DUP3 MLOAD PUSH2 0x2481 JUMP JUMPDEST POP ADD DUP1 MLOAD SWAP1 PUSH1 0x1 DUP3 ADD DUP1 SWAP3 GT PUSH2 0x11F6 JUMPI MSTORE JUMP JUMPDEST PUSH1 0x1F NOT DUP2 ADD SWAP2 SWAP1 DUP3 GT PUSH2 0x11F6 JUMPI JUMP JUMPDEST PUSH1 0x0 NOT DUP2 ADD SWAP2 SWAP1 DUP3 GT PUSH2 0x11F6 JUMPI JUMP JUMPDEST PUSH1 0x20 SWAP1 PUSH2 0x2252 PUSH1 0xFF DUP3 MLOAD PUSH2 0x2481 JUMP JUMPDEST POP ADD DUP1 MLOAD PUSH1 0x0 NOT DUP2 ADD SWAP2 SWAP1 DUP3 GT PUSH2 0x11F6 JUMPI MSTORE JUMP JUMPDEST DUP2 MLOAD PUSH2 0x213E SWAP3 SWAP2 SWAP1 PUSH1 0x1 PUSH1 0x1 PUSH1 0x40 SHL SUB AND PUSH1 0x17 DUP2 GT PUSH2 0x2293 JUMPI DUP2 MLOAD PUSH2 0x2129 SWAP2 PUSH2 0x2123 SWAP1 PUSH2 0x211C PUSH1 0x40 PUSH2 0x2116 JUMP JUMPDEST PUSH1 0xFF DUP2 GT PUSH2 0x22AF JUMPI DUP2 MLOAD PUSH2 0x2168 SWAP2 SWAP1 PUSH2 0x2160 SWAP1 PUSH1 0x18 PUSH1 0x40 PUSH2 0x2159 JUMP JUMPDEST PUSH2 0xFFFF DUP2 GT PUSH2 0x22CC JUMPI DUP2 MLOAD PUSH2 0x2168 SWAP2 SWAP1 PUSH2 0x218B SWAP1 PUSH1 0x19 PUSH1 0x40 PUSH2 0x2159 JUMP JUMPDEST PUSH4 0xFFFFFFFF DUP2 GT PUSH2 0x22EB JUMPI DUP2 MLOAD PUSH2 0x2168 SWAP2 SWAP1 PUSH2 0x21B2 SWAP1 PUSH1 0x1A PUSH1 0x40 PUSH2 0x2159 JUMP JUMPDEST DUP2 MLOAD PUSH2 0x2168 SWAP2 SWAP1 PUSH2 0x21CE SWAP1 PUSH1 0x1B PUSH1 0x40 PUSH2 0x2159 JUMP JUMPDEST SWAP1 PUSH2 0x2308 PUSH2 0x20A2 JUMP JUMPDEST POP PUSH1 0x1F DUP2 AND DUP1 PUSH2 0x2337 JUMPI JUMPDEST POP DUP1 PUSH1 0x20 DUP4 ADD MSTORE PUSH1 0x40 MLOAD SWAP1 DUP2 DUP4 MSTORE PUSH1 0x0 DUP3 MSTORE DUP2 ADD PUSH1 0x20 ADD SWAP1 DUP2 LT PUSH2 0x2AC JUMPI PUSH1 0x40 MSTORE SWAP1 JUMP JUMPDEST PUSH1 0x20 SUB PUSH1 0x20 DUP2 GT PUSH2 0x11F6 JUMPI DUP2 ADD DUP1 SWAP2 GT PUSH2 0x11F6 JUMPI CODESIZE PUSH2 0x2313 JUMP JUMPDEST SWAP1 PUSH2 0x235A PUSH2 0x20A2 JUMP JUMPDEST POP DUP1 MLOAD PUSH2 0x2365 PUSH2 0x20A2 JUMP JUMPDEST POP PUSH2 0x2373 DUP3 MLOAD DUP3 GT ISZERO PUSH2 0x26E4 JUMP JUMPDEST DUP3 MLOAD MLOAD SWAP2 PUSH2 0x2381 DUP3 DUP5 PUSH2 0x15C5 JUMP JUMPDEST SWAP1 PUSH1 0x20 DUP6 ADD MLOAD DUP3 GT PUSH2 0x23FA JUMPI JUMPDEST PUSH1 0x20 SWAP2 DUP6 MLOAD DUP4 DUP2 MLOAD SWAP7 DUP3 ADD ADD SWAP6 DUP3 GT PUSH2 0x23F2 JUMPI JUMPDEST POP POP ADD SWAP1 JUMPDEST PUSH1 0x20 DUP2 LT ISZERO PUSH2 0x23CC JUMPI PUSH1 0x0 NOT SWAP1 PUSH1 0x20 SUB PUSH2 0x100 EXP ADD SWAP1 DUP2 NOT SWAP1 MLOAD AND SWAP1 DUP3 MLOAD AND OR SWAP1 MSTORE SWAP1 JUMP JUMPDEST SWAP1 SWAP2 PUSH2 0x23E7 PUSH2 0x23E1 PUSH2 0x23ED SWAP3 DUP6 MLOAD DUP2 MSTORE PUSH2 0x15B7 JUMP JUMPDEST SWAP4 PUSH2 0x15B7 JUMP JUMPDEST SWAP2 PUSH2 0x2225 JUMP JUMPDEST PUSH2 0x23A7 JUMP JUMPDEST MSTORE CODESIZE DUP1 PUSH2 0x23A2 JUMP JUMPDEST PUSH2 0x240C PUSH2 0x2406 DUP4 PUSH2 0x168B JUMP JUMPDEST DUP7 PUSH2 0x2791 JUMP JUMPDEST PUSH2 0x238E JUMP JUMPDEST PUSH2 0x2419 PUSH2 0x20A2 JUMP JUMPDEST POP DUP1 MLOAD MLOAD PUSH1 0x1 DUP2 ADD SWAP1 DUP2 DUP2 GT PUSH2 0x11F6 JUMPI PUSH1 0x20 DUP4 ADD MLOAD DUP2 LT ISZERO PUSH2 0x2452 JUMPI JUMPDEST PUSH1 0xC2 PUSH1 0x20 DUP5 MLOAD SWAP3 DUP4 ADD ADD MSTORE8 DUP1 MLOAD DUP3 GT PUSH2 0x244E JUMPI POP POP SWAP1 JUMP JUMPDEST MSTORE SWAP1 JUMP JUMPDEST DUP2 PUSH1 0x1 SHL DUP3 DUP2 DIV PUSH1 0x2 EQ DUP4 ISZERO OR ISZERO PUSH2 0x11F6 JUMPI PUSH2 0x247B SWAP1 PUSH2 0x2474 DUP6 MLOAD SWAP2 DUP7 PUSH2 0x22FF JUMP JUMPDEST POP DUP5 PUSH2 0x2351 JUMP JUMPDEST POP PUSH2 0x2436 JUMP JUMPDEST SWAP1 PUSH2 0x248A PUSH2 0x20A2 JUMP JUMPDEST POP DUP2 MLOAD MLOAD PUSH1 0x1 DUP2 ADD SWAP2 DUP3 DUP3 GT PUSH2 0x11F6 JUMPI PUSH1 0x20 DUP5 ADD MLOAD DUP3 LT ISZERO PUSH2 0x24BD JUMPI JUMPDEST PUSH1 0x20 DUP5 MLOAD SWAP3 DUP4 ADD ADD MSTORE8 DUP1 MLOAD DUP3 GT PUSH2 0x244E JUMPI POP POP SWAP1 JUMP JUMPDEST DUP3 PUSH1 0x1 SHL DUP4 DUP2 DIV PUSH1 0x2 EQ DUP5 ISZERO OR ISZERO PUSH2 0x11F6 JUMPI PUSH2 0x24E6 SWAP1 PUSH2 0x24DF DUP7 MLOAD SWAP2 DUP8 PUSH2 0x22FF JUMP JUMPDEST POP DUP6 PUSH2 0x2351 JUMP JUMPDEST POP PUSH2 0x24A7 JUMP JUMPDEST PUSH1 0x1F DUP2 GT PUSH2 0x11F6 JUMPI PUSH2 0x100 EXP SWAP1 JUMP JUMPDEST SWAP1 PUSH2 0x2504 PUSH2 0x20A2 JUMP JUMPDEST POP DUP2 MLOAD MLOAD DUP1 PUSH1 0x8 ADD SWAP2 DUP3 PUSH1 0x8 GT PUSH2 0x11F6 JUMPI PUSH1 0x20 DUP5 ADD MLOAD DUP4 GT PUSH2 0x2551 JUMPI JUMPDEST PUSH2 0x2533 PUSH2 0x252E PUSH1 0x8 PUSH2 0x24EC JUMP JUMPDEST PUSH2 0x2234 JUMP JUMPDEST SWAP1 PUSH1 0x8 DUP6 MLOAD SWAP4 DUP5 ADD ADD SWAP2 NOT DUP3 MLOAD AND OR SWAP1 MSTORE DUP1 MLOAD DUP3 GT PUSH2 0x244E JUMPI POP POP SWAP1 JUMP JUMPDEST DUP3 PUSH1 0x1 SHL DUP4 DUP2 DIV PUSH1 0x2 EQ DUP5 ISZERO OR ISZERO PUSH2 0x11F6 JUMPI PUSH2 0x2573 SWAP1 PUSH2 0x24DF DUP7 MLOAD SWAP2 DUP8 PUSH2 0x22FF JUMP JUMPDEST POP PUSH2 0x2521 JUMP JUMPDEST SWAP1 PUSH2 0x2582 PUSH2 0x20A2 JUMP JUMPDEST POP DUP2 MLOAD MLOAD DUP1 PUSH1 0x4 ADD SWAP2 DUP3 PUSH1 0x4 GT PUSH2 0x11F6 JUMPI PUSH1 0x20 DUP5 ADD MLOAD DUP4 GT PUSH2 0x25CA JUMPI JUMPDEST PUSH2 0x25AC PUSH2 0x252E PUSH1 0x4 PUSH2 0x24EC JUMP JUMPDEST SWAP1 PUSH1 0x4 DUP6 MLOAD SWAP4 DUP5 ADD ADD SWAP2 NOT DUP3 MLOAD AND OR SWAP1 MSTORE DUP1 MLOAD DUP3 GT PUSH2 0x244E JUMPI POP POP SWAP1 JUMP JUMPDEST DUP3 PUSH1 0x1 SHL DUP4 DUP2 DIV PUSH1 0x2 EQ DUP5 ISZERO OR ISZERO PUSH2 0x11F6 JUMPI PUSH2 0x25EC SWAP1 PUSH2 0x24DF DUP7 MLOAD SWAP2 DUP8 PUSH2 0x22FF JUMP JUMPDEST POP PUSH2 0x259F JUMP JUMPDEST SWAP1 PUSH2 0x25FB PUSH2 0x20A2 JUMP JUMPDEST POP DUP2 MLOAD MLOAD DUP1 PUSH1 0x2 ADD SWAP2 DUP3 PUSH1 0x2 GT PUSH2 0x11F6 JUMPI PUSH1 0x20 DUP5 ADD MLOAD DUP4 GT PUSH2 0x2643 JUMPI JUMPDEST PUSH2 0x2625 PUSH2 0x252E PUSH1 0x2 PUSH2 0x24EC JUMP JUMPDEST SWAP1 PUSH1 0x2 DUP6 MLOAD SWAP4 DUP5 ADD ADD SWAP2 NOT DUP3 MLOAD AND OR SWAP1 MSTORE DUP1 MLOAD DUP3 GT PUSH2 0x244E JUMPI POP POP SWAP1 JUMP JUMPDEST DUP3 PUSH1 0x1 SHL DUP4 DUP2 DIV PUSH1 0x2 EQ DUP5 ISZERO OR ISZERO PUSH2 0x11F6 JUMPI PUSH2 0x2665 SWAP1 PUSH2 0x24DF DUP7 MLOAD SWAP2 DUP8 PUSH2 0x22FF JUMP JUMPDEST POP PUSH2 0x2618 JUMP JUMPDEST SWAP1 PUSH2 0x2674 PUSH2 0x20A2 JUMP JUMPDEST POP DUP2 MLOAD MLOAD DUP1 PUSH1 0x1 ADD SWAP2 DUP3 PUSH1 0x1 GT PUSH2 0x11F6 JUMPI PUSH1 0x20 DUP5 ADD MLOAD DUP4 GT PUSH2 0x26BC JUMPI JUMPDEST PUSH2 0x269E PUSH2 0x252E PUSH1 0x1 PUSH2 0x24EC JUMP JUMPDEST SWAP1 PUSH1 0x1 DUP6 MLOAD SWAP4 DUP5 ADD ADD SWAP2 NOT DUP3 MLOAD AND OR SWAP1 MSTORE DUP1 MLOAD DUP3 GT PUSH2 0x244E JUMPI POP POP SWAP1 JUMP JUMPDEST DUP3 PUSH1 0x1 SHL DUP4 DUP2 DIV PUSH1 0x2 EQ DUP5 ISZERO OR ISZERO PUSH2 0x11F6 JUMPI PUSH2 0x26DE SWAP1 PUSH2 0x24DF DUP7 MLOAD SWAP2 DUP8 PUSH2 0x22FF JUMP JUMPDEST POP PUSH2 0x2691 JUMP JUMPDEST ISZERO PUSH2 0x2AC JUMPI JUMP JUMPDEST SWAP2 PUSH2 0x26F4 PUSH2 0x20A2 JUMP JUMPDEST POP PUSH2 0x2702 DUP3 MLOAD DUP3 GT ISZERO PUSH2 0x26E4 JUMP JUMPDEST PUSH1 0x20 DUP4 MLOAD MLOAD SWAP3 PUSH2 0x2712 DUP4 DUP6 PUSH2 0x15C5 JUMP JUMPDEST DUP3 DUP7 ADD MLOAD DUP2 GT PUSH2 0x277A JUMPI JUMPDEST DUP6 MLOAD DUP4 DUP2 MLOAD SWAP7 DUP3 ADD ADD SWAP6 DUP3 GT PUSH2 0x2772 JUMPI JUMPDEST POP POP ADD SWAP1 JUMPDEST PUSH1 0x20 DUP2 LT ISZERO PUSH2 0x2758 JUMPI PUSH1 0x0 NOT SWAP1 PUSH1 0x20 SUB PUSH2 0x100 EXP ADD SWAP1 DUP2 NOT SWAP1 MLOAD AND SWAP1 DUP3 MLOAD AND OR SWAP1 MSTORE SWAP1 JUMP JUMPDEST SWAP1 SWAP2 PUSH2 0x23E7 PUSH2 0x23E1 PUSH2 0x276D SWAP3 DUP6 MLOAD DUP2 MSTORE PUSH2 0x15B7 JUMP JUMPDEST PUSH2 0x2733 JUMP JUMPDEST MSTORE CODESIZE DUP1 PUSH2 0x272E JUMP JUMPDEST PUSH2 0x278C PUSH2 0x2786 DUP3 PUSH2 0x168B JUMP JUMPDEST DUP8 PUSH2 0x2791 JUMP JUMPDEST PUSH2 0x271D JUMP JUMPDEST SWAP1 PUSH2 0x213E SWAP2 PUSH2 0x27A2 DUP2 MLOAD SWAP3 DUP3 PUSH2 0x22FF JUMP JUMPDEST POP PUSH2 0x2351 JUMP INVALID LOG2 PUSH5 0x6970667358 0x22 SLT KECCAK256 PUSH22 0x5CCFBE7B5FAC0C08D3298F4D8411ADCD1CBD3F131F27 0xEC SWAP8 0xAE SWAP11 0xE 0xAF PUSH14 0xF97E64736F6C634300081C003300 "},"methodIdentifiers":{"CREDIT_SCORE_MULTIPLIER()":"86da4cb6","MAX_LTV()":"81bf8d3d","MIN_HEALTH_FACTOR()":"b5627e42","acceptOwnership()":"79ba5097","allowlistDestinationChain(uint64,bool)":"96d3b83d","allowlistSender(address,bool)":"eab5b02c","allowlistSourceChain(uint64,bool)":"db04fa49","allowlistedDestinationChains(uint64)":"75c67c66","allowlistedSenders(address)":"6159ada1","allowlistedSourceChains(uint64)":"4030d521","approveBorrow(address,uint256,uint64)":"35e5b7bb","ccipReceive((bytes32,uint64,bytes,bytes,(address,uint256)[]))":"85572ffb","creditScores(address)":"80bb7273","donId()":"8dbe7b9d","gasLimit()":"f68016b7","getHealthFactor(address)":"fe6bcd7c","getRouter()":"b0f479a1","getUserCreditScore(address)":"4dd601b4","getUserProfile(address)":"987ee156","handleOracleFulfillment(bytes32,bytes,bytes)":"0ca76175","lastRequestId()":"fc2a88c3","owner()":"8da5cb5b","priceFeeds(address)":"9dcb511a","processDeposit(address,address,uint256,uint64)":"cc168d7c","requestCreditScoreUpdate(address,string)":"07de8394","requestToUser(bytes32)":"30268bb4","setCreditScore(address,uint256)":"97ed81cf","setPriceFeed(address,address)":"76e11286","subscriptionId()":"09c1ba2e","supportsInterface(bytes4)":"01ffc9a7","transferOwnership(address)":"f2fde38b","userBorrows(address)":"77593cc4","userDeposits(address,address)":"436d8039","userProfiles(address)":"332d56d7","withdraw(address)":"51cff8d9","withdrawToken(address,address)":"3aeac4e1"}}}}}