{"contracts/mocks/MockRouter.sol":{"MockMainRouter":{"abi":[{"anonymous":false,"inputs":[{"indexed":true,"internalType":"uint64","name":"chainSelector","type":"uint64"},{"indexed":false,"internalType":"bool","name":"allowed","type":"bool"}],"name":"ChainAllowlisted","type":"event"},{"anonymous":false,"inputs":[{"indexed":true,"internalType":"address","name":"user","type":"address"},{"indexed":false,"internalType":"uint256","name":"newScore","type":"uint256"}],"name":"CreditScoreUpdated","type":"event"},{"anonymous":false,"inputs":[{"indexed":true,"internalType":"address","name":"sender","type":"address"},{"indexed":false,"internalType":"bool","name":"allowed","type":"bool"}],"name":"SenderAllowlisted","type":"event"},{"inputs":[{"internalType":"uint64","name":"chainSelector","type":"uint64"},{"internalType":"bool","name":"allowed","type":"bool"}],"name":"allowlistDestinationChain","outputs":[],"stateMutability":"nonpayable","type":"function"},{"inputs":[{"internalType":"address","name":"sender","type":"address"},{"internalType":"bool","name":"allowed","type":"bool"}],"name":"allowlistSender","outputs":[],"stateMutability":"nonpayable","type":"function"},{"inputs":[{"internalType":"uint64","name":"","type":"uint64"}],"name":"allowlistedDestinationChains","outputs":[{"internalType":"bool","name":"","type":"bool"}],"stateMutability":"view","type":"function"},{"inputs":[{"internalType":"address","name":"","type":"address"}],"name":"allowlistedSenders","outputs":[{"internalType":"bool","name":"","type":"bool"}],"stateMutability":"view","type":"function"},{"inputs":[{"internalType":"address","name":"","type":"address"}],"name":"creditScores","outputs":[{"internalType":"uint256","name":"","type":"uint256"}],"stateMutability":"view","type":"function"},{"inputs":[{"internalType":"bytes32","name":"messageId","type":"bytes32"},{"internalType":"uint64","name":"sourceChainSelector","type":"uint64"},{"internalType":"address","name":"sender","type":"address"},{"internalType":"string","name":"message","type":"string"}],"name":"mockReceiveMessage","outputs":[],"stateMutability":"nonpayable","type":"function"},{"inputs":[{"internalType":"address","name":"user","type":"address"},{"internalType":"uint256","name":"score","type":"uint256"}],"name":"setCreditScore","outputs":[],"stateMutability":"nonpayable","type":"function"}],"evm":{"bytecode":{"linkReferences":{},"object":"608080604052346015576103e2908161001b8239f35b600080fdfe608080604052600436101561001357600080fd5b60003560e01c9081636159ada1146103085750806375c67c66146102c857806380bb72731461028e57806396d3b83d1461021c57806397ed81cf146101a1578063ac85b5bf146100ea5763eab5b02c1461006c57600080fd5b346100e55760403660031901126100e557610085610343565b7f9a3d70b7815e59466fffdf86a6fda9753a1d8228523b33db2345e12200b3030c60206100b061039d565b6001600160a01b039390931660008181526001835260409020805460ff191660ff86151516179055925b6040519015158152a2005b600080fd5b346100e55760803660031901126100e557610103610386565b5061010c610359565b5060643567ffffffffffffffff81116100e557366023820112156100e55780600401359067ffffffffffffffff821161018b5760405191601f8101601f19908116603f0116830167ffffffffffffffff81118482101761018b5760405280835236602482840101116100e5576000928160246020940184830137010152005b634e487b7160e01b600052604160045260246000fd5b346100e55760403660031901126100e5576101ba610343565b6024356103e881111561021657506103e8905b6001600160a01b031660008181526020818152604091829020849055905192835290917f79c012a0cfae660e09134956bc432c8497ec80e86a3a108d130e8b3fca52b3ad9190a2005b906101cd565b346100e55760403660031901126100e55761023561036f565b7f7930c3d00436c9ce04cd90e4f943e2ef591205fe1e4199f20871ffc2d8d85a3e602067ffffffffffffffff61026961039d565b93169283600052600282526100da8160406000209060ff801983541691151516179055565b346100e55760203660031901126100e5576001600160a01b036102af610343565b1660005260006020526020604060002054604051908152f35b346100e55760203660031901126100e55767ffffffffffffffff6102ea61036f565b166000526002602052602060ff604060002054166040519015158152f35b346100e55760203660031901126100e5576020906001600160a01b0361032c610343565b166000526001825260ff6040600020541615158152f35b600435906001600160a01b03821682036100e557565b604435906001600160a01b03821682036100e557565b6004359067ffffffffffffffff821682036100e557565b6024359067ffffffffffffffff821682036100e557565b6024359081151582036100e55756fea26469706673582212209de51c5bfdfa8b0120dea870ebc901e01478c4e89a52f98de9fbc38ccfcfcc0064736f6c634300081c0033","opcodes":"PUSH1 0x80 DUP1 PUSH1 0x40 MSTORE CALLVALUE PUSH1 0x15 JUMPI PUSH2 0x3E2 SWAP1 DUP2 PUSH2 0x1B DUP3 CODECOPY RETURN JUMPDEST PUSH1 0x0 DUP1 REVERT INVALID PUSH1 0x80 DUP1 PUSH1 0x40 MSTORE PUSH1 0x4 CALLDATASIZE LT ISZERO PUSH2 0x13 JUMPI PUSH1 0x0 DUP1 REVERT JUMPDEST PUSH1 0x0 CALLDATALOAD PUSH1 0xE0 SHR SWAP1 DUP2 PUSH4 0x6159ADA1 EQ PUSH2 0x308 JUMPI POP DUP1 PUSH4 0x75C67C66 EQ PUSH2 0x2C8 JUMPI DUP1 PUSH4 0x80BB7273 EQ PUSH2 0x28E JUMPI DUP1 PUSH4 0x96D3B83D EQ PUSH2 0x21C JUMPI DUP1 PUSH4 0x97ED81CF EQ PUSH2 0x1A1 JUMPI DUP1 PUSH4 0xAC85B5BF EQ PUSH2 0xEA JUMPI PUSH4 0xEAB5B02C EQ PUSH2 0x6C JUMPI PUSH1 0x0 DUP1 REVERT JUMPDEST CALLVALUE PUSH2 0xE5 JUMPI PUSH1 0x40 CALLDATASIZE PUSH1 0x3 NOT ADD SLT PUSH2 0xE5 JUMPI PUSH2 0x85 PUSH2 0x343 JUMP JUMPDEST PUSH32 0x9A3D70B7815E59466FFFDF86A6FDA9753A1D8228523B33DB2345E12200B3030C PUSH1 0x20 PUSH2 0xB0 PUSH2 0x39D JUMP JUMPDEST PUSH1 0x1 PUSH1 0x1 PUSH1 0xA0 SHL SUB SWAP4 SWAP1 SWAP4 AND PUSH1 0x0 DUP2 DUP2 MSTORE PUSH1 0x1 DUP4 MSTORE PUSH1 0x40 SWAP1 KECCAK256 DUP1 SLOAD PUSH1 0xFF NOT AND PUSH1 0xFF DUP7 ISZERO ISZERO AND OR SWAP1 SSTORE SWAP3 JUMPDEST PUSH1 0x40 MLOAD SWAP1 ISZERO ISZERO DUP2 MSTORE LOG2 STOP JUMPDEST PUSH1 0x0 DUP1 REVERT JUMPDEST CALLVALUE PUSH2 0xE5 JUMPI PUSH1 0x80 CALLDATASIZE PUSH1 0x3 NOT ADD SLT PUSH2 0xE5 JUMPI PUSH2 0x103 PUSH2 0x386 JUMP JUMPDEST POP PUSH2 0x10C PUSH2 0x359 JUMP JUMPDEST POP PUSH1 0x64 CALLDATALOAD PUSH8 0xFFFFFFFFFFFFFFFF DUP2 GT PUSH2 0xE5 JUMPI CALLDATASIZE PUSH1 0x23 DUP3 ADD SLT ISZERO PUSH2 0xE5 JUMPI DUP1 PUSH1 0x4 ADD CALLDATALOAD SWAP1 PUSH8 0xFFFFFFFFFFFFFFFF DUP3 GT PUSH2 0x18B JUMPI PUSH1 0x40 MLOAD SWAP2 PUSH1 0x1F DUP2 ADD PUSH1 0x1F NOT SWAP1 DUP2 AND PUSH1 0x3F ADD AND DUP4 ADD PUSH8 0xFFFFFFFFFFFFFFFF DUP2 GT DUP5 DUP3 LT OR PUSH2 0x18B JUMPI PUSH1 0x40 MSTORE DUP1 DUP4 MSTORE CALLDATASIZE PUSH1 0x24 DUP3 DUP5 ADD ADD GT PUSH2 0xE5 JUMPI PUSH1 0x0 SWAP3 DUP2 PUSH1 0x24 PUSH1 0x20 SWAP5 ADD DUP5 DUP4 ADD CALLDATACOPY ADD ADD MSTORE STOP JUMPDEST PUSH4 0x4E487B71 PUSH1 0xE0 SHL PUSH1 0x0 MSTORE PUSH1 0x41 PUSH1 0x4 MSTORE PUSH1 0x24 PUSH1 0x0 REVERT JUMPDEST CALLVALUE PUSH2 0xE5 JUMPI PUSH1 0x40 CALLDATASIZE PUSH1 0x3 NOT ADD SLT PUSH2 0xE5 JUMPI PUSH2 0x1BA PUSH2 0x343 JUMP JUMPDEST PUSH1 0x24 CALLDATALOAD PUSH2 0x3E8 DUP2 GT ISZERO PUSH2 0x216 JUMPI POP PUSH2 0x3E8 SWAP1 JUMPDEST PUSH1 0x1 PUSH1 0x1 PUSH1 0xA0 SHL SUB AND PUSH1 0x0 DUP2 DUP2 MSTORE PUSH1 0x20 DUP2 DUP2 MSTORE PUSH1 0x40 SWAP2 DUP3 SWAP1 KECCAK256 DUP5 SWAP1 SSTORE SWAP1 MLOAD SWAP3 DUP4 MSTORE SWAP1 SWAP2 PUSH32 0x79C012A0CFAE660E09134956BC432C8497EC80E86A3A108D130E8B3FCA52B3AD SWAP2 SWAP1 LOG2 STOP JUMPDEST SWAP1 PUSH2 0x1CD JUMP JUMPDEST CALLVALUE PUSH2 0xE5 JUMPI PUSH1 0x40 CALLDATASIZE PUSH1 0x3 NOT ADD SLT PUSH2 0xE5 JUMPI PUSH2 0x235 PUSH2 0x36F JUMP JUMPDEST PUSH32 0x7930C3D00436C9CE04CD90E4F943E2EF591205FE1E4199F20871FFC2D8D85A3E PUSH1 0x20 PUSH8 0xFFFFFFFFFFFFFFFF PUSH2 0x269 PUSH2 0x39D JUMP JUMPDEST SWAP4 AND SWAP3 DUP4 PUSH1 0x0 MSTORE PUSH1 0x2 DUP3 MSTORE PUSH2 0xDA DUP2 PUSH1 0x40 PUSH1 0x0 KECCAK256 SWAP1 PUSH1 0xFF DUP1 NOT DUP4 SLOAD AND SWAP2 ISZERO ISZERO AND OR SWAP1 SSTORE JUMP JUMPDEST CALLVALUE PUSH2 0xE5 JUMPI PUSH1 0x20 CALLDATASIZE PUSH1 0x3 NOT ADD SLT PUSH2 0xE5 JUMPI PUSH1 0x1 PUSH1 0x1 PUSH1 0xA0 SHL SUB PUSH2 0x2AF PUSH2 0x343 JUMP JUMPDEST AND PUSH1 0x0 MSTORE PUSH1 0x0 PUSH1 0x20 MSTORE PUSH1 0x20 PUSH1 0x40 PUSH1 0x0 KECCAK256 SLOAD PUSH1 0x40 MLOAD SWAP1 DUP2 MSTORE RETURN JUMPDEST CALLVALUE PUSH2 0xE5 JUMPI PUSH1 0x20 CALLDATASIZE PUSH1 0x3 NOT ADD SLT PUSH2 0xE5 JUMPI PUSH8 0xFFFFFFFFFFFFFFFF PUSH2 0x2EA PUSH2 0x36F JUMP JUMPDEST AND PUSH1 0x0 MSTORE PUSH1 0x2 PUSH1 0x20 MSTORE PUSH1 0x20 PUSH1 0xFF PUSH1 0x40 PUSH1 0x0 KECCAK256 SLOAD AND PUSH1 0x40 MLOAD SWAP1 ISZERO ISZERO DUP2 MSTORE RETURN JUMPDEST CALLVALUE PUSH2 0xE5 JUMPI PUSH1 0x20 CALLDATASIZE PUSH1 0x3 NOT ADD SLT PUSH2 0xE5 JUMPI PUSH1 0x20 SWAP1 PUSH1 0x1 PUSH1 0x1 PUSH1 0xA0 SHL SUB PUSH2 0x32C PUSH2 0x343 JUMP JUMPDEST AND PUSH1 0x0 MSTORE PUSH1 0x1 DUP3 MSTORE PUSH1 0xFF PUSH1 0x40 PUSH1 0x0 KECCAK256 SLOAD AND ISZERO ISZERO DUP2 MSTORE RETURN JUMPDEST PUSH1 0x4 CALLDATALOAD SWAP1 PUSH1 0x1 PUSH1 0x1 PUSH1 0xA0 SHL SUB DUP3 AND DUP3 SUB PUSH2 0xE5 JUMPI JUMP JUMPDEST PUSH1 0x44 CALLDATALOAD SWAP1 PUSH1 0x1 PUSH1 0x1 PUSH1 0xA0 SHL SUB DUP3 AND DUP3 SUB PUSH2 0xE5 JUMPI JUMP JUMPDEST PUSH1 0x4 CALLDATALOAD SWAP1 PUSH8 0xFFFFFFFFFFFFFFFF DUP3 AND DUP3 SUB PUSH2 0xE5 JUMPI JUMP JUMPDEST PUSH1 0x24 CALLDATALOAD SWAP1 PUSH8 0xFFFFFFFFFFFFFFFF DUP3 AND DUP3 SUB PUSH2 0xE5 JUMPI JUMP JUMPDEST PUSH1 0x24 CALLDATALOAD SWAP1 DUP2 ISZERO ISZERO DUP3 SUB PUSH2 0xE5 JUMPI JUMP INVALID LOG2 PUSH5 0x6970667358 0x22 SLT KECCAK256 SWAP14 0xE5 SHR JUMPDEST REVERT STATICCALL DUP12 ADD KECCAK256 0xDE 0xA8 PUSH17 0xEBC901E01478C4E89A52F98DE9FBC38CCF 0xCF 0xCC STOP PUSH5 0x736F6C6343 STOP ADDMOD SHR STOP CALLER "},"methodIdentifiers":{"allowlistDestinationChain(uint64,bool)":"96d3b83d","allowlistSender(address,bool)":"eab5b02c","allowlistedDestinationChains(uint64)":"75c67c66","allowlistedSenders(address)":"6159ada1","creditScores(address)":"80bb7273","mockReceiveMessage(bytes32,uint64,address,string)":"ac85b5bf","setCreditScore(address,uint256)":"97ed81cf"}}}}}