{"contracts/mocks/MockRouter.sol":{"MockFunctionsRouter":{"abi":[{"anonymous":false,"inputs":[{"indexed":true,"internalType":"bytes32","name":"requestId","type":"bytes32"},{"indexed":false,"internalType":"bytes","name":"data","type":"bytes"},{"indexed":false,"internalType":"uint64","name":"subscriptionId","type":"uint64"},{"indexed":false,"internalType":"uint32","name":"gasLimit","type":"uint32"},{"indexed":false,"internalType":"bytes32","name":"donId","type":"bytes32"}],"name":"RequestSent","type":"event"},{"inputs":[{"internalType":"bytes","name":"data","type":"bytes"},{"internalType":"uint64","name":"subscriptionId","type":"uint64"},{"internalType":"uint32","name":"gasLimit","type":"uint32"},{"internalType":"bytes32","name":"donId","type":"bytes32"}],"name":"sendRequest","outputs":[{"internalType":"bytes32","name":"requestId","type":"bytes32"}],"stateMutability":"nonpayable","type":"function"}],"evm":{"bytecode":{"linkReferences":{},"object":"6080806040523460155761020a908161001b8239f35b600080fdfe608080604052600436101561001357600080fd5b60003560e01c637cf1f26e1461002857600080fd5b346101745760803660031901126101745760043567ffffffffffffffff8111610174573660238201121561017457806004013567ffffffffffffffff81116101795761007e601f8201601f19166020018461018f565b80835260208301913660248383010111610174578160009260246020930185378401015260243567ffffffffffffffff8116809103610174576044359163ffffffff83168093036101745761014e60a06020957f2a85ba6d0dafcd73f5f0c73d61781b213a2d45b8f11813745fd45e141dd172c293604051888101904282523360601b604082015261012c605482865161011b81848401896101b1565b81010301601f19810183528261018f565b51902096879660405195869460808652518094816080880152878701906101b1565b838a015260408301526064356060830152601f01601f19168101030190a2604051908152f35b600080fd5b634e487b7160e01b600052604160045260246000fd5b90601f8019910116810190811067ffffffffffffffff82111761017957604052565b60005b8381106101c45750506000910152565b81810151838201526020016101b456fea2646970667358221220f84d6f34a75adb7d1234d645ee8a9e4b9a94f08e3c31ee73f6a00a5c1b60c60164736f6c634300081c0033","opcodes":"PUSH1 0x80 DUP1 PUSH1 0x40 MSTORE CALLVALUE PUSH1 0x15 JUMPI PUSH2 0x20A SWAP1 DUP2 PUSH2 0x1B DUP3 CODECOPY RETURN JUMPDEST PUSH1 0x0 DUP1 REVERT INVALID PUSH1 0x80 DUP1 PUSH1 0x40 MSTORE PUSH1 0x4 CALLDATASIZE LT ISZERO PUSH2 0x13 JUMPI PUSH1 0x0 DUP1 REVERT JUMPDEST PUSH1 0x0 CALLDATALOAD PUSH1 0xE0 SHR PUSH4 0x7CF1F26E EQ PUSH2 0x28 JUMPI PUSH1 0x0 DUP1 REVERT JUMPDEST CALLVALUE PUSH2 0x174 JUMPI PUSH1 0x80 CALLDATASIZE PUSH1 0x3 NOT ADD SLT PUSH2 0x174 JUMPI PUSH1 0x4 CALLDATALOAD PUSH8 0xFFFFFFFFFFFFFFFF DUP2 GT PUSH2 0x174 JUMPI CALLDATASIZE PUSH1 0x23 DUP3 ADD SLT ISZERO PUSH2 0x174 JUMPI DUP1 PUSH1 0x4 ADD CALLDATALOAD PUSH8 0xFFFFFFFFFFFFFFFF DUP2 GT PUSH2 0x179 JUMPI PUSH2 0x7E PUSH1 0x1F DUP3 ADD PUSH1 0x1F NOT AND PUSH1 0x20 ADD DUP5 PUSH2 0x18F JUMP JUMPDEST DUP1 DUP4 MSTORE PUSH1 0x20 DUP4 ADD SWAP2 CALLDATASIZE PUSH1 0x24 DUP4 DUP4 ADD ADD GT PUSH2 0x174 JUMPI DUP2 PUSH1 0x0 SWAP3 PUSH1 0x24 PUSH1 0x20 SWAP4 ADD DUP6 CALLDATACOPY DUP5 ADD ADD MSTORE PUSH1 0x24 CALLDATALOAD PUSH8 0xFFFFFFFFFFFFFFFF DUP2 AND DUP1 SWAP2 SUB PUSH2 0x174 JUMPI PUSH1 0x44 CALLDATALOAD SWAP2 PUSH4 0xFFFFFFFF DUP4 AND DUP1 SWAP4 SUB PUSH2 0x174 JUMPI PUSH2 0x14E PUSH1 0xA0 PUSH1 0x20 SWAP6 PUSH32 0x2A85BA6D0DAFCD73F5F0C73D61781B213A2D45B8F11813745FD45E141DD172C2 SWAP4 PUSH1 0x40 MLOAD DUP9 DUP2 ADD SWAP1 TIMESTAMP DUP3 MSTORE CALLER PUSH1 0x60 SHL PUSH1 0x40 DUP3 ADD MSTORE PUSH2 0x12C PUSH1 0x54 DUP3 DUP7 MLOAD PUSH2 0x11B DUP2 DUP5 DUP5 ADD DUP10 PUSH2 0x1B1 JUMP JUMPDEST DUP2 ADD SUB ADD PUSH1 0x1F NOT DUP2 ADD DUP4 MSTORE DUP3 PUSH2 0x18F JUMP JUMPDEST MLOAD SWAP1 KECCAK256 SWAP7 DUP8 SWAP7 PUSH1 0x40 MLOAD SWAP6 DUP7 SWAP5 PUSH1 0x80 DUP7 MSTORE MLOAD DUP1 SWAP5 DUP2 PUSH1 0x80 DUP9 ADD MSTORE DUP8 DUP8 ADD SWAP1 PUSH2 0x1B1 JUMP JUMPDEST DUP4 DUP11 ADD MSTORE PUSH1 0x40 DUP4 ADD MSTORE PUSH1 0x64 CALLDATALOAD PUSH1 0x60 DUP4 ADD MSTORE PUSH1 0x1F ADD PUSH1 0x1F NOT AND DUP2 ADD SUB ADD SWAP1 LOG2 PUSH1 0x40 MLOAD SWAP1 DUP2 MSTORE RETURN JUMPDEST PUSH1 0x0 DUP1 REVERT JUMPDEST PUSH4 0x4E487B71 PUSH1 0xE0 SHL PUSH1 0x0 MSTORE PUSH1 0x41 PUSH1 0x4 MSTORE PUSH1 0x24 PUSH1 0x0 REVERT JUMPDEST SWAP1 PUSH1 0x1F DUP1 NOT SWAP2 ADD AND DUP2 ADD SWAP1 DUP2 LT PUSH8 0xFFFFFFFFFFFFFFFF DUP3 GT OR PUSH2 0x179 JUMPI PUSH1 0x40 MSTORE JUMP JUMPDEST PUSH1 0x0 JUMPDEST DUP4 DUP2 LT PUSH2 0x1C4 JUMPI POP POP PUSH1 0x0 SWAP2 ADD MSTORE JUMP JUMPDEST DUP2 DUP2 ADD MLOAD DUP4 DUP3 ADD MSTORE PUSH1 0x20 ADD PUSH2 0x1B4 JUMP INVALID LOG2 PUSH5 0x6970667358 0x22 SLT KECCAK256 0xF8 0x4D PUSH16 0x34A75ADB7D1234D645EE8A9E4B9A94F0 DUP15 EXTCODECOPY BALANCE 0xEE PUSH20 0xF6A00A5C1B60C60164736F6C634300081C003300 "},"methodIdentifiers":{"sendRequest(bytes,uint64,uint32,bytes32)":"7cf1f26e"}}}}}