{"@chainlink/contracts-ccip/src/v0.8/ccip/libraries/Client.sol":{"Client":{"abi":[{"inputs":[],"name":"EVM_EXTRA_ARGS_V1_TAG","outputs":[{"internalType":"bytes4","name":"","type":"bytes4"}],"stateMutability":"view","type":"function"},{"inputs":[],"name":"EVM_EXTRA_ARGS_V2_TAG","outputs":[{"internalType":"bytes4","name":"","type":"bytes4"}],"stateMutability":"view","type":"function"}],"evm":{"bytecode":{"linkReferences":{},"object":"6080806040523460175760a49081601d823930815050f35b600080fdfe6080806040526004361015601257600080fd5b60003560e01c9081633ab8c0d01460545750638113c57814603257600080fd5b6000366003190112604f57604051630181dcf160e41b8152602090f35b600080fd5b6000366003190112604f576397a657c960e01b8152602090f3fea2646970667358221220144b3fb72dfe86ce401736de6bc1020caddc1068a6b260fa2ef88d113063170764736f6c634300081c0033","opcodes":"PUSH1 0x80 DUP1 PUSH1 0x40 MSTORE CALLVALUE PUSH1 0x17 JUMPI PUSH1 0xA4 SWAP1 DUP2 PUSH1 0x1D DUP3 CODECOPY ADDRESS DUP2 POP POP RETURN JUMPDEST PUSH1 0x0 DUP1 REVERT INVALID PUSH1 0x80 DUP1 PUSH1 0x40 MSTORE PUSH1 0x4 CALLDATASIZE LT ISZERO PUSH1 0x12 JUMPI PUSH1 0x0 DUP1 REVERT JUMPDEST PUSH1 0x0 CALLDATALOAD PUSH1 0xE0 SHR SWAP1 DUP2 PUSH4 0x3AB8C0D0 EQ PUSH1 0x54 JUMPI POP PUSH4 0x8113C578 EQ PUSH1 0x32 JUMPI PUSH1 0x0 DUP1 REVERT JUMPDEST PUSH1 0x0 CALLDATASIZE PUSH1 0x3 NOT ADD SLT PUSH1 0x4F JUMPI PUSH1 0x40 MLOAD PUSH4 0x181DCF1 PUSH1 0xE4 SHL DUP2 MSTORE PUSH1 0x20 SWAP1 RETURN JUMPDEST PUSH1 0x0 DUP1 REVERT JUMPDEST PUSH1 0x0 CALLDATASIZE PUSH1 0x3 NOT ADD SLT PUSH1 0x4F JUMPI PUSH4 0x97A657C9 PUSH1 0xE0 SHL DUP2 MSTORE PUSH1 0x20 SWAP1 RETURN INVALID LOG2 PUSH5 0x6970667358 0x22 SLT KECCAK256 EQ 0x4B EXTCODEHASH 0xB7 0x2D INVALID DUP7 0xCE BLOCKHASH OR CALLDATASIZE 0xDE PUSH12 0xC1020CADDC1068A6B260FA2E 0xF8 DUP14 GT ADDRESS PUSH4 0x17076473 PUSH16 0x6C634300081C00330000000000000000 "},"methodIdentifiers":{"EVM_EXTRA_ARGS_V1_TAG()":"3ab8c0d0","EVM_EXTRA_ARGS_V2_TAG()":"8113c578"}}}}}