{"contracts/mocks/MockAggregatorV3.sol":{"MockAggregatorV3":{"abi":[{"inputs":[],"name":"decimals","outputs":[{"internalType":"uint8","name":"","type":"uint8"}],"stateMutability":"view","type":"function"},{"inputs":[],"name":"latestRoundData","outputs":[{"internalType":"uint80","name":"roundId","type":"uint80"},{"internalType":"int256","name":"answer","type":"int256"},{"internalType":"uint256","name":"startedAt","type":"uint256"},{"internalType":"uint256","name":"updatedAt","type":"uint256"},{"internalType":"uint80","name":"answeredInRound","type":"uint80"}],"stateMutability":"view","type":"function"},{"inputs":[{"internalType":"int256","name":"_price","type":"int256"}],"name":"setPrice","outputs":[],"stateMutability":"nonpayable","type":"function"}],"evm":{"bytecode":{"linkReferences":{},"object":"60808060405234602157600860ff19600154161760015560e290816100278239f35b600080fdfe6080806040526004361015601257600080fd5b60003560e01c908163313ce56714609057508063f7a308061460795763feaf968c14603c57600080fd5b34607457600036600319011260745760a060005460405190600082526020820152600060408201526000606082015260006080820152f35b600080fd5b346074576020366003190112607457600435600055005b34607457600036600319011260745760209060ff600154168152f3fea264697066735822122041e31bc1560527e9f73bf835bf3f9b2ea1bfa060cdff4ca07ecd91794571b39364736f6c634300081c0033","opcodes":"PUSH1 0x80 DUP1 PUSH1 0x40 MSTORE CALLVALUE PUSH1 0x21 JUMPI PUSH1 0x8 PUSH1 0xFF NOT PUSH1 0x1 SLOAD AND OR PUSH1 0x1 SSTORE PUSH1 0xE2 SWAP1 DUP2 PUSH2 0x27 DUP3 CODECOPY RETURN JUMPDEST PUSH1 0x0 DUP1 REVERT INVALID PUSH1 0x80 DUP1 PUSH1 0x40 MSTORE PUSH1 0x4 CALLDATASIZE LT ISZERO PUSH1 0x12 JUMPI PUSH1 0x0 DUP1 REVERT JUMPDEST PUSH1 0x0 CALLDATALOAD PUSH1 0xE0 SHR SWAP1 DUP2 PUSH4 0x313CE567 EQ PUSH1 0x90 JUMPI POP DUP1 PUSH4 0xF7A30806 EQ PUSH1 0x79 JUMPI PUSH4 0xFEAF968C EQ PUSH1 0x3C JUMPI PUSH1 0x0 DUP1 REVERT JUMPDEST CALLVALUE PUSH1 0x74 JUMPI PUSH1 0x0 CALLDATASIZE PUSH1 0x3 NOT ADD SLT PUSH1 0x74 JUMPI PUSH1 0xA0 PUSH1 0x0 SLOAD PUSH1 0x40 MLOAD SWAP1 PUSH1 0x0 DUP3 MSTORE PUSH1 0x20 DUP3 ADD MSTORE PUSH1 0x0 PUSH1 0x40 DUP3 ADD MSTORE PUSH1 0x0 PUSH1 0x60 DUP3 ADD MSTORE PUSH1 0x0 PUSH1 0x80 DUP3 ADD MSTORE RETURN JUMPDEST PUSH1 0x0 DUP1 REVERT JUMPDEST CALLVALUE PUSH1 0x74 JUMPI PUSH1 0x20 CALLDATASIZE PUSH1 0x3 NOT ADD SLT PUSH1 0x74 JUMPI PUSH1 0x4 CALLDATALOAD PUSH1 0x0 SSTORE STOP JUMPDEST CALLVALUE PUSH1 0x74 JUMPI PUSH1 0x0 CALLDATASIZE PUSH1 0x3 NOT ADD SLT PUSH1 0x74 JUMPI PUSH1 0x20 SWAP1 PUSH1 0xFF PUSH1 0x1 SLOAD AND DUP2 MSTORE RETURN INVALID LOG2 PUSH5 0x6970667358 0x22 SLT KECCAK256 COINBASE 0xE3 SHL 0xC1 JUMP SDIV 0x27 0xE9 0xF7 EXTCODESIZE 0xF8 CALLDATALOAD 0xBF EXTCODEHASH SWAP12 0x2E LOG1 0xBF LOG0 PUSH1 0xCD SELFDESTRUCT 0x4C LOG0 PUSH31 0xCD91794571B39364736F6C634300081C003300000000000000000000000000 "},"methodIdentifiers":{"decimals()":"313ce567","latestRoundData()":"feaf968c","setPrice(int256)":"f7a30806"}}}}}