{"contracts/mocks/MockRouter.sol":{"MockRouter":{"abi":[{"inputs":[],"name":"InsufficientFeeTokenAmount","type":"error"},{"inputs":[],"name":"InvalidMsgValue","type":"error"},{"inputs":[{"internalType":"uint64","name":"destChainSelector","type":"uint64"}],"name":"UnsupportedDestinationChain","type":"error"},{"anonymous":false,"inputs":[{"indexed":true,"internalType":"bytes32","name":"messageId","type":"bytes32"},{"indexed":false,"internalType":"uint64","name":"destinationChainSelector","type":"uint64"},{"indexed":false,"internalType":"address","name":"receiver","type":"address"},{"indexed":false,"internalType":"bytes","name":"data","type":"bytes"},{"components":[{"internalType":"address","name":"token","type":"address"},{"internalType":"uint256","name":"amount","type":"uint256"}],"indexed":false,"internalType":"struct Client.EVMTokenAmount[]","name":"tokenAmounts","type":"tuple[]"},{"indexed":false,"internalType":"address","name":"feeToken","type":"address"},{"indexed":false,"internalType":"bytes","name":"extraArgs","type":"bytes"}],"name":"MessageSent","type":"event"},{"inputs":[{"internalType":"uint64","name":"destinationChainSelector","type":"uint64"},{"components":[{"internalType":"bytes","name":"receiver","type":"bytes"},{"internalType":"bytes","name":"data","type":"bytes"},{"components":[{"internalType":"address","name":"token","type":"address"},{"internalType":"uint256","name":"amount","type":"uint256"}],"internalType":"struct Client.EVMTokenAmount[]","name":"tokenAmounts","type":"tuple[]"},{"internalType":"address","name":"feeToken","type":"address"},{"internalType":"bytes","name":"extraArgs","type":"bytes"}],"internalType":"struct Client.EVM2AnyMessage","name":"message","type":"tuple"}],"name":"ccipSend","outputs":[{"internalType":"bytes32","name":"","type":"bytes32"}],"stateMutability":"payable","type":"function"},{"inputs":[{"internalType":"uint64","name":"","type":"uint64"},{"components":[{"internalType":"bytes","name":"receiver","type":"bytes"},{"internalType":"bytes","name":"data","type":"bytes"},{"components":[{"internalType":"address","name":"token","type":"address"},{"internalType":"uint256","name":"amount","type":"uint256"}],"internalType":"struct Client.EVMTokenAmount[]","name":"tokenAmounts","type":"tuple[]"},{"internalType":"address","name":"feeToken","type":"address"},{"internalType":"bytes","name":"extraArgs","type":"bytes"}],"internalType":"struct Client.EVM2AnyMessage","name":"","type":"tuple"}],"name":"getFee","outputs":[{"internalType":"uint256","name":"","type":"uint256"}],"stateMutability":"pure","type":"function"},{"inputs":[{"internalType":"uint64","name":"","type":"uint64"}],"name":"getSupportedTokens","outputs":[{"internalType":"address[]","name":"","type":"address[]"}],"stateMutability":"pure","type":"function"},{"inputs":[{"internalType":"uint64","name":"","type":"uint64"}],"name":"isChainSupported","outputs":[{"internalType":"bool","name":"","type":"bool"}],"stateMutability":"pure","type":"function"}],"evm":{"bytecode":{"linkReferences":{},"object":"6080806040523460155761054c908161001b8239f35b600080fdfe6080604052600436101561001257600080fd5b60003560e01c806320487ded1461025357806396f4e9f9146100ef578063a48a9058146100ca5763fbca3b741461004857600080fd5b346100c55760203660031901126100c557610061610274565b506040516020610071818361028a565b6000825260003681376040519181839283018184528251809152816040850193019160005b8281106100a557505050500390f35b83516001600160a01b031685528695509381019392810192600101610096565b600080fd5b346100c55760203660031901126100c5576100e3610274565b50602060405160018152f35b6100f83661032b565b60208101908151604051610152605c8260208101944286523360601b60408301526001600160401b0360c01b8960c01b16605483015261014181518092602086860191016104ce565b81010301601f19810183528261028a565b5190209181516020818051810103126100c557602001516001600160a01b03811691908290036100c55751916101bf604082015193608060018060a01b03606085015116930151936001600160401b0360405198168852602088015260c0604088015260c08701906104f1565b85810360608701526020808551928381520194019060005b81811061022857602087807f86813df51d9b2683ec5403dd77a2394084a7a6c0dc9bf1d181179dab48ea126a8b8061021d8c8c8c608085015283820360a08501526104f1565b0390a2604051908152f35b825180516001600160a01b0316875260209081015181880152604090960195909201916001016101d7565b346100c5576102613661032b565b50506020604051662386f26fc100008152f35b600435906001600160401b03821682036100c557565b90601f801991011681019081106001600160401b038211176102ab57604052565b634e487b7160e01b600052604160045260246000fd5b81601f820112156100c5578035906001600160401b0382116102ab57604051926102f5601f8401601f19166020018561028a565b828452602083830101116100c557816000926020809301838601378301015290565b35906001600160a01b03821682036100c557565b9060406003198301126100c5576004356001600160401b03811681036100c557916024356001600160401b0381116100c55760a081830360031901126100c5576040519160a083018381106001600160401b038211176102ab5760405281600401356001600160401b0381116100c5578160046103aa928501016102c1565b835260248201356001600160401b0381116100c5578160046103ce928501016102c1565b602084015260448201356001600160401b0381116100c5578201816023820112156100c55760048101356001600160401b0381116102ab5760208160051b019161041b604051938461028a565b818352602060048185019360061b83010101908482116100c557602401915b81831061048357505050604084015261045560648301610317565b60608401526084820135916001600160401b0383116100c55761047b92016004016102c1565b608082015290565b6040838603126100c5576040519060408201908282106001600160401b038311176102ab5760409260209284526104b986610317565b8152828601358382015281520192019161043a565b60005b8381106104e15750506000910152565b81810151838201526020016104d1565b9060209161050a815180928185528580860191016104ce565b601f01601f191601019056fea2646970667358221220f6b3709b146a9c624ea7587b576819ffcdc42010b675fae01c9008e8fae3bb0864736f6c634300081c0033","opcodes":"PUSH1 0x80 DUP1 PUSH1 0x40 MSTORE CALLVALUE PUSH1 0x15 JUMPI PUSH2 0x54C SWAP1 DUP2 PUSH2 0x1B DUP3 CODECOPY RETURN JUMPDEST PUSH1 0x0 DUP1 REVERT INVALID PUSH1 0x80 PUSH1 0x40 MSTORE PUSH1 0x4 CALLDATASIZE LT ISZERO PUSH2 0x12 JUMPI PUSH1 0x0 DUP1 REVERT JUMPDEST PUSH1 0x0 CALLDATALOAD PUSH1 0xE0 SHR DUP1 PUSH4 0x20487DED EQ PUSH2 0x253 JUMPI DUP1 PUSH4 0x96F4E9F9 EQ PUSH2 0xEF JUMPI DUP1 PUSH4 0xA48A9058 EQ PUSH2 0xCA JUMPI PUSH4 0xFBCA3B74 EQ PUSH2 0x48 JUMPI PUSH1 0x0 DUP1 REVERT JUMPDEST CALLVALUE PUSH2 0xC5 JUMPI PUSH1 0x20 CALLDATASIZE PUSH1 0x3 NOT ADD SLT PUSH2 0xC5 JUMPI PUSH2 0x61 PUSH2 0x274 JUMP JUMPDEST POP PUSH1 0x40 MLOAD PUSH1 0x20 PUSH2 0x71 DUP2 DUP4 PUSH2 0x28A JUMP JUMPDEST PUSH1 0x0 DUP3 MSTORE PUSH1 0x0 CALLDATASIZE DUP2 CALLDATACOPY PUSH1 0x40 MLOAD SWAP2 DUP2 DUP4 SWAP3 DUP4 ADD DUP2 DUP5 MSTORE DUP3 MLOAD DUP1 SWAP2 MSTORE DUP2 PUSH1 0x40 DUP6 ADD SWAP4 ADD SWAP2 PUSH1 0x0 JUMPDEST DUP3 DUP2 LT PUSH2 0xA5 JUMPI POP POP POP POP SUB SWAP1 RETURN JUMPDEST DUP4 MLOAD PUSH1 0x1 PUSH1 0x1 PUSH1 0xA0 SHL SUB AND DUP6 MSTORE DUP7 SWAP6 POP SWAP4 DUP2 ADD SWAP4 SWAP3 DUP2 ADD SWAP3 PUSH1 0x1 ADD PUSH2 0x96 JUMP JUMPDEST PUSH1 0x0 DUP1 REVERT JUMPDEST CALLVALUE PUSH2 0xC5 JUMPI PUSH1 0x20 CALLDATASIZE PUSH1 0x3 NOT ADD SLT PUSH2 0xC5 JUMPI PUSH2 0xE3 PUSH2 0x274 JUMP JUMPDEST POP PUSH1 0x20 PUSH1 0x40 MLOAD PUSH1 0x1 DUP2 MSTORE RETURN JUMPDEST PUSH2 0xF8 CALLDATASIZE PUSH2 0x32B JUMP JUMPDEST PUSH1 0x20 DUP2 ADD SWAP1 DUP2 MLOAD PUSH1 0x40 MLOAD PUSH2 0x152 PUSH1 0x5C DUP3 PUSH1 0x20 DUP2 ADD SWAP5 TIMESTAMP DUP7 MSTORE CALLER PUSH1 0x60 SHL PUSH1 0x40 DUP4 ADD MSTORE PUSH1 0x1 PUSH1 0x1 PUSH1 0x40 SHL SUB PUSH1 0xC0 SHL DUP10 PUSH1 0xC0 SHL AND PUSH1 0x54 DUP4 ADD MSTORE PUSH2 0x141 DUP2 MLOAD DUP1 SWAP3 PUSH1 0x20 DUP7 DUP7 ADD SWAP2 ADD PUSH2 0x4CE JUMP JUMPDEST DUP2 ADD SUB ADD PUSH1 0x1F NOT DUP2 ADD DUP4 MSTORE DUP3 PUSH2 0x28A JUMP JUMPDEST MLOAD SWAP1 KECCAK256 SWAP2 DUP2 MLOAD PUSH1 0x20 DUP2 DUP1 MLOAD DUP2 ADD SUB SLT PUSH2 0xC5 JUMPI PUSH1 0x20 ADD MLOAD PUSH1 0x1 PUSH1 0x1 PUSH1 0xA0 SHL SUB DUP2 AND SWAP2 SWAP1 DUP3 SWAP1 SUB PUSH2 0xC5 JUMPI MLOAD SWAP2 PUSH2 0x1BF PUSH1 0x40 DUP3 ADD MLOAD SWAP4 PUSH1 0x80 PUSH1 0x1 DUP1 PUSH1 0xA0 SHL SUB PUSH1 0x60 DUP6 ADD MLOAD AND SWAP4 ADD MLOAD SWAP4 PUSH1 0x1 PUSH1 0x1 PUSH1 0x40 SHL SUB PUSH1 0x40 MLOAD SWAP9 AND DUP9 MSTORE PUSH1 0x20 DUP9 ADD MSTORE PUSH1 0xC0 PUSH1 0x40 DUP9 ADD MSTORE PUSH1 0xC0 DUP8 ADD SWAP1 PUSH2 0x4F1 JUMP JUMPDEST DUP6 DUP2 SUB PUSH1 0x60 DUP8 ADD MSTORE PUSH1 0x20 DUP1 DUP6 MLOAD SWAP3 DUP4 DUP2 MSTORE ADD SWAP5 ADD SWAP1 PUSH1 0x0 JUMPDEST DUP2 DUP2 LT PUSH2 0x228 JUMPI PUSH1 0x20 DUP8 DUP1 PUSH32 0x86813DF51D9B2683EC5403DD77A2394084A7A6C0DC9BF1D181179DAB48EA126A DUP12 DUP1 PUSH2 0x21D DUP13 DUP13 DUP13 PUSH1 0x80 DUP6 ADD MSTORE DUP4 DUP3 SUB PUSH1 0xA0 DUP6 ADD MSTORE PUSH2 0x4F1 JUMP JUMPDEST SUB SWAP1 LOG2 PUSH1 0x40 MLOAD SWAP1 DUP2 MSTORE RETURN JUMPDEST DUP3 MLOAD DUP1 MLOAD PUSH1 0x1 PUSH1 0x1 PUSH1 0xA0 SHL SUB AND DUP8 MSTORE PUSH1 0x20 SWAP1 DUP2 ADD MLOAD DUP2 DUP9 ADD MSTORE PUSH1 0x40 SWAP1 SWAP7 ADD SWAP6 SWAP1 SWAP3 ADD SWAP2 PUSH1 0x1 ADD PUSH2 0x1D7 JUMP JUMPDEST CALLVALUE PUSH2 0xC5 JUMPI PUSH2 0x261 CALLDATASIZE PUSH2 0x32B JUMP JUMPDEST POP POP PUSH1 0x20 PUSH1 0x40 MLOAD PUSH7 0x2386F26FC10000 DUP2 MSTORE RETURN JUMPDEST PUSH1 0x4 CALLDATALOAD SWAP1 PUSH1 0x1 PUSH1 0x1 PUSH1 0x40 SHL SUB DUP3 AND DUP3 SUB PUSH2 0xC5 JUMPI JUMP JUMPDEST SWAP1 PUSH1 0x1F DUP1 NOT SWAP2 ADD AND DUP2 ADD SWAP1 DUP2 LT PUSH1 0x1 PUSH1 0x1 PUSH1 0x40 SHL SUB DUP3 GT OR PUSH2 0x2AB JUMPI PUSH1 0x40 MSTORE JUMP JUMPDEST PUSH4 0x4E487B71 PUSH1 0xE0 SHL PUSH1 0x0 MSTORE PUSH1 0x41 PUSH1 0x4 MSTORE PUSH1 0x24 PUSH1 0x0 REVERT JUMPDEST DUP2 PUSH1 0x1F DUP3 ADD SLT ISZERO PUSH2 0xC5 JUMPI DUP1 CALLDATALOAD SWAP1 PUSH1 0x1 PUSH1 0x1 PUSH1 0x40 SHL SUB DUP3 GT PUSH2 0x2AB JUMPI PUSH1 0x40 MLOAD SWAP3 PUSH2 0x2F5 PUSH1 0x1F DUP5 ADD PUSH1 0x1F NOT AND PUSH1 0x20 ADD DUP6 PUSH2 0x28A JUMP JUMPDEST DUP3 DUP5 MSTORE PUSH1 0x20 DUP4 DUP4 ADD ADD GT PUSH2 0xC5 JUMPI DUP2 PUSH1 0x0 SWAP3 PUSH1 0x20 DUP1 SWAP4 ADD DUP4 DUP7 ADD CALLDATACOPY DUP4 ADD ADD MSTORE SWAP1 JUMP JUMPDEST CALLDATALOAD SWAP1 PUSH1 0x1 PUSH1 0x1 PUSH1 0xA0 SHL SUB DUP3 AND DUP3 SUB PUSH2 0xC5 JUMPI JUMP JUMPDEST SWAP1 PUSH1 0x40 PUSH1 0x3 NOT DUP4 ADD SLT PUSH2 0xC5 JUMPI PUSH1 0x4 CALLDATALOAD PUSH1 0x1 PUSH1 0x1 PUSH1 0x40 SHL SUB DUP2 AND DUP2 SUB PUSH2 0xC5 JUMPI SWAP2 PUSH1 0x24 CALLDATALOAD PUSH1 0x1 PUSH1 0x1 PUSH1 0x40 SHL SUB DUP2 GT PUSH2 0xC5 JUMPI PUSH1 0xA0 DUP2 DUP4 SUB PUSH1 0x3 NOT ADD SLT PUSH2 0xC5 JUMPI PUSH1 0x40 MLOAD SWAP2 PUSH1 0xA0 DUP4 ADD DUP4 DUP2 LT PUSH1 0x1 PUSH1 0x1 PUSH1 0x40 SHL SUB DUP3 GT OR PUSH2 0x2AB JUMPI PUSH1 0x40 MSTORE DUP2 PUSH1 0x4 ADD CALLDATALOAD PUSH1 0x1 PUSH1 0x1 PUSH1 0x40 SHL SUB DUP2 GT PUSH2 0xC5 JUMPI DUP2 PUSH1 0x4 PUSH2 0x3AA SWAP3 DUP6 ADD ADD PUSH2 0x2C1 JUMP JUMPDEST DUP4 MSTORE PUSH1 0x24 DUP3 ADD CALLDATALOAD PUSH1 0x1 PUSH1 0x1 PUSH1 0x40 SHL SUB DUP2 GT PUSH2 0xC5 JUMPI DUP2 PUSH1 0x4 PUSH2 0x3CE SWAP3 DUP6 ADD ADD PUSH2 0x2C1 JUMP JUMPDEST PUSH1 0x20 DUP5 ADD MSTORE PUSH1 0x44 DUP3 ADD CALLDATALOAD PUSH1 0x1 PUSH1 0x1 PUSH1 0x40 SHL SUB DUP2 GT PUSH2 0xC5 JUMPI DUP3 ADD DUP2 PUSH1 0x23 DUP3 ADD SLT ISZERO PUSH2 0xC5 JUMPI PUSH1 0x4 DUP2 ADD CALLDATALOAD PUSH1 0x1 PUSH1 0x1 PUSH1 0x40 SHL SUB DUP2 GT PUSH2 0x2AB JUMPI PUSH1 0x20 DUP2 PUSH1 0x5 SHL ADD SWAP2 PUSH2 0x41B PUSH1 0x40 MLOAD SWAP4 DUP5 PUSH2 0x28A JUMP JUMPDEST DUP2 DUP4 MSTORE PUSH1 0x20 PUSH1 0x4 DUP2 DUP6 ADD SWAP4 PUSH1 0x6 SHL DUP4 ADD ADD ADD SWAP1 DUP5 DUP3 GT PUSH2 0xC5 JUMPI PUSH1 0x24 ADD SWAP2 JUMPDEST DUP2 DUP4 LT PUSH2 0x483 JUMPI POP POP POP PUSH1 0x40 DUP5 ADD MSTORE PUSH2 0x455 PUSH1 0x64 DUP4 ADD PUSH2 0x317 JUMP JUMPDEST PUSH1 0x60 DUP5 ADD MSTORE PUSH1 0x84 DUP3 ADD CALLDATALOAD SWAP2 PUSH1 0x1 PUSH1 0x1 PUSH1 0x40 SHL SUB DUP4 GT PUSH2 0xC5 JUMPI PUSH2 0x47B SWAP3 ADD PUSH1 0x4 ADD PUSH2 0x2C1 JUMP JUMPDEST PUSH1 0x80 DUP3 ADD MSTORE SWAP1 JUMP JUMPDEST PUSH1 0x40 DUP4 DUP7 SUB SLT PUSH2 0xC5 JUMPI PUSH1 0x40 MLOAD SWAP1 PUSH1 0x40 DUP3 ADD SWAP1 DUP3 DUP3 LT PUSH1 0x1 PUSH1 0x1 PUSH1 0x40 SHL SUB DUP4 GT OR PUSH2 0x2AB JUMPI PUSH1 0x40 SWAP3 PUSH1 0x20 SWAP3 DUP5 MSTORE PUSH2 0x4B9 DUP7 PUSH2 0x317 JUMP JUMPDEST DUP2 MSTORE DUP3 DUP7 ADD CALLDATALOAD DUP4 DUP3 ADD MSTORE DUP2 MSTORE ADD SWAP3 ADD SWAP2 PUSH2 0x43A JUMP JUMPDEST PUSH1 0x0 JUMPDEST DUP4 DUP2 LT PUSH2 0x4E1 JUMPI POP POP PUSH1 0x0 SWAP2 ADD MSTORE JUMP JUMPDEST DUP2 DUP2 ADD MLOAD DUP4 DUP3 ADD MSTORE PUSH1 0x20 ADD PUSH2 0x4D1 JUMP JUMPDEST SWAP1 PUSH1 0x20 SWAP2 PUSH2 0x50A DUP2 MLOAD DUP1 SWAP3 DUP2 DUP6 MSTORE DUP6 DUP1 DUP7 ADD SWAP2 ADD PUSH2 0x4CE JUMP JUMPDEST PUSH1 0x1F ADD PUSH1 0x1F NOT AND ADD ADD SWAP1 JUMP INVALID LOG2 PUSH5 0x6970667358 0x22 SLT KECCAK256 0xF6 0xB3 PUSH17 0x9B146A9C624EA7587B576819FFCDC42010 0xB6 PUSH22 0xFAE01C9008E8FAE3BB0864736F6C634300081C003300 "},"methodIdentifiers":{"ccipSend(uint64,(bytes,bytes,(address,uint256)[],address,bytes))":"96f4e9f9","getFee(uint64,(bytes,bytes,(address,uint256)[],address,bytes))":"20487ded","getSupportedTokens(uint64)":"fbca3b74","isChainSupported(uint64)":"a48a9058"}}}}}