{
  "_format": "hh-sol-artifact-1",
  "contractName": "CrossCreditToken",
  "sourceName": "contracts/CrossCreditToken.sol",
  "abi": [
    {
      "inputs": [],
      "stateMutability": "nonpayable",
      "type": "constructor"
    },
    {
      "inputs": [],
      "name": "ExceedsMaxSupply",
      "type": "error"
    },
    {
      "inputs": [],
      "name": "InsufficientBalance",
      "type": "error"
    },
    {
      "inputs": [],
      "name": "InvalidAmount",
      "type": "error"
    },
    {
      "inputs": [],
      "name": "InvalidFee",
      "type": "error"
    },
    {
      "inputs": [],
      "name": "TransactionAlreadyProcessed",
      "type": "error"
    },
    {
      "anonymous": false,
      "inputs": [
        {
          "indexed": true,
          "internalType": "address",
          "name": "owner",
          "type": "address"
        },
        {
          "indexed": true,
          "internalType": "address",
          "name": "spender",
          "type": "address"
        },
        {
          "indexed": false,
          "internalType": "uint256",
          "name": "value",
          "type": "uint256"
        }
      ],
      "name": "Approval",
      "type": "event"
    },
    {
      "anonymous": false,
      "inputs": [
        {
          "indexed": true,
          "internalType": "address",
          "name": "to",
          "type": "address"
        },
        {
          "indexed": false,
          "internalType": "uint256",
          "name": "amount",
          "type": "uint256"
        },
        {
          "indexed": false,
          "internalType": "uint256",
          "name": "fee",
          "type": "uint256"
        },
        {
          "indexed": false,
          "internalType": "uint256",
          "name": "sourceChain",
          "type": "uint256"
        },
        {
          "indexed": true,
          "internalType": "bytes32",
          "name": "txHash",
          "type": "bytes32"
        }
      ],
      "name": "CrossChainReceive",
      "type": "event"
    },
    {
      "anonymous": false,
      "inputs": [
        {
          "indexed": true,
          "internalType": "address",
          "name": "from",
          "type": "address"
        },
        {
          "indexed": true,
          "internalType": "address",
          "name": "to",
          "type": "address"
        },
        {
          "indexed": false,
          "internalType": "uint256",
          "name": "amount",
          "type": "uint256"
        },
        {
          "indexed": false,
          "internalType": "uint256",
          "name": "fee",
          "type": "uint256"
        },
        {
          "indexed": false,
          "internalType": "uint256",
          "name": "targetChain",
          "type": "uint256"
        },
        {
          "indexed": true,
          "internalType": "bytes32",
          "name": "txHash",
          "type": "bytes32"
        }
      ],
      "name": "CrossChainSend",
      "type": "event"
    },
    {
      "anonymous": false,
      "inputs": [
        {
          "indexed": false,
          "internalType": "uint256",
          "name": "sendFee",
          "type": "uint256"
        },
        {
          "indexed": false,
          "internalType": "uint256",
          "name": "receiveFee",
          "type": "uint256"
        }
      ],
      "name": "FeeUpdated",
      "type": "event"
    },
    {
      "anonymous": false,
      "inputs": [
        {
          "indexed": true,
          "internalType": "address",
          "name": "previousOwner",
          "type": "address"
        },
        {
          "indexed": true,
          "internalType": "address",
          "name": "newOwner",
          "type": "address"
        }
      ],
      "name": "OwnershipTransferred",
      "type": "event"
    },
    {
      "anonymous": false,
      "inputs": [
        {
          "indexed": true,
          "internalType": "address",
          "name": "from",
          "type": "address"
        },
        {
          "indexed": true,
          "internalType": "address",
          "name": "to",
          "type": "address"
        },
        {
          "indexed": false,
          "internalType": "uint256",
          "name": "value",
          "type": "uint256"
        }
      ],
      "name": "Transfer",
      "type": "event"
    },
    {
      "inputs": [],
      "name": "INITIAL_SUPPLY",
      "outputs": [
        {
          "internalType": "uint256",
          "name": "",
          "type": "uint256"
        }
      ],
      "stateMutability": "view",
      "type": "function"
    },
    {
      "inputs": [],
      "name": "MAX_FEE",
      "outputs": [
        {
          "internalType": "uint256",
          "name": "",
          "type": "uint256"
        }
      ],
      "stateMutability": "view",
      "type": "function"
    },
    {
      "inputs": [],
      "name": "MAX_SUPPLY",
      "outputs": [
        {
          "internalType": "uint256",
          "name": "",
          "type": "uint256"
        }
      ],
      "stateMutability": "view",
      "type": "function"
    },
    {
      "inputs": [
        {
          "internalType": "address",
          "name": "owner",
          "type": "address"
        },
        {
          "internalType": "address",
          "name": "spender",
          "type": "address"
        }
      ],
      "name": "allowance",
      "outputs": [
        {
          "internalType": "uint256",
          "name": "",
          "type": "uint256"
        }
      ],
      "stateMutability": "view",
      "type": "function"
    },
    {
      "inputs": [
        {
          "internalType": "address",
          "name": "spender",
          "type": "address"
        },
        {
          "internalType": "uint256",
          "name": "amount",
          "type": "uint256"
        }
      ],
      "name": "approve",
      "outputs": [
        {
          "internalType": "bool",
          "name": "",
          "type": "bool"
        }
      ],
      "stateMutability": "nonpayable",
      "type": "function"
    },
    {
      "inputs": [
        {
          "internalType": "address",
          "name": "account",
          "type": "address"
        }
      ],
      "name": "balanceOf",
      "outputs": [
        {
          "internalType": "uint256",
          "name": "",
          "type": "uint256"
        }
      ],
      "stateMutability": "view",
      "type": "function"
    },
    {
      "inputs": [
        {
          "internalType": "uint256",
          "name": "amount",
          "type": "uint256"
        }
      ],
      "name": "burn",
      "outputs": [],
      "stateMutability": "nonpayable",
      "type": "function"
    },
    {
      "inputs": [
        {
          "internalType": "address",
          "name": "account",
          "type": "address"
        },
        {
          "internalType": "uint256",
          "name": "amount",
          "type": "uint256"
        }
      ],
      "name": "burnFrom",
      "outputs": [],
      "stateMutability": "nonpayable",
      "type": "function"
    },
    {
      "inputs": [
        {
          "internalType": "address",
          "name": "to",
          "type": "address"
        },
        {
          "internalType": "uint256",
          "name": "amount",
          "type": "uint256"
        },
        {
          "internalType": "uint256",
          "name": "sourceChain",
          "type": "uint256"
        },
        {
          "internalType": "bytes32",
          "name": "txHash",
          "type": "bytes32"
        }
      ],
      "name": "crossChainReceive",
      "outputs": [],
      "stateMutability": "nonpayable",
      "type": "function"
    },
    {
      "inputs": [
        {
          "internalType": "address",
          "name": "to",
          "type": "address"
        },
        {
          "internalType": "uint256",
          "name": "amount",
          "type": "uint256"
        },
        {
          "internalType": "uint256",
          "name": "targetChain",
          "type": "uint256"
        }
      ],
      "name": "crossChainSend",
      "outputs": [
        {
          "internalType": "bytes32",
          "name": "txHash",
          "type": "bytes32"
        }
      ],
      "stateMutability": "nonpayable",
      "type": "function"
    },
    {
      "inputs": [],
      "name": "decimals",
      "outputs": [
        {
          "internalType": "uint8",
          "name": "",
          "type": "uint8"
        }
      ],
      "stateMutability": "view",
      "type": "function"
    },
    {
      "inputs": [
        {
          "internalType": "address",
          "name": "spender",
          "type": "address"
        },
        {
          "internalType": "uint256",
          "name": "subtractedValue",
          "type": "uint256"
        }
      ],
      "name": "decreaseAllowance",
      "outputs": [
        {
          "internalType": "bool",
          "name": "",
          "type": "bool"
        }
      ],
      "stateMutability": "nonpayable",
      "type": "function"
    },
    {
      "inputs": [
        {
          "internalType": "address",
          "name": "token",
          "type": "address"
        },
        {
          "internalType": "uint256",
          "name": "amount",
          "type": "uint256"
        }
      ],
      "name": "emergencyWithdraw",
      "outputs": [],
      "stateMutability": "nonpayable",
      "type": "function"
    },
    {
      "inputs": [
        {
          "internalType": "uint256",
          "name": "amount",
          "type": "uint256"
        }
      ],
      "name": "getNetReceiveAmount",
      "outputs": [
        {
          "internalType": "uint256",
          "name": "netAmount",
          "type": "uint256"
        }
      ],
      "stateMutability": "view",
      "type": "function"
    },
    {
      "inputs": [
        {
          "internalType": "uint256",
          "name": "amount",
          "type": "uint256"
        }
      ],
      "name": "getNetSendAmount",
      "outputs": [
        {
          "internalType": "uint256",
          "name": "netAmount",
          "type": "uint256"
        }
      ],
      "stateMutability": "view",
      "type": "function"
    },
    {
      "inputs": [
        {
          "internalType": "address",
          "name": "user",
          "type": "address"
        }
      ],
      "name": "getPendingReceives",
      "outputs": [
        {
          "internalType": "uint256",
          "name": "amount",
          "type": "uint256"
        }
      ],
      "stateMutability": "view",
      "type": "function"
    },
    {
      "inputs": [
        {
          "internalType": "address",
          "name": "user",
          "type": "address"
        }
      ],
      "name": "getPendingSends",
      "outputs": [
        {
          "internalType": "uint256",
          "name": "amount",
          "type": "uint256"
        }
      ],
      "stateMutability": "view",
      "type": "function"
    },
    {
      "inputs": [
        {
          "internalType": "uint256",
          "name": "amount",
          "type": "uint256"
        }
      ],
      "name": "getReceiveFee",
      "outputs": [
        {
          "internalType": "uint256",
          "name": "fee",
          "type": "uint256"
        }
      ],
      "stateMutability": "view",
      "type": "function"
    },
    {
      "inputs": [
        {
          "internalType": "uint256",
          "name": "amount",
          "type": "uint256"
        }
      ],
      "name": "getSendFee",
      "outputs": [
        {
          "internalType": "uint256",
          "name": "fee",
          "type": "uint256"
        }
      ],
      "stateMutability": "view",
      "type": "function"
    },
    {
      "inputs": [
        {
          "internalType": "address",
          "name": "spender",
          "type": "address"
        },
        {
          "internalType": "uint256",
          "name": "addedValue",
          "type": "uint256"
        }
      ],
      "name": "increaseAllowance",
      "outputs": [
        {
          "internalType": "bool",
          "name": "",
          "type": "bool"
        }
      ],
      "stateMutability": "nonpayable",
      "type": "function"
    },
    {
      "inputs": [
        {
          "internalType": "bytes32",
          "name": "txHash",
          "type": "bytes32"
        }
      ],
      "name": "isTransactionProcessed",
      "outputs": [
        {
          "internalType": "bool",
          "name": "processed",
          "type": "bool"
        }
      ],
      "stateMutability": "view",
      "type": "function"
    },
    {
      "inputs": [
        {
          "internalType": "address",
          "name": "to",
          "type": "address"
        },
        {
          "internalType": "uint256",
          "name": "amount",
          "type": "uint256"
        }
      ],
      "name": "mint",
      "outputs": [],
      "stateMutability": "nonpayable",
      "type": "function"
    },
    {
      "inputs": [],
      "name": "name",
      "outputs": [
        {
          "internalType": "string",
          "name": "",
          "type": "string"
        }
      ],
      "stateMutability": "view",
      "type": "function"
    },
    {
      "inputs": [],
      "name": "owner",
      "outputs": [
        {
          "internalType": "address",
          "name": "",
          "type": "address"
        }
      ],
      "stateMutability": "view",
      "type": "function"
    },
    {
      "inputs": [
        {
          "internalType": "address",
          "name": "",
          "type": "address"
        }
      ],
      "name": "pendingReceives",
      "outputs": [
        {
          "internalType": "uint256",
          "name": "",
          "type": "uint256"
        }
      ],
      "stateMutability": "view",
      "type": "function"
    },
    {
      "inputs": [
        {
          "internalType": "address",
          "name": "",
          "type": "address"
        }
      ],
      "name": "pendingSends",
      "outputs": [
        {
          "internalType": "uint256",
          "name": "",
          "type": "uint256"
        }
      ],
      "stateMutability": "view",
      "type": "function"
    },
    {
      "inputs": [
        {
          "internalType": "bytes32",
          "name": "",
          "type": "bytes32"
        }
      ],
      "name": "processedTransactions",
      "outputs": [
        {
          "internalType": "bool",
          "name": "",
          "type": "bool"
        }
      ],
      "stateMutability": "view",
      "type": "function"
    },
    {
      "inputs": [],
      "name": "receiveFee",
      "outputs": [
        {
          "internalType": "uint256",
          "name": "",
          "type": "uint256"
        }
      ],
      "stateMutability": "view",
      "type": "function"
    },
    {
      "inputs": [],
      "name": "renounceOwnership",
      "outputs": [],
      "stateMutability": "nonpayable",
      "type": "function"
    },
    {
      "inputs": [],
      "name": "sendFee",
      "outputs": [
        {
          "internalType": "uint256",
          "name": "",
          "type": "uint256"
        }
      ],
      "stateMutability": "view",
      "type": "function"
    },
    {
      "inputs": [],
      "name": "symbol",
      "outputs": [
        {
          "internalType": "string",
          "name": "",
          "type": "string"
        }
      ],
      "stateMutability": "view",
      "type": "function"
    },
    {
      "inputs": [],
      "name": "totalSupply",
      "outputs": [
        {
          "internalType": "uint256",
          "name": "",
          "type": "uint256"
        }
      ],
      "stateMutability": "view",
      "type": "function"
    },
    {
      "inputs": [
        {
          "internalType": "address",
          "name": "to",
          "type": "address"
        },
        {
          "internalType": "uint256",
          "name": "amount",
          "type": "uint256"
        }
      ],
      "name": "transfer",
      "outputs": [
        {
          "internalType": "bool",
          "name": "",
          "type": "bool"
        }
      ],
      "stateMutability": "nonpayable",
      "type": "function"
    },
    {
      "inputs": [
        {
          "internalType": "address",
          "name": "from",
          "type": "address"
        },
        {
          "internalType": "address",
          "name": "to",
          "type": "address"
        },
        {
          "internalType": "uint256",
          "name": "amount",
          "type": "uint256"
        }
      ],
      "name": "transferFrom",
      "outputs": [
        {
          "internalType": "bool",
          "name": "",
          "type": "bool"
        }
      ],
      "stateMutability": "nonpayable",
      "type": "function"
    },
    {
      "inputs": [
        {
          "internalType": "address",
          "name": "newOwner",
          "type": "address"
        }
      ],
      "name": "transferOwnership",
      "outputs": [],
      "stateMutability": "nonpayable",
      "type": "function"
    },
    {
      "inputs": [
        {
          "internalType": "uint256",
          "name": "_sendFee",
          "type": "uint256"
        },
        {
          "internalType": "uint256",
          "name": "_receiveFee",
          "type": "uint256"
        }
      ],
      "name": "updateFees",
      "outputs": [],
      "stateMutability": "nonpayable",
      "type": "function"
    },
    {
      "stateMutability": "payable",
      "type": "receive"
    }
  ],
  "bytecode": "0x6080346200041c576040906001600160401b03818301818111838210176200031c578352601182526020907021b937b9b9a1b932b234ba102a37b5b2b760791b82840152835192848401848110838211176200031c5785526003918285526258434360e81b848601528151928184116200031c578054936001938486811c9616801562000411575b87871014620003fb578190601f96878111620003a5575b5087908783116001146200033e5760009262000332575b505060001982841b1c191690841b1781555b85519182116200031c5760049586548481811c9116801562000311575b87821014620002fc57858111620002b1575b50859085841160011462000246579383949184926000956200023a575b50501b92600019911b1c19161783555b60058054336001600160a01b03198216811790925585519291906001600160a01b03167f8be0079c531659141344cd1fd0a4f28419497f9722a3daafe3b4186f6b6457e0600080a3606460065560326007553315620001fd5750506002546b033b2e3c9fd0803ce800000092838201809211620001e857506000917fddf252ad1be2c89b69c2b068fc378daa952ba7f163c4a11628f55a4df523b3ef9160025533835282815284832084815401905584519384523393a3516113f79081620004228239f35b601190634e487b7160e01b6000525260246000fd5b6064928462461bcd60e51b845283015260248201527f45524332303a206d696e7420746f20746865207a65726f2061646472657373006044820152fd5b01519350388062000113565b9190601f198416928860005284886000209460005b8a898383106200029957505050106200027e575b50505050811b01835562000123565b01519060f884600019921b161c19169055388080806200026f565b8686015189559097019694850194889350016200025b565b87600052866000208680860160051c820192898710620002f2575b0160051c019085905b828110620002e5575050620000f6565b60008155018590620002d5565b92508192620002cc565b602288634e487b7160e01b6000525260246000fd5b90607f1690620000e4565b634e487b7160e01b600052604160045260246000fd5b015190503880620000b5565b90869350601f1983169185600052896000209260005b8b8282106200038e575050841162000375575b505050811b018155620000c7565b015160001983861b60f8161c1916905538808062000367565b8385015186558a9790950194938401930162000354565b90915083600052876000208780850160051c8201928a8610620003f1575b918891869594930160051c01915b828110620003e15750506200009e565b60008155859450889101620003d1565b92508192620003c3565b634e487b7160e01b600052602260045260246000fd5b95607f169562000087565b600080fdfe60806040818152600480361015610021575b505050361561001f57600080fd5b005b600092833560e01c90816306fdde0314610ccc57508063095ea7b314610ca257806309ec271e14610b535780630e46cc1e14610c78578063161f072214610c5157806318160ddd14610c3257806323b872dd14610bf55780632ff2e9dc14610bce578063313ce56714610bb257806332cb6b0c14610b8b5780633326ffd014610b535780633950935114610b0357806340c10f1914610aa457806342966c6814610a8657806347b9362b1461092d57806347cc9404146106a15780636c125161146108275780636db79437146107a057806370a0823114610769578063715018a61461070c57806379cc6790146106d957806384edfc52146106a15780638da5cb5b1461067857806395ccea671461059b57806395d89b4114610497578063a1d6d26f1461045f578063a457c2d7146103bb578063a9059cbb1461038a578063ac2e493614610284578063ae39279f1461036b578063bc063e1a1461034e578063c6c701f81461031c578063dd62ed3e146102d3578063e18b7fcf146102b0578063efc646ca146102845763f2fde38b036100115734610280576020366003190112610280576101cf610e0b565b906101d8610e3c565b6001600160a01b0391821692831561022e575050600554826bffffffffffffffffffffffff60a01b821617600555167f8be0079c531659141344cd1fd0a4f28419497f9722a3daafe3b4186f6b6457e08380a380f35b906020608492519162461bcd60e51b8352820152602660248201527f4f776e61626c653a206e6577206f776e657220697320746865207a65726f206160448201526564647265737360d01b6064820152fd5b8280fd5b5034610280576020366003190112610280578160209360ff92358152600a855220541690519015158152f35b5050346102cf57816003193601126102cf576020906007549051908152f35b5080fd5b5050346102cf57806003193601126102cf57806020926102f1610e0b565b6102f9610e26565b6001600160a01b0391821683526001865283832091168252845220549051908152f35b50913461034b57602036600319011261034b575061271061034360209360065490356113a1565b049051908152f35b80fd5b5050346102cf57816003193601126102cf57602090516103e88152f35b5050346102cf57816003193601126102cf576020906006549051908152f35b5050346102cf57806003193601126102cf576020906103b46103aa610e0b565b6024359033610eef565b5160018152f35b50823461034b578260031936011261034b576103d5610e0b565b918360243592338152600160205281812060018060a01b038616825260205220549082821061040e576020856103b4858503873361105d565b608490602086519162461bcd60e51b8352820152602560248201527f45524332303a2064656372656173656420616c6c6f77616e63652062656c6f77604482015264207a65726f60d81b6064820152fd5b50913461034b57602036600319011261034b575061049060209235612710610489600754836113a1565b04906113b4565b9051908152f35b509190346102cf57816003193601126102cf57805191809380549160019083821c92828516948515610591575b602095868610811461057e5785895290811561055a5750600114610502575b6104fe87876104f4828c0383610e94565b5191829182610dc2565b0390f35b81529295507f8a35acfbc15ff81a39ae7d344fd709f28e8600b4aa8c65c6b64bfe7fe36bd19b5b82841061054757505050826104fe946104f4928201019438806104e3565b8054868501880152928601928101610529565b60ff19168887015250505050151560051b83010192506104f4826104fe38806104e3565b634e487b7160e01b845260228352602484fd5b93607f16936104c4565b509034610280578060031936011261028057826105b6610e0b565b602435936105c2610e3c565b6001600160a01b039182169081610604575050818093948192600554168282156105fb575bf1156105f1575080f35b51903d90823e3d90fd5b506108fc6105e7565b6020936044929360055416938651978895869463a9059cbb60e01b865285015260248401525af190811561066f575061063b575080f35b6020813d8211610667575b8161065360209383610e94565b810103126102cf57518015150361034b5780f35b3d9150610646565b513d84823e3d90fd5b5050346102cf57816003193601126102cf5760055490516001600160a01b039091168152602090f35b5050346102cf5760203660031901126102cf5760209181906001600160a01b036106c9610e0b565b1681526008845220549051908152f35b5050346102cf5736600319011261034b576107096106f5610e0b565b6024359061070482338361115f565b6111f7565b80f35b833461034b578060031936011261034b57610725610e3c565b600580546001600160a01b0319811690915581906001600160a01b03167f8be0079c531659141344cd1fd0a4f28419497f9722a3daafe3b4186f6b6457e08280a380f35b5050346102cf5760203660031901126102cf5760209181906001600160a01b03610791610e0b565b16815280845220549051908152f35b509190346102cf57806003193601126102cf5782356024356107c0610e3c565b6103e880831190811561081d575b5061080d577f528d9479e9f9889a87a3c30c7f7ba537e5e59c4c85a37733b16e57c62df61302939450816006558060075582519182526020820152a180f35b82516358d620b360e01b81528590fd5b90508111386107ce565b50903461028057608036600319011261028057610842610e0b565b9060243560643593610852610e3c565b848652600a60205260ff838720541661091f5781156109115750907f7b4b3cffd1e1e8a78da3216dfa40593855b2f9d65c3f29f3f106412035d6d4939161090b6108ac6127106108a4600754856113a1565b0480936113b4565b92868852600a602052808820600160ff198254161790556108ee8460018060a01b03881697888b526009602052838b206108e7838254610ecc565b90556112fe565b519283526020830191909152604435604083015281906060820190565b0390a380f35b825163162908e360e11b8152fd5b825163eb4156ad60e01b8152fd5b50913461034b57606036600319011261034b57610948610e0b565b90602435604435918115610a765733815280602052818582205410610a6657612710610976600654846113a1565b049161098c61098584836113b4565b91336111f7565b33825260086020528582206109a2828254610ecc565b90558551602081013360601b81526bffffffffffffffffffffffff198760601b1660348301528260488301528560688301524260888301524360a883015260a8825260e082019382851067ffffffffffffffff861117610a535784895282518220848652602080870188905260408701899052908a816001600160a01b038c16337f4132e4a25e815b4b78fc5bb0532ceeda9fd135d11dd278fa63697e56d975cfd1607f198a8d03018ca451908152f35b634e487b7160e01b815260418a52602490fd5b8451631e9acf1760e31b81528690fd5b845163162908e360e11b81528690fd5b8382346102cf5760203660031901126102cf576107099035336111f7565b509190346102cf57806003193601126102cf57610abf610e0b565b60243591610acb610e3c565b6b204fce5e3e25026110000000610ae484600254610ecc565b11610af4575090610709916112fe565b5163c30436e960e01b81528490fd5b5050346102cf57806003193601126102cf576103b4602092610b4c610b26610e0b565b338352600186528483206001600160a01b03821684528652918490205460243590610ecc565b903361105d565b5050346102cf5760203660031901126102cf5760209181906001600160a01b03610b7b610e0b565b1681526009845220549051908152f35b5050346102cf57816003193601126102cf57602090516b204fce5e3e250261100000008152f35b5050346102cf57816003193601126102cf576020905160128152f35b5050346102cf57816003193601126102cf57602090516b033b2e3c9fd0803ce80000008152f35b5050346102cf5760603660031901126102cf576020906103b4610c16610e0b565b610c1e610e26565b60443591610c2d83338361115f565b610eef565b5050346102cf57816003193601126102cf576020906002549051908152f35b50913461034b57602036600319011261034b575061271061034360209360075490356113a1565b50913461034b57602036600319011261034b575061049060209235612710610489600654836113a1565b5050346102cf57806003193601126102cf576020906103b4610cc2610e0b565b602435903361105d565b9291905034610dbe5783600319360112610dbe57600354600181811c9186908281168015610db4575b6020958686108214610da15750848852908115610d7f5750600114610d26575b6104fe86866104f4828b0383610e94565b929550600383527fc2575a0e9e593c00f959f8c92f12db2869c3395a3b0502d05e2516446f71f85b5b828410610d6c57505050826104fe946104f4928201019438610d15565b8054868501880152928601928101610d4f565b60ff191687860152505050151560051b83010192506104f4826104fe38610d15565b634e487b7160e01b845260229052602483fd5b93607f1693610cf5565b8380fd5b6020808252825181830181905290939260005b828110610df757505060409293506000838284010152601f8019910116010190565b818101860151848201604001528501610dd5565b600435906001600160a01b0382168203610e2157565b600080fd5b602435906001600160a01b0382168203610e2157565b6005546001600160a01b03163303610e5057565b606460405162461bcd60e51b815260206004820152602060248201527f4f776e61626c653a2063616c6c6572206973206e6f7420746865206f776e65726044820152fd5b90601f8019910116810190811067ffffffffffffffff821117610eb657604052565b634e487b7160e01b600052604160045260246000fd5b91908201809211610ed957565b634e487b7160e01b600052601160045260246000fd5b6001600160a01b0390811691821561100a5716918215610fb957600082815280602052604081205491808310610f6557604082827fddf252ad1be2c89b69c2b068fc378daa952ba7f163c4a11628f55a4df523b3ef958760209652828652038282205586815220818154019055604051908152a3565b60405162461bcd60e51b815260206004820152602660248201527f45524332303a207472616e7366657220616d6f756e7420657863656564732062604482015265616c616e636560d01b6064820152608490fd5b60405162461bcd60e51b815260206004820152602360248201527f45524332303a207472616e7366657220746f20746865207a65726f206164647260448201526265737360e81b6064820152608490fd5b60405162461bcd60e51b815260206004820152602560248201527f45524332303a207472616e736665722066726f6d20746865207a65726f206164604482015264647265737360d81b6064820152608490fd5b6001600160a01b0390811691821561110e57169182156110be5760207f8c5be1e5ebec7d5bd14f71427d1e84f3dd0314c0f7b2291e5b200ac8c7c3b925918360005260018252604060002085600052825280604060002055604051908152a3565b60405162461bcd60e51b815260206004820152602260248201527f45524332303a20617070726f766520746f20746865207a65726f206164647265604482015261737360f01b6064820152608490fd5b60405162461bcd60e51b8152602060048201526024808201527f45524332303a20617070726f76652066726f6d20746865207a65726f206164646044820152637265737360e01b6064820152608490fd5b9060018060a01b0380831660005260016020526040600020908216600052602052604060002054926000198403611197575b50505050565b8084106111b2576111a993039161105d565b38808080611191565b60405162461bcd60e51b815260206004820152601d60248201527f45524332303a20696e73756666696369656e7420616c6c6f77616e63650000006044820152606490fd5b6001600160a01b031680156112af5760009181835282602052604083205481811061125f57817fddf252ad1be2c89b69c2b068fc378daa952ba7f163c4a11628f55a4df523b3ef926020928587528684520360408620558060025403600255604051908152a3565b60405162461bcd60e51b815260206004820152602260248201527f45524332303a206275726e20616d6f756e7420657863656564732062616c616e604482015261636560f01b6064820152608490fd5b60405162461bcd60e51b815260206004820152602160248201527f45524332303a206275726e2066726f6d20746865207a65726f206164647265736044820152607360f81b6064820152608490fd5b6001600160a01b031690811561135c577fddf252ad1be2c89b69c2b068fc378daa952ba7f163c4a11628f55a4df523b3ef602082611340600094600254610ecc565b60025584845283825260408420818154019055604051908152a3565b60405162461bcd60e51b815260206004820152601f60248201527f45524332303a206d696e7420746f20746865207a65726f2061646472657373006044820152606490fd5b81810292918115918404141715610ed957565b91908203918211610ed95756fea26469706673582212202de23dc448a7cad27b32495e05b4a77e60dcc512c1ad01e8d04a70635893c48b64736f6c63430008140033",
  "linkReferences": {},
  "deployedLinkReferences": {}
}