{
  "_format": "hh-sol-artifact-1",
  "contractName": "DeFiPassportNFT",
  "sourceName": "contracts/DeFiPassportNFT.sol",
  "abi": [
    {
      "inputs": [
        {
          "internalType": "string",
          "name": "name",
          "type": "string"
        },
        {
          "internalType": "string",
          "name": "symbol",
          "type": "string"
        },
        {
          "internalType": "address",
          "name": "_mainRouter",
          "type": "address"
        }
      ],
      "stateMutability": "nonpayable",
      "type": "constructor"
    },
    {
      "inputs": [],
      "name": "InvalidCreditScore",
      "type": "error"
    },
    {
      "inputs": [],
      "name": "NotAuthorizedUpdater",
      "type": "error"
    },
    {
      "inputs": [],
      "name": "NotPassportOwner",
      "type": "error"
    },
    {
      "inputs": [],
      "name": "PassportAlreadyExists",
      "type": "error"
    },
    {
      "inputs": [],
      "name": "PassportDoesNotExist",
      "type": "error"
    },
    {
      "inputs": [],
      "name": "ZeroAddress",
      "type": "error"
    },
    {
      "anonymous": false,
      "inputs": [
        {
          "indexed": true,
          "internalType": "address",
          "name": "owner",
          "type": "address"
        },
        {
          "indexed": true,
          "internalType": "address",
          "name": "approved",
          "type": "address"
        },
        {
          "indexed": true,
          "internalType": "uint256",
          "name": "tokenId",
          "type": "uint256"
        }
      ],
      "name": "Approval",
      "type": "event"
    },
    {
      "anonymous": false,
      "inputs": [
        {
          "indexed": true,
          "internalType": "address",
          "name": "owner",
          "type": "address"
        },
        {
          "indexed": true,
          "internalType": "address",
          "name": "operator",
          "type": "address"
        },
        {
          "indexed": false,
          "internalType": "bool",
          "name": "approved",
          "type": "bool"
        }
      ],
      "name": "ApprovalForAll",
      "type": "event"
    },
    {
      "anonymous": false,
      "inputs": [
        {
          "indexed": false,
          "internalType": "uint256",
          "name": "_fromTokenId",
          "type": "uint256"
        },
        {
          "indexed": false,
          "internalType": "uint256",
          "name": "_toTokenId",
          "type": "uint256"
        }
      ],
      "name": "BatchMetadataUpdate",
      "type": "event"
    },
    {
      "anonymous": false,
      "inputs": [
        {
          "indexed": true,
          "internalType": "uint256",
          "name": "tokenId",
          "type": "uint256"
        },
        {
          "indexed": false,
          "internalType": "uint256",
          "name": "oldScore",
          "type": "uint256"
        },
        {
          "indexed": false,
          "internalType": "uint256",
          "name": "newScore",
          "type": "uint256"
        }
      ],
      "name": "CreditScoreUpdated",
      "type": "event"
    },
    {
      "anonymous": false,
      "inputs": [
        {
          "indexed": false,
          "internalType": "uint256",
          "name": "_tokenId",
          "type": "uint256"
        }
      ],
      "name": "MetadataUpdate",
      "type": "event"
    },
    {
      "anonymous": false,
      "inputs": [
        {
          "indexed": true,
          "internalType": "address",
          "name": "previousOwner",
          "type": "address"
        },
        {
          "indexed": true,
          "internalType": "address",
          "name": "newOwner",
          "type": "address"
        }
      ],
      "name": "OwnershipTransferred",
      "type": "event"
    },
    {
      "anonymous": false,
      "inputs": [
        {
          "indexed": true,
          "internalType": "address",
          "name": "user",
          "type": "address"
        },
        {
          "indexed": true,
          "internalType": "uint256",
          "name": "tokenId",
          "type": "uint256"
        },
        {
          "indexed": false,
          "internalType": "uint256",
          "name": "creditScore",
          "type": "uint256"
        }
      ],
      "name": "PassportMinted",
      "type": "event"
    },
    {
      "anonymous": false,
      "inputs": [
        {
          "indexed": true,
          "internalType": "address",
          "name": "user",
          "type": "address"
        },
        {
          "indexed": true,
          "internalType": "uint256",
          "name": "tokenId",
          "type": "uint256"
        },
        {
          "indexed": false,
          "internalType": "uint256",
          "name": "newCreditScore",
          "type": "uint256"
        }
      ],
      "name": "PassportUpdated",
      "type": "event"
    },
    {
      "anonymous": false,
      "inputs": [
        {
          "indexed": true,
          "internalType": "address",
          "name": "from",
          "type": "address"
        },
        {
          "indexed": true,
          "internalType": "address",
          "name": "to",
          "type": "address"
        },
        {
          "indexed": true,
          "internalType": "uint256",
          "name": "tokenId",
          "type": "uint256"
        }
      ],
      "name": "Transfer",
      "type": "event"
    },
    {
      "anonymous": false,
      "inputs": [
        {
          "indexed": true,
          "internalType": "address",
          "name": "updater",
          "type": "address"
        }
      ],
      "name": "UpdaterAuthorized",
      "type": "event"
    },
    {
      "anonymous": false,
      "inputs": [
        {
          "indexed": true,
          "internalType": "address",
          "name": "updater",
          "type": "address"
        }
      ],
      "name": "UpdaterRevoked",
      "type": "event"
    },
    {
      "inputs": [],
      "name": "BRONZE_THRESHOLD",
      "outputs": [
        {
          "internalType": "uint256",
          "name": "",
          "type": "uint256"
        }
      ],
      "stateMutability": "view",
      "type": "function"
    },
    {
      "inputs": [],
      "name": "GOLD_THRESHOLD",
      "outputs": [
        {
          "internalType": "uint256",
          "name": "",
          "type": "uint256"
        }
      ],
      "stateMutability": "view",
      "type": "function"
    },
    {
      "inputs": [],
      "name": "PLATINUM_THRESHOLD",
      "outputs": [
        {
          "internalType": "uint256",
          "name": "",
          "type": "uint256"
        }
      ],
      "stateMutability": "view",
      "type": "function"
    },
    {
      "inputs": [],
      "name": "SILVER_THRESHOLD",
      "outputs": [
        {
          "internalType": "uint256",
          "name": "",
          "type": "uint256"
        }
      ],
      "stateMutability": "view",
      "type": "function"
    },
    {
      "inputs": [
        {
          "internalType": "address",
          "name": "to",
          "type": "address"
        },
        {
          "internalType": "uint256",
          "name": "tokenId",
          "type": "uint256"
        }
      ],
      "name": "approve",
      "outputs": [],
      "stateMutability": "nonpayable",
      "type": "function"
    },
    {
      "inputs": [
        {
          "internalType": "address",
          "name": "updater",
          "type": "address"
        }
      ],
      "name": "authorizeUpdater",
      "outputs": [],
      "stateMutability": "nonpayable",
      "type": "function"
    },
    {
      "inputs": [
        {
          "internalType": "address",
          "name": "",
          "type": "address"
        }
      ],
      "name": "authorizedUpdaters",
      "outputs": [
        {
          "internalType": "bool",
          "name": "",
          "type": "bool"
        }
      ],
      "stateMutability": "view",
      "type": "function"
    },
    {
      "inputs": [
        {
          "internalType": "address",
          "name": "owner",
          "type": "address"
        }
      ],
      "name": "balanceOf",
      "outputs": [
        {
          "internalType": "uint256",
          "name": "",
          "type": "uint256"
        }
      ],
      "stateMutability": "view",
      "type": "function"
    },
    {
      "inputs": [
        {
          "internalType": "uint256",
          "name": "tokenId",
          "type": "uint256"
        }
      ],
      "name": "getApproved",
      "outputs": [
        {
          "internalType": "address",
          "name": "",
          "type": "address"
        }
      ],
      "stateMutability": "view",
      "type": "function"
    },
    {
      "inputs": [],
      "name": "getTotalSupply",
      "outputs": [
        {
          "internalType": "uint256",
          "name": "",
          "type": "uint256"
        }
      ],
      "stateMutability": "view",
      "type": "function"
    },
    {
      "inputs": [
        {
          "internalType": "address",
          "name": "user",
          "type": "address"
        }
      ],
      "name": "getUserPassport",
      "outputs": [
        {
          "components": [
            {
              "internalType": "uint256",
              "name": "creditScore",
              "type": "uint256"
            },
            {
              "internalType": "uint256",
              "name": "totalTransactions",
              "type": "uint256"
            },
            {
              "internalType": "uint256",
              "name": "totalVolumeUSD",
              "type": "uint256"
            },
            {
              "internalType": "uint256",
              "name": "protocolsUsed",
              "type": "uint256"
            },
            {
              "internalType": "uint256",
              "name": "liquidationCount",
              "type": "uint256"
            },
            {
              "internalType": "uint256",
              "name": "governanceParticipation",
              "type": "uint256"
            },
            {
              "internalType": "uint256",
              "name": "mintTimestamp",
              "type": "uint256"
            },
            {
              "internalType": "uint256",
              "name": "lastUpdateTimestamp",
              "type": "uint256"
            },
            {
              "internalType": "enum DeFiPassportNFT.CreditLevel",
              "name": "level",
              "type": "uint8"
            },
            {
              "internalType": "bool",
              "name": "isActive",
              "type": "bool"
            }
          ],
          "internalType": "struct DeFiPassportNFT.PassportData",
          "name": "",
          "type": "tuple"
        }
      ],
      "stateMutability": "view",
      "type": "function"
    },
    {
      "inputs": [
        {
          "internalType": "address",
          "name": "user",
          "type": "address"
        }
      ],
      "name": "getUserTokenId",
      "outputs": [
        {
          "internalType": "uint256",
          "name": "",
          "type": "uint256"
        }
      ],
      "stateMutability": "view",
      "type": "function"
    },
    {
      "inputs": [
        {
          "internalType": "address",
          "name": "user",
          "type": "address"
        }
      ],
      "name": "hasPassport",
      "outputs": [
        {
          "internalType": "bool",
          "name": "",
          "type": "bool"
        }
      ],
      "stateMutability": "view",
      "type": "function"
    },
    {
      "inputs": [
        {
          "internalType": "address",
          "name": "owner",
          "type": "address"
        },
        {
          "internalType": "address",
          "name": "operator",
          "type": "address"
        }
      ],
      "name": "isApprovedForAll",
      "outputs": [
        {
          "internalType": "bool",
          "name": "",
          "type": "bool"
        }
      ],
      "stateMutability": "view",
      "type": "function"
    },
    {
      "inputs": [
        {
          "internalType": "address",
          "name": "user",
          "type": "address"
        },
        {
          "internalType": "uint256",
          "name": "creditScore",
          "type": "uint256"
        },
        {
          "internalType": "uint256",
          "name": "totalTransactions",
          "type": "uint256"
        },
        {
          "internalType": "uint256",
          "name": "totalVolumeUSD",
          "type": "uint256"
        },
        {
          "internalType": "uint256",
          "name": "protocolsUsed",
          "type": "uint256"
        }
      ],
      "name": "mintPassport",
      "outputs": [],
      "stateMutability": "nonpayable",
      "type": "function"
    },
    {
      "inputs": [],
      "name": "name",
      "outputs": [
        {
          "internalType": "string",
          "name": "",
          "type": "string"
        }
      ],
      "stateMutability": "view",
      "type": "function"
    },
    {
      "inputs": [],
      "name": "owner",
      "outputs": [
        {
          "internalType": "address",
          "name": "",
          "type": "address"
        }
      ],
      "stateMutability": "view",
      "type": "function"
    },
    {
      "inputs": [
        {
          "internalType": "uint256",
          "name": "tokenId",
          "type": "uint256"
        }
      ],
      "name": "ownerOf",
      "outputs": [
        {
          "internalType": "address",
          "name": "",
          "type": "address"
        }
      ],
      "stateMutability": "view",
      "type": "function"
    },
    {
      "inputs": [
        {
          "internalType": "uint256",
          "name": "",
          "type": "uint256"
        }
      ],
      "name": "passportData",
      "outputs": [
        {
          "internalType": "uint256",
          "name": "creditScore",
          "type": "uint256"
        },
        {
          "internalType": "uint256",
          "name": "totalTransactions",
          "type": "uint256"
        },
        {
          "internalType": "uint256",
          "name": "totalVolumeUSD",
          "type": "uint256"
        },
        {
          "internalType": "uint256",
          "name": "protocolsUsed",
          "type": "uint256"
        },
        {
          "internalType": "uint256",
          "name": "liquidationCount",
          "type": "uint256"
        },
        {
          "internalType": "uint256",
          "name": "governanceParticipation",
          "type": "uint256"
        },
        {
          "internalType": "uint256",
          "name": "mintTimestamp",
          "type": "uint256"
        },
        {
          "internalType": "uint256",
          "name": "lastUpdateTimestamp",
          "type": "uint256"
        },
        {
          "internalType": "enum DeFiPassportNFT.CreditLevel",
          "name": "level",
          "type": "uint8"
        },
        {
          "internalType": "bool",
          "name": "isActive",
          "type": "bool"
        }
      ],
      "stateMutability": "view",
      "type": "function"
    },
    {
      "inputs": [],
      "name": "renounceOwnership",
      "outputs": [],
      "stateMutability": "nonpayable",
      "type": "function"
    },
    {
      "inputs": [
        {
          "internalType": "address",
          "name": "updater",
          "type": "address"
        }
      ],
      "name": "revokeUpdater",
      "outputs": [],
      "stateMutability": "nonpayable",
      "type": "function"
    },
    {
      "inputs": [
        {
          "internalType": "address",
          "name": "from",
          "type": "address"
        },
        {
          "internalType": "address",
          "name": "to",
          "type": "address"
        },
        {
          "internalType": "uint256",
          "name": "tokenId",
          "type": "uint256"
        }
      ],
      "name": "safeTransferFrom",
      "outputs": [],
      "stateMutability": "nonpayable",
      "type": "function"
    },
    {
      "inputs": [
        {
          "internalType": "address",
          "name": "from",
          "type": "address"
        },
        {
          "internalType": "address",
          "name": "to",
          "type": "address"
        },
        {
          "internalType": "uint256",
          "name": "tokenId",
          "type": "uint256"
        },
        {
          "internalType": "bytes",
          "name": "data",
          "type": "bytes"
        }
      ],
      "name": "safeTransferFrom",
      "outputs": [],
      "stateMutability": "nonpayable",
      "type": "function"
    },
    {
      "inputs": [
        {
          "internalType": "address",
          "name": "operator",
          "type": "address"
        },
        {
          "internalType": "bool",
          "name": "approved",
          "type": "bool"
        }
      ],
      "name": "setApprovalForAll",
      "outputs": [],
      "stateMutability": "nonpayable",
      "type": "function"
    },
    {
      "inputs": [
        {
          "internalType": "bytes4",
          "name": "interfaceId",
          "type": "bytes4"
        }
      ],
      "name": "supportsInterface",
      "outputs": [
        {
          "internalType": "bool",
          "name": "",
          "type": "bool"
        }
      ],
      "stateMutability": "view",
      "type": "function"
    },
    {
      "inputs": [],
      "name": "symbol",
      "outputs": [
        {
          "internalType": "string",
          "name": "",
          "type": "string"
        }
      ],
      "stateMutability": "view",
      "type": "function"
    },
    {
      "inputs": [
        {
          "internalType": "uint256",
          "name": "",
          "type": "uint256"
        }
      ],
      "name": "tokenExists",
      "outputs": [
        {
          "internalType": "bool",
          "name": "",
          "type": "bool"
        }
      ],
      "stateMutability": "view",
      "type": "function"
    },
    {
      "inputs": [
        {
          "internalType": "uint256",
          "name": "tokenId",
          "type": "uint256"
        }
      ],
      "name": "tokenURI",
      "outputs": [
        {
          "internalType": "string",
          "name": "",
          "type": "string"
        }
      ],
      "stateMutability": "view",
      "type": "function"
    },
    {
      "inputs": [
        {
          "internalType": "address",
          "name": "from",
          "type": "address"
        },
        {
          "internalType": "address",
          "name": "to",
          "type": "address"
        },
        {
          "internalType": "uint256",
          "name": "tokenId",
          "type": "uint256"
        }
      ],
      "name": "transferFrom",
      "outputs": [],
      "stateMutability": "nonpayable",
      "type": "function"
    },
    {
      "inputs": [
        {
          "internalType": "address",
          "name": "newOwner",
          "type": "address"
        }
      ],
      "name": "transferOwnership",
      "outputs": [],
      "stateMutability": "nonpayable",
      "type": "function"
    },
    {
      "inputs": [
        {
          "internalType": "address",
          "name": "user",
          "type": "address"
        },
        {
          "internalType": "uint256",
          "name": "newCreditScore",
          "type": "uint256"
        }
      ],
      "name": "updateCreditScore",
      "outputs": [],
      "stateMutability": "nonpayable",
      "type": "function"
    },
    {
      "inputs": [
        {
          "internalType": "address",
          "name": "user",
          "type": "address"
        },
        {
          "internalType": "uint256",
          "name": "newCreditScore",
          "type": "uint256"
        },
        {
          "internalType": "uint256",
          "name": "totalTransactions",
          "type": "uint256"
        },
        {
          "internalType": "uint256",
          "name": "totalVolumeUSD",
          "type": "uint256"
        },
        {
          "internalType": "uint256",
          "name": "protocolsUsed",
          "type": "uint256"
        },
        {
          "internalType": "uint256",
          "name": "liquidationCount",
          "type": "uint256"
        },
        {
          "internalType": "uint256",
          "name": "governanceParticipation",
          "type": "uint256"
        }
      ],
      "name": "updatePassport",
      "outputs": [],
      "stateMutability": "nonpayable",
      "type": "function"
    },
    {
      "inputs": [
        {
          "internalType": "address",
          "name": "",
          "type": "address"
        }
      ],
      "name": "userToTokenId",
      "outputs": [
        {
          "internalType": "uint256",
          "name": "",
          "type": "uint256"
        }
      ],
      "stateMutability": "view",
      "type": "function"
    }
  ],
  "bytecode": "0x6080604052346103cf576138c380380380610019816103d4565b9283398101906060818303126103cf5780516001600160401b0381116103cf57826100459183016103f9565b60208201519092906001600160401b0381116103cf576040916100699184016103f9565b9101516001600160a01b038116908190036103cf5782516001600160401b0381116102da57600054600181811c911680156103c5575b60208210146102ba57601f8111610361575b506020601f82116001146102fb57819293946000926102f0575b50508160011b916000199060031b1c1916176000555b81516001600160401b0381116102da57600154600181811c911680156102d0575b60208210146102ba57601f8111610255575b50602092601f82116001146101f057928192936000926101e5575b50508160011b916000199060031b1c1916176001555b60078054336001600160a01b0319821681179092556040519291906001600160a01b03167f8be0079c531659141344cd1fd0a4f28419497f9722a3daafe3b4186f6b6457e0600080a3806101a1575b5061345e90816104658239f35b80600052600c6020526040600020600160ff198254161790557ffbc99308a04b9b530a8dbc7eb620a7597c4b92ff15390ab23ffdd979b9c592e4600080a238610194565b01519050388061012f565b601f198216936001600052806000209160005b86811061023d5750836001959610610224575b505050811b01600155610145565b015160001960f88460031b161c19169055388080610216565b91926020600181928685015181550194019201610203565b60016000527fb10e2d527612073b26eecdfd717e6a320cf44b4afac2b0732d9fcbe2b7fa0cf6601f830160051c810191602084106102b0575b601f0160051c01905b8181106102a45750610114565b60008155600101610297565b909150819061028e565b634e487b7160e01b600052602260045260246000fd5b90607f1690610102565b634e487b7160e01b600052604160045260246000fd5b0151905038806100cb565b601f1982169060008052806000209160005b81811061034957509583600195969710610330575b505050811b016000556100e1565b015160001960f88460031b161c19169055388080610322565b9192602060018192868b01518155019401920161030d565b600080527f290decd9548b62a8d60345a988386fc84ba6bc95484008f6362f93160ef3e563601f830160051c810191602084106103bb575b601f0160051c01905b8181106103af57506100b1565b600081556001016103a2565b9091508190610399565b90607f169061009f565b600080fd5b6040519190601f01601f191682016001600160401b038111838210176102da57604052565b81601f820112156103cf578051906001600160401b0382116102da57610428601f8301601f19166020016103d4565b92828452602083830101116103cf5760005b82811061044f57505060206000918301015290565b8060208092840101518282870101520161043a56fe608080604052600436101561001357600080fd5b600090813560e01c908162923f9e1461131c5750806301ffc9a71461128f57806306fdde03146111ea578063081812fc146111cb578063095ea7b31461104757806323b872dd146110225780633c932bef14610fbc57806342842e0e14610f875780634dc30e8714610f4c5780635697397414610f2f5780636352211e14610efe57806365352f9d14610e1857806369a2f02614610dfb57806370a0823114610d65578063715018a614610d085780638679907214610b945780638da5cb5b14610b6b5780638ff29cfe14610b2c57806395d89b4114610a5d57806399ba2db5146107aa5780639cbe60971461072c578063a22cb46514610656578063a6670ebe146105bb578063a814720714610456578063af24b07b1461042e578063b88d4fde1461037a578063c1a0db301461035d578063c4e41b221461033f578063c87b56dd14610307578063caaffae9146102ea578063e985e9c514610290578063f2fde38b146101c65763fefd4e4f1461018b57600080fd5b346101c35760203660031901126101c3576020906040906001600160a01b036101b2611390565b168152600983522054604051908152f35b80fd5b50346101c35760203660031901126101c3576101e0611390565b6101e8611851565b6001600160a01b0316801561023c57600780546001600160a01b0319811683179091556001600160a01b03167f8be0079c531659141344cd1fd0a4f28419497f9722a3daafe3b4186f6b6457e0600080a380f35b60405162461bcd60e51b815260206004820152602660248201527f4f776e61626c653a206e6577206f776e657220697320746865207a65726f206160448201526564647265737360d01b6064820152608490fd5b50346101c35760403660031901126101c35760406102ac611390565b916102b56113ab565b9260018060a01b031681526005602052209060018060a01b0316600052602052602060ff604060002054166040519015158152f35b50346101c357806003193601126101c35760206040516103528152f35b50346101c35760203660031901126101c35761033b610327600435612be9565b60405191829160208352602083019061136b565b0390f35b50346101c357806003193601126101c3576020600854604051908152f35b50346101c357806003193601126101c35760206040516101f48152f35b50346101c35760803660031901126101c357610394611390565b61039c6113ab565b6064359160443567ffffffffffffffff841161042a573660238501121561042a578360040135926103cc8461145d565b926103da604051948561143b565b8484528636602487890101116101c3576020866104229760246104279a01838901378601015261041261040d84336115e9565b6114f1565b61041d8383836116bc565b613244565b612bc5565b80f35b8480fd5b50346101c35760203660031901126101c3576020906040906001600160a01b036101b2611390565b50346101c35760e03660031901126101c357610470611390565b60243590338352600c60205260ff60408420541615806105a6575b610597576103e88211610588576001600160a01b031680835260096020526040832054918215610579577fc5fc4bfbf16a570f3895fbe4f01a26916ca47bfe7f9d11e96c937dcc2ec5f7b491604091848652600b602052848387209261053084549484815560443560018201556064356002820155608435600382015560a435600482015560c43560058201554260078201556008610529866118a9565b91016115c5565b61054261053c836118dc565b83612987565b7fdcb913e1369d52b768a09bd009bf861e3b71a6b6170bf5a0a9e121512f5c72d460208651858152a382519182526020820152a280f35b634ded8ea560e01b8452600484fd5b6301069b4760e21b8352600483fd5b63320db8e160e01b8352600483fd5b506007546001600160a01b031633141561048b565b50346101c35760203660031901126101c3576040610140916004358152600b6020522060ff8154916001810154906002810154600382015460048301546005840154916006850154936008600787015496015496604051998a5260208a015260408901526060880152608087015260a086015260c085015260e084015261064861010084018383166113fb565b60081c161515610120820152f35b50346101c35760403660031901126101c357610670611390565b60243590811515809203610728576001600160a01b0316903382146106e35733835260056020526040832082600052602052604060002060ff1981541660ff83161790556040519081527f17307eab39ab6107e8899845ad3d59bd9653f200f220920489ca2b5937696c3160203392a380f35b60405162461bcd60e51b815260206004820152601960248201527f4552433732313a20617070726f766520746f2063616c6c6572000000000000006044820152606490fd5b8280fd5b50346101c35760203660031901126101c357610746611390565b61074e611851565b6001600160a01b0316801561079b57808252600c60205260408220805460ff191660011790557ffbc99308a04b9b530a8dbc7eb620a7597c4b92ff15390ab23ffdd979b9c592e48280a280f35b63d92e233d60e01b8252600482fd5b50346101c35760a03660031901126101c3576107c4611390565b60243590338352600c60205260ff6040842054161580610a48575b610597576103e88211610588576001600160a01b038116918215610a395782845260096020526040842054610a2a57906001916108df610422846008540196876008558760209560405192610834888561143b565b80845260008381526002602052604090205461085c906001600160a01b031615155b1561339c565b50600082815260026020526040902054610880906001600160a01b03161515610856565b8860005260038752604060002088815401905581600052600287526040600020896001600160601b0360a01b825416179055818960007fddf252ad1be2c89b69c2b068fc378daa952ba7f163c4a11628f55a4df523b3ef8180a461312a565b6108e8816118a9565b60086040516108f681611408565b83815287858201604435815260408301606435815260608401608435815260808501906000825260a08601926000845260c087019442865260e08801964288526109456101008a019b8c6115dd565b61012089019d8e52600052600b8c52604060002097518855516001880155516002870155516003860155516004850155516005840155516006830155516007820155019051936004851015610a14576109bf7f39c7a0be2574396927e6ea79689359d510f93baabccddecb840da959ef63896595836115c5565b51815461ff00191690151560081b61ff00161790556000848152600983526040808220879055868252600a84529020805460ff19166001179055610a0b610a05866118dc565b86612987565b604051908152a3005b634e487b7160e01b600052602160045260246000fd5b635bebc7ad60e11b8452600484fd5b63d92e233d60e01b8452600484fd5b506007546001600160a01b03163314156107df565b50346101c357806003193601126101c357604051908060015490610a8082611479565b8085529160018116908115610b055750600114610aa8575b61033b846103278186038261143b565b600181527fb10e2d527612073b26eecdfd717e6a320cf44b4afac2b0732d9fcbe2b7fa0cf6939250905b808210610aeb5750909150810160200161032782610a98565b919260018160209254838588010152019101909291610ad2565b60ff191660208087019190915292151560051b850190920192506103279150839050610a98565b50346101c35760203660031901126101c35760209060ff906040906001600160a01b03610b57611390565b168152600c84522054166040519015158152f35b50346101c357806003193601126101c3576007546040516001600160a01b039091168152602090f35b50346101c35760203660031901126101c357610bae611390565b81610120604051610bbe81611408565b8281528260208201528260408201528260608201528260808201528260a08201528260c08201528260e082015282610100820152015260018060a01b03168152600960205260408120548015610cf957816040916101409352600b6020522060405190610c2a82611408565b80548252610cee6001820154602084019081526002830154926040850193845260038101546060860190815260048201546080870190815260058301549060a0880191825260068401549260c08901938452600860078601549560e08b019687520154976101008a0196610ca160ff8b16896115dd565b60ff6101208c019a60081c1615158a526040519a518b525160208b01525160408a01525160608901525160808801525160a08701525160c08601525160e0850152516101008401906113fb565b511515610120820152f35b634ded8ea560e01b8252600482fd5b50346101c357806003193601126101c357610d21611851565b600780546001600160a01b0319811690915581906001600160a01b03167f8be0079c531659141344cd1fd0a4f28419497f9722a3daafe3b4186f6b6457e08280a380f35b50346101c35760203660031901126101c3576001600160a01b03610d87611390565b168015610da4578160409160209352600383522054604051908152f35b60405162461bcd60e51b815260206004820152602960248201527f4552433732313a2061646472657373207a65726f206973206e6f7420612076616044820152683634b21037bbb732b960b91b6064820152608490fd5b50346101c357806003193601126101c357602060405161012c8152f35b50346101c35760403660031901126101c357610e32611390565b60243590338352600c60205260ff6040842054161580610ee9575b610597576103e88211610588576001600160a01b0316825260096020526040822054908115610eda5760407fc5fc4bfbf16a570f3895fbe4f01a26916ca47bfe7f9d11e96c937dcc2ec5f7b491838552600b60205281852090610ec08254928281554260078201556008610529846118a9565b610ecc610a05866118dc565b82519182526020820152a280f35b634ded8ea560e01b8352600483fd5b506007546001600160a01b0316331415610e4d565b50346101c35760203660031901126101c3576020610f1d60043561159f565b6040516001600160a01b039091168152f35b50346101c357806003193601126101c35760206040516102bc8152f35b50346101c35760203660031901126101c3576020906040906001600160a01b03610f74611390565b1681526009835220541515604051908152f35b50346101c357610427610422610f9c366113c1565b9060405192610fac60208561143b565b86845261041261040d84336115e9565b50346101c35760203660031901126101c357610fd6611390565b610fde611851565b6001600160a01b0316808252600c60205260408220805460ff191690557f27e810a75a9534f49f3874cd6aef1cd8ccd4fd9e24acb4c3813ba552851ef7968280a280f35b50346101c357610427611034366113c1565b9161104261040d84336115e9565b6116bc565b50346101c35760403660031901126101c357611061611390565b602435906001600160a01b036110768361159f565b6001600160a01b03909216911681811461117c5780331490811561115b575b50156110f05781835260046020526040832080546001600160a01b031916821790556001600160a01b036110c88361159f565b167f8c5be1e5ebec7d5bd14f71427d1e84f3dd0314c0f7b2291e5b200ac8c7c3b9258480a480f35b60405162461bcd60e51b815260206004820152603d60248201527f4552433732313a20617070726f76652063616c6c6572206973206e6f7420746f60448201527f6b656e206f776e6572206f7220617070726f76656420666f7220616c6c0000006064820152608490fd5b84525060056020908152604080852033865290915283205460ff1638611095565b60405162461bcd60e51b815260206004820152602160248201527f4552433732313a20617070726f76616c20746f2063757272656e74206f776e656044820152603960f91b6064820152608490fd5b50346101c35760203660031901126101c3576020610f1d6004356114b3565b50346101c357806003193601126101c357604051908080549061120c82611479565b8085529160018116908115610b0557506001146112335761033b846103278186038261143b565b8080527f290decd9548b62a8d60345a988386fc84ba6bc95484008f6362f93160ef3e563939250905b8082106112755750909150810160200161032782610a98565b91926001816020925483858801015201910190929161125c565b50346101c35760203660031901126101c35760043563ffffffff60e01b811680910361131857602090632483248360e11b81149081156112d5575b506040519015158152f35b6380ac58cd60e01b811491508115611307575b81156112f6575b50826112ca565b6301ffc9a760e01b149050826112ef565b635b5e139f60e01b811491506112e8565b5080fd5b9050346113185760203660031901126113185760ff60406020936004358152600a855220541615158152f35b60005b83811061135b5750506000910152565b818101518382015260200161134b565b9060209161138481518092818552858086019101611348565b601f01601f1916010190565b600435906001600160a01b03821682036113a657565b600080fd5b602435906001600160a01b03821682036113a657565b60609060031901126113a6576004356001600160a01b03811681036113a657906024356001600160a01b03811681036113a6579060443590565b906004821015610a145752565b610140810190811067ffffffffffffffff82111761142557604052565b634e487b7160e01b600052604160045260246000fd5b90601f8019910116810190811067ffffffffffffffff82111761142557604052565b67ffffffffffffffff811161142557601f01601f191660200190565b90600182811c921680156114a9575b602083101461149357565b634e487b7160e01b600052602260045260246000fd5b91607f1691611488565b6000818152600260205260409020546114d6906001600160a01b03161515611553565b6000908152600460205260409020546001600160a01b031690565b156114f857565b60405162461bcd60e51b815260206004820152602d60248201527f4552433732313a2063616c6c6572206973206e6f7420746f6b656e206f776e6560448201526c1c881bdc88185c1c1c9bdd9959609a1b6064820152608490fd5b1561155a57565b60405162461bcd60e51b815260206004820152601860248201527f4552433732313a20696e76616c696420746f6b656e20494400000000000000006044820152606490fd5b6000908152600260205260409020546001600160a01b03166115c2811515611553565b90565b906004811015610a145760ff80198354169116179055565b6004821015610a145752565b906001600160a01b036115fb8261159f565b6001600160a01b039093169216828114929190831561163b575b50821561162157505090565b9091506001600160a01b0390611636906114b3565b161490565b909250600052600560205260406000208160005260205260ff604060002054169138611615565b1561166957565b60405162461bcd60e51b815260206004820152602560248201527f4552433732313a207472616e736665722066726f6d20696e636f72726563742060448201526437bbb732b960d91b6064820152608490fd5b906116dd6116c98461159f565b6001600160a01b0393841693168314611662565b6001600160a01b031690811561180057801580156117f8575b156117a757611717816001600160a01b036117108661159f565b1614611662565b82600052600460205260406000206001600160601b0360a01b8154169055806000526003602052604060002060001981540190558160005260036020526040600020600181540190558260005260026020526040600020826001600160601b0360a01b8254161790557fddf252ad1be2c89b69c2b068fc378daa952ba7f163c4a11628f55a4df523b3ef600080a4565b60405162461bcd60e51b815260206004820152602360248201527f446546692050617373706f72747320617265206e6f6e2d7472616e7366657261604482015262626c6560e81b6064820152608490fd5b5060006116f6565b60405162461bcd60e51b8152602060048201526024808201527f4552433732313a207472616e7366657220746f20746865207a65726f206164646044820152637265737360e01b6064820152608490fd5b6007546001600160a01b0316330361186557565b606460405162461bcd60e51b815260206004820152602060248201527f4f776e61626c653a2063616c6c6572206973206e6f7420746865206f776e65726044820152fd5b6103528110156118d6576102bc8110156118d0576101f411156118cb57600090565b600190565b50600290565b50600390565b80600052600b602052604060002090604051916118f883611408565b80548352600181015490602084019182526002810154604085019081526003820154606086019081526004830154906080870191825260058401549260a08801938452600860068601549560c08a01968752600781015460e08b0152015460ff6101008a019161196a828216846115dd565b60081c1615156101208a015280516004811015610a145761198a90612cce565b90516004811015610a145761199e90612d86565b506119a888612e74565b9780600052600b60205260406000206040516119c381611408565b815481526001820154916020820192835260028101546040830190815260038201549060608401918252600860048401549360808601948552600581015460a0870152600681015460c0870152600781015460e087015201549560ff610100860197611a318282168a6115dd565b60081c16151561012086015286516004811015610a1457611a5190612d86565b96516004811015610a1457611a6590612cce565b90611a6f90612e74565b9451611a7a90612e74565b9551611a8590612e74565b9151611a909061329d565b9251611a9b90612e74565b9351611aa690612e74565b604080517f3c7376672077696474683d2234303022206865696768743d223630302220786d6020808301919091527f6c6e733d22687474703a2f2f7777772e77332e6f72672f323030302f7376672292820192909252601f60f91b6060820152651e3232b3399f60d11b60618201527f3c6c696e6561724772616469656e742069643d226267222078313d223025222060678201527f79313d223025222078323d2231303025222079323d2231303025223e0000000060878201527f3c73746f70206f66667365743d22302522207374796c653d2273746f702d636f60a382018190527f6c6f723a233165323933623b73746f702d6f7061636974793a3122202f3e000060c38301527f3c73746f70206f66667365743d223130302522207374796c653d2273746f702d60e18301527f636f6c6f723a233066313732613b73746f702d6f7061636974793a3122202f3e610101830152701e17b634b732b0b923b930b234b2b73a1f60791b6101218301527f3c6c696e6561724772616469656e742069643d226c6576656c222078313d22306101328301527f25222079313d223025222078323d2231303025222079323d223025223e00000061015283015261016f820152633637b91d60e11b61018f820152895190998a9993989281019390929091611c98816101938d0187611348565b721db9ba37b816b7b830b1b4ba3c9d189110179f60691b610193918c01918201527f3c73746f70206f66667365743d223130302522207374796c653d2273746f702d6101a68201526531b7b637b91d60d11b6101c6820152835190611d02826101cc830188611348565b741db9ba37b816b7b830b1b4ba3c9d18171b1110179f60591b6101cc9290910191820152701e17b634b732b0b923b930b234b2b73a1f60791b6101e1820152661e17b232b3399f60c91b6101f28201527f3c726563742077696474683d2234303022206865696768743d223630302220666101f98201527f696c6c3d2275726c2823626729222072783d223230222f3e00000000000000006102198201527f3c7265637420783d2232302220793d223230222077696474683d2233363022206102318201527f6865696768743d223830222066696c6c3d2275726c28236c6576656c29222072610251820152673c1e91189811179f60c11b6102718201527f3c7465787420783d223230302220793d2234352220746578742d616e63686f726102798201527f3d226d6964646c65222066696c6c3d2277686974652220666f6e742d66616d6961029982018190527f6c793d22417269616c2220666f6e742d73697a653d2231362220666f6e742d776102b98301527f65696768743d22626f6c64223e446546692050617373706f72743c2f746578746102d9830152601f60f91b6102f98301527f3c7465787420783d223230302220793d2237302220746578742d616e63686f726102fa83015261031a8201527f6c793d22417269616c2220666f6e742d73697a653d2232342220666f6e742d7761033a8201526d65696768743d22626f6c64223e2360901b61035a820152815191610193820191611f319184916103680190602001611348565b661e17ba32bc3a1f60c91b6101d592909101918201527f3c7465787420783d2234302220793d22313430222066696c6c3d2277686974656101dc8201526000805160206134098339815191526101fc8201527f2231382220666f6e742d7765696768743d22626f6c64223e437265646974205361021c8201526a31b7b9329e17ba32bc3a1f60a91b61023c8201527f3c7465787420783d223336302220793d223134302220746578742d616e63686f6102478201526d391e9132b73211103334b6361e9160911b61026782015282519060398101906120169083906102750187611348565b0161019c0160a08101600080516020613409833981519152905260c081017f2232342220666f6e742d7765696768743d22626f6c64223e000000000000000090528151918260d88301916020019161206d92611348565b661e17ba32bc3a1f60c91b60d892909101918201527f3c7465787420783d2234302220793d22313830222066696c6c3d22776869746560df82015260008051602061340983398151915260ff8201527f2231382220666f6e742d7765696768743d22626f6c64223e4c6576656c3c2f7461011f8201526332bc3a1f60e11b61013f8201527f3c7465787420783d223336302220793d223138302220746578742d616e63686f6101438201526d391e9132b73211103334b6361e9160911b61016382015290519160a08201916121489184916101710190611348565b0160380160998101600080516020613409833981519152905260b981017f2231382220666f6e742d7765696768743d22626f6c64223e000000000000000090528151918260d18301916020019161219e92611348565b661e17ba32bc3a1f60c91b60d192909101918201527f3c6c696e652078313d223430222079313d22323030222078323d22333630222060d88201527f79323d2232303022207374726f6b653d222333373431353122207374726f6b6560f88201526b16bbb4b23a341e911891179f60a11b6101188201527f3c7465787420783d2234302220793d22323430222066696c6c3d2223394341336101248201526000805160206133e9833981519152610144820152740329e91189a111f2a3930b739b0b1ba34b7b7399d1605d1b610164820152815191609982019161228b9184916101790190602001611348565b0160380160a88101661e17ba32bc3a1f60c91b905260af81017f3c7465787420783d2234302220793d22323730222066696c6c3d222339434133905260cf81016000805160206133e983398151915290526f194f488c4d088f959bdb1d5b594e880960821b60ef8201528151918260ff8301916020019161230b92611348565b0160a80160578101661e17ba32bc3a1f60c91b9052605e81017f3c7465787420783d2234302220793d22333030222066696c6c3d2223394341339052607e81016000805160206133e98339815191529052710329e91189a111f283937ba37b1b7b6399d160751b609e8201528151918260b08301916020019161238d92611348565b0160570160598101661e17ba32bc3a1f60c91b9052606081017f3c7465787420783d2234302220793d22333330222066696c6c3d2223394341339052608081016000805160206133e98339815191529052740329e91189a111f2634b8bab4b230ba34b7b7399d1605d1b60a08201528151918260b58301916020019161241292611348565b01605901605c8101661e17ba32bc3a1f60c91b905260638101651e17b9bb339f60d11b905203605c0160121981018252600d0161244f908261143b565b61245890612fbe565b96604051998a60208101997f646174613a696d6167652f7376672b786d6c3b6261736536342c0000000000008b5280519081603a8401916020019161249c92611348565b810103603a01601f1981018c526124b3908c61143b565b516124bd90612e74565b90516124c890612e74565b92516124d390612e74565b93516124de90612e74565b94516124e990612e74565b95516124f490612e74565b96516124ff90612e74565b976040519a8b809b602082017f7b226e616d65223a2022446546692050617373706f7274202300000000000000905280516039819301916020019161254392611348565b7f222c20226465736372697074696f6e223a2022596f75722044654669206372656039918d01918201527f6469742070726f66696c6520616e642072657075746174696f6e206f6e2d6368605982015264185a5b888b60da1b6079820152691134b6b0b3b2911d101160b11b607e8201529051916125c79083906088840190611348565b61088b60f21b608892909101918201526e2261747472696275746573223a205b60881b608a8201527f7b2274726169745f74797065223a20224372656469742053636f7265222c202260998201526703b30b63ab2911d160c51b60b9820152815191603982019161264091849160c10190602001611348565b01604f0160398101611f4b60f21b9052603b81017f7b2274726169745f74797065223a2022437265646974204c6576656c222c20229052683b30b63ab2911d101160b91b605b8201528151918260648301916020019161269f92611348565b0160390162089f4b60ea1b602b820152602e81017f7b2274726169745f74797065223a2022546f74616c205472616e73616374696f90526d03739911610113b30b63ab2911d160951b604e82015281519182605c8301916020019161270392611348565b01602b0160318101611f4b60f21b9052603381017f7b2274726169745f74797065223a2022546f74616c20566f6c756d652055534490526b0111610113b30b63ab2911d160a51b605382015281519182605f8301916020019161276592611348565b01603101602e8101611f4b60f21b9052603081017f7b2274726169745f74797065223a202250726f746f636f6c732055736564222c905269010113b30b63ab2911d160b51b605082015281519182605a830191602001916127c592611348565b01602e01602c8101611f4b60f21b9052602e81017f7b2274726169745f74797065223a20224c69717569646174696f6e20436f756e90526c03a111610113b30b63ab2911d1609d1b604e82015281519182605b8301916020019161282892611348565b01602c01602f8101611f4b60f21b9052603181017f7b2274726169745f74797065223a2022476f7665726e616e6365205061727469905273031b4b830ba34b7b7111610113b30b63ab2911d160651b60518201528151918260658301916020019161289292611348565b01602f0160368101611f4b60f21b9052603881017f7b2274726169745f74797065223a20224d696e742054696d657374616d70222c905269010113b30b63ab2911d160b51b6058820152815191826062830191602001916128f292611348565b01603601602c8101607d60f81b9052602d8101615d7d60f01b905203602c01601c1981018252600301612925908261143b565b61292e90612fbe565b6040518091602082017f646174613a6170706c69636174696f6e2f6a736f6e3b6261736536342c000000905280519081603d8401916020019161297092611348565b810103603d01601f19810182526115c2908261143b565b6000818152600260205260409020549192916001600160a01b031615612b16578060005260066020526040600020835167ffffffffffffffff8111611425576129d08254611479565b601f8111612ace575b506020601f8211600114612a4257908060209493927ff8e1a15aba9398e019f0b49df1a4fde98ee17ae345cb5f6b5e2c27f5033e8ce79697600092612a37575b50508160011b916000199060031b1c19161790555b604051908152a1565b015190503880612a19565b601f1982169583600052816000209660005b818110612ab6575096600192849260209796957ff8e1a15aba9398e019f0b49df1a4fde98ee17ae345cb5f6b5e2c27f5033e8ce7999a10612a9d575b505050811b019055612a2e565b015160001960f88460031b161c19169055388080612a90565b83830151895560019098019760209384019301612a54565b826000526020600020601f830160051c81019160208410612b0c575b601f0160051c01905b818110612b0057506129d9565b60008155600101612af3565b9091508190612aea565b60405162461bcd60e51b815260206004820152602e60248201527f45524337323155524953746f726167653a2055524920736574206f66206e6f6e60448201526d32bc34b9ba32b73a103a37b5b2b760911b6064820152608490fd5b60809060208152603260208201527f4552433732313a207472616e7366657220746f206e6f6e20455243373231526560408201527131b2b4bb32b91034b6b83632b6b2b73a32b960711b60608201520190565b15612bcc57565b60405162461bcd60e51b815280612be560048201612b72565b0390fd5b600081815260026020526040902054612c0c906001600160a01b03161515611553565b6000526006602052604060002060405190816000825492612c2c84611479565b8084529360018116908115612cac5750600114612c65575b50612c519250038261143b565b6000604051612c6160208261143b565b5290565b90506000929192526020600020906000915b818310612c90575050906020612c519282010138612c44565b6020919350806001915483858801015201910190918392612c77565b905060209250612c5194915060ff191682840152151560051b82010138612c44565b6004811015610a145760038114612d5f5760009060028114612d3b576001915014612d1757604051612d0160408261143b565b600681526542726f6e7a6560d01b602082015290565b604051612d2560408261143b565b600681526529b4b63b32b960d11b602082015290565b5050604051612d4b60408261143b565b600481526311dbdb1960e21b602082015290565b50604051612d6e60408261143b565b6008815267506c6174696e756d60c01b602082015290565b6004811015610a145760038114612e1c5760009060028114612df5576001915014612dd057604051612db960408261143b565b600781526611a1a21ba3199960c91b602082015290565b604051612dde60408261143b565b6007815266119ca1a099a0a360c91b602082015290565b5050604051612e0560408261143b565b600781526608d190d10ccd1160ca1b602082015290565b50604051612e2b60408261143b565b600781526611a29aa29ba2a160c91b602082015290565b90612e4c8261145d565b612e59604051918261143b565b8281528092612e6a601f199161145d565b0190602036910137565b8060009172184f03e93ff9f4daa797ed6e38ed64bf6a1f0160401b821015612f9b575b806d04ee2d6d415b85acef8100000000600a921015612f80575b662386f26fc10000811015612f6c575b6305f5e100811015612f5b575b612710811015612f4c575b6064811015612f3e575b1015612f33575b600a6021612efa60018501612e42565b938401015b60001901916f181899199a1a9b1b9c1cb0b131b232b360811b8282061a8353048015612f2e57600a9091612eff565b505090565b600190910190612eea565b606460029104930192612ee3565b61271060049104930192612ed9565b6305f5e10060089104930192612ece565b662386f26fc1000060109104930192612ec1565b6d04ee2d6d415b85acef810000000060209104930192612eb1565b506040915072184f03e93ff9f4daa797ed6e38ed64bf6a1f0160401b8104612e97565b908151156131135760405191612fd560608461143b565b604083527f4142434445464748494a4b4c4d4e4f505152535455565758595a61626364656660208401527f6768696a6b6c6d6e6f707172737475767778797a303132333435363738392b2f60408401528051600281018091116130fd57600390046001600160fe1b03811681036130fd576130529060021b612e42565b9060208201908081518201956020870190815192600083525b8881106130af575050600393949596505251068060011461309c57600214613091575090565b603d90600019015390565b50603d9081600019820153600119015390565b600360049199969901986001603f8b5182828260121c16870101518453828282600c1c16870101518385015382828260061c168701015160028501531684010151600382015301949761306b565b634e487b7160e01b600052601160045260246000fd5b905060405161312360208261143b565b6000815290565b91823b1561323c57613170926020926000604051809681958294630a85bd0160e11b8452336004850152846024850152604484015260806064840152608483019061136b565b03926001600160a01b03165af180916000916131f9575b50906131e3573d156131dc573d61319d8161145d565b906131ab604051928361143b565b81523d6000602083013e5b805190816131d75760405162461bcd60e51b815280612be560048201612b72565b602001fd5b60606131b6565b6001600160e01b031916630a85bd0160e11b1490565b6020813d602011613234575b816132126020938361143b565b810103126113185751906001600160e01b0319821682036101c3575038613187565b3d9150613205565b505050600190565b919290803b156132945761317093600060209460405196879586948593630a85bd0160e11b855233600486015260018060a01b03166024850152604484015260806064840152608483019061136b565b50505050600190565b633b9aca0081101561335457620f424081101561330d576103e88110156132c7576115c290612e74565b6103e86132d49104612e74565b6115c260016020604051846132f28296518092858086019101611348565b8101604b60f81b838201520301601e1981018452018261143b565b620f424061331b9104612e74565b6115c260016020604051846133398296518092858086019101611348565b8101604d60f81b838201520301601e1981018452018261143b565b633b9aca006133639104612e74565b6115c260016020604051846133818296518092858086019101611348565b8101602160f91b838201520301601e1981018452018261143b565b156133a357565b60405162461bcd60e51b815260206004820152601c60248201527f4552433732313a20746f6b656e20616c7265616479206d696e746564000000006044820152606490fdfe41462220666f6e742d66616d696c793d22417269616c2220666f6e742d73697a2220666f6e742d66616d696c793d22417269616c2220666f6e742d73697a653da264697066735822122067953712874fea781f9746ec4b7a2bb1d384ace41ba1c039cd214274f0ba7a0a64736f6c634300081c0033",
  "linkReferences": {},
  "deployedLinkReferences": {}
}