{
  "_format": "hh-sol-artifact-1",
  "contractName": "DeFiPassportNFT",
  "sourceName": "contracts/DeFiPassportNFT.sol",
  "abi": [
    {
      "inputs": [
        {
          "internalType": "string",
          "name": "name",
          "type": "string"
        },
        {
          "internalType": "string",
          "name": "symbol",
          "type": "string"
        },
        {
          "internalType": "address",
          "name": "_mainRouter",
          "type": "address"
        }
      ],
      "stateMutability": "nonpayable",
      "type": "constructor"
    },
    {
      "inputs": [],
      "name": "InvalidCreditScore",
      "type": "error"
    },
    {
      "inputs": [],
      "name": "NotAuthorizedUpdater",
      "type": "error"
    },
    {
      "inputs": [],
      "name": "NotPassportOwner",
      "type": "error"
    },
    {
      "inputs": [],
      "name": "PassportAlreadyExists",
      "type": "error"
    },
    {
      "inputs": [],
      "name": "PassportDoesNotExist",
      "type": "error"
    },
    {
      "inputs": [],
      "name": "ZeroAddress",
      "type": "error"
    },
    {
      "anonymous": false,
      "inputs": [
        {
          "indexed": true,
          "internalType": "address",
          "name": "owner",
          "type": "address"
        },
        {
          "indexed": true,
          "internalType": "address",
          "name": "approved",
          "type": "address"
        },
        {
          "indexed": true,
          "internalType": "uint256",
          "name": "tokenId",
          "type": "uint256"
        }
      ],
      "name": "Approval",
      "type": "event"
    },
    {
      "anonymous": false,
      "inputs": [
        {
          "indexed": true,
          "internalType": "address",
          "name": "owner",
          "type": "address"
        },
        {
          "indexed": true,
          "internalType": "address",
          "name": "operator",
          "type": "address"
        },
        {
          "indexed": false,
          "internalType": "bool",
          "name": "approved",
          "type": "bool"
        }
      ],
      "name": "ApprovalForAll",
      "type": "event"
    },
    {
      "anonymous": false,
      "inputs": [
        {
          "indexed": false,
          "internalType": "uint256",
          "name": "_fromTokenId",
          "type": "uint256"
        },
        {
          "indexed": false,
          "internalType": "uint256",
          "name": "_toTokenId",
          "type": "uint256"
        }
      ],
      "name": "BatchMetadataUpdate",
      "type": "event"
    },
    {
      "anonymous": false,
      "inputs": [
        {
          "indexed": true,
          "internalType": "uint256",
          "name": "tokenId",
          "type": "uint256"
        },
        {
          "indexed": false,
          "internalType": "uint256",
          "name": "oldScore",
          "type": "uint256"
        },
        {
          "indexed": false,
          "internalType": "uint256",
          "name": "newScore",
          "type": "uint256"
        }
      ],
      "name": "CreditScoreUpdated",
      "type": "event"
    },
    {
      "anonymous": false,
      "inputs": [
        {
          "indexed": false,
          "internalType": "uint256",
          "name": "_tokenId",
          "type": "uint256"
        }
      ],
      "name": "MetadataUpdate",
      "type": "event"
    },
    {
      "anonymous": false,
      "inputs": [
        {
          "indexed": true,
          "internalType": "address",
          "name": "previousOwner",
          "type": "address"
        },
        {
          "indexed": true,
          "internalType": "address",
          "name": "newOwner",
          "type": "address"
        }
      ],
      "name": "OwnershipTransferred",
      "type": "event"
    },
    {
      "anonymous": false,
      "inputs": [
        {
          "indexed": true,
          "internalType": "address",
          "name": "user",
          "type": "address"
        },
        {
          "indexed": true,
          "internalType": "uint256",
          "name": "tokenId",
          "type": "uint256"
        },
        {
          "indexed": false,
          "internalType": "uint256",
          "name": "creditScore",
          "type": "uint256"
        }
      ],
      "name": "PassportMinted",
      "type": "event"
    },
    {
      "anonymous": false,
      "inputs": [
        {
          "indexed": true,
          "internalType": "address",
          "name": "user",
          "type": "address"
        },
        {
          "indexed": true,
          "internalType": "uint256",
          "name": "tokenId",
          "type": "uint256"
        },
        {
          "indexed": false,
          "internalType": "uint256",
          "name": "newCreditScore",
          "type": "uint256"
        }
      ],
      "name": "PassportUpdated",
      "type": "event"
    },
    {
      "anonymous": false,
      "inputs": [
        {
          "indexed": true,
          "internalType": "address",
          "name": "from",
          "type": "address"
        },
        {
          "indexed": true,
          "internalType": "address",
          "name": "to",
          "type": "address"
        },
        {
          "indexed": true,
          "internalType": "uint256",
          "name": "tokenId",
          "type": "uint256"
        }
      ],
      "name": "Transfer",
      "type": "event"
    },
    {
      "anonymous": false,
      "inputs": [
        {
          "indexed": true,
          "internalType": "address",
          "name": "updater",
          "type": "address"
        }
      ],
      "name": "UpdaterAuthorized",
      "type": "event"
    },
    {
      "anonymous": false,
      "inputs": [
        {
          "indexed": true,
          "internalType": "address",
          "name": "updater",
          "type": "address"
        }
      ],
      "name": "UpdaterRevoked",
      "type": "event"
    },
    {
      "inputs": [],
      "name": "BRONZE_THRESHOLD",
      "outputs": [
        {
          "internalType": "uint256",
          "name": "",
          "type": "uint256"
        }
      ],
      "stateMutability": "view",
      "type": "function"
    },
    {
      "inputs": [],
      "name": "GOLD_THRESHOLD",
      "outputs": [
        {
          "internalType": "uint256",
          "name": "",
          "type": "uint256"
        }
      ],
      "stateMutability": "view",
      "type": "function"
    },
    {
      "inputs": [],
      "name": "PLATINUM_THRESHOLD",
      "outputs": [
        {
          "internalType": "uint256",
          "name": "",
          "type": "uint256"
        }
      ],
      "stateMutability": "view",
      "type": "function"
    },
    {
      "inputs": [],
      "name": "SILVER_THRESHOLD",
      "outputs": [
        {
          "internalType": "uint256",
          "name": "",
          "type": "uint256"
        }
      ],
      "stateMutability": "view",
      "type": "function"
    },
    {
      "inputs": [
        {
          "internalType": "address",
          "name": "to",
          "type": "address"
        },
        {
          "internalType": "uint256",
          "name": "tokenId",
          "type": "uint256"
        }
      ],
      "name": "approve",
      "outputs": [],
      "stateMutability": "nonpayable",
      "type": "function"
    },
    {
      "inputs": [
        {
          "internalType": "address",
          "name": "updater",
          "type": "address"
        }
      ],
      "name": "authorizeUpdater",
      "outputs": [],
      "stateMutability": "nonpayable",
      "type": "function"
    },
    {
      "inputs": [
        {
          "internalType": "address",
          "name": "",
          "type": "address"
        }
      ],
      "name": "authorizedUpdaters",
      "outputs": [
        {
          "internalType": "bool",
          "name": "",
          "type": "bool"
        }
      ],
      "stateMutability": "view",
      "type": "function"
    },
    {
      "inputs": [
        {
          "internalType": "address",
          "name": "owner",
          "type": "address"
        }
      ],
      "name": "balanceOf",
      "outputs": [
        {
          "internalType": "uint256",
          "name": "",
          "type": "uint256"
        }
      ],
      "stateMutability": "view",
      "type": "function"
    },
    {
      "inputs": [
        {
          "internalType": "uint256",
          "name": "tokenId",
          "type": "uint256"
        }
      ],
      "name": "getApproved",
      "outputs": [
        {
          "internalType": "address",
          "name": "",
          "type": "address"
        }
      ],
      "stateMutability": "view",
      "type": "function"
    },
    {
      "inputs": [],
      "name": "getTotalSupply",
      "outputs": [
        {
          "internalType": "uint256",
          "name": "",
          "type": "uint256"
        }
      ],
      "stateMutability": "view",
      "type": "function"
    },
    {
      "inputs": [
        {
          "internalType": "address",
          "name": "user",
          "type": "address"
        }
      ],
      "name": "getUserPassport",
      "outputs": [
        {
          "components": [
            {
              "internalType": "uint256",
              "name": "creditScore",
              "type": "uint256"
            },
            {
              "internalType": "uint256",
              "name": "totalTransactions",
              "type": "uint256"
            },
            {
              "internalType": "uint256",
              "name": "totalVolumeUSD",
              "type": "uint256"
            },
            {
              "internalType": "uint256",
              "name": "protocolsUsed",
              "type": "uint256"
            },
            {
              "internalType": "uint256",
              "name": "liquidationCount",
              "type": "uint256"
            },
            {
              "internalType": "uint256",
              "name": "governanceParticipation",
              "type": "uint256"
            },
            {
              "internalType": "uint256",
              "name": "mintTimestamp",
              "type": "uint256"
            },
            {
              "internalType": "uint256",
              "name": "lastUpdateTimestamp",
              "type": "uint256"
            },
            {
              "internalType": "enum DeFiPassportNFT.CreditLevel",
              "name": "level",
              "type": "uint8"
            },
            {
              "internalType": "bool",
              "name": "isActive",
              "type": "bool"
            }
          ],
          "internalType": "struct DeFiPassportNFT.PassportData",
          "name": "",
          "type": "tuple"
        }
      ],
      "stateMutability": "view",
      "type": "function"
    },
    {
      "inputs": [
        {
          "internalType": "address",
          "name": "user",
          "type": "address"
        }
      ],
      "name": "getUserTokenId",
      "outputs": [
        {
          "internalType": "uint256",
          "name": "",
          "type": "uint256"
        }
      ],
      "stateMutability": "view",
      "type": "function"
    },
    {
      "inputs": [
        {
          "internalType": "address",
          "name": "user",
          "type": "address"
        }
      ],
      "name": "hasPassport",
      "outputs": [
        {
          "internalType": "bool",
          "name": "",
          "type": "bool"
        }
      ],
      "stateMutability": "view",
      "type": "function"
    },
    {
      "inputs": [
        {
          "internalType": "address",
          "name": "owner",
          "type": "address"
        },
        {
          "internalType": "address",
          "name": "operator",
          "type": "address"
        }
      ],
      "name": "isApprovedForAll",
      "outputs": [
        {
          "internalType": "bool",
          "name": "",
          "type": "bool"
        }
      ],
      "stateMutability": "view",
      "type": "function"
    },
    {
      "inputs": [
        {
          "internalType": "address",
          "name": "user",
          "type": "address"
        },
        {
          "internalType": "uint256",
          "name": "creditScore",
          "type": "uint256"
        },
        {
          "internalType": "uint256",
          "name": "totalTransactions",
          "type": "uint256"
        },
        {
          "internalType": "uint256",
          "name": "totalVolumeUSD",
          "type": "uint256"
        },
        {
          "internalType": "uint256",
          "name": "protocolsUsed",
          "type": "uint256"
        }
      ],
      "name": "mintPassport",
      "outputs": [],
      "stateMutability": "nonpayable",
      "type": "function"
    },
    {
      "inputs": [],
      "name": "name",
      "outputs": [
        {
          "internalType": "string",
          "name": "",
          "type": "string"
        }
      ],
      "stateMutability": "view",
      "type": "function"
    },
    {
      "inputs": [],
      "name": "owner",
      "outputs": [
        {
          "internalType": "address",
          "name": "",
          "type": "address"
        }
      ],
      "stateMutability": "view",
      "type": "function"
    },
    {
      "inputs": [
        {
          "internalType": "uint256",
          "name": "tokenId",
          "type": "uint256"
        }
      ],
      "name": "ownerOf",
      "outputs": [
        {
          "internalType": "address",
          "name": "",
          "type": "address"
        }
      ],
      "stateMutability": "view",
      "type": "function"
    },
    {
      "inputs": [
        {
          "internalType": "uint256",
          "name": "",
          "type": "uint256"
        }
      ],
      "name": "passportData",
      "outputs": [
        {
          "internalType": "uint256",
          "name": "creditScore",
          "type": "uint256"
        },
        {
          "internalType": "uint256",
          "name": "totalTransactions",
          "type": "uint256"
        },
        {
          "internalType": "uint256",
          "name": "totalVolumeUSD",
          "type": "uint256"
        },
        {
          "internalType": "uint256",
          "name": "protocolsUsed",
          "type": "uint256"
        },
        {
          "internalType": "uint256",
          "name": "liquidationCount",
          "type": "uint256"
        },
        {
          "internalType": "uint256",
          "name": "governanceParticipation",
          "type": "uint256"
        },
        {
          "internalType": "uint256",
          "name": "mintTimestamp",
          "type": "uint256"
        },
        {
          "internalType": "uint256",
          "name": "lastUpdateTimestamp",
          "type": "uint256"
        },
        {
          "internalType": "enum DeFiPassportNFT.CreditLevel",
          "name": "level",
          "type": "uint8"
        },
        {
          "internalType": "bool",
          "name": "isActive",
          "type": "bool"
        }
      ],
      "stateMutability": "view",
      "type": "function"
    },
    {
      "inputs": [],
      "name": "renounceOwnership",
      "outputs": [],
      "stateMutability": "nonpayable",
      "type": "function"
    },
    {
      "inputs": [
        {
          "internalType": "address",
          "name": "updater",
          "type": "address"
        }
      ],
      "name": "revokeUpdater",
      "outputs": [],
      "stateMutability": "nonpayable",
      "type": "function"
    },
    {
      "inputs": [
        {
          "internalType": "address",
          "name": "from",
          "type": "address"
        },
        {
          "internalType": "address",
          "name": "to",
          "type": "address"
        },
        {
          "internalType": "uint256",
          "name": "tokenId",
          "type": "uint256"
        }
      ],
      "name": "safeTransferFrom",
      "outputs": [],
      "stateMutability": "nonpayable",
      "type": "function"
    },
    {
      "inputs": [
        {
          "internalType": "address",
          "name": "from",
          "type": "address"
        },
        {
          "internalType": "address",
          "name": "to",
          "type": "address"
        },
        {
          "internalType": "uint256",
          "name": "tokenId",
          "type": "uint256"
        },
        {
          "internalType": "bytes",
          "name": "data",
          "type": "bytes"
        }
      ],
      "name": "safeTransferFrom",
      "outputs": [],
      "stateMutability": "nonpayable",
      "type": "function"
    },
    {
      "inputs": [
        {
          "internalType": "address",
          "name": "operator",
          "type": "address"
        },
        {
          "internalType": "bool",
          "name": "approved",
          "type": "bool"
        }
      ],
      "name": "setApprovalForAll",
      "outputs": [],
      "stateMutability": "nonpayable",
      "type": "function"
    },
    {
      "inputs": [
        {
          "internalType": "bytes4",
          "name": "interfaceId",
          "type": "bytes4"
        }
      ],
      "name": "supportsInterface",
      "outputs": [
        {
          "internalType": "bool",
          "name": "",
          "type": "bool"
        }
      ],
      "stateMutability": "view",
      "type": "function"
    },
    {
      "inputs": [],
      "name": "symbol",
      "outputs": [
        {
          "internalType": "string",
          "name": "",
          "type": "string"
        }
      ],
      "stateMutability": "view",
      "type": "function"
    },
    {
      "inputs": [
        {
          "internalType": "uint256",
          "name": "",
          "type": "uint256"
        }
      ],
      "name": "tokenExists",
      "outputs": [
        {
          "internalType": "bool",
          "name": "",
          "type": "bool"
        }
      ],
      "stateMutability": "view",
      "type": "function"
    },
    {
      "inputs": [
        {
          "internalType": "uint256",
          "name": "tokenId",
          "type": "uint256"
        }
      ],
      "name": "tokenURI",
      "outputs": [
        {
          "internalType": "string",
          "name": "",
          "type": "string"
        }
      ],
      "stateMutability": "view",
      "type": "function"
    },
    {
      "inputs": [
        {
          "internalType": "address",
          "name": "from",
          "type": "address"
        },
        {
          "internalType": "address",
          "name": "to",
          "type": "address"
        },
        {
          "internalType": "uint256",
          "name": "tokenId",
          "type": "uint256"
        }
      ],
      "name": "transferFrom",
      "outputs": [],
      "stateMutability": "nonpayable",
      "type": "function"
    },
    {
      "inputs": [
        {
          "internalType": "address",
          "name": "newOwner",
          "type": "address"
        }
      ],
      "name": "transferOwnership",
      "outputs": [],
      "stateMutability": "nonpayable",
      "type": "function"
    },
    {
      "inputs": [
        {
          "internalType": "address",
          "name": "user",
          "type": "address"
        },
        {
          "internalType": "uint256",
          "name": "newCreditScore",
          "type": "uint256"
        }
      ],
      "name": "updateCreditScore",
      "outputs": [],
      "stateMutability": "nonpayable",
      "type": "function"
    },
    {
      "inputs": [
        {
          "internalType": "address",
          "name": "user",
          "type": "address"
        },
        {
          "internalType": "uint256",
          "name": "newCreditScore",
          "type": "uint256"
        },
        {
          "internalType": "uint256",
          "name": "totalTransactions",
          "type": "uint256"
        },
        {
          "internalType": "uint256",
          "name": "totalVolumeUSD",
          "type": "uint256"
        },
        {
          "internalType": "uint256",
          "name": "protocolsUsed",
          "type": "uint256"
        },
        {
          "internalType": "uint256",
          "name": "liquidationCount",
          "type": "uint256"
        },
        {
          "internalType": "uint256",
          "name": "governanceParticipation",
          "type": "uint256"
        }
      ],
      "name": "updatePassport",
      "outputs": [],
      "stateMutability": "nonpayable",
      "type": "function"
    },
    {
      "inputs": [
        {
          "internalType": "address",
          "name": "",
          "type": "address"
        }
      ],
      "name": "userToTokenId",
      "outputs": [
        {
          "internalType": "uint256",
          "name": "",
          "type": "uint256"
        }
      ],
      "stateMutability": "view",
      "type": "function"
    }
  ],
  "bytecode": "0x608060405234620003c85762003866803803806200001d81620003cd565b928339810190606081830312620003c85780516001600160401b039290838111620003c8578162000050918401620003f3565b9160209182820151858111620003c85760409162000070918401620003f3565b9101516001600160a01b03948582169491859003620003c8578151818111620003b2576000938454916001948584811c94168015620003a7575b8885101462000393578190601f9485811162000340575b508890858311600114620002dc578892620002d0575b5050600019600383901b1c191690851b1785555b8051928311620002bc5783548481811c91168015620002b1575b878210146200029d579081838594931162000248575b5086918311600114620001e4578592620001d8575b5050600019600383901b1c191690821b1781555b60078054336001600160a01b03198216811790925560405196167f8be0079c531659141344cd1fd0a4f28419497f9722a3daafe3b4186f6b6457e08480a38362000196575b6134008581620004668239f35b600c7ffbc99308a04b9b530a8dbc7eb620a7597c4b92ff15390ab23ffdd979b9c592e49385845252604082209060ff1982541617905580a23880808062000189565b01519050388062000130565b8486528686208594509190601f198416875b8982821062000231575050841162000217575b505050811b01815562000144565b015160001960f88460031b161c1916905538808062000209565b8385015186558897909501949384019301620001f6565b909192508486528686208380860160051c82019289871062000293575b91869588929594930160051c01915b828110620002845750506200011b565b88815586955087910162000274565b9250819262000265565b634e487b7160e01b86526022600452602486fd5b90607f169062000105565b634e487b7160e01b85526041600452602485fd5b015190503880620000d7565b8880528989208894509190601f1984168a5b8c8282106200032957505084116200030f575b505050811b018555620000eb565b015160001960f88460031b161c1916905538808062000301565b8385015186558b97909501949384019301620002ee565b9091508780528888208580850160051c8201928b861062000389575b918991869594930160051c01915b8281106200037a575050620000c1565b8a81558594508991016200036a565b925081926200035c565b634e487b7160e01b87526022600452602487fd5b93607f1693620000aa565b634e487b7160e01b600052604160045260246000fd5b600080fd5b6040519190601f01601f191682016001600160401b03811183821017620003b257604052565b919080601f84011215620003c85782516001600160401b038111620003b25760209062000429601f8201601f19168301620003cd565b92818452828287010111620003c85760005b8181106200045157508260009394955001015290565b85810183015184820184015282016200043b56fe60a060408181526004918236101561001657600080fd5b60009260e08435811c928362923f9e1461141d5750826301ffc9a71461139157826306fdde03146112e8578263081812fc146112c7578263095ea7b31461115857826323b872dd146111335782633c932bef146110cc57826342842e0e146110975782634dc30e871461105c578263569739741461103e5782636352211e1461100c57826365352f9d14610f0457826369a2f02614610ee657826370a0823114610e50578263715018a614610df35782638679907214610c8a5782638da5cb5b14610c605782638ff29cfe14610c2157826395d89b4114610b3d57826399ba2db51461087f5782639cbe609714610800578263a22cb46514610730578263a6670ebe14610696578263a81472071461053057508163af24b07b14610508578163b88d4fde14610451578163c1a0db3014610434578163c4e41b2214610415578163c87b56dd14610306578163caaffae9146102e9578163e985e9c51461029b578163f2fde38b146101cb575063fefd4e4f1461019157600080fd5b346101c75760203660031901126101c75760209181906001600160a01b036101b7611490565b1681526009845220549051908152f35b5080fd5b905034610297576020366003190112610297576101e6611490565b906101ef6115c2565b6001600160a01b03918216928315610245575050600754826bffffffffffffffffffffffff60a01b821617600755167f8be0079c531659141344cd1fd0a4f28419497f9722a3daafe3b4186f6b6457e08380a380f35b906020608492519162461bcd60e51b8352820152602660248201527f4f776e61626c653a206e6577206f776e657220697320746865207a65726f206160448201526564647265737360d01b6064820152fd5b8280fd5b5050346101c757806003193601126101c75760ff816020936102bb611490565b6102c36114ab565b6001600160a01b0391821683526005875283832091168252855220549151911615158152f35b5050346101c757816003193601126101c757602090516103528152f35b9190503461029757602091826003193601126104115735600081815260026020526040902054610340906001600160a01b0316151561161a565b83526006825280832092815180948290805461035b8161168c565b918285526001918883821691826000146103ea5750506001146103ac575b5050506103a893929161038d910386611584565b81516103988161154c565b525192828493845283019061146b565b0390f35b8552868520879350859291905b8284106103d2575050508201018161038d6103a8610379565b8054848b0186015289955088949093019281016103b9565b60ff19168782015293151560051b8601909301935084925061038d91506103a89050610379565b8380fd5b5050346101c757816003193601126101c7576020906008549051908152f35b5050346101c757816003193601126101c757602090516101f48152f35b919050346102975760803660031901126102975761046d611490565b906104766114ab565b604435906064359467ffffffffffffffff8611610504573660238701121561050457850135936104b16104a8866115a6565b94519485611584565b848452863660248789010111610501576020866104f99760246104fe9a0183890137860101526104e96104e484336117dd565b611704565b6104f48383836118a5565b611b3c565b6117b9565b80f35b80fd5b8680fd5b5050346101c75760203660031901126101c75760209181906001600160a01b036101b7611490565b83859134610297573660031901126101c75761054a611490565b9060243591338452600c60205260ff82852054161580610681575b610671576103e88311610661576001600160a01b031680845260096020528184205490949092831561065257838596817fc5fc4bfbf16a570f3895fbe4f01a26916ca47bfe7f9d11e96c937dcc2ec5f7b4969752600b60205261060985892080549585825560443560018301556064356002830155608435600383015560a4359082015560c435600582015542600782015560086106028661314c565b9101611bcf565b61061b61061583611e22565b83611c33565b7fdcb913e1369d52b768a09bd009bf861e3b71a6b6170bf5a0a9e121512f5c72d460208651858152a382519182526020820152a280f35b509051634ded8ea560e01b8152fd5b81516301069b4760e21b81528590fd5b815163320db8e160e01b81528590fd5b506007546001600160a01b0316331415610565565b90915034610411576020366003190112610411579060ff91836101409583358152600b602052209081549460018301549360028401549060038501549085015490600586015492600687015494600860078901549801549881519b8c5260208c01528a01526060890152608088015260a087015260c086015284015261072261010084018383166114f6565b60081c161515610120820152f35b8482853461029757806003193601126102975761074b611490565b90602435918215158093036107fc576001600160a01b0316923384146107ba5750338452600560205280842083855260205280842060ff1981541660ff8416179055519081527f17307eab39ab6107e8899845ad3d59bd9653f200f220920489ca2b5937696c3160203392a380f35b6020606492519162461bcd60e51b8352820152601960248201527f4552433732313a20617070726f766520746f2063616c6c6572000000000000006044820152fd5b8480fd5b848285346102975760203660031901126102975761081c611490565b6108246115c2565b6001600160a01b03169182156108715750818352600c6020528220805460ff191660011790557ffbc99308a04b9b530a8dbc7eb620a7597c4b92ff15390ab23ffdd979b9c592e48280a280f35b905163d92e233d60e01b8152fd5b838591346102975760a03660031901126102975761089b611490565b91602435338552602091600c835260ff81872054161580610b28575b610b19576103e88211610b0a576001600160a01b038516938415610afa578487526009845281872054610aea57600854600101958660085582516108fa8161154c565b88815260008881526002602052604090205461091f906001600160a01b031615611be7565b600088815260026020526040902054610941906001600160a01b031615611be7565b86895260038652838920805460010190558789526002865283892080546001600160a01b031916881790558780888b7fddf252ad1be2c89b69c2b068fc378daa952ba7f163c4a11628f55a4df523b3ef8180a461099d92611a22565b6109a6906117b9565b856109b08461314c565b91858451916109be83611519565b8683528a828401604435815287850160643581526060860190608435825260808701928484528a60a089019580875260c08a01974289528a0198428a526101008b019c610a0b908e611bc3565b6101208b019b60018d528252600b90522097518855516001880155516002870155516003860155518d850155516005840155516006830155516007820155600801915189811015610ad7577f39c7a0be2574396927e6ea79689359d510f93baabccddecb840da959ef6389659697989950610a869083611bcf565b51815461ff00191690151560081b61ff001617905584875260098352808720869055858752600a8352808720805460ff19166001179055610acf610ac987611e22565b87611c33565b51908152a380f35b634e487b7160e01b895260218a52602489fd5b8151635bebc7ad60e11b81528890fd5b815163d92e233d60e01b81528890fd5b516301069b4760e21b81528690fd5b5163320db8e160e01b81528690fd5b506007546001600160a01b03163314156108b7565b505050346101c757816003193601126101c757805190826001805491610b628361168c565b80865292828116908115610bf95750600114610b9d575b505050610b8b826103a8940383611584565b5191829160208352602083019061146b565b94508085527fb10e2d527612073b26eecdfd717e6a320cf44b4afac2b0732d9fcbe2b7fa0cf65b828610610be157505050610b8b8260206103a89582010194610b79565b80546020878701810191909152909501948101610bc4565b6103a8975086935060209250610b8b94915060ff191682840152151560051b82010194610b79565b505050346101c75760203660031901126101c75760209160ff9082906001600160a01b03610c4d611490565b168152600c855220541690519015158152f35b505050346101c757816003193601126101c75760075490516001600160a01b039091168152602090f35b849250346102975760208060031936011261041157610ca7611490565b91855194610cb486611519565b808652808387015280878701528060608701528060808701528060a08701528060c08701528082870152610100938185880152816101208098015260018060a01b0316815260098352868120548015610de3578152600b8352869020865194610d1c86611519565b8154865260018201549784870198895260028301549181880192835260038401549060608901918252840154906080890191825260058501549260a08a0193845260068601549460c08b01958652600787015496888c01978852600801549a8a81019960ff8d16610d8d908c611bc3565b8d82019c60081c60ff1615158d5283519e8f925183525191015251908c01525160608b01525160808a01525160a08901525160c0880152519086015251908401610dd6916114f6565b5115159082015261014090f35b8751634ded8ea560e01b81528690fd5b8434610501578060031936011261050157610e0c6115c2565b600780546001600160a01b0319811690915581906001600160a01b03167f8be0079c531659141344cd1fd0a4f28419497f9722a3daafe3b4186f6b6457e08280a380f35b838583346101c75760203660031901126101c7576001600160a01b03610e74611490565b16908115610e915760208480858581526003845220549051908152f35b608490602085519162461bcd60e51b8352820152602960248201527f4552433732313a2061646472657373207a65726f206973206e6f7420612076616044820152683634b21037bbb732b960b91b6064820152fd5b505050346101c757816003193601126101c7576020905161012c8152f35b84828534610297578060031936011261029757610f1f611490565b60243590338552600c60205260ff83862054161580610ff7575b610fe8576103e88211610fd9576001600160a01b03168452600960205281842054928315610fcb5750907fc5fc4bfbf16a570f3895fbe4f01a26916ca47bfe7f9d11e96c937dcc2ec5f7b491838552600b60205281852090610fab82549282815542600782015560086106028461314c565b610fbd610fb786611e22565b86611c33565b82519182526020820152a280f35b8251634ded8ea560e01b8152fd5b5050516301069b4760e21b8152fd5b50505163320db8e160e01b8152fd5b506007546001600160a01b0316331415610f39565b50828434610501576020366003190112610501575061102d60209235611666565b90516001600160a01b039091168152f35b505050346101c757816003193601126101c757602090516102bc8152f35b505050346101c75760203660031901126101c75760209181906001600160a01b03611085611490565b16815260098452205415159051908152f35b505050346101c7576104f96104fe916110af366114c1565b919251926110bc8461154c565b8684526104e96104e484336117dd565b505050346101c75760203660031901126101c7576110e8611490565b6110f06115c2565b6001600160a01b0316808352600c602052908220805460ff191690557f27e810a75a9534f49f3874cd6aef1cd8ccd4fd9e24acb4c3813ba552851ef7968280a280f35b8434610501576104fe611145366114c1565b916111536104e484336117dd565b6118a5565b50905034610297578160031936011261029757611173611490565b6024359290916001600160a01b039190828061118e87611666565b1694169380851461127a5780331490811561125b575b50156111f357848652602052842080546001600160a01b031916831790556111cb83611666565b167f8c5be1e5ebec7d5bd14f71427d1e84f3dd0314c0f7b2291e5b200ac8c7c3b9258480a480f35b6020608492519162461bcd60e51b8352820152603d60248201527f4552433732313a20617070726f76652063616c6c6572206973206e6f7420746f60448201527f6b656e206f776e6572206f7220617070726f76656420666f7220616c6c0000006064820152fd5b90508652600560205281862033875260205260ff8287205416386111a4565b506020608492519162461bcd60e51b8352820152602160248201527f4552433732313a20617070726f76616c20746f2063757272656e74206f776e656044820152603960f91b6064820152fd5b50828434610501576020366003190112610501575061102d602092356116c6565b505050346101c757816003193601126101c75780519082805461130a8161168c565b80855291600191808316908115610bf9575060011461133557505050610b8b826103a8940383611584565b80809650527f290decd9548b62a8d60345a988386fc84ba6bc95484008f6362f93160ef3e5635b82861061137957505050610b8b8260206103a89582010194610b79565b8054602087870181019190915290950194810161135c565b5090503461029757602036600319011261029757359063ffffffff60e01b82168092036102975760209250632483248360e11b82149182156113d7575b50519015158152f35b9091506380ac58cd60e01b811490811561140c575b81156113fb575b5090386113ce565b6301ffc9a760e01b149050386113f3565b635b5e139f60e01b811491506113ec565b939250503461041157602036600319011261041157358352600a602090815292205460ff1615158152f35b60005b83811061145b5750506000910152565b818101518382015260200161144b565b9060209161148481518092818552858086019101611448565b601f01601f1916010190565b600435906001600160a01b03821682036114a657565b600080fd5b602435906001600160a01b03821682036114a657565b60609060031901126114a6576001600160a01b039060043582811681036114a6579160243590811681036114a6579060443590565b9060048210156115035752565b634e487b7160e01b600052602160045260246000fd5b610140810190811067ffffffffffffffff82111761153657604052565b634e487b7160e01b600052604160045260246000fd5b6020810190811067ffffffffffffffff82111761153657604052565b6040810190811067ffffffffffffffff82111761153657604052565b90601f8019910116810190811067ffffffffffffffff82111761153657604052565b67ffffffffffffffff811161153657601f01601f191660200190565b6007546001600160a01b031633036115d657565b606460405162461bcd60e51b815260206004820152602060248201527f4f776e61626c653a2063616c6c6572206973206e6f7420746865206f776e65726044820152fd5b1561162157565b60405162461bcd60e51b815260206004820152601860248201527f4552433732313a20696e76616c696420746f6b656e20494400000000000000006044820152606490fd5b6000908152600260205260409020546001600160a01b031661168981151561161a565b90565b90600182811c921680156116bc575b60208310146116a657565b634e487b7160e01b600052602260045260246000fd5b91607f169161169b565b6000818152600260205260409020546116e9906001600160a01b0316151561161a565b6000908152600460205260409020546001600160a01b031690565b1561170b57565b60405162461bcd60e51b815260206004820152602d60248201527f4552433732313a2063616c6c6572206973206e6f7420746f6b656e206f776e6560448201526c1c881bdc88185c1c1c9bdd9959609a1b6064820152608490fd5b60809060208152603260208201527f4552433732313a207472616e7366657220746f206e6f6e20455243373231526560408201527131b2b4bb32b91034b6b83632b6b2b73a32b960711b60608201520190565b156117c057565b60405162461bcd60e51b8152806117d960048201611766565b0390fd5b906001600160a01b0380806117f184611666565b16931691838314938415611824575b50831561180e575b50505090565b61181a919293506116c6565b1614388080611808565b909350600052600560205260406000208260005260205260ff604060002054169238611800565b1561185257565b60405162461bcd60e51b815260206004820152602560248201527f4552433732313a207472616e736665722066726f6d20696e636f72726563742060448201526437bbb732b960d91b6064820152608490fd5b906118cd916118b384611666565b6001600160a01b039391841692849290918316841461184b565b169182156119d157811580156119c9575b1561197857816118f8916118f186611666565b161461184b565b7fddf252ad1be2c89b69c2b068fc378daa952ba7f163c4a11628f55a4df523b3ef60008481526004602052604081206bffffffffffffffffffffffff60a01b9081815416905583825260036020526040822060001981540190558482526040822060018154019055858252600260205284604083209182541617905580a4565b60405162461bcd60e51b815260206004820152602360248201527f446546692050617373706f72747320617265206e6f6e2d7472616e7366657261604482015262626c6560e81b6064820152608490fd5b5060006118de565b60405162461bcd60e51b8152602060048201526024808201527f4552433732313a207472616e7366657220746f20746865207a65726f206164646044820152637265737360e01b6064820152608490fd5b91929091803b15611b3357611a6f936040519081630a85bd0160e11b9384825233600483015260009687602484015260448301526080606483015281878160209a8b96608483019061146b565b03926001600160a01b03165af1849181611af3575b50611ae2575050503d600014611ada573d611a9e816115a6565b90611aac6040519283611584565b81528091833d92013e5b80519182611ad75760405162461bcd60e51b8152806117d960048201611766565b01fd5b506060611ab6565b6001600160e01b0319161492509050565b9091508581813d8311611b2c575b611b0b8183611584565b810103126107fc57516001600160e01b0319811681036107fc579038611a84565b503d611b01565b50915050600190565b92939190803b15611bb957611b8e946040518092630a85bd0160e11b9485835233600484015260018060a01b03809816602484015260448301526080606483015281806020998a95608483019061146b565b03916000988991165af1849181611af35750611ae2575050503d600014611ada573d611a9e816115a6565b5050915050600190565b60048210156115035752565b9060048110156115035760ff80198354169116179055565b15611bee57565b60405162461bcd60e51b815260206004820152601c60248201527f4552433732313a20746f6b656e20616c7265616479206d696e746564000000006044820152606490fd5b6000818152600260205260409020549192916001600160a01b031615611dc65760009080825260209160068352604081209085519067ffffffffffffffff8211611db257611c81835461168c565b601f8111611d6f575b508490601f8311600114611ceb57907ff8e1a15aba9398e019f0b49df1a4fde98ee17ae345cb5f6b5e2c27f5033e8ce7969783611ce0575b50508160011b916000199060031b1c19161790555b604051908152a1565b015190503880611cc2565b9196601f198816848452868420935b818110611d5857509160019391897ff8e1a15aba9398e019f0b49df1a4fde98ee17ae345cb5f6b5e2c27f5033e8ce7999a9410611d3f575b505050811b019055611cd7565b015160001960f88460031b161c19169055388080611d32565b929387600181928786015181550195019301611cfa565b838252858220601f840160051c810191878510611da8575b601f0160051c01905b818110611d9d5750611c8a565b828155600101611d90565b9091508190611d87565b634e487b7160e01b81526041600452602490fd5b60405162461bcd60e51b815260206004820152602e60248201527f45524337323155524953746f726167653a2055524920736574206f66206e6f6e60448201526d32bc34b9ba32b73a103a37b5b2b760911b6064820152608490fd5b80600052600b602052604060002090600860405192611e4084611519565b8054845260018101546020850152600281015460408501526003810154606085015260048101546080850152600581015460a0850152600681015460c0850152600781015460e085015201549160ff610100820193611ea182821686611bc3565b60081c1615156101208201528251600481101561150357611ec19061317f565b9251600481101561150357611ed590613229565b50611edf82613009565b9180600052600b602052604060002090600860405192611efe84611519565b8054845260018101546020850152600281015460408501526003810154606085015260048101546080850152600581015460a0850152600681015460c0850152600781015460e0850152015460ff610100840191611f5e82821684611bc3565b60081c1615156101208401528051600481101561150357611f7e90613229565b9051600481101561150357611f929061317f565b91611f9c90613009565b908351611fa890613009565b936020810151611fb790613009565b936040820151611fc6906132d7565b936060830151611fd590613009565b9260800151611fe390613009565b94604051978897602089017f3c7376672077696474683d2234303022206865696768743d223630302220786d9052604089017f6c6e733d22687474703a2f2f7777772e77332e6f72672f323030302f73766722905260608901601f60f91b905260618901651e3232b3399f60d11b9052606789017f3c6c696e6561724772616469656e742069643d226267222078313d22302522209052608789017f79313d223025222078323d2231303025222079323d2231303025223e00000000905260a389017f3c73746f70206f66667365743d22302522207374796c653d2273746f702d636f905260c389017f6c6f723a233165323933623b73746f702d6f7061636974793a3122202f3e0000905260e189017f3c73746f70206f66667365743d223130302522207374796c653d2273746f702d905261010189017f636f6c6f723a233066313732613b73746f702d6f7061636974793a3122202f3e90526101218901701e17b634b732b0b923b930b234b2b73a1f60791b905261013289017f3c6c696e6561724772616469656e742069643d226c6576656c222078313d2230905261015289017f25222079313d223025222078323d2231303025222079323d223025223e000000905261016f89017f3c73746f70206f66667365743d22302522207374796c653d2273746f702d636f905261018f8901633637b91d60e11b90528651610193808b018260208b01916121f892611448565b721db9ba37b816b7b830b1b4ba3c9d189110179f60691b8b8301918201527f3c73746f70206f66667365743d223130302522207374796c653d2273746f702d6101a68201526531b7b637b91d60d11b6101c682015288516101cc929091612266908390850160208d01611448565b741db9ba37b816b7b830b1b4ba3c9d18171b1110179f60591b908c019190910191820152701e17b634b732b0b923b930b234b2b73a1f60791b6101e1820152661e17b232b3399f60c91b6101f28201527f3c726563742077696474683d2234303022206865696768743d223630302220666101f98201527f696c6c3d2275726c2823626729222072783d223230222f3e00000000000000006102198201527f3c7265637420783d2232302220793d223230222077696474683d2233363022206102318201527f6865696768743d223830222066696c6c3d2275726c28236c6576656c29222072610251820152673c1e91189811179f60c11b6102718201527f3c7465787420783d223230302220793d2234352220746578742d616e63686f726102798201527f3d226d6964646c65222066696c6c3d2277686974652220666f6e742d66616d6961029982018190527f6c793d22417269616c2220666f6e742d73697a653d2231362220666f6e742d776102b98301527f65696768743d22626f6c64223e446546692050617373706f72743c2f746578746102d9830152601f60f91b6102f98301527f3c7465787420783d223230302220793d2237302220746578742d616e63686f726102fa83015261031a8201527f6c793d22417269616c2220666f6e742d73697a653d2232342220666f6e742d7761033a8201526d65696768743d22626f6c64223e2360901b61035a82015284516103689590919061249490839088840190602001611448565b0193661e17ba32bc3a1f60c91b9785899694878096948195015261036f82017f3c7465787420783d2234302220793d22313430222066696c6c3d22776869746590527f2220666f6e742d66616d696c793d22417269616c2220666f6e742d73697a653d918261038f8201526103af81017f2231382220666f6e742d7765696768743d22626f6c64223e437265646974205390526103cf81016a31b7b9329e17ba32bc3a1f60a91b90526103da81017f3c7465787420783d223336302220793d223134302220746578742d616e63686f9052826d391e9132b73211103334b6361e9160911b91826103fa8201528551610408918281018260208a019161259892611448565b01806080520152608051610428017f2232342220666f6e742d7765696768743d22626f6c64223e000000000000000090528482516104409381856080510191602001916125e492611448565b60805101928301527f3c7465787420783d2234302220793d22313830222066696c6c3d22776869746561044783015261046782018390527f2231382220666f6e742d7765696768743d22626f6c64223e4c6576656c3c2f746104878301526332bc3a1f60e11b6104a78301527f3c7465787420783d223336302220793d223138302220746578742d616e63686f6104ab8301526104cb82015282516104d99390919061269890839086840190602001611448565b01918201526104f981017f2231382220666f6e742d7765696768743d22626f6c64223e00000000000000009052865190610511978289830191602001916126de92611448565b01958601527f3c6c696e652078313d223430222079313d22323030222078323d2233363022206105188601527f79323d2232303022207374726f6b653d222333373431353122207374726f6b656105388601526b16bbb4b23a341e911891179f60a11b6105588601527f3c7465787420783d2234302220793d22323430222066696c6c3d2223394341336105648601527f41462220666f6e742d66616d696c793d22417269616c2220666f6e742d73697a6105848601819052740329e91189a111f2a3930b739b0b1ba34b7b7399d1605d1b6105a4870152815190956105b992849291906127d490839086840190602001611448565b01918201526105c081017f3c7465787420783d2234302220793d22323730222066696c6c3d2223394341339052846105e08201526f194f488c4d088f959bdb1d5b594e880960821b6106008201528251906106109382858301916020019161283b92611448565b019182015261061781017f3c7465787420783d2234302220793d22333030222066696c6c3d222339434133905282610637820152710329e91189a111f283937ba37b1b7b6399d160751b610657820152835190610669948286830191602001916128a492611448565b01928301527f3c7465787420783d2234302220793d22333330222066696c6c3d222339434133610670830152610690820152740329e91189a111f2634b8bab4b230ba34b7b7399d1605d1b6106b082015282516106c59390919061291090839086840190602001611448565b01918201526106cc8101651e17b9bb339f60d11b9052036106b2810182526106d20161293c9082611584565b61294590612e8e565b90604051938460208101937f646174613a696d6167652f7376672b786d6c3b6261736536342c000000000000855280519081603a8401916020019161298992611448565b810103601a81018652603a0161299f9086611584565b81516129aa90613009565b9060208301516129b990613009565b9160408401516129c890613009565b9260608501516129d790613009565b9060808601516129e690613009565b9260a08701516129f590613009565b9660c00151612a0390613009565b976040519a8b809b602082017f7b226e616d65223a2022446546692050617373706f72742023000000000000009052805160398193019160200191612a4792611448565b7f222c20226465736372697074696f6e223a2022596f75722044654669206372656039918d01918201527f6469742070726f66696c6520616e642072657075746174696f6e206f6e2d6368605982015264185a5b888b60da1b6079820152691134b6b0b3b2911d101160b11b607e820152905191612acb9083906088840190611448565b61088b60f21b608892909101918201526e2261747472696275746573223a205b60881b608a8201527f7b2274726169745f74797065223a20224372656469742053636f7265222c202260998201526703b30b63ab2911d160c51b60b9820152815191612b4090839060c1840190602001611448565b0190611f4b60f21b8095838260c18196015260c381017f7b2274726169745f74797065223a2022437265646974204c6576656c222c20229052683b30b63ab2911d101160b91b60e38201528151918260ec83019160200191612ba192611448565b0162089f4b60ea1b60ec82015260ef81017f7b2274726169745f74797065223a2022546f74616c205472616e73616374696f90526d03739911610113b30b63ab2911d160951b61010f82015282519061011d93828583019160200191612c0692611448565b01918201527f7b2274726169745f74797065223a2022546f74616c20566f6c756d652055534461011f8201526b0111610113b30b63ab2911d160a51b61013f820152855161014b96909190612c6390839089840190602001611448565b019485015261014d84017f7b2274726169745f74797065223a202250726f746f636f6c732055736564222c90528269010113b30b63ab2911d160b51b948561016d82015282519061017793828583019160200191612cc092611448565b01918201527f7b2274726169745f74797065223a20224c69717569646174696f6e20436f756e6101798201526c03a111610113b30b63ab2911d1609d1b610199820152815191612d1a9083906101a6840190602001611448565b01816101a68201526101a881017f7b2274726169745f74797065223a2022476f7665726e616e6365205061727469905273031b4b830ba34b7b7111610113b30b63ab2911d160651b6101c88201528351906101dc94828683019160200191612d8192611448565b01928301526101de82017f7b2274726169745f74797065223a20224d696e742054696d657374616d70222c90526101fe82015281519061020892828483019160200191612dcd92611448565b01908101607d60f81b90526102098101615d7d60f01b9052036101eb8101825261020b01612dfb9082611584565b612e0490612e8e565b6040518091602082017f646174613a6170706c69636174696f6e2f6a736f6e3b6261736536342c000000905280519081603d84019160200191612e4692611448565b810103601d81018252603d016116899082611584565b90612e66826115a6565b612e736040519182611584565b8281528092612e84601f19916115a6565b0190602036910137565b805115612ff557604051906060820182811067ffffffffffffffff82111761153657604052604082527f4142434445464748494a4b4c4d4e4f505152535455565758595a61626364656660208301527f6768696a6b6c6d6e6f707172737475767778797a303132333435363738392b2f60408301528051600291828201809211612fdf576003918290046001600160fe1b0381168103612fdf57612f35908495941b612e5c565b936020850193829183518401906020820192835194600085525b838110612f8e575050505052510680600114612f7b57600214612f70575090565b603d90600019015390565b50603d9081600019820153600119015390565b87600491999293949901918251600190603f9082828260121c16880101518453828282600c1c16880101518385015382828260061c1688010151888501531685010151898201530197929190612f4f565b634e487b7160e01b600052601160045260246000fd5b506040516130028161154c565b6000815290565b806000917a184f03e93ff9f4daa797ed6e38ed64bf6a1f0100000000000000008082101561313e575b506d04ee2d6d415b85acef81000000008083101561312f575b50662386f26fc1000080831015613120575b506305f5e10080831015613111575b5061271080831015613102575b5060648210156130f2575b600a809210156130e8575b6001908160216130a0828701612e5c565b95860101905b6130b2575b5050505090565b600019019083906f181899199a1a9b1b9c1cb0b131b232b360811b8282061a8353049182156130e3579190826130a6565b6130ab565b916001019161308f565b9190606460029104910191613084565b60049193920491019138613079565b6008919392049101913861306c565b6010919392049101913861305d565b6020919392049101913861304b565b604093508104915038613032565b610352811015613179576102bc811015613173576101f4111561316e57600090565b600190565b50600290565b50600390565b6004811015611503576003811461320457600281146131e3576001146131c1576040516131ab81611568565b600681526542726f6e7a6560d01b602082015290565b6040516131cd81611568565b600681526529b4b63b32b960d11b602082015290565b506040516131f081611568565b600481526311dbdb1960e21b602082015290565b5060405161321181611568565b6008815267506c6174696e756d60c01b602082015290565b600481101561150357600381146132b3576002811461328f5760011461326c5760405161325581611568565b600781526611a1a21ba3199960c91b602082015290565b60405161327881611568565b6007815266119ca1a099a0a360c91b602082015290565b5060405161329c81611568565b600781526608d190d10ccd1160ca1b602082015290565b506040516132c081611568565b600781526611a29aa29ba2a160c91b602082015290565b633b9aca00808210156133895750620f42408082101561334857506103e880821015613307575061168990613009565b6133119104613009565b61168960216040518361332e829551809260208086019101611448565b8101604b60f81b6020820152036001810184520182611584565b6133529104613009565b61168960216040518361336f829551809260208086019101611448565b8101604d60f81b6020820152036001810184520182611584565b6133939104613009565b6116896021604051836133b0829551809260208086019101611448565b8101602160f91b602082015203600181018452018261158456fea26469706673582212204138e55d125ac246a2a9e6c0586b58fa6deaf35471db49cf90cfba4a6354fd0f64736f6c63430008140033",
  "linkReferences": {},
  "deployedLinkReferences": {}
}