{
  "_format": "hh-sol-artifact-1",
  "contractName": "Depositor",
  "sourceName": "contracts/Depositor.sol",
  "abi": [
    {
      "inputs": [
        {
          "internalType": "address",
          "name": "_router",
          "type": "address"
        },
        {
          "internalType": "uint64",
          "name": "_mainRouterChainSelector",
          "type": "uint64"
        },
        {
          "internalType": "address",
          "name": "_mainRouterAddress",
          "type": "address"
        }
      ],
      "stateMutability": "nonpayable",
      "type": "constructor"
    },
    {
      "inputs": [
        {
          "internalType": "uint64",
          "name": "destinationChainSelector",
          "type": "uint64"
        }
      ],
      "name": "DestinationChainNotAllowed",
      "type": "error"
    },
    {
      "inputs": [
        {
          "internalType": "address",
          "name": "owner",
          "type": "address"
        },
        {
          "internalType": "address",
          "name": "target",
          "type": "address"
        },
        {
          "internalType": "uint256",
          "name": "value",
          "type": "uint256"
        }
      ],
      "name": "FailedToWithdrawEth",
      "type": "error"
    },
    {
      "inputs": [
        {
          "internalType": "uint256",
          "name": "required",
          "type": "uint256"
        },
        {
          "internalType": "uint256",
          "name": "available",
          "type": "uint256"
        }
      ],
      "name": "InsufficientTokenBalance",
      "type": "error"
    },
    {
      "inputs": [
        {
          "internalType": "address",
          "name": "router",
          "type": "address"
        }
      ],
      "name": "InvalidRouter",
      "type": "error"
    },
    {
      "inputs": [
        {
          "internalType": "uint256",
          "name": "currentBalance",
          "type": "uint256"
        },
        {
          "internalType": "uint256",
          "name": "calculatedFees",
          "type": "uint256"
        }
      ],
      "name": "NotEnoughBalance",
      "type": "error"
    },
    {
      "inputs": [],
      "name": "NothingToWithdraw",
      "type": "error"
    },
    {
      "inputs": [
        {
          "internalType": "address",
          "name": "sender",
          "type": "address"
        }
      ],
      "name": "SenderNotAllowed",
      "type": "error"
    },
    {
      "inputs": [
        {
          "internalType": "uint64",
          "name": "sourceChainSelector",
          "type": "uint64"
        }
      ],
      "name": "SourceChainNotAllowed",
      "type": "error"
    },
    {
      "inputs": [
        {
          "internalType": "address",
          "name": "token",
          "type": "address"
        }
      ],
      "name": "TokenNotSupported",
      "type": "error"
    },
    {
      "inputs": [],
      "name": "ZeroAddress",
      "type": "error"
    },
    {
      "inputs": [],
      "name": "ZeroAmount",
      "type": "error"
    },
    {
      "anonymous": false,
      "inputs": [
        {
          "indexed": true,
          "internalType": "bytes32",
          "name": "messageId",
          "type": "bytes32"
        },
        {
          "indexed": true,
          "internalType": "uint64",
          "name": "sourceChainSelector",
          "type": "uint64"
        },
        {
          "indexed": false,
          "internalType": "address",
          "name": "sender",
          "type": "address"
        },
        {
          "indexed": false,
          "internalType": "string",
          "name": "message",
          "type": "string"
        }
      ],
      "name": "MessageReceived",
      "type": "event"
    },
    {
      "anonymous": false,
      "inputs": [
        {
          "indexed": true,
          "internalType": "bytes32",
          "name": "messageId",
          "type": "bytes32"
        },
        {
          "indexed": true,
          "internalType": "uint64",
          "name": "destinationChainSelector",
          "type": "uint64"
        },
        {
          "indexed": false,
          "internalType": "address",
          "name": "receiver",
          "type": "address"
        },
        {
          "indexed": false,
          "internalType": "uint256",
          "name": "fees",
          "type": "uint256"
        }
      ],
      "name": "MessageSent",
      "type": "event"
    },
    {
      "anonymous": false,
      "inputs": [
        {
          "indexed": true,
          "internalType": "address",
          "name": "from",
          "type": "address"
        },
        {
          "indexed": true,
          "internalType": "address",
          "name": "to",
          "type": "address"
        }
      ],
      "name": "OwnershipTransferRequested",
      "type": "event"
    },
    {
      "anonymous": false,
      "inputs": [
        {
          "indexed": true,
          "internalType": "address",
          "name": "from",
          "type": "address"
        },
        {
          "indexed": true,
          "internalType": "address",
          "name": "to",
          "type": "address"
        }
      ],
      "name": "OwnershipTransferred",
      "type": "event"
    },
    {
      "anonymous": false,
      "inputs": [
        {
          "indexed": true,
          "internalType": "address",
          "name": "user",
          "type": "address"
        },
        {
          "indexed": true,
          "internalType": "address",
          "name": "token",
          "type": "address"
        },
        {
          "indexed": false,
          "internalType": "uint256",
          "name": "amount",
          "type": "uint256"
        },
        {
          "indexed": false,
          "internalType": "bytes32",
          "name": "messageId",
          "type": "bytes32"
        }
      ],
      "name": "TokenDeposited",
      "type": "event"
    },
    {
      "anonymous": false,
      "inputs": [
        {
          "indexed": true,
          "internalType": "address",
          "name": "user",
          "type": "address"
        },
        {
          "indexed": true,
          "internalType": "address",
          "name": "token",
          "type": "address"
        },
        {
          "indexed": false,
          "internalType": "uint256",
          "name": "amount",
          "type": "uint256"
        }
      ],
      "name": "TokenWithdrawn",
      "type": "event"
    },
    {
      "inputs": [],
      "name": "MAIN_ROUTER_ADDRESS",
      "outputs": [
        {
          "internalType": "address",
          "name": "",
          "type": "address"
        }
      ],
      "stateMutability": "view",
      "type": "function"
    },
    {
      "inputs": [],
      "name": "MAIN_ROUTER_CHAIN_SELECTOR",
      "outputs": [
        {
          "internalType": "uint64",
          "name": "",
          "type": "uint64"
        }
      ],
      "stateMutability": "view",
      "type": "function"
    },
    {
      "inputs": [],
      "name": "acceptOwnership",
      "outputs": [],
      "stateMutability": "nonpayable",
      "type": "function"
    },
    {
      "inputs": [
        {
          "internalType": "address",
          "name": "_token",
          "type": "address"
        }
      ],
      "name": "addSupportedToken",
      "outputs": [],
      "stateMutability": "nonpayable",
      "type": "function"
    },
    {
      "inputs": [
        {
          "internalType": "uint64",
          "name": "_destinationChainSelector",
          "type": "uint64"
        },
        {
          "internalType": "bool",
          "name": "allowed",
          "type": "bool"
        }
      ],
      "name": "allowlistDestinationChain",
      "outputs": [],
      "stateMutability": "nonpayable",
      "type": "function"
    },
    {
      "inputs": [
        {
          "internalType": "address",
          "name": "_sender",
          "type": "address"
        },
        {
          "internalType": "bool",
          "name": "allowed",
          "type": "bool"
        }
      ],
      "name": "allowlistSender",
      "outputs": [],
      "stateMutability": "nonpayable",
      "type": "function"
    },
    {
      "inputs": [
        {
          "internalType": "uint64",
          "name": "_sourceChainSelector",
          "type": "uint64"
        },
        {
          "internalType": "bool",
          "name": "allowed",
          "type": "bool"
        }
      ],
      "name": "allowlistSourceChain",
      "outputs": [],
      "stateMutability": "nonpayable",
      "type": "function"
    },
    {
      "inputs": [
        {
          "internalType": "uint64",
          "name": "",
          "type": "uint64"
        }
      ],
      "name": "allowlistedDestinationChains",
      "outputs": [
        {
          "internalType": "bool",
          "name": "",
          "type": "bool"
        }
      ],
      "stateMutability": "view",
      "type": "function"
    },
    {
      "inputs": [
        {
          "internalType": "address",
          "name": "",
          "type": "address"
        }
      ],
      "name": "allowlistedSenders",
      "outputs": [
        {
          "internalType": "bool",
          "name": "",
          "type": "bool"
        }
      ],
      "stateMutability": "view",
      "type": "function"
    },
    {
      "inputs": [
        {
          "internalType": "uint64",
          "name": "",
          "type": "uint64"
        }
      ],
      "name": "allowlistedSourceChains",
      "outputs": [
        {
          "internalType": "bool",
          "name": "",
          "type": "bool"
        }
      ],
      "stateMutability": "view",
      "type": "function"
    },
    {
      "inputs": [
        {
          "components": [
            {
              "internalType": "bytes32",
              "name": "messageId",
              "type": "bytes32"
            },
            {
              "internalType": "uint64",
              "name": "sourceChainSelector",
              "type": "uint64"
            },
            {
              "internalType": "bytes",
              "name": "sender",
              "type": "bytes"
            },
            {
              "internalType": "bytes",
              "name": "data",
              "type": "bytes"
            },
            {
              "components": [
                {
                  "internalType": "address",
                  "name": "token",
                  "type": "address"
                },
                {
                  "internalType": "uint256",
                  "name": "amount",
                  "type": "uint256"
                }
              ],
              "internalType": "struct Client.EVMTokenAmount[]",
              "name": "destTokenAmounts",
              "type": "tuple[]"
            }
          ],
          "internalType": "struct Client.Any2EVMMessage",
          "name": "message",
          "type": "tuple"
        }
      ],
      "name": "ccipReceive",
      "outputs": [],
      "stateMutability": "nonpayable",
      "type": "function"
    },
    {
      "inputs": [
        {
          "internalType": "address",
          "name": "token",
          "type": "address"
        },
        {
          "internalType": "uint256",
          "name": "amount",
          "type": "uint256"
        }
      ],
      "name": "depositToken",
      "outputs": [],
      "stateMutability": "nonpayable",
      "type": "function"
    },
    {
      "inputs": [
        {
          "internalType": "address",
          "name": "user",
          "type": "address"
        },
        {
          "internalType": "address",
          "name": "token",
          "type": "address"
        },
        {
          "internalType": "uint256",
          "name": "amount",
          "type": "uint256"
        }
      ],
      "name": "getDepositMessageFee",
      "outputs": [
        {
          "internalType": "uint256",
          "name": "fee",
          "type": "uint256"
        }
      ],
      "stateMutability": "view",
      "type": "function"
    },
    {
      "inputs": [],
      "name": "getRouter",
      "outputs": [
        {
          "internalType": "address",
          "name": "",
          "type": "address"
        }
      ],
      "stateMutability": "view",
      "type": "function"
    },
    {
      "inputs": [],
      "name": "getSupportedTokens",
      "outputs": [
        {
          "internalType": "address[]",
          "name": "",
          "type": "address[]"
        }
      ],
      "stateMutability": "view",
      "type": "function"
    },
    {
      "inputs": [
        {
          "internalType": "address",
          "name": "user",
          "type": "address"
        }
      ],
      "name": "getTotalUserDeposits",
      "outputs": [
        {
          "internalType": "uint256",
          "name": "",
          "type": "uint256"
        }
      ],
      "stateMutability": "view",
      "type": "function"
    },
    {
      "inputs": [
        {
          "internalType": "address",
          "name": "user",
          "type": "address"
        },
        {
          "internalType": "address",
          "name": "token",
          "type": "address"
        }
      ],
      "name": "getUserDeposit",
      "outputs": [
        {
          "internalType": "uint256",
          "name": "",
          "type": "uint256"
        }
      ],
      "stateMutability": "view",
      "type": "function"
    },
    {
      "inputs": [
        {
          "internalType": "address",
          "name": "token",
          "type": "address"
        }
      ],
      "name": "isTokenSupported",
      "outputs": [
        {
          "internalType": "bool",
          "name": "",
          "type": "bool"
        }
      ],
      "stateMutability": "view",
      "type": "function"
    },
    {
      "inputs": [],
      "name": "owner",
      "outputs": [
        {
          "internalType": "address",
          "name": "",
          "type": "address"
        }
      ],
      "stateMutability": "view",
      "type": "function"
    },
    {
      "inputs": [
        {
          "internalType": "address",
          "name": "_token",
          "type": "address"
        }
      ],
      "name": "removeSupportedToken",
      "outputs": [],
      "stateMutability": "nonpayable",
      "type": "function"
    },
    {
      "inputs": [
        {
          "internalType": "address",
          "name": "",
          "type": "address"
        }
      ],
      "name": "supportedTokens",
      "outputs": [
        {
          "internalType": "bool",
          "name": "",
          "type": "bool"
        }
      ],
      "stateMutability": "view",
      "type": "function"
    },
    {
      "inputs": [
        {
          "internalType": "bytes4",
          "name": "interfaceId",
          "type": "bytes4"
        }
      ],
      "name": "supportsInterface",
      "outputs": [
        {
          "internalType": "bool",
          "name": "",
          "type": "bool"
        }
      ],
      "stateMutability": "view",
      "type": "function"
    },
    {
      "inputs": [
        {
          "internalType": "uint256",
          "name": "",
          "type": "uint256"
        }
      ],
      "name": "tokenList",
      "outputs": [
        {
          "internalType": "address",
          "name": "",
          "type": "address"
        }
      ],
      "stateMutability": "view",
      "type": "function"
    },
    {
      "inputs": [
        {
          "internalType": "address",
          "name": "",
          "type": "address"
        }
      ],
      "name": "totalUserDeposits",
      "outputs": [
        {
          "internalType": "uint256",
          "name": "",
          "type": "uint256"
        }
      ],
      "stateMutability": "view",
      "type": "function"
    },
    {
      "inputs": [
        {
          "internalType": "address",
          "name": "to",
          "type": "address"
        }
      ],
      "name": "transferOwnership",
      "outputs": [],
      "stateMutability": "nonpayable",
      "type": "function"
    },
    {
      "inputs": [
        {
          "internalType": "address",
          "name": "",
          "type": "address"
        },
        {
          "internalType": "address",
          "name": "",
          "type": "address"
        }
      ],
      "name": "userDeposits",
      "outputs": [
        {
          "internalType": "uint256",
          "name": "",
          "type": "uint256"
        }
      ],
      "stateMutability": "view",
      "type": "function"
    },
    {
      "inputs": [
        {
          "internalType": "address",
          "name": "_beneficiary",
          "type": "address"
        }
      ],
      "name": "withdraw",
      "outputs": [],
      "stateMutability": "nonpayable",
      "type": "function"
    },
    {
      "inputs": [
        {
          "internalType": "address",
          "name": "_beneficiary",
          "type": "address"
        },
        {
          "internalType": "address",
          "name": "_token",
          "type": "address"
        }
      ],
      "name": "withdrawToken",
      "outputs": [],
      "stateMutability": "nonpayable",
      "type": "function"
    },
    {
      "inputs": [
        {
          "internalType": "address",
          "name": "token",
          "type": "address"
        },
        {
          "internalType": "uint256",
          "name": "amount",
          "type": "uint256"
        }
      ],
      "name": "withdrawToken",
      "outputs": [],
      "stateMutability": "nonpayable",
      "type": "function"
    },
    {
      "stateMutability": "payable",
      "type": "receive"
    }
  ],
  "bytecode": "0x60e034620001a857601f62001f0e38819003918201601f1916830192916001600160401b039182851184861017620001ad578160609285926040978852833981010312620001a8576200005282620001c3565b91602081015191821690818303620001a85784620000719101620001c3565b6001600160a01b03848116949093908515620001905760805233156200014c57600080546001600160a01b03199081163317825594831695909486156200013b57916001959391889593600254161760025560a05260c052815260036020528181209360ff1994848682541617905581526005602052209182541617905551611d359081620001d982396080518181816103e101526105fc015260a051818181610f1f015281816112470152611390015260c051818181610bc401528181610f4401526112e80152f35b875163d92e233d60e01b8152600490fd5b855162461bcd60e51b815260206004820152601860248201527f43616e6e6f7420736574206f776e657220746f207a65726f00000000000000006044820152606490fd5b86516335fdcccd60e21b815260006004820152602490fd5b600080fd5b634e487b7160e01b600052604160045260246000fd5b51906001600160a01b0382168203620001a85756fe60806040818152600480361015610021575b505050361561001f57600080fd5b005b600092833560e01c90816301ffc9a71461140e5750806312cbd4cc1461126b578063148c658c14610cb95780631ec3c41914611227578063338b5dea14610dfc5780633aeac4e114610d3c5780634030d52114610d02578063436d803914610cb9578063506384171461039457806351cff8d914610c315780636159ada114610bf3578063643a33c314610baf57806368c4ac2614610ac65780636d69fcaf14610b0457806375151b6314610ac657806375c67c6614610a8a578063763191901461096957806379ba5097146108c257806385572ffb146105be5780638da5cb5b1461059657806396d3b83d146105435780639e281a98146104505780639ead722214610410578063b0f479a1146103cc578063cada242b14610394578063d3c7c2c7146102cc578063db04fa491461027c578063eab5b02c146102235763f2fde38b03610011573461021f57602036600319011261021f57610182611462565b9061018b61160a565b6001600160a01b03918216923384146101dc575050600180546001600160a01b031916831790558254167fed8889f560326eb138920d842192f0eb3dd22b4f139c87a2c57538e05bae12788380a380f35b906020606492519162461bcd60e51b8352820152601760248201527f43616e6e6f74207472616e7366657220746f2073656c660000000000000000006044820152fd5b8280fd5b50503461027857806003193601126102785761027590610241611462565b9061024a6114a9565b9161025361160a565b60018060a01b03168452600560205283209060ff801983541691151516179055565b80f35b5080fd5b503461021f578160031936011261021f5761027591610299611493565b916001600160401b036102aa6114a9565b936102b361160a565b16855260205283209060ff801983541691151516179055565b8284346103915780600319360112610391579080519182906009549182855260208095018093600984527f6e1540171b6c0c960b71a7020d9f60077f6af931a8bbf590da0223dacf75c7af90845b8181106103745750505081610330910382611587565b83519485948186019282875251809352850193925b82811061035457505050500390f35b83516001600160a01b031685528695509381019392810192600101610345565b82546001600160a01b03168452928801926001928301920161031a565b80fd5b5050346102785760203660031901126102785760209181906001600160a01b036103bc611462565b1681526008845220549051908152f35b505034610278578160031936011261027857517f00000000000000000000000000000000000000000000000000000000000000006001600160a01b03168152602090f35b503461021f57602036600319011261021f573591600954831015610391575061043a6020926114b8565b905491519160018060a01b039160031b1c168152f35b503461021f578160031936011261021f57610469611462565b906024359160018060a01b0316928385526020916006835260ff82872054161561052e5783156105205733865260078352818620858752835281862054848110610506575050907f8210728e7c071f615b840ee026032693858fbcd5e5359e67e438c890f59e5620913386526007825280862085875282528086206104ef858254611681565b90556104fc843387611889565b519283523392a380f35b84604493519263142e249f60e31b84528301526024820152fd5b9051631f2a200560e01b8152fd5b8460249251916306439c6b60e01b8352820152fd5b50503461027857806003193601126102785761027590610561611493565b906001600160401b036105726114a9565b9261057b61160a565b168452600360205283209060ff801983541691151516179055565b505034610278578160031936011261027857905490516001600160a01b039091168152602090f35b50903461021f57600319602036820181136108be5783356001600160401b03928382116108ba5760a09082360301126108b6576001600160a01b03937f0000000000000000000000000000000000000000000000000000000000000000851633036108a15780519461062f86611505565b8287013586526024958684013596868816880361089d57858201978852604485013587811161089957610667908a36918801016115c3565b98848301998a52606486013588811161089157610689908236918901016115c3565b956060840196875260848101359089821161089557013660238201121561089157818101359089821161087f578651916106c88a8260051b0184611587565b808352848a84019160061b8301019136831161087b57878f938f938f90918f928a8e9601905b82821061082857505050906107199160ff95969760808c0152511694518d80825183010191016119bc565b1693838152858c52205416156108155750808c526005885260ff868d205416156108035750505085610759915197511697518580825183010191016119bc565b16915193845185019484818188019703126107fb57848101519182116107fb57019380603f860112156107ff578385015191610794836115a8565b916107a182519384611587565b8383528184880101116107fb576107e26107f5937fb1e312a29937cc11967b0e4a346fef1ae132424ebaba9dc6d90249dba053e87c97838886019101611841565b8080519586958652850152830190611864565b0390a380f35b8880fd5b8780fd5b85516368692cbb60e11b815291820152fd5b865163042784cf60e31b81529283015250fd5b9594509550955050508236031261087b5788519061084582611551565b823590898216820361087657828d928c945282850135838201528152019101878f938f938f90918f92948d956106ee565b508f80fd5b8e80fd5b634e487b7160e01b8d5260418352838dfd5b8b80fd5b8c80fd5b8a80fd5b8980fd5b516335fdcccd60e21b81523381870152602490fd5b8580fd5b8680fd5b8480fd5b50903461021f578260031936011261021f57600154916001600160a01b0391828416330361092d57505082546001600160a01b03198082163390811786559316600155167f8be0079c531659141344cd1fd0a4f28419497f9722a3daafe3b4186f6b6457e08380a380f35b906020606492519162461bcd60e51b8352820152601660248201527526bab9ba10313290383937b837b9b2b21037bbb732b960511b6044820152fd5b503461021f57602036600319011261021f57610983611462565b9061098c61160a565b6001600160a01b039182168085526006602052928420805460ff19169055835b600980549081831015610a81578491866109c5856114b8565b949054600395861b1c16146109e5575050506109e09061165c565b6109ac565b9195509392600019929091838101908111610a6e5790610a1885610a0b610a37946114b8565b9054908a1b1c16916114b8565b90919082549060031b9160018060a01b03809116831b921b1916179055565b8354908115610a5b57500192610a4c846114b8565b81939154921b1b191690555580f35b634e487b7160e01b875260319052602486fd5b634e487b7160e01b885260118352602488fd5b50505050505080f35b5050346102785760203660031901126102785760ff816020936001600160401b03610ab3611493565b1681526003855220541690519015158152f35b5050346102785760203660031901126102785760209160ff9082906001600160a01b03610af1611462565b1681526006855220541690519015158152f35b5091903461027857602036600319011261027857610b20611462565b90610b2961160a565b6001600160a01b0382168015610b9f57835260066020528220805460ff811615610b51578380f35b60ff191660011790556009549268010000000000000000841015610b8c5750610a18836001610b849495016009556114b8565b803880808380f35b634e487b7160e01b835260419052602482fd5b815163d92e233d60e01b81528590fd5b505034610278578160031936011261027857517f00000000000000000000000000000000000000000000000000000000000000006001600160a01b03168152602090f35b5050346102785760203660031901126102785760209160ff9082906001600160a01b03610c1e611462565b1681526005855220541690519015158152f35b503461021f57602036600319011261021f57610c4b611462565b91610c5461160a565b47908115610caa578480808085885af1610c6c611778565b5015610c76578480f35b51639d11f56360e01b8152339281019283526001600160a01b039093166020830152604082015281906060010390fd5b0390fd5b51630686827b60e51b81529050fd5b50503461027857806003193601126102785780602092610cd7611462565b610cdf61147d565b6001600160a01b0391821683526007865283832091168252845220549051908152f35b503461021f57602036600319011261021f578160209360ff926001600160401b03610d2b611493565b168252855220541690519015158152f35b50919034610278578060031936011261027857610d57611462565b610d5f61147d565b610d6761160a565b82516370a0823160e01b81523086820152926001600160a01b039190911690602084602481855afa938415610df2578594610dbf575b508315610db05750610275939450611889565b51630686827b60e51b81528590fd5b9093506020813d8211610dea575b81610dda60209383611587565b810103126108be57519238610d9d565b3d9150610dcd565b81513d87823e3d90fd5b50903461021f578060031936011261021f57610e16611462565b6001600160a01b039081168085526006602090815283862054919460248035959094909360ff16156112115785156112025783516370a0823160e01b81523383820152838187818b5afa9081156111335789916111d5575b508681106111ba575083516323b872dd60e01b84820152338682019081523060208201526040808201899052908290039081018252601f199391610ebf91610eb99060600182611587565b8961168e565b33895260078452848920888a5284528489208054908882018092116111a857558451899390929190610ef084611505565b33845289868501528887850152610f1c6001600160401b039485461660608201528660808201526119db565b927f00000000000000000000000000000000000000000000000000000000000000009160ff897f00000000000000000000000000000000000000000000000000000000000000009785169889815260038b522054161561119257610fb2610fa6918a51968489168b8901528a8852610f9388611551565b8b519384918c808401528d830190611864565b03908101835282611587565b8851610fbd81611536565b8d8152610fd98a51610fce81611536565b62030d408152611998565b918a5196610fe688611505565b875289870152898601528c6060860152608085015260025416918751986320487ded60e01b8a52878a8061101d88878784016118cc565b0381875afa998a15611188578d9a611159575b50478a1161113d57509186959493918961105f98948a51998a95869485936396f4e9f960e01b855284016118cc565b03925af19384156111335789946110e2575b5084516001600160a01b0391909116815260208101959095527f82a42083fa727ddf078a740a1b7309a787de602120814dc4a30d76fb14f20cb39483907fc719305561d67ce0f33f6141666cb519400a008b914496fa679a571eaae119ca90604090a382519485528401523392a380f35b9593508286813d831161112c575b6110fa8183611587565b810103126107fb57945192947fc719305561d67ce0f33f6141666cb519400a008b914496fa679a571eaae119ca611071565b503d6110f0565b85513d8b823e3d90fd5b90896044928a47905193634787a10360e11b8552840152820152fd5b9099508781813d8311611181575b6111718183611587565b8101031261089557519838611030565b503d611167565b89513d8f823e3d90fd5b885163206abad760e01b81528085018890528a90fd5b634e487b7160e01b8b5260118352878bfd5b82604491878988519363142e249f60e31b8552840152820152fd5b90508381813d83116111fb575b6111ec8183611587565b810103126107fb575138610e6e565b503d6111e2565b508251631f2a200560e01b8152fd5b83516306439c6b60e01b81528083018890528590fd5b505034610278578160031936011261027857602090516001600160401b037f0000000000000000000000000000000000000000000000000000000000000000168152f35b50919034610278576060366003190112610278576113b761128a611462565b61129261147d565b9083519561129f87611505565b6112db60018060a01b039788809416815260209889951685820152604435878201526001600160401b03461660608201528760808201526119db565b9161132b611339875194837f0000000000000000000000000000000000000000000000000000000000000000168787015286865261131886611551565b885192839188808401528a830190611864565b03601f198101835282611587565b865161134481611536565b8881526113558851610fce81611536565b9188519561136287611505565b865286860152878501528760608501526080840152600254169085518095819482936320487ded60e01b84527f00000000000000000000000000000000000000000000000000000000000000009084016118cc565b03915afa9283156114035780936113d1575b505051908152f35b909192508382813d83116113fc575b6113ea8183611587565b810103126103915750519038806113c9565b503d6113e0565b8251903d90823e3d90fd5b9250503461021f57602036600319011261021f573563ffffffff60e01b811680910361021f57602092506385572ffb60e01b8114908115611451575b5015158152f35b6301ffc9a760e01b1490503861144a565b600435906001600160a01b038216820361147857565b600080fd5b602435906001600160a01b038216820361147857565b600435906001600160401b038216820361147857565b60243590811515820361147857565b6009548110156114ef5760096000527f6e1540171b6c0c960b71a7020d9f60077f6af931a8bbf590da0223dacf75c7af0190600090565b634e487b7160e01b600052603260045260246000fd5b60a081019081106001600160401b0382111761152057604052565b634e487b7160e01b600052604160045260246000fd5b602081019081106001600160401b0382111761152057604052565b604081019081106001600160401b0382111761152057604052565b606081019081106001600160401b0382111761152057604052565b90601f801991011681019081106001600160401b0382111761152057604052565b6001600160401b03811161152057601f01601f191660200190565b81601f82011215611478578035906115da826115a8565b926115e86040519485611587565b8284526020838301011161147857816000926020809301838601378301015290565b6000546001600160a01b0316330361161e57565b60405162461bcd60e51b815260206004820152601660248201527527b7363c9031b0b63630b1363290313c9037bbb732b960511b6044820152606490fd5b600019811461166b5760010190565b634e487b7160e01b600052601160045260246000fd5b9190820391821161166b57565b60018060a01b0316906116ed6040516116a681611551565b6020938482527f5361666545524332303a206c6f772d6c6576656c2063616c6c206661696c6564858301526000808587829751910182855af16116e7611778565b916117a8565b8051806116fb575b50505050565b8184918101031261027857820151908115918215036103915750611721578080806116f5565b6084906040519062461bcd60e51b82526004820152602a60248201527f5361666545524332303a204552433230206f7065726174696f6e20646964206e6044820152691bdd081cdd58d8d9595960b21b6064820152fd5b3d156117a3573d90611789826115a8565b916117976040519384611587565b82523d6000602084013e565b606090565b9192901561180a57508151156117bc575090565b3b156117c55790565b60405162461bcd60e51b815260206004820152601d60248201527f416464726573733a2063616c6c20746f206e6f6e2d636f6e74726163740000006044820152606490fd5b82519091501561181d5750805190602001fd5b60405162461bcd60e51b815260206004820152908190610ca6906024830190611864565b60005b8381106118545750506000910152565b8181015183820152602001611844565b9060209161187d81518092818552858086019101611841565b601f01601f1916010190565b60405163a9059cbb60e01b60208201526001600160a01b039290921660248301526044808301939093529181526118ca916118c5606483611587565b61168e565b565b906001600160401b0390939293168152604060209181838201526118fb855160a08484015260e0830190611864565b916119178487015193603f199485858303016060860152611864565b8187015194848483030160808501528080875193848152019601926000905b83821061196f57505050505060c0608061196c959660018060a01b0360608201511660a085015201519282850301910152611864565b90565b845180516001600160a01b03168952830151888401529687019693820193600190910190611936565b604051906397a657c960e01b60208301525160248201526024815261196c8161156c565b9081602091031261147857516001600160a01b03811681036114785790565b61196c602460018060a01b03926119f484825116611ae0565b90611a056020958683015116611ae0565b611ac0611a156040840151611c26565b96611a3c60ff6080611a336001600160401b03606089015116611c26565b96015116611c26565b936040519886611a558b9851809286808c019101611841565b870194600b60fa1b958685820152611a768251809387602185019101611841565b01856021820152611a908251809386602285019101611841565b01846022820152611aaa8251809385602385019101611841565b0192602384015283519384918785019101611841565b01036004810184520182611587565b9081518110156114ef570160200190565b604051906001600160a01b0316611af682611551565b6010825260206f181899199a1a9b1b9c1cb0b131b232b360811b8184015260405192611b218461156c565b602a845281840160403682378451156114ef57603090538351926001938410156114ef576078602186015360005b60148110611b5f57505050505090565b600c810180821161166b57848110156114ef5782901a60046001600160f81b0319600f81611b9185851c831689611acf565b511693858a1b94600290878704821488151715611c1157868201809211611c1157611bc6611bce9493928e9260001a92611acf565b531687611acf565b5116906003928301809311611bfc575090611bf1611bf7939260001a9189611acf565b5361165c565b611b4f565b601190634e487b7160e01b6000525260246000fd5b601186634e487b7160e01b6000525260246000fd5b8015611ce15780816000925b611ccd575080611c41836115a8565b92611c4f6040519485611587565b808452601f19611c5e826115a8565b01366020860137915b611c7057505090565b600019820191821161166b5781600a8083049281840291848304148415171561166b57611ca060ff928392611681565b1660300190811161166b5760f81b6001600160f81b03191660001a90611cc69085611acf565b5380611c67565b91611cd9600a9161165c565b920480611c32565b50604051611cee81611551565b60018152600360fc1b60208201529056fea264697066735822122033f4085308d3fa1634751cd36b0f75bfbe01a84d090da3ce1337ae7de73d08a464736f6c63430008140033",
  "linkReferences": {},
  "deployedLinkReferences": {}
}