{
  "_format": "hh-sol-artifact-1",
  "contractName": "Depositor",
  "sourceName": "contracts/Depositor.sol",
  "abi": [
    {
      "inputs": [
        {
          "internalType": "address",
          "name": "_router",
          "type": "address"
        },
        {
          "internalType": "uint64",
          "name": "_mainRouterChainSelector",
          "type": "uint64"
        },
        {
          "internalType": "address",
          "name": "_mainRouterAddress",
          "type": "address"
        }
      ],
      "stateMutability": "nonpayable",
      "type": "constructor"
    },
    {
      "inputs": [
        {
          "internalType": "uint64",
          "name": "destinationChainSelector",
          "type": "uint64"
        }
      ],
      "name": "DestinationChainNotAllowed",
      "type": "error"
    },
    {
      "inputs": [
        {
          "internalType": "address",
          "name": "owner",
          "type": "address"
        },
        {
          "internalType": "address",
          "name": "target",
          "type": "address"
        },
        {
          "internalType": "uint256",
          "name": "value",
          "type": "uint256"
        }
      ],
      "name": "FailedToWithdrawEth",
      "type": "error"
    },
    {
      "inputs": [
        {
          "internalType": "uint256",
          "name": "required",
          "type": "uint256"
        },
        {
          "internalType": "uint256",
          "name": "available",
          "type": "uint256"
        }
      ],
      "name": "InsufficientTokenBalance",
      "type": "error"
    },
    {
      "inputs": [
        {
          "internalType": "address",
          "name": "router",
          "type": "address"
        }
      ],
      "name": "InvalidRouter",
      "type": "error"
    },
    {
      "inputs": [
        {
          "internalType": "uint256",
          "name": "currentBalance",
          "type": "uint256"
        },
        {
          "internalType": "uint256",
          "name": "calculatedFees",
          "type": "uint256"
        }
      ],
      "name": "NotEnoughBalance",
      "type": "error"
    },
    {
      "inputs": [],
      "name": "NothingToWithdraw",
      "type": "error"
    },
    {
      "inputs": [
        {
          "internalType": "address",
          "name": "sender",
          "type": "address"
        }
      ],
      "name": "SenderNotAllowed",
      "type": "error"
    },
    {
      "inputs": [
        {
          "internalType": "uint64",
          "name": "sourceChainSelector",
          "type": "uint64"
        }
      ],
      "name": "SourceChainNotAllowed",
      "type": "error"
    },
    {
      "inputs": [
        {
          "internalType": "address",
          "name": "token",
          "type": "address"
        }
      ],
      "name": "TokenNotSupported",
      "type": "error"
    },
    {
      "inputs": [],
      "name": "ZeroAddress",
      "type": "error"
    },
    {
      "inputs": [],
      "name": "ZeroAmount",
      "type": "error"
    },
    {
      "anonymous": false,
      "inputs": [
        {
          "indexed": true,
          "internalType": "bytes32",
          "name": "messageId",
          "type": "bytes32"
        },
        {
          "indexed": true,
          "internalType": "uint64",
          "name": "sourceChainSelector",
          "type": "uint64"
        },
        {
          "indexed": false,
          "internalType": "address",
          "name": "sender",
          "type": "address"
        },
        {
          "indexed": false,
          "internalType": "string",
          "name": "message",
          "type": "string"
        }
      ],
      "name": "MessageReceived",
      "type": "event"
    },
    {
      "anonymous": false,
      "inputs": [
        {
          "indexed": true,
          "internalType": "bytes32",
          "name": "messageId",
          "type": "bytes32"
        },
        {
          "indexed": true,
          "internalType": "uint64",
          "name": "destinationChainSelector",
          "type": "uint64"
        },
        {
          "indexed": false,
          "internalType": "address",
          "name": "receiver",
          "type": "address"
        },
        {
          "indexed": false,
          "internalType": "uint256",
          "name": "fees",
          "type": "uint256"
        }
      ],
      "name": "MessageSent",
      "type": "event"
    },
    {
      "anonymous": false,
      "inputs": [
        {
          "indexed": true,
          "internalType": "address",
          "name": "from",
          "type": "address"
        },
        {
          "indexed": true,
          "internalType": "address",
          "name": "to",
          "type": "address"
        }
      ],
      "name": "OwnershipTransferRequested",
      "type": "event"
    },
    {
      "anonymous": false,
      "inputs": [
        {
          "indexed": true,
          "internalType": "address",
          "name": "from",
          "type": "address"
        },
        {
          "indexed": true,
          "internalType": "address",
          "name": "to",
          "type": "address"
        }
      ],
      "name": "OwnershipTransferred",
      "type": "event"
    },
    {
      "anonymous": false,
      "inputs": [
        {
          "indexed": true,
          "internalType": "address",
          "name": "user",
          "type": "address"
        },
        {
          "indexed": true,
          "internalType": "address",
          "name": "token",
          "type": "address"
        },
        {
          "indexed": false,
          "internalType": "uint256",
          "name": "amount",
          "type": "uint256"
        },
        {
          "indexed": false,
          "internalType": "bytes32",
          "name": "messageId",
          "type": "bytes32"
        }
      ],
      "name": "TokenDeposited",
      "type": "event"
    },
    {
      "anonymous": false,
      "inputs": [
        {
          "indexed": true,
          "internalType": "address",
          "name": "user",
          "type": "address"
        },
        {
          "indexed": true,
          "internalType": "address",
          "name": "token",
          "type": "address"
        },
        {
          "indexed": false,
          "internalType": "uint256",
          "name": "amount",
          "type": "uint256"
        }
      ],
      "name": "TokenWithdrawn",
      "type": "event"
    },
    {
      "inputs": [],
      "name": "MAIN_ROUTER_ADDRESS",
      "outputs": [
        {
          "internalType": "address",
          "name": "",
          "type": "address"
        }
      ],
      "stateMutability": "view",
      "type": "function"
    },
    {
      "inputs": [],
      "name": "MAIN_ROUTER_CHAIN_SELECTOR",
      "outputs": [
        {
          "internalType": "uint64",
          "name": "",
          "type": "uint64"
        }
      ],
      "stateMutability": "view",
      "type": "function"
    },
    {
      "inputs": [],
      "name": "acceptOwnership",
      "outputs": [],
      "stateMutability": "nonpayable",
      "type": "function"
    },
    {
      "inputs": [
        {
          "internalType": "address",
          "name": "_token",
          "type": "address"
        }
      ],
      "name": "addSupportedToken",
      "outputs": [],
      "stateMutability": "nonpayable",
      "type": "function"
    },
    {
      "inputs": [
        {
          "internalType": "uint64",
          "name": "_destinationChainSelector",
          "type": "uint64"
        },
        {
          "internalType": "bool",
          "name": "allowed",
          "type": "bool"
        }
      ],
      "name": "allowlistDestinationChain",
      "outputs": [],
      "stateMutability": "nonpayable",
      "type": "function"
    },
    {
      "inputs": [
        {
          "internalType": "address",
          "name": "_sender",
          "type": "address"
        },
        {
          "internalType": "bool",
          "name": "allowed",
          "type": "bool"
        }
      ],
      "name": "allowlistSender",
      "outputs": [],
      "stateMutability": "nonpayable",
      "type": "function"
    },
    {
      "inputs": [
        {
          "internalType": "uint64",
          "name": "_sourceChainSelector",
          "type": "uint64"
        },
        {
          "internalType": "bool",
          "name": "allowed",
          "type": "bool"
        }
      ],
      "name": "allowlistSourceChain",
      "outputs": [],
      "stateMutability": "nonpayable",
      "type": "function"
    },
    {
      "inputs": [
        {
          "internalType": "uint64",
          "name": "",
          "type": "uint64"
        }
      ],
      "name": "allowlistedDestinationChains",
      "outputs": [
        {
          "internalType": "bool",
          "name": "",
          "type": "bool"
        }
      ],
      "stateMutability": "view",
      "type": "function"
    },
    {
      "inputs": [
        {
          "internalType": "address",
          "name": "",
          "type": "address"
        }
      ],
      "name": "allowlistedSenders",
      "outputs": [
        {
          "internalType": "bool",
          "name": "",
          "type": "bool"
        }
      ],
      "stateMutability": "view",
      "type": "function"
    },
    {
      "inputs": [
        {
          "internalType": "uint64",
          "name": "",
          "type": "uint64"
        }
      ],
      "name": "allowlistedSourceChains",
      "outputs": [
        {
          "internalType": "bool",
          "name": "",
          "type": "bool"
        }
      ],
      "stateMutability": "view",
      "type": "function"
    },
    {
      "inputs": [
        {
          "components": [
            {
              "internalType": "bytes32",
              "name": "messageId",
              "type": "bytes32"
            },
            {
              "internalType": "uint64",
              "name": "sourceChainSelector",
              "type": "uint64"
            },
            {
              "internalType": "bytes",
              "name": "sender",
              "type": "bytes"
            },
            {
              "internalType": "bytes",
              "name": "data",
              "type": "bytes"
            },
            {
              "components": [
                {
                  "internalType": "address",
                  "name": "token",
                  "type": "address"
                },
                {
                  "internalType": "uint256",
                  "name": "amount",
                  "type": "uint256"
                }
              ],
              "internalType": "struct Client.EVMTokenAmount[]",
              "name": "destTokenAmounts",
              "type": "tuple[]"
            }
          ],
          "internalType": "struct Client.Any2EVMMessage",
          "name": "message",
          "type": "tuple"
        }
      ],
      "name": "ccipReceive",
      "outputs": [],
      "stateMutability": "nonpayable",
      "type": "function"
    },
    {
      "inputs": [
        {
          "internalType": "address",
          "name": "token",
          "type": "address"
        },
        {
          "internalType": "uint256",
          "name": "amount",
          "type": "uint256"
        }
      ],
      "name": "depositToken",
      "outputs": [],
      "stateMutability": "nonpayable",
      "type": "function"
    },
    {
      "inputs": [
        {
          "internalType": "address",
          "name": "user",
          "type": "address"
        },
        {
          "internalType": "address",
          "name": "token",
          "type": "address"
        },
        {
          "internalType": "uint256",
          "name": "amount",
          "type": "uint256"
        }
      ],
      "name": "getDepositMessageFee",
      "outputs": [
        {
          "internalType": "uint256",
          "name": "fee",
          "type": "uint256"
        }
      ],
      "stateMutability": "view",
      "type": "function"
    },
    {
      "inputs": [],
      "name": "getRouter",
      "outputs": [
        {
          "internalType": "address",
          "name": "",
          "type": "address"
        }
      ],
      "stateMutability": "view",
      "type": "function"
    },
    {
      "inputs": [],
      "name": "getSupportedTokens",
      "outputs": [
        {
          "internalType": "address[]",
          "name": "",
          "type": "address[]"
        }
      ],
      "stateMutability": "view",
      "type": "function"
    },
    {
      "inputs": [
        {
          "internalType": "address",
          "name": "user",
          "type": "address"
        }
      ],
      "name": "getTotalUserDeposits",
      "outputs": [
        {
          "internalType": "uint256",
          "name": "",
          "type": "uint256"
        }
      ],
      "stateMutability": "view",
      "type": "function"
    },
    {
      "inputs": [
        {
          "internalType": "address",
          "name": "user",
          "type": "address"
        },
        {
          "internalType": "address",
          "name": "token",
          "type": "address"
        }
      ],
      "name": "getUserDeposit",
      "outputs": [
        {
          "internalType": "uint256",
          "name": "",
          "type": "uint256"
        }
      ],
      "stateMutability": "view",
      "type": "function"
    },
    {
      "inputs": [
        {
          "internalType": "address",
          "name": "token",
          "type": "address"
        }
      ],
      "name": "isTokenSupported",
      "outputs": [
        {
          "internalType": "bool",
          "name": "",
          "type": "bool"
        }
      ],
      "stateMutability": "view",
      "type": "function"
    },
    {
      "inputs": [],
      "name": "owner",
      "outputs": [
        {
          "internalType": "address",
          "name": "",
          "type": "address"
        }
      ],
      "stateMutability": "view",
      "type": "function"
    },
    {
      "inputs": [
        {
          "internalType": "address",
          "name": "_token",
          "type": "address"
        }
      ],
      "name": "removeSupportedToken",
      "outputs": [],
      "stateMutability": "nonpayable",
      "type": "function"
    },
    {
      "inputs": [
        {
          "internalType": "address",
          "name": "",
          "type": "address"
        }
      ],
      "name": "supportedTokens",
      "outputs": [
        {
          "internalType": "bool",
          "name": "",
          "type": "bool"
        }
      ],
      "stateMutability": "view",
      "type": "function"
    },
    {
      "inputs": [
        {
          "internalType": "bytes4",
          "name": "interfaceId",
          "type": "bytes4"
        }
      ],
      "name": "supportsInterface",
      "outputs": [
        {
          "internalType": "bool",
          "name": "",
          "type": "bool"
        }
      ],
      "stateMutability": "view",
      "type": "function"
    },
    {
      "inputs": [
        {
          "internalType": "uint256",
          "name": "",
          "type": "uint256"
        }
      ],
      "name": "tokenList",
      "outputs": [
        {
          "internalType": "address",
          "name": "",
          "type": "address"
        }
      ],
      "stateMutability": "view",
      "type": "function"
    },
    {
      "inputs": [
        {
          "internalType": "address",
          "name": "",
          "type": "address"
        }
      ],
      "name": "totalUserDeposits",
      "outputs": [
        {
          "internalType": "uint256",
          "name": "",
          "type": "uint256"
        }
      ],
      "stateMutability": "view",
      "type": "function"
    },
    {
      "inputs": [
        {
          "internalType": "address",
          "name": "to",
          "type": "address"
        }
      ],
      "name": "transferOwnership",
      "outputs": [],
      "stateMutability": "nonpayable",
      "type": "function"
    },
    {
      "inputs": [
        {
          "internalType": "address",
          "name": "",
          "type": "address"
        },
        {
          "internalType": "address",
          "name": "",
          "type": "address"
        }
      ],
      "name": "userDeposits",
      "outputs": [
        {
          "internalType": "uint256",
          "name": "",
          "type": "uint256"
        }
      ],
      "stateMutability": "view",
      "type": "function"
    },
    {
      "inputs": [
        {
          "internalType": "address",
          "name": "_beneficiary",
          "type": "address"
        }
      ],
      "name": "withdraw",
      "outputs": [],
      "stateMutability": "nonpayable",
      "type": "function"
    },
    {
      "inputs": [
        {
          "internalType": "address",
          "name": "_beneficiary",
          "type": "address"
        },
        {
          "internalType": "address",
          "name": "_token",
          "type": "address"
        }
      ],
      "name": "withdrawToken",
      "outputs": [],
      "stateMutability": "nonpayable",
      "type": "function"
    },
    {
      "inputs": [
        {
          "internalType": "address",
          "name": "token",
          "type": "address"
        },
        {
          "internalType": "uint256",
          "name": "amount",
          "type": "uint256"
        }
      ],
      "name": "withdrawToken",
      "outputs": [],
      "stateMutability": "nonpayable",
      "type": "function"
    },
    {
      "stateMutability": "payable",
      "type": "receive"
    }
  ],
  "bytecode": "0x60e0346101ac57601f611f3138819003918201601f19168301916001600160401b038311848410176101b1578084926060946040528339810103126101ac57610047816101c7565b602082015190916001600160401b03821691908282036101ac57604061006d91016101c7565b6001600160a01b03841693909190841561019657608052331561015157600080546001600160a01b031916331790556001600160a01b0382169384156101405760018060a01b0319600254161760025560a05260c05260005260036020526040600020600160ff1982541617905560005260056020526040600020600160ff19825416179055604051611d5590816101dc82396080518181816103ed0152610611015260a051818181610f5a0152818161127a01526113be015260c051818181610c1b01528181610f7b015261131c0152f35b63d92e233d60e01b60005260046000fd5b60405162461bcd60e51b815260206004820152601860248201527f43616e6e6f7420736574206f776e657220746f207a65726f00000000000000006044820152606490fd5b6335fdcccd60e21b600052600060045260246000fd5b600080fd5b634e487b7160e01b600052604160045260246000fd5b51906001600160a01b03821682036101ac5756fe608080604052600436101561001d575b50361561001b57600080fd5b005b60003560e01c90816301ffc9a7146114365750806312cbd4cc1461129e578063148c658c14610cff5780631ec3c4191461125a578063338b5dea14610e435780633aeac4e114610d8f5780634030d52114610d50578063436d803914610cff578063506384171461039d57806351cff8d914610c895780636159ada114610c4a578063643a33c314610c0557806368c4ac2614610b155780636d69fcaf14610b5457806375151b6314610b1557806375c67c6614610ad657806376319190146109a957806379ba5097146108fc57806385572ffb146105df5780638da5cb5b146105b657806396d3b83d146105625780639e281a981461045e5780639ead72221461041c578063b0f479a1146103d7578063cada242b1461039d578063d3c7c2c7146102d1578063db04fa491461027d578063eab5b02c1461022a5763f2fde38b14610169573861000f565b3461022557602036600319011261022557610182611489565b61018a6118c2565b6001600160a01b03163381146101e057600180546001600160a01b03191682179055600080546001600160a01b0316907fed8889f560326eb138920d842192f0eb3dd22b4f139c87a2c57538e05bae12789080a3005b60405162461bcd60e51b815260206004820152601760248201527f43616e6e6f74207472616e7366657220746f2073656c660000000000000000006044820152606490fd5b600080fd5b346102255760403660031901126102255761001b610246611489565b61024e6114cb565b906102576118c2565b60018060a01b0316600052600560205260406000209060ff801983541691151516179055565b346102255760403660031901126102255761001b6102996114b5565b6001600160401b036102a96114cb565b916102b26118c2565b16600052600460205260406000209060ff801983541691151516179055565b34610225576000366003190112610225576040518060206009549283815201809260096000527f6e1540171b6c0c960b71a7020d9f60077f6af931a8bbf590da0223dacf75c7af9060005b81811061037e575050508161033291038261155c565b6040519182916020830190602084525180915260408301919060005b81811061035c575050500390f35b82516001600160a01b031684528594506020938401939092019160010161034e565b82546001600160a01b031684526020909301926001928301920161031c565b34610225576020366003190112610225576001600160a01b036103be611489565b1660005260086020526020604060002054604051908152f35b34610225576000366003190112610225576040517f00000000000000000000000000000000000000000000000000000000000000006001600160a01b03168152602090f35b3461022557602036600319011261022557600435600954811015610225576104456020916114da565b905460405160039290921b1c6001600160a01b03168152f35b3461022557604036600319011261022557610477611489565b6001600160a01b03166000818152600660205260409020546024359060ff161561054d57801561053c57336000526007602052604060002082600052602052604060002054818110610524575033600052600760205260406000208260005260205260406000206104e982825461173d565b90556104f6813384611914565b6040519081527f8210728e7c071f615b840ee026032693858fbcd5e5359e67e438c890f59e562060203392a3005b9063142e249f60e31b60005260045260245260446000fd5b631f2a200560e01b60005260046000fd5b506306439c6b60e01b60005260045260246000fd5b346102255760403660031901126102255761001b61057e6114b5565b6001600160401b0361058e6114cb565b916105976118c2565b16600052600360205260406000209060ff801983541691151516179055565b34610225576000366003190112610225576000546040516001600160a01b039091168152602090f35b34610225576020366003190112610225576004356001600160401b0381116102255760a06003198236030112610225577f00000000000000000000000000000000000000000000000000000000000000006001600160a01b031633036108e75760405160009161064e8261150b565b806004013582526024810135906001600160401b03821682036108e3576020830191825260448101356001600160401b0381116108df57610695906004369184010161174a565b926040810193845260648201356001600160401b03811161086a576106c0906004369185010161174a565b91606082019283526084810135906001600160401b03821161086657013660238201121561086a5760048101356106f6816115c5565b91610704604051938461155c565b818352602060048185019360061b83010101903682116108db57602401915b8183106108925750505060808201526001600160401b03835116845161075960018060a01b039160208082518301019101611957565b1690808752600460205260ff604088205416156108805750808652600560205260ff6040872054161561086e57506001600160401b03905192511692516107b060018060a01b039160208082518301019101611957565b169051805181019060208181840193031261086a576020810151906001600160401b03821161086657019181603f8401121561086a576020830151926107f5846116f2565b92610803604051948561155c565b84845260408286010111610866577fb1e312a29937cc11967b0e4a346fef1ae132424ebaba9dc6d90249dba053e87c9361084491604060208601910161157d565b61086060405192839283526040602084015260408301906115a0565b0390a380f35b8680fd5b8580fd5b6368692cbb60e11b8652600452602485fd5b63042784cf60e31b8752600452602486fd5b6040833603126108db57604051906108a982611541565b8335906001600160a01b03821682036108d75782602092604094528286013583820152815201920191610723565b8a80fd5b8880fd5b8480fd5b8380fd5b6335fdcccd60e21b6000523360045260246000fd5b34610225576000366003190112610225576001546001600160a01b038116330361096b57600080546001600160a01b031980821633908117845593166001556001600160a01b0316907f8be0079c531659141344cd1fd0a4f28419497f9722a3daafe3b4186f6b6457e09080a3005b60405162461bcd60e51b815260206004820152601660248201527526bab9ba10313290383937b837b9b2b21037bbb732b960511b6044820152606490fd5b34610225576020366003190112610225576109c2611489565b6109ca6118c2565b6001600160a01b03166000818152600660205260408120805460ff191690555b6009548082101561001b57826109ff836114da565b905460039190911b1c6001600160a01b031614610a1f57506001016109ea565b600019810192508211610ac057610a53610a3b610a77936114da565b905460039190911b1c6001600160a01b0316916114da565b81546001600160a01b0393841660039290921b91821b9390911b1916919091179055565b6009548015610aaa5760001901610a8d816114da565b81546001600160a01b0360039290921b9190911b19169055600955005b634e487b7160e01b600052603160045260246000fd5b634e487b7160e01b600052601160045260246000fd5b34610225576020366003190112610225576001600160401b03610af76114b5565b166000526003602052602060ff604060002054166040519015158152f35b34610225576020366003190112610225576001600160a01b03610b36611489565b166000526006602052602060ff604060002054166040519015158152f35b3461022557602036600319011261022557610b6d611489565b610b756118c2565b6001600160a01b0381168015610bf45780600052600660205260ff6040600020541615610b9e57005b60005260066020526040600020600160ff198254161790556009549068010000000000000000821015610bde57610a5382600161001b94016009556114da565b634e487b7160e01b600052604160045260246000fd5b63d92e233d60e01b60005260046000fd5b34610225576000366003190112610225576040517f00000000000000000000000000000000000000000000000000000000000000006001600160a01b03168152602090f35b34610225576020366003190112610225576001600160a01b03610c6b611489565b166000526005602052602060ff604060002054166040519015158152f35b3461022557602036600319011261022557610ca2611489565b610caa6118c2565b47908115610cee57600080808085855af1610cc361170d565b5015610ccb57005b639d11f56360e01b6000523360045260018060a01b031660245260445260646000fd5b630686827b60e51b60005260046000fd5b3461022557604036600319011261022557610d18611489565b610d2061149f565b6001600160a01b039182166000908152600760209081526040808320949093168252928352819020549051908152f35b34610225576020366003190112610225576001600160401b03610d716114b5565b166000526004602052602060ff604060002054166040519015158152f35b3461022557604036600319011261022557610da8611489565b610db061149f565b610db86118c2565b6040516370a0823160e01b81523060048201526001600160a01b039190911691602082602481865afa918215610e3757600092610e00575b508115610cee5761001b92611914565b90916020823d602011610e2f575b81610e1b6020938361155c565b81010312610e2c5750519083610df0565b80fd5b3d9150610e0e565b6040513d6000823e3d90fd5b3461022557604036600319011261022557610e5c611489565b6001600160a01b0316600081815260066020526040902054602435919060ff161561124657811561053c576040516370a0823160e01b8152336004820152602081602481855afa908115610e3757600091611214575b508281106111fc57506040516323b872dd60e01b602082015233602482015230604482015260648082018490528152610ef690610ef060848261155c565b82611b9a565b3360005260076020526040600020816000526020526040600020805490838201809211610ac05755610f57604051610f2d8161150b565b3381528260208201528360408201526001600160401b034616606082015260006080820152611791565b917f00000000000000000000000000000000000000000000000000000000000000007f0000000000000000000000000000000000000000000000000000000000000000906001600160401b0381169182600052600360205260ff60406000205416156111e757610ffa6110086040519760018060a01b03841660208a015260208952610fe460408a61155c565b60405192839160208084015260408301906115a0565b03601f19810183528261155c565b6110106115dc565b61102a60405161101f81611526565b62030d40815261189c565b91604051986110388a61150b565b89526020890152604088015260006060880152608087015260018060a01b0360025416604051926320487ded60e01b84526020848061107b8b8560048401611624565b0381855afa938415610e37576000946111b3575b5047841161119a57966020916110be969798856040518099819582946396f4e9f960e01b845260048401611624565b03925af1938415610e3757600094611144575b50604080516001600160a01b03929092168252602082019290925283917fc719305561d67ce0f33f6141666cb519400a008b914496fa679a571eaae119ca91a360405191825260208201527f82a42083fa727ddf078a740a1b7309a787de602120814dc4a30d76fb14f20cb360403392a3005b909193506020813d602011611192575b816111616020938361155c565b81010312610225575192907fc719305561d67ce0f33f6141666cb519400a008b914496fa679a571eaae119ca6110d1565b3d9150611154565b8347634787a10360e11b60005260045260245260446000fd5b90936020823d6020116111df575b816111ce6020938361155c565b81010312610e2c575051928861108f565b3d91506111c1565b8263206abad760e01b60005260045260246000fd5b8263142e249f60e31b60005260045260245260446000fd5b906020823d60201161123e575b8161122e6020938361155c565b81010312610e2c57505183610eb2565b3d9150611221565b6306439c6b60e01b60005260045260246000fd5b346102255760003660031901126102255760206040516001600160401b037f0000000000000000000000000000000000000000000000000000000000000000168152f35b34610225576060366003190112610225576113e660206113096112bf611489565b6112c761149f565b604051916112d48361150b565b6001600160a01b03908116835216838201526044356040820152466001600160401b0316606082015260006080820152611791565b610ffa6113636040519260018060a01b037f0000000000000000000000000000000000000000000000000000000000000000168585015284845261134e60408561155c565b604051928391868084015260408301906115a0565b61136b6115dc565b61137a60405161101f81611526565b91604051936113888561150b565b845284840152604083015260006060830152608082015260018060a01b036002541660405180809581946320487ded60e01b83527f000000000000000000000000000000000000000000000000000000000000000060048401611624565b03915afa8015610e3757600090611403575b602090604051908152f35b506020813d60201161142e575b8161141d6020938361155c565b8101031261022557602090516113f8565b3d9150611410565b34610225576020366003190112610225576004359063ffffffff60e01b8216809203610225576020916385572ffb60e01b8114908115611478575b5015158152f35b6301ffc9a760e01b14905083611471565b600435906001600160a01b038216820361022557565b602435906001600160a01b038216820361022557565b600435906001600160401b038216820361022557565b60243590811515820361022557565b6009548110156114f557600960005260206000200190600090565b634e487b7160e01b600052603260045260246000fd5b60a081019081106001600160401b03821117610bde57604052565b602081019081106001600160401b03821117610bde57604052565b604081019081106001600160401b03821117610bde57604052565b90601f801991011681019081106001600160401b03821117610bde57604052565b60005b8381106115905750506000910152565b8181015183820152602001611580565b906020916115b98151809281855285808601910161157d565b601f01601f1916010190565b6001600160401b038111610bde5760051b60200190565b604051906115eb60208361155c565b600080835282815b8281106115ff57505050565b60209060405161160e81611541565b60008152600083820152828285010152016115f3565b906001600160401b03909392931681526040602082015261166a611654845160a0604085015260e08401906115a0565b6020850151838203603f190160608501526115a0565b90604084015191603f198282030160808301526020808451928381520193019060005b8181106116c75750505060806116c4939460018060a01b0360608201511660a084015201519060c0603f19828503019101526115a0565b90565b825180516001600160a01b03168652602090810151818701526040909501949092019160010161168d565b6001600160401b038111610bde57601f01601f191660200190565b3d15611738573d9061171e826116f2565b9161172c604051938461155c565b82523d6000602084013e565b606090565b91908203918211610ac057565b81601f8201121561022557803590611761826116f2565b9261176f604051948561155c565b8284526020838301011161022557816000926020809301838601378301015290565b6116c4600161181092816117ac818060a01b03835116611987565b91816117c2818060a01b03602084015116611987565b91816117d16040830151611ab9565b60206117f960ff60806117f06001600160401b03606089015116611ab9565b96015116611ab9565b95816040519c8d8b83829d5194859301910161157d565b8901600b60fa1b8382015261182e825180938560218501910161157d565b0101600b60fa1b8382015261184d82518093602060028501910161157d565b0101600b60fa1b8382015261186c82518093602060028501910161157d565b0101600b60fa1b8382015261188b82518093602060028501910161157d565b01010301601f19810183528261155c565b604051906397a657c960e01b6020830152516024820152602481526116c460448261155c565b6000546001600160a01b031633036118d657565b60405162461bcd60e51b815260206004820152601660248201527527b7363c9031b0b63630b1363290313c9037bbb732b960511b6044820152606490fd5b60405163a9059cbb60e01b60208201526001600160a01b039290921660248301526044808301939093529181526119559161195060648361155c565b611b9a565b565b9081602091031261022557516001600160a01b03811681036102255790565b9081518110156114f5570160200190565b60018060a01b0316604080519061199e818361155c565b601082526f181899199a1a9b1b9c1cb0b131b232b360811b602083015251916119c860608461155c565b602a83526020830160403682378351156114f557603090538251600110156114f5576078602184015360005b60148110611a025750505090565b600c8101808211610ac05760208110156114f55782901a6001600160f81b0319611a33600483901c600f1686611976565b51168260011b9083820460021484151715610ac057816002019081600211610ac057611a639060001a9188611976565b536000916001600160f81b031990611a7e90600f1687611976565b5116906003019182600311611aa5576001939291611a9e911a9187611976565b53016119f4565b634e487b7160e01b81526011600452602490fd5b8015611b7a5780816000925b611b62575080611ad4836116f2565b92611ae2604051948561155c565b808452601f19611af1826116f2565b01366020860137915b611b0357505090565b6000198201918211610ac05781600a820491600a830290838204600a1484151715610ac05760ff91611b349161173d565b1660300160ff8111610ac05760f81b6001600160f81b03191660001a90611b5b9085611976565b5380611afa565b916000198114610ac0576001600a9101920480611ac5565b50604051611b8960408261155c565b60018152600360fc1b602082015290565b604080519092611bff926001600160a01b0316906000908190611bbd878661155c565b602085527f5361666545524332303a206c6f772d6c6576656c2063616c6c206661696c6564602086015260208151910182855af1611bf961170d565b91611c82565b805180611c0b57505050565b8160209181010312610225576020015180159081150361022557611c2c5750565b5162461bcd60e51b815260206004820152602a60248201527f5361666545524332303a204552433230206f7065726174696f6e20646964206e6044820152691bdd081cdd58d8d9595960b21b6064820152608490fd5b91929015611ce45750815115611c96575090565b3b15611c9f5790565b60405162461bcd60e51b815260206004820152601d60248201527f416464726573733a2063616c6c20746f206e6f6e2d636f6e74726163740000006044820152606490fd5b825190915015611cf75750805190602001fd5b60405162461bcd60e51b815260206004820152908190611d1b9060248301906115a0565b0390fdfea2646970667358221220f8f5efa1fc63bfa964aee60b868f72432b864ca0a45d3df0647f2aa6a88a823264736f6c634300081c0033",
  "linkReferences": {},
  "deployedLinkReferences": {}
}