{
  "_format": "hh-sol-artifact-1",
  "contractName": "MockAggregatorV3",
  "sourceName": "contracts/mocks/MockAggregatorV3.sol",
  "abi": [
    {
      "inputs": [],
      "name": "decimals",
      "outputs": [
        {
          "internalType": "uint8",
          "name": "",
          "type": "uint8"
        }
      ],
      "stateMutability": "view",
      "type": "function"
    },
    {
      "inputs": [],
      "name": "latestRoundData",
      "outputs": [
        {
          "internalType": "uint80",
          "name": "roundId",
          "type": "uint80"
        },
        {
          "internalType": "int256",
          "name": "answer",
          "type": "int256"
        },
        {
          "internalType": "uint256",
          "name": "startedAt",
          "type": "uint256"
        },
        {
          "internalType": "uint256",
          "name": "updatedAt",
          "type": "uint256"
        },
        {
          "internalType": "uint80",
          "name": "answeredInRound",
          "type": "uint80"
        }
      ],
      "stateMutability": "view",
      "type": "function"
    },
    {
      "inputs": [
        {
          "internalType": "int256",
          "name": "_price",
          "type": "int256"
        }
      ],
      "name": "setPrice",
      "outputs": [],
      "stateMutability": "nonpayable",
      "type": "function"
    }
  ],
  "bytecode": "0x6080806040523461002257600860ff19600154161760015560e390816100288239f35b600080fdfe6080806040526004361015601257600080fd5b600090813560e01c908163313ce56714608c57508063f7a308061460745763feaf968c14603e57600080fd5b34607157806003193601126071578060a09154906040519181835260208301528060408301528060608301526080820152f35b80fd5b50346071576020366003190112607157600435815580f35b90503460a9578160031936011260a95760209060ff600154168152f35b5080fdfea26469706673582212208cfaa69c2484098e24cede5eae54c88ce76987b0af32473b3d942a42aa20d38f64736f6c63430008140033",
  "linkReferences": {},
  "deployedLinkReferences": {}
}