{
  "_format": "hh-sol-artifact-1",
  "contractName": "MockERC20",
  "sourceName": "contracts/mocks/MockRouter.sol",
  "abi": [
    {
      "inputs": [],
      "stateMutability": "nonpayable",
      "type": "constructor"
    },
    {
      "inputs": [
        {
          "internalType": "address",
          "name": "",
          "type": "address"
        },
        {
          "internalType": "address",
          "name": "",
          "type": "address"
        }
      ],
      "name": "allowance",
      "outputs": [
        {
          "internalType": "uint256",
          "name": "",
          "type": "uint256"
        }
      ],
      "stateMutability": "view",
      "type": "function"
    },
    {
      "inputs": [
        {
          "internalType": "address",
          "name": "spender",
          "type": "address"
        },
        {
          "internalType": "uint256",
          "name": "amount",
          "type": "uint256"
        }
      ],
      "name": "approve",
      "outputs": [
        {
          "internalType": "bool",
          "name": "",
          "type": "bool"
        }
      ],
      "stateMutability": "nonpayable",
      "type": "function"
    },
    {
      "inputs": [
        {
          "internalType": "address",
          "name": "",
          "type": "address"
        }
      ],
      "name": "balanceOf",
      "outputs": [
        {
          "internalType": "uint256",
          "name": "",
          "type": "uint256"
        }
      ],
      "stateMutability": "view",
      "type": "function"
    },
    {
      "inputs": [
        {
          "internalType": "address",
          "name": "to",
          "type": "address"
        },
        {
          "internalType": "uint256",
          "name": "amount",
          "type": "uint256"
        }
      ],
      "name": "transfer",
      "outputs": [
        {
          "internalType": "bool",
          "name": "",
          "type": "bool"
        }
      ],
      "stateMutability": "nonpayable",
      "type": "function"
    },
    {
      "inputs": [
        {
          "internalType": "address",
          "name": "from",
          "type": "address"
        },
        {
          "internalType": "address",
          "name": "to",
          "type": "address"
        },
        {
          "internalType": "uint256",
          "name": "amount",
          "type": "uint256"
        }
      ],
      "name": "transferFrom",
      "outputs": [
        {
          "internalType": "bool",
          "name": "",
          "type": "bool"
        }
      ],
      "stateMutability": "nonpayable",
      "type": "function"
    }
  ],
  "bytecode": "0x608080604052346027573360005260006020526000196040600020556102fc908161002d8239f35b600080fdfe6080604052600436101561001257600080fd5b60003560e01c8063095ea7b31461021f57806323b872dd1461014857806370a082311461010e578063a9059cbb146100a95763dd62ed3e1461005357600080fd5b346100a45760403660031901126100a45761006c61026a565b610074610280565b6001600160a01b039182166000908152600160209081526040808320949093168252928352819020549051908152f35b600080fd5b346100a45760403660031901126100a4576100c261026a565b6024359033600052600060205260406000206100df838254610296565b905560018060a01b0316600052600060205261010160406000209182546102b9565b9055602060405160018152f35b346100a45760203660031901126100a4576001600160a01b0361012f61026a565b1660005260006020526020604060002054604051908152f35b346100a45760603660031901126100a45761016161026a565b610169610280565b6001600160a01b03909116600081815260016020908152604080832033845290915290205460443592919083116101e157806000526001602052604060002060018060a01b03331660005260205260406000206101c7848254610296565b9055600052600060205260406000206100df838254610296565b60405162461bcd60e51b8152602060048201526016602482015275496e73756666696369656e7420616c6c6f77616e636560501b6044820152606490fd5b346100a45760403660031901126100a45761023861026a565b33600052600160205260406000209060018060a01b031660005260205260406000206024359055602060405160018152f35b600435906001600160a01b03821682036100a457565b602435906001600160a01b03821682036100a457565b919082039182116102a357565b634e487b7160e01b600052601160045260246000fd5b919082018092116102a35756fea2646970667358221220100eda7bc190ab7b02013d3530efe6bde99f2d512ffb8997ace820b392930ba564736f6c634300081c0033",
  "linkReferences": {},
  "deployedLinkReferences": {}
}