{
  "_format": "hh-sol-artifact-1",
  "contractName": "MockMainRouter",
  "sourceName": "contracts/mocks/MockRouter.sol",
  "abi": [
    {
      "anonymous": false,
      "inputs": [
        {
          "indexed": true,
          "internalType": "uint64",
          "name": "chainSelector",
          "type": "uint64"
        },
        {
          "indexed": false,
          "internalType": "bool",
          "name": "allowed",
          "type": "bool"
        }
      ],
      "name": "ChainAllowlisted",
      "type": "event"
    },
    {
      "anonymous": false,
      "inputs": [
        {
          "indexed": true,
          "internalType": "address",
          "name": "user",
          "type": "address"
        },
        {
          "indexed": false,
          "internalType": "uint256",
          "name": "newScore",
          "type": "uint256"
        }
      ],
      "name": "CreditScoreUpdated",
      "type": "event"
    },
    {
      "anonymous": false,
      "inputs": [
        {
          "indexed": true,
          "internalType": "address",
          "name": "sender",
          "type": "address"
        },
        {
          "indexed": false,
          "internalType": "bool",
          "name": "allowed",
          "type": "bool"
        }
      ],
      "name": "SenderAllowlisted",
      "type": "event"
    },
    {
      "inputs": [
        {
          "internalType": "uint64",
          "name": "chainSelector",
          "type": "uint64"
        },
        {
          "internalType": "bool",
          "name": "allowed",
          "type": "bool"
        }
      ],
      "name": "allowlistDestinationChain",
      "outputs": [],
      "stateMutability": "nonpayable",
      "type": "function"
    },
    {
      "inputs": [
        {
          "internalType": "address",
          "name": "sender",
          "type": "address"
        },
        {
          "internalType": "bool",
          "name": "allowed",
          "type": "bool"
        }
      ],
      "name": "allowlistSender",
      "outputs": [],
      "stateMutability": "nonpayable",
      "type": "function"
    },
    {
      "inputs": [
        {
          "internalType": "uint64",
          "name": "",
          "type": "uint64"
        }
      ],
      "name": "allowlistedDestinationChains",
      "outputs": [
        {
          "internalType": "bool",
          "name": "",
          "type": "bool"
        }
      ],
      "stateMutability": "view",
      "type": "function"
    },
    {
      "inputs": [
        {
          "internalType": "address",
          "name": "",
          "type": "address"
        }
      ],
      "name": "allowlistedSenders",
      "outputs": [
        {
          "internalType": "bool",
          "name": "",
          "type": "bool"
        }
      ],
      "stateMutability": "view",
      "type": "function"
    },
    {
      "inputs": [
        {
          "internalType": "address",
          "name": "",
          "type": "address"
        }
      ],
      "name": "creditScores",
      "outputs": [
        {
          "internalType": "uint256",
          "name": "",
          "type": "uint256"
        }
      ],
      "stateMutability": "view",
      "type": "function"
    },
    {
      "inputs": [
        {
          "internalType": "bytes32",
          "name": "messageId",
          "type": "bytes32"
        },
        {
          "internalType": "uint64",
          "name": "sourceChainSelector",
          "type": "uint64"
        },
        {
          "internalType": "address",
          "name": "sender",
          "type": "address"
        },
        {
          "internalType": "string",
          "name": "message",
          "type": "string"
        }
      ],
      "name": "mockReceiveMessage",
      "outputs": [],
      "stateMutability": "nonpayable",
      "type": "function"
    },
    {
      "inputs": [
        {
          "internalType": "address",
          "name": "user",
          "type": "address"
        },
        {
          "internalType": "uint256",
          "name": "score",
          "type": "uint256"
        }
      ],
      "name": "setCreditScore",
      "outputs": [],
      "stateMutability": "nonpayable",
      "type": "function"
    }
  ],
  "bytecode": "0x60808060405234610016576103a5908161001c8239f35b600080fdfe60806040818152600436101561001457600080fd5b600091823560e01c9081636159ada1146102f35750806375c67c66146102b757806380bb72731461028157806396d3b83d1461021257806397ed81cf1461019f578063ac85b5bf146100e75763eab5b02c1461006f57600080fd5b346100e357806003193601126100e3577f9a3d70b7815e59466fffdf86a6fda9753a1d8228523b33db2345e12200b3030c60206100aa61032e565b6100b2610360565b6001600160a01b039190911680865260018352848620805460ff191660ff84151516179055935b519015158152a280f35b5080fd5b50346100e35760803660031901126100e35767ffffffffffffffff906024358281160361019b576044356001600160a01b0381160361019b57606435918083116101975736602384011215610197578260040135918183116101835751601f8301601f19908116603f0116810191821191101761016f573691016024011161016c5780f35b80fd5b634e487b7160e01b83526041600452602483fd5b634e487b7160e01b85526041600452602485fd5b8380fd5b8280fd5b50346100e357806003193601126100e3577f79c012a0cfae660e09134956bc432c8497ec80e86a3a108d130e8b3fca52b3ad60206101db61032e565b6103e86024358181111561020a5750905b6001600160a01b03168086528583528486208290559351908152a280f35b9050906101ec565b50346100e357806003193601126100e3577f7930c3d00436c9ce04cd90e4f943e2ef591205fe1e4199f20871ffc2d8d85a3e602061024e610349565b67ffffffffffffffff61025f610360565b911693848652600283526100d9828288209060ff801983541691151516179055565b50346100e35760203660031901126100e35760209181906001600160a01b036102a861032e565b16815280845220549051908152f35b50346100e35760203660031901126100e35760ff8160209367ffffffffffffffff6102e0610349565b1681526002855220541690519015158152f35b9190503461019b57602036600319011261019b5760209260ff91906001600160a01b0361031e61032e565b1681526001855220541615158152f35b600435906001600160a01b038216820361034457565b600080fd5b6004359067ffffffffffffffff8216820361034457565b6024359081151582036103445756fea26469706673582212200c2dfff2c270b8285b112fd0cad3f22ed9ef6f36d71f7ec6df6e9cd0b6cbfe0664736f6c63430008140033",
  "linkReferences": {},
  "deployedLinkReferences": {}
}