{
  "_format": "hh-sol-artifact-1",
  "contractName": "MockFunctionsRouter",
  "sourceName": "contracts/mocks/MockRouter.sol",
  "abi": [
    {
      "anonymous": false,
      "inputs": [
        {
          "indexed": true,
          "internalType": "bytes32",
          "name": "requestId",
          "type": "bytes32"
        },
        {
          "indexed": false,
          "internalType": "bytes",
          "name": "data",
          "type": "bytes"
        },
        {
          "indexed": false,
          "internalType": "uint64",
          "name": "subscriptionId",
          "type": "uint64"
        },
        {
          "indexed": false,
          "internalType": "uint32",
          "name": "gasLimit",
          "type": "uint32"
        },
        {
          "indexed": false,
          "internalType": "bytes32",
          "name": "donId",
          "type": "bytes32"
        }
      ],
      "name": "RequestSent",
      "type": "event"
    },
    {
      "inputs": [
        {
          "internalType": "bytes",
          "name": "data",
          "type": "bytes"
        },
        {
          "internalType": "uint64",
          "name": "subscriptionId",
          "type": "uint64"
        },
        {
          "internalType": "uint32",
          "name": "gasLimit",
          "type": "uint32"
        },
        {
          "internalType": "bytes32",
          "name": "donId",
          "type": "bytes32"
        }
      ],
      "name": "sendRequest",
      "outputs": [
        {
          "internalType": "bytes32",
          "name": "requestId",
          "type": "bytes32"
        }
      ],
      "stateMutability": "nonpayable",
      "type": "function"
    }
  ],
  "bytecode": "0x6080806040523461001657610219908161001c8239f35b600080fdfe60806040818152600436101561001457600080fd5b600090813560e01c637cf1f26e1461002b57600080fd5b34610184576080366003190112610184576004359267ffffffffffffffff90818511610180573660238601121561018057846004013582811161016c57602095601f1991610080601f82018416890185610188565b8084528784019136602483830101116101685781889260248b9301853785010152602435938416809403610164576044359563ffffffff871680970361016157507f2a85ba6d0dafcd73f5f0c73d61781b213a2d45b8f11813745fd45e141dd172c29261014392601f60a09388518b8101904282523360601b8b820152610122605482885161011281848401896101c0565b8101036034810184520182610188565b519020998a988a51978896608088525180948160808a0152898901906101c0565b8c86015289850152606435606085015201168101030190a251908152f35b80fd5b8580fd5b8780fd5b634e487b7160e01b85526041600452602485fd5b8380fd5b5080fd5b90601f8019910116810190811067ffffffffffffffff8211176101aa57604052565b634e487b7160e01b600052604160045260246000fd5b60005b8381106101d35750506000910152565b81810151838201526020016101c356fea264697066735822122034b0b6ed0f7d43582015bfefda0e69d00a430956212f4fae257a1718218e089364736f6c63430008140033",
  "linkReferences": {},
  "deployedLinkReferences": {}
}