{
  "_format": "hh-sol-artifact-1",
  "contractName": "MockMainRouter",
  "sourceName": "contracts/mocks/MockRouter.sol",
  "abi": [
    {
      "anonymous": false,
      "inputs": [
        {
          "indexed": true,
          "internalType": "uint64",
          "name": "chainSelector",
          "type": "uint64"
        },
        {
          "indexed": false,
          "internalType": "bool",
          "name": "allowed",
          "type": "bool"
        }
      ],
      "name": "ChainAllowlisted",
      "type": "event"
    },
    {
      "anonymous": false,
      "inputs": [
        {
          "indexed": true,
          "internalType": "address",
          "name": "user",
          "type": "address"
        },
        {
          "indexed": false,
          "internalType": "uint256",
          "name": "newScore",
          "type": "uint256"
        }
      ],
      "name": "CreditScoreUpdated",
      "type": "event"
    },
    {
      "anonymous": false,
      "inputs": [
        {
          "indexed": true,
          "internalType": "address",
          "name": "sender",
          "type": "address"
        },
        {
          "indexed": false,
          "internalType": "bool",
          "name": "allowed",
          "type": "bool"
        }
      ],
      "name": "SenderAllowlisted",
      "type": "event"
    },
    {
      "inputs": [
        {
          "internalType": "uint64",
          "name": "chainSelector",
          "type": "uint64"
        },
        {
          "internalType": "bool",
          "name": "allowed",
          "type": "bool"
        }
      ],
      "name": "allowlistDestinationChain",
      "outputs": [],
      "stateMutability": "nonpayable",
      "type": "function"
    },
    {
      "inputs": [
        {
          "internalType": "address",
          "name": "sender",
          "type": "address"
        },
        {
          "internalType": "bool",
          "name": "allowed",
          "type": "bool"
        }
      ],
      "name": "allowlistSender",
      "outputs": [],
      "stateMutability": "nonpayable",
      "type": "function"
    },
    {
      "inputs": [
        {
          "internalType": "uint64",
          "name": "",
          "type": "uint64"
        }
      ],
      "name": "allowlistedDestinationChains",
      "outputs": [
        {
          "internalType": "bool",
          "name": "",
          "type": "bool"
        }
      ],
      "stateMutability": "view",
      "type": "function"
    },
    {
      "inputs": [
        {
          "internalType": "address",
          "name": "",
          "type": "address"
        }
      ],
      "name": "allowlistedSenders",
      "outputs": [
        {
          "internalType": "bool",
          "name": "",
          "type": "bool"
        }
      ],
      "stateMutability": "view",
      "type": "function"
    },
    {
      "inputs": [
        {
          "internalType": "address",
          "name": "",
          "type": "address"
        }
      ],
      "name": "creditScores",
      "outputs": [
        {
          "internalType": "uint256",
          "name": "",
          "type": "uint256"
        }
      ],
      "stateMutability": "view",
      "type": "function"
    },
    {
      "inputs": [
        {
          "internalType": "bytes32",
          "name": "messageId",
          "type": "bytes32"
        },
        {
          "internalType": "uint64",
          "name": "sourceChainSelector",
          "type": "uint64"
        },
        {
          "internalType": "address",
          "name": "sender",
          "type": "address"
        },
        {
          "internalType": "string",
          "name": "message",
          "type": "string"
        }
      ],
      "name": "mockReceiveMessage",
      "outputs": [],
      "stateMutability": "nonpayable",
      "type": "function"
    },
    {
      "inputs": [
        {
          "internalType": "address",
          "name": "user",
          "type": "address"
        },
        {
          "internalType": "uint256",
          "name": "score",
          "type": "uint256"
        }
      ],
      "name": "setCreditScore",
      "outputs": [],
      "stateMutability": "nonpayable",
      "type": "function"
    }
  ],
  "bytecode": "0x608080604052346015576103e2908161001b8239f35b600080fdfe608080604052600436101561001357600080fd5b60003560e01c9081636159ada1146103085750806375c67c66146102c857806380bb72731461028e57806396d3b83d1461021c57806397ed81cf146101a1578063ac85b5bf146100ea5763eab5b02c1461006c57600080fd5b346100e55760403660031901126100e557610085610343565b7f9a3d70b7815e59466fffdf86a6fda9753a1d8228523b33db2345e12200b3030c60206100b061039d565b6001600160a01b039390931660008181526001835260409020805460ff191660ff86151516179055925b6040519015158152a2005b600080fd5b346100e55760803660031901126100e557610103610386565b5061010c610359565b5060643567ffffffffffffffff81116100e557366023820112156100e55780600401359067ffffffffffffffff821161018b5760405191601f8101601f19908116603f0116830167ffffffffffffffff81118482101761018b5760405280835236602482840101116100e5576000928160246020940184830137010152005b634e487b7160e01b600052604160045260246000fd5b346100e55760403660031901126100e5576101ba610343565b6024356103e881111561021657506103e8905b6001600160a01b031660008181526020818152604091829020849055905192835290917f79c012a0cfae660e09134956bc432c8497ec80e86a3a108d130e8b3fca52b3ad9190a2005b906101cd565b346100e55760403660031901126100e55761023561036f565b7f7930c3d00436c9ce04cd90e4f943e2ef591205fe1e4199f20871ffc2d8d85a3e602067ffffffffffffffff61026961039d565b93169283600052600282526100da8160406000209060ff801983541691151516179055565b346100e55760203660031901126100e5576001600160a01b036102af610343565b1660005260006020526020604060002054604051908152f35b346100e55760203660031901126100e55767ffffffffffffffff6102ea61036f565b166000526002602052602060ff604060002054166040519015158152f35b346100e55760203660031901126100e5576020906001600160a01b0361032c610343565b166000526001825260ff6040600020541615158152f35b600435906001600160a01b03821682036100e557565b604435906001600160a01b03821682036100e557565b6004359067ffffffffffffffff821682036100e557565b6024359067ffffffffffffffff821682036100e557565b6024359081151582036100e55756fea26469706673582212209de51c5bfdfa8b0120dea870ebc901e01478c4e89a52f98de9fbc38ccfcfcc0064736f6c634300081c0033",
  "linkReferences": {},
  "deployedLinkReferences": {}
}