{
  "_format": "hh-sol-artifact-1",
  "contractName": "MockRouter",
  "sourceName": "contracts/mocks/MockRouter.sol",
  "abi": [
    {
      "inputs": [],
      "name": "InsufficientFeeTokenAmount",
      "type": "error"
    },
    {
      "inputs": [],
      "name": "InvalidMsgValue",
      "type": "error"
    },
    {
      "inputs": [
        {
          "internalType": "uint64",
          "name": "destChainSelector",
          "type": "uint64"
        }
      ],
      "name": "UnsupportedDestinationChain",
      "type": "error"
    },
    {
      "anonymous": false,
      "inputs": [
        {
          "indexed": true,
          "internalType": "bytes32",
          "name": "messageId",
          "type": "bytes32"
        },
        {
          "indexed": false,
          "internalType": "uint64",
          "name": "destinationChainSelector",
          "type": "uint64"
        },
        {
          "indexed": false,
          "internalType": "address",
          "name": "receiver",
          "type": "address"
        },
        {
          "indexed": false,
          "internalType": "bytes",
          "name": "data",
          "type": "bytes"
        },
        {
          "components": [
            {
              "internalType": "address",
              "name": "token",
              "type": "address"
            },
            {
              "internalType": "uint256",
              "name": "amount",
              "type": "uint256"
            }
          ],
          "indexed": false,
          "internalType": "struct Client.EVMTokenAmount[]",
          "name": "tokenAmounts",
          "type": "tuple[]"
        },
        {
          "indexed": false,
          "internalType": "address",
          "name": "feeToken",
          "type": "address"
        },
        {
          "indexed": false,
          "internalType": "bytes",
          "name": "extraArgs",
          "type": "bytes"
        }
      ],
      "name": "MessageSent",
      "type": "event"
    },
    {
      "inputs": [
        {
          "internalType": "uint64",
          "name": "destinationChainSelector",
          "type": "uint64"
        },
        {
          "components": [
            {
              "internalType": "bytes",
              "name": "receiver",
              "type": "bytes"
            },
            {
              "internalType": "bytes",
              "name": "data",
              "type": "bytes"
            },
            {
              "components": [
                {
                  "internalType": "address",
                  "name": "token",
                  "type": "address"
                },
                {
                  "internalType": "uint256",
                  "name": "amount",
                  "type": "uint256"
                }
              ],
              "internalType": "struct Client.EVMTokenAmount[]",
              "name": "tokenAmounts",
              "type": "tuple[]"
            },
            {
              "internalType": "address",
              "name": "feeToken",
              "type": "address"
            },
            {
              "internalType": "bytes",
              "name": "extraArgs",
              "type": "bytes"
            }
          ],
          "internalType": "struct Client.EVM2AnyMessage",
          "name": "message",
          "type": "tuple"
        }
      ],
      "name": "ccipSend",
      "outputs": [
        {
          "internalType": "bytes32",
          "name": "",
          "type": "bytes32"
        }
      ],
      "stateMutability": "payable",
      "type": "function"
    },
    {
      "inputs": [
        {
          "internalType": "uint64",
          "name": "",
          "type": "uint64"
        },
        {
          "components": [
            {
              "internalType": "bytes",
              "name": "receiver",
              "type": "bytes"
            },
            {
              "internalType": "bytes",
              "name": "data",
              "type": "bytes"
            },
            {
              "components": [
                {
                  "internalType": "address",
                  "name": "token",
                  "type": "address"
                },
                {
                  "internalType": "uint256",
                  "name": "amount",
                  "type": "uint256"
                }
              ],
              "internalType": "struct Client.EVMTokenAmount[]",
              "name": "tokenAmounts",
              "type": "tuple[]"
            },
            {
              "internalType": "address",
              "name": "feeToken",
              "type": "address"
            },
            {
              "internalType": "bytes",
              "name": "extraArgs",
              "type": "bytes"
            }
          ],
          "internalType": "struct Client.EVM2AnyMessage",
          "name": "",
          "type": "tuple"
        }
      ],
      "name": "getFee",
      "outputs": [
        {
          "internalType": "uint256",
          "name": "",
          "type": "uint256"
        }
      ],
      "stateMutability": "pure",
      "type": "function"
    },
    {
      "inputs": [
        {
          "internalType": "uint64",
          "name": "",
          "type": "uint64"
        }
      ],
      "name": "getSupportedTokens",
      "outputs": [
        {
          "internalType": "address[]",
          "name": "",
          "type": "address[]"
        }
      ],
      "stateMutability": "pure",
      "type": "function"
    },
    {
      "inputs": [
        {
          "internalType": "uint64",
          "name": "",
          "type": "uint64"
        }
      ],
      "name": "isChainSupported",
      "outputs": [
        {
          "internalType": "bool",
          "name": "",
          "type": "bool"
        }
      ],
      "stateMutability": "pure",
      "type": "function"
    }
  ],
  "bytecode": "0x608080604052346100165761056b908161001c8239f35b600080fdfe604060808152600436101561001357600080fd5b6000803560e01c806320487ded1461027457806396f4e9f91461010e578063a48a9058146100e85763fbca3b741461004a57600080fd5b346100e5576020806003193601126100e157610064610296565b508251908082019282841067ffffffffffffffff8511176100cd579093929182845281815283519485948186019282875251809352850193925b8281106100ad57505050500390f35b83516001600160a01b03168552869550938101939281019260010161009e565b634e487b7160e01b81526041600452602490fd5b5080fd5b80fd5b5090346100e15760203660031901126100e157602090610106610296565b505160018152f35b509061011936610355565b919060209384840180518451610173605c828a8101944286523360601b8a83015267ffffffffffffffff60c01b8960c01b1660548301526101638c825192839186860191016104ed565b810103603c8101845201826102b2565b5190209480518781805181010312610270578701516001600160a01b0380821693909184900361026c57938795949392919351936101df88840151956080836060870151169501519567ffffffffffffffff8b51991689528c89015260c08a89015260c0880190610510565b9086820360608801528a8087519384815201960192905b8b8a848410610246578a90817f86813df51d9b2683ec5403dd77a2394084a7a6c0dc9bf1d181179dab48ea126a8c8061023d8e8e8e608085015283820360a0850152610510565b0390a251908152f35b8551805184168a52820151828a01528c9a509097019690930192600191909101906101f6565b8480fd5b8380fd5b5090346100e15760209061028736610355565b505051662386f26fc100008152f35b6004359067ffffffffffffffff821682036102ad57565b600080fd5b90601f8019910116810190811067ffffffffffffffff8211176102d457604052565b634e487b7160e01b600052604160045260246000fd5b81601f820112156102ad5780359067ffffffffffffffff82116102d4576040519261031f601f8401601f1916602001856102b2565b828452602083830101116102ad57816000926020809301838601378301015290565b35906001600160a01b03821682036102ad57565b90604060031981818501126102ad5767ffffffffffffffff936004803586811681036102ad579560248035948286116102ad5760a09086860301126102ad5785519560a08701878110848211176104d9578152858401358381116102ad5785856103c1928901016102ea565b8752818601358381116102ad5785856103dc928901016102ea565b6020908189015260448701358481116102ad57870190866023830112156102ad57858201358581116104c55783519461041a838360051b01876102b2565b818652808387019260061b850101938985116102ad578101915b84831061047357505050505086015261044f60648501610341565b606086015260848401359081116102ad5761046b9301016102ea565b608082015290565b85838b03126102ad5785518681018181108a8211176104b05787528691859161049b86610341565b81528286013583820152815201920191610434565b634e487b7160e01b600090815260418c528490fd5b84604188634e487b7160e01b600052526000fd5b82604186634e487b7160e01b600052526000fd5b60005b8381106105005750506000910152565b81810151838201526020016104f0565b90602091610529815180928185528580860191016104ed565b601f01601f191601019056fea2646970667358221220da637094c1ca39692754b23e499dca1747455f9a1632d5be65d1ae7d17eefac664736f6c63430008140033",
  "linkReferences": {},
  "deployedLinkReferences": {}
}