{
  "_format": "hh-sol-artifact-1",
  "contractName": "MockRouter",
  "sourceName": "contracts/mocks/MockRouter.sol",
  "abi": [
    {
      "inputs": [],
      "name": "InsufficientFeeTokenAmount",
      "type": "error"
    },
    {
      "inputs": [],
      "name": "InvalidMsgValue",
      "type": "error"
    },
    {
      "inputs": [
        {
          "internalType": "uint64",
          "name": "destChainSelector",
          "type": "uint64"
        }
      ],
      "name": "UnsupportedDestinationChain",
      "type": "error"
    },
    {
      "anonymous": false,
      "inputs": [
        {
          "indexed": true,
          "internalType": "bytes32",
          "name": "messageId",
          "type": "bytes32"
        },
        {
          "indexed": false,
          "internalType": "uint64",
          "name": "destinationChainSelector",
          "type": "uint64"
        },
        {
          "indexed": false,
          "internalType": "address",
          "name": "receiver",
          "type": "address"
        },
        {
          "indexed": false,
          "internalType": "bytes",
          "name": "data",
          "type": "bytes"
        },
        {
          "components": [
            {
              "internalType": "address",
              "name": "token",
              "type": "address"
            },
            {
              "internalType": "uint256",
              "name": "amount",
              "type": "uint256"
            }
          ],
          "indexed": false,
          "internalType": "struct Client.EVMTokenAmount[]",
          "name": "tokenAmounts",
          "type": "tuple[]"
        },
        {
          "indexed": false,
          "internalType": "address",
          "name": "feeToken",
          "type": "address"
        },
        {
          "indexed": false,
          "internalType": "bytes",
          "name": "extraArgs",
          "type": "bytes"
        }
      ],
      "name": "MessageSent",
      "type": "event"
    },
    {
      "inputs": [
        {
          "internalType": "uint64",
          "name": "destinationChainSelector",
          "type": "uint64"
        },
        {
          "components": [
            {
              "internalType": "bytes",
              "name": "receiver",
              "type": "bytes"
            },
            {
              "internalType": "bytes",
              "name": "data",
              "type": "bytes"
            },
            {
              "components": [
                {
                  "internalType": "address",
                  "name": "token",
                  "type": "address"
                },
                {
                  "internalType": "uint256",
                  "name": "amount",
                  "type": "uint256"
                }
              ],
              "internalType": "struct Client.EVMTokenAmount[]",
              "name": "tokenAmounts",
              "type": "tuple[]"
            },
            {
              "internalType": "address",
              "name": "feeToken",
              "type": "address"
            },
            {
              "internalType": "bytes",
              "name": "extraArgs",
              "type": "bytes"
            }
          ],
          "internalType": "struct Client.EVM2AnyMessage",
          "name": "message",
          "type": "tuple"
        }
      ],
      "name": "ccipSend",
      "outputs": [
        {
          "internalType": "bytes32",
          "name": "",
          "type": "bytes32"
        }
      ],
      "stateMutability": "payable",
      "type": "function"
    },
    {
      "inputs": [
        {
          "internalType": "uint64",
          "name": "",
          "type": "uint64"
        },
        {
          "components": [
            {
              "internalType": "bytes",
              "name": "receiver",
              "type": "bytes"
            },
            {
              "internalType": "bytes",
              "name": "data",
              "type": "bytes"
            },
            {
              "components": [
                {
                  "internalType": "address",
                  "name": "token",
                  "type": "address"
                },
                {
                  "internalType": "uint256",
                  "name": "amount",
                  "type": "uint256"
                }
              ],
              "internalType": "struct Client.EVMTokenAmount[]",
              "name": "tokenAmounts",
              "type": "tuple[]"
            },
            {
              "internalType": "address",
              "name": "feeToken",
              "type": "address"
            },
            {
              "internalType": "bytes",
              "name": "extraArgs",
              "type": "bytes"
            }
          ],
          "internalType": "struct Client.EVM2AnyMessage",
          "name": "",
          "type": "tuple"
        }
      ],
      "name": "getFee",
      "outputs": [
        {
          "internalType": "uint256",
          "name": "",
          "type": "uint256"
        }
      ],
      "stateMutability": "pure",
      "type": "function"
    },
    {
      "inputs": [
        {
          "internalType": "uint64",
          "name": "",
          "type": "uint64"
        }
      ],
      "name": "getSupportedTokens",
      "outputs": [
        {
          "internalType": "address[]",
          "name": "",
          "type": "address[]"
        }
      ],
      "stateMutability": "pure",
      "type": "function"
    },
    {
      "inputs": [
        {
          "internalType": "uint64",
          "name": "",
          "type": "uint64"
        }
      ],
      "name": "isChainSupported",
      "outputs": [
        {
          "internalType": "bool",
          "name": "",
          "type": "bool"
        }
      ],
      "stateMutability": "pure",
      "type": "function"
    }
  ],
  "bytecode": "0x6080806040523460155761054c908161001b8239f35b600080fdfe6080604052600436101561001257600080fd5b60003560e01c806320487ded1461025357806396f4e9f9146100ef578063a48a9058146100ca5763fbca3b741461004857600080fd5b346100c55760203660031901126100c557610061610274565b506040516020610071818361028a565b6000825260003681376040519181839283018184528251809152816040850193019160005b8281106100a557505050500390f35b83516001600160a01b031685528695509381019392810192600101610096565b600080fd5b346100c55760203660031901126100c5576100e3610274565b50602060405160018152f35b6100f83661032b565b60208101908151604051610152605c8260208101944286523360601b60408301526001600160401b0360c01b8960c01b16605483015261014181518092602086860191016104ce565b81010301601f19810183528261028a565b5190209181516020818051810103126100c557602001516001600160a01b03811691908290036100c55751916101bf604082015193608060018060a01b03606085015116930151936001600160401b0360405198168852602088015260c0604088015260c08701906104f1565b85810360608701526020808551928381520194019060005b81811061022857602087807f86813df51d9b2683ec5403dd77a2394084a7a6c0dc9bf1d181179dab48ea126a8b8061021d8c8c8c608085015283820360a08501526104f1565b0390a2604051908152f35b825180516001600160a01b0316875260209081015181880152604090960195909201916001016101d7565b346100c5576102613661032b565b50506020604051662386f26fc100008152f35b600435906001600160401b03821682036100c557565b90601f801991011681019081106001600160401b038211176102ab57604052565b634e487b7160e01b600052604160045260246000fd5b81601f820112156100c5578035906001600160401b0382116102ab57604051926102f5601f8401601f19166020018561028a565b828452602083830101116100c557816000926020809301838601378301015290565b35906001600160a01b03821682036100c557565b9060406003198301126100c5576004356001600160401b03811681036100c557916024356001600160401b0381116100c55760a081830360031901126100c5576040519160a083018381106001600160401b038211176102ab5760405281600401356001600160401b0381116100c5578160046103aa928501016102c1565b835260248201356001600160401b0381116100c5578160046103ce928501016102c1565b602084015260448201356001600160401b0381116100c5578201816023820112156100c55760048101356001600160401b0381116102ab5760208160051b019161041b604051938461028a565b818352602060048185019360061b83010101908482116100c557602401915b81831061048357505050604084015261045560648301610317565b60608401526084820135916001600160401b0383116100c55761047b92016004016102c1565b608082015290565b6040838603126100c5576040519060408201908282106001600160401b038311176102ab5760409260209284526104b986610317565b8152828601358382015281520192019161043a565b60005b8381106104e15750506000910152565b81810151838201526020016104d1565b9060209161050a815180928185528580860191016104ce565b601f01601f191601019056fea2646970667358221220efc0c21f9ea3af6e878702f2340580a96de31b9e4b63c2f084ccef39d045b02b64736f6c634300081c0033",
  "linkReferences": {},
  "deployedLinkReferences": {}
}