{
  "_format": "hh-sol-artifact-1",
  "contractName": "Client",
  "sourceName": "@chainlink/contracts-ccip/src/v0.8/ccip/libraries/Client.sol",
  "abi": [
    {
      "inputs": [],
      "name": "EVM_EXTRA_ARGS_V1_TAG",
      "outputs": [
        {
          "internalType": "bytes4",
          "name": "",
          "type": "bytes4"
        }
      ],
      "stateMutability": "view",
      "type": "function"
    },
    {
      "inputs": [],
      "name": "EVM_EXTRA_ARGS_V2_TAG",
      "outputs": [
        {
          "internalType": "bytes4",
          "name": "",
          "type": "bytes4"
        }
      ],
      "stateMutability": "view",
      "type": "function"
    }
  ],
  "bytecode": "0x608080604052346100195760a8908161001f823930815050f35b600080fdfe6080806040526004361015601257600080fd5b600090813560e01c9081633ab8c0d01460535750638113c57814603457600080fd5b80600319360112605057604051630181dcf160e41b8152602090f35b80fd5b905081600319360112606e576397a657c960e01b8152602090f35b5080fdfea26469706673582212204dc9b7d5b962a2251fbed6f04fb3fd5c095b880dfa466a666849601250fbb92c64736f6c63430008140033",
  "linkReferences": {},
  "deployedLinkReferences": {}
}