{
  "_format": "hh-sol-artifact-1",
  "contractName": "Minter",
  "sourceName": "contracts/Minter.sol",
  "abi": [
    {
      "inputs": [
        {
          "internalType": "address",
          "name": "_router",
          "type": "address"
        },
        {
          "internalType": "uint64",
          "name": "_mainRouterChainSelector",
          "type": "uint64"
        },
        {
          "internalType": "address",
          "name": "_mainRouterAddress",
          "type": "address"
        },
        {
          "internalType": "string",
          "name": "_dscName",
          "type": "string"
        },
        {
          "internalType": "string",
          "name": "_dscSymbol",
          "type": "string"
        }
      ],
      "stateMutability": "nonpayable",
      "type": "constructor"
    },
    {
      "inputs": [
        {
          "internalType": "uint64",
          "name": "destinationChainSelector",
          "type": "uint64"
        }
      ],
      "name": "DestinationChainNotAllowed",
      "type": "error"
    },
    {
      "inputs": [
        {
          "internalType": "address",
          "name": "owner",
          "type": "address"
        },
        {
          "internalType": "address",
          "name": "target",
          "type": "address"
        },
        {
          "internalType": "uint256",
          "name": "value",
          "type": "uint256"
        }
      ],
      "name": "FailedToWithdrawEth",
      "type": "error"
    },
    {
      "inputs": [
        {
          "internalType": "uint256",
          "name": "required",
          "type": "uint256"
        },
        {
          "internalType": "uint256",
          "name": "available",
          "type": "uint256"
        }
      ],
      "name": "InsufficientDSCBalance",
      "type": "error"
    },
    {
      "inputs": [],
      "name": "InvalidBurnAndMintRequest",
      "type": "error"
    },
    {
      "inputs": [
        {
          "internalType": "address",
          "name": "router",
          "type": "address"
        }
      ],
      "name": "InvalidRouter",
      "type": "error"
    },
    {
      "inputs": [
        {
          "internalType": "uint256",
          "name": "currentBalance",
          "type": "uint256"
        },
        {
          "internalType": "uint256",
          "name": "calculatedFees",
          "type": "uint256"
        }
      ],
      "name": "NotEnoughBalance",
      "type": "error"
    },
    {
      "inputs": [],
      "name": "NothingToWithdraw",
      "type": "error"
    },
    {
      "inputs": [
        {
          "internalType": "address",
          "name": "sender",
          "type": "address"
        }
      ],
      "name": "SenderNotAllowed",
      "type": "error"
    },
    {
      "inputs": [
        {
          "internalType": "uint64",
          "name": "sourceChainSelector",
          "type": "uint64"
        }
      ],
      "name": "SourceChainNotAllowed",
      "type": "error"
    },
    {
      "inputs": [
        {
          "internalType": "address",
          "name": "caller",
          "type": "address"
        }
      ],
      "name": "UnauthorizedBurn",
      "type": "error"
    },
    {
      "inputs": [
        {
          "internalType": "address",
          "name": "caller",
          "type": "address"
        }
      ],
      "name": "UnauthorizedMint",
      "type": "error"
    },
    {
      "inputs": [],
      "name": "ZeroAddress",
      "type": "error"
    },
    {
      "inputs": [],
      "name": "ZeroAmount",
      "type": "error"
    },
    {
      "anonymous": false,
      "inputs": [
        {
          "indexed": true,
          "internalType": "address",
          "name": "user",
          "type": "address"
        },
        {
          "indexed": false,
          "internalType": "uint256",
          "name": "amount",
          "type": "uint256"
        },
        {
          "indexed": true,
          "internalType": "uint64",
          "name": "sourceChain",
          "type": "uint64"
        },
        {
          "indexed": false,
          "internalType": "bytes32",
          "name": "messageId",
          "type": "bytes32"
        }
      ],
      "name": "CrossChainSwapCompleted",
      "type": "event"
    },
    {
      "anonymous": false,
      "inputs": [
        {
          "indexed": true,
          "internalType": "address",
          "name": "user",
          "type": "address"
        },
        {
          "indexed": false,
          "internalType": "uint256",
          "name": "amount",
          "type": "uint256"
        },
        {
          "indexed": true,
          "internalType": "uint64",
          "name": "sourceChain",
          "type": "uint64"
        },
        {
          "indexed": true,
          "internalType": "uint64",
          "name": "destinationChain",
          "type": "uint64"
        },
        {
          "indexed": false,
          "internalType": "bytes32",
          "name": "messageId",
          "type": "bytes32"
        }
      ],
      "name": "CrossChainSwapInitiated",
      "type": "event"
    },
    {
      "anonymous": false,
      "inputs": [
        {
          "indexed": true,
          "internalType": "address",
          "name": "user",
          "type": "address"
        },
        {
          "indexed": false,
          "internalType": "uint256",
          "name": "amount",
          "type": "uint256"
        },
        {
          "indexed": true,
          "internalType": "bytes32",
          "name": "messageId",
          "type": "bytes32"
        }
      ],
      "name": "DSCBurned",
      "type": "event"
    },
    {
      "anonymous": false,
      "inputs": [
        {
          "indexed": true,
          "internalType": "address",
          "name": "user",
          "type": "address"
        },
        {
          "indexed": false,
          "internalType": "uint256",
          "name": "amount",
          "type": "uint256"
        },
        {
          "indexed": true,
          "internalType": "bytes32",
          "name": "messageId",
          "type": "bytes32"
        }
      ],
      "name": "DSCMinted",
      "type": "event"
    },
    {
      "anonymous": false,
      "inputs": [
        {
          "indexed": true,
          "internalType": "bytes32",
          "name": "messageId",
          "type": "bytes32"
        },
        {
          "indexed": true,
          "internalType": "uint64",
          "name": "sourceChainSelector",
          "type": "uint64"
        },
        {
          "indexed": false,
          "internalType": "address",
          "name": "sender",
          "type": "address"
        },
        {
          "indexed": false,
          "internalType": "string",
          "name": "message",
          "type": "string"
        }
      ],
      "name": "MessageReceived",
      "type": "event"
    },
    {
      "anonymous": false,
      "inputs": [
        {
          "indexed": true,
          "internalType": "bytes32",
          "name": "messageId",
          "type": "bytes32"
        },
        {
          "indexed": true,
          "internalType": "uint64",
          "name": "destinationChainSelector",
          "type": "uint64"
        },
        {
          "indexed": false,
          "internalType": "address",
          "name": "receiver",
          "type": "address"
        },
        {
          "indexed": false,
          "internalType": "uint256",
          "name": "fees",
          "type": "uint256"
        }
      ],
      "name": "MessageSent",
      "type": "event"
    },
    {
      "anonymous": false,
      "inputs": [
        {
          "indexed": true,
          "internalType": "address",
          "name": "from",
          "type": "address"
        },
        {
          "indexed": true,
          "internalType": "address",
          "name": "to",
          "type": "address"
        }
      ],
      "name": "OwnershipTransferRequested",
      "type": "event"
    },
    {
      "anonymous": false,
      "inputs": [
        {
          "indexed": true,
          "internalType": "address",
          "name": "from",
          "type": "address"
        },
        {
          "indexed": true,
          "internalType": "address",
          "name": "to",
          "type": "address"
        }
      ],
      "name": "OwnershipTransferred",
      "type": "event"
    },
    {
      "inputs": [],
      "name": "MAIN_ROUTER_ADDRESS",
      "outputs": [
        {
          "internalType": "address",
          "name": "",
          "type": "address"
        }
      ],
      "stateMutability": "view",
      "type": "function"
    },
    {
      "inputs": [],
      "name": "MAIN_ROUTER_CHAIN_SELECTOR",
      "outputs": [
        {
          "internalType": "uint64",
          "name": "",
          "type": "uint64"
        }
      ],
      "stateMutability": "view",
      "type": "function"
    },
    {
      "inputs": [],
      "name": "acceptOwnership",
      "outputs": [],
      "stateMutability": "nonpayable",
      "type": "function"
    },
    {
      "inputs": [
        {
          "internalType": "uint64",
          "name": "_destinationChainSelector",
          "type": "uint64"
        },
        {
          "internalType": "bool",
          "name": "allowed",
          "type": "bool"
        }
      ],
      "name": "allowlistDestinationChain",
      "outputs": [],
      "stateMutability": "nonpayable",
      "type": "function"
    },
    {
      "inputs": [
        {
          "internalType": "address",
          "name": "_sender",
          "type": "address"
        },
        {
          "internalType": "bool",
          "name": "allowed",
          "type": "bool"
        }
      ],
      "name": "allowlistSender",
      "outputs": [],
      "stateMutability": "nonpayable",
      "type": "function"
    },
    {
      "inputs": [
        {
          "internalType": "uint64",
          "name": "_sourceChainSelector",
          "type": "uint64"
        },
        {
          "internalType": "bool",
          "name": "allowed",
          "type": "bool"
        }
      ],
      "name": "allowlistSourceChain",
      "outputs": [],
      "stateMutability": "nonpayable",
      "type": "function"
    },
    {
      "inputs": [
        {
          "internalType": "uint64",
          "name": "",
          "type": "uint64"
        }
      ],
      "name": "allowlistedDestinationChains",
      "outputs": [
        {
          "internalType": "bool",
          "name": "",
          "type": "bool"
        }
      ],
      "stateMutability": "view",
      "type": "function"
    },
    {
      "inputs": [
        {
          "internalType": "address",
          "name": "",
          "type": "address"
        }
      ],
      "name": "allowlistedSenders",
      "outputs": [
        {
          "internalType": "bool",
          "name": "",
          "type": "bool"
        }
      ],
      "stateMutability": "view",
      "type": "function"
    },
    {
      "inputs": [
        {
          "internalType": "uint64",
          "name": "",
          "type": "uint64"
        }
      ],
      "name": "allowlistedSourceChains",
      "outputs": [
        {
          "internalType": "bool",
          "name": "",
          "type": "bool"
        }
      ],
      "stateMutability": "view",
      "type": "function"
    },
    {
      "inputs": [
        {
          "internalType": "uint256",
          "name": "amount",
          "type": "uint256"
        },
        {
          "internalType": "uint64",
          "name": "destinationChain",
          "type": "uint64"
        }
      ],
      "name": "burnAndMint",
      "outputs": [],
      "stateMutability": "nonpayable",
      "type": "function"
    },
    {
      "inputs": [
        {
          "internalType": "uint256",
          "name": "amount",
          "type": "uint256"
        }
      ],
      "name": "burnDSC",
      "outputs": [],
      "stateMutability": "nonpayable",
      "type": "function"
    },
    {
      "inputs": [
        {
          "components": [
            {
              "internalType": "bytes32",
              "name": "messageId",
              "type": "bytes32"
            },
            {
              "internalType": "uint64",
              "name": "sourceChainSelector",
              "type": "uint64"
            },
            {
              "internalType": "bytes",
              "name": "sender",
              "type": "bytes"
            },
            {
              "internalType": "bytes",
              "name": "data",
              "type": "bytes"
            },
            {
              "components": [
                {
                  "internalType": "address",
                  "name": "token",
                  "type": "address"
                },
                {
                  "internalType": "uint256",
                  "name": "amount",
                  "type": "uint256"
                }
              ],
              "internalType": "struct Client.EVMTokenAmount[]",
              "name": "destTokenAmounts",
              "type": "tuple[]"
            }
          ],
          "internalType": "struct Client.Any2EVMMessage",
          "name": "message",
          "type": "tuple"
        }
      ],
      "name": "ccipReceive",
      "outputs": [],
      "stateMutability": "nonpayable",
      "type": "function"
    },
    {
      "inputs": [
        {
          "internalType": "uint64",
          "name": "",
          "type": "uint64"
        }
      ],
      "name": "chainToMinter",
      "outputs": [
        {
          "internalType": "address",
          "name": "",
          "type": "address"
        }
      ],
      "stateMutability": "view",
      "type": "function"
    },
    {
      "inputs": [],
      "name": "dscToken",
      "outputs": [
        {
          "internalType": "contract DSC",
          "name": "",
          "type": "address"
        }
      ],
      "stateMutability": "view",
      "type": "function"
    },
    {
      "inputs": [
        {
          "internalType": "uint256",
          "name": "amount",
          "type": "uint256"
        },
        {
          "internalType": "uint64",
          "name": "destinationChain",
          "type": "uint64"
        }
      ],
      "name": "getBurnAndMintFee",
      "outputs": [
        {
          "internalType": "uint256",
          "name": "fee",
          "type": "uint256"
        }
      ],
      "stateMutability": "view",
      "type": "function"
    },
    {
      "inputs": [
        {
          "internalType": "address",
          "name": "user",
          "type": "address"
        }
      ],
      "name": "getDSCBalance",
      "outputs": [
        {
          "internalType": "uint256",
          "name": "",
          "type": "uint256"
        }
      ],
      "stateMutability": "view",
      "type": "function"
    },
    {
      "inputs": [
        {
          "internalType": "bytes32",
          "name": "messageId",
          "type": "bytes32"
        }
      ],
      "name": "getPendingSwap",
      "outputs": [
        {
          "components": [
            {
              "internalType": "address",
              "name": "user",
              "type": "address"
            },
            {
              "internalType": "uint256",
              "name": "amount",
              "type": "uint256"
            },
            {
              "internalType": "uint64",
              "name": "sourceChain",
              "type": "uint64"
            },
            {
              "internalType": "uint64",
              "name": "destinationChain",
              "type": "uint64"
            },
            {
              "internalType": "uint256",
              "name": "timestamp",
              "type": "uint256"
            },
            {
              "internalType": "bool",
              "name": "completed",
              "type": "bool"
            }
          ],
          "internalType": "struct Minter.SwapRequest",
          "name": "",
          "type": "tuple"
        }
      ],
      "stateMutability": "view",
      "type": "function"
    },
    {
      "inputs": [],
      "name": "getRouter",
      "outputs": [
        {
          "internalType": "address",
          "name": "",
          "type": "address"
        }
      ],
      "stateMutability": "view",
      "type": "function"
    },
    {
      "inputs": [
        {
          "internalType": "address",
          "name": "user",
          "type": "address"
        }
      ],
      "name": "getUserBorrowedAmount",
      "outputs": [
        {
          "internalType": "uint256",
          "name": "",
          "type": "uint256"
        }
      ],
      "stateMutability": "view",
      "type": "function"
    },
    {
      "inputs": [
        {
          "internalType": "address",
          "name": "user",
          "type": "address"
        }
      ],
      "name": "getUserTotalBorrowed",
      "outputs": [
        {
          "internalType": "uint256",
          "name": "",
          "type": "uint256"
        }
      ],
      "stateMutability": "view",
      "type": "function"
    },
    {
      "inputs": [
        {
          "internalType": "address",
          "name": "user",
          "type": "address"
        },
        {
          "internalType": "uint256",
          "name": "amount",
          "type": "uint256"
        }
      ],
      "name": "mintDSC",
      "outputs": [],
      "stateMutability": "nonpayable",
      "type": "function"
    },
    {
      "inputs": [],
      "name": "owner",
      "outputs": [
        {
          "internalType": "address",
          "name": "",
          "type": "address"
        }
      ],
      "stateMutability": "view",
      "type": "function"
    },
    {
      "inputs": [
        {
          "internalType": "bytes32",
          "name": "",
          "type": "bytes32"
        }
      ],
      "name": "pendingSwaps",
      "outputs": [
        {
          "internalType": "address",
          "name": "user",
          "type": "address"
        },
        {
          "internalType": "uint256",
          "name": "amount",
          "type": "uint256"
        },
        {
          "internalType": "uint64",
          "name": "sourceChain",
          "type": "uint64"
        },
        {
          "internalType": "uint64",
          "name": "destinationChain",
          "type": "uint64"
        },
        {
          "internalType": "uint256",
          "name": "timestamp",
          "type": "uint256"
        },
        {
          "internalType": "bool",
          "name": "completed",
          "type": "bool"
        }
      ],
      "stateMutability": "view",
      "type": "function"
    },
    {
      "inputs": [
        {
          "internalType": "uint64",
          "name": "_chainSelector",
          "type": "uint64"
        },
        {
          "internalType": "address",
          "name": "_minterAddress",
          "type": "address"
        }
      ],
      "name": "setChainMinter",
      "outputs": [],
      "stateMutability": "nonpayable",
      "type": "function"
    },
    {
      "inputs": [
        {
          "internalType": "bytes4",
          "name": "interfaceId",
          "type": "bytes4"
        }
      ],
      "name": "supportsInterface",
      "outputs": [
        {
          "internalType": "bool",
          "name": "",
          "type": "bool"
        }
      ],
      "stateMutability": "view",
      "type": "function"
    },
    {
      "inputs": [
        {
          "internalType": "address",
          "name": "to",
          "type": "address"
        }
      ],
      "name": "transferOwnership",
      "outputs": [],
      "stateMutability": "nonpayable",
      "type": "function"
    },
    {
      "inputs": [
        {
          "internalType": "address",
          "name": "",
          "type": "address"
        }
      ],
      "name": "userBorrowedAmounts",
      "outputs": [
        {
          "internalType": "uint256",
          "name": "",
          "type": "uint256"
        }
      ],
      "stateMutability": "view",
      "type": "function"
    },
    {
      "inputs": [
        {
          "internalType": "address",
          "name": "",
          "type": "address"
        }
      ],
      "name": "userTotalBorrowed",
      "outputs": [
        {
          "internalType": "uint256",
          "name": "",
          "type": "uint256"
        }
      ],
      "stateMutability": "view",
      "type": "function"
    },
    {
      "inputs": [
        {
          "internalType": "address",
          "name": "_beneficiary",
          "type": "address"
        }
      ],
      "name": "withdraw",
      "outputs": [],
      "stateMutability": "nonpayable",
      "type": "function"
    },
    {
      "inputs": [
        {
          "internalType": "address",
          "name": "_beneficiary",
          "type": "address"
        },
        {
          "internalType": "address",
          "name": "_token",
          "type": "address"
        }
      ],
      "name": "withdrawToken",
      "outputs": [],
      "stateMutability": "nonpayable",
      "type": "function"
    },
    {
      "stateMutability": "payable",
      "type": "receive"
    }
  ],
  "bytecode": "0x60406101008152346200026a5762003cbc803803806200001f816200026f565b928339810160a0828203126200026a576200003a82620002ab565b6020830151909290916001600160401b03808416928385036200026a5762000064878201620002ab565b9060608101518381116200026a578462000080918301620002e5565b9360808201518481116200026a576200009a9201620002e5565b9060018060a01b0395868816978815620002525760805233156200020e57600080546001600160a01b0319908116331782559783169890978915620001fd57600254161760025560a05260c0528651926119778085019385851090851117620001e957916200011f6200012e928695946200234587396060855260608501906200033c565b9083820360208501526200033c565b908730910152039083f08015620001df5791849160019360e052815260046020528181209360ff19948486825416179055815260056020528181208385825416179055308152209182541617905551611fe190816200036482396080518181816106490152610831015260a051816116dc015260c0518181816104b90152610d84015260e0518181816104fa0152818161068d0152818161077d01528181610a3b01528181610ec701526110a80152f35b84513d84823e3d90fd5b634e487b7160e01b87526041600452602487fd5b8a5163d92e233d60e01b8152600490fd5b885162461bcd60e51b815260206004820152601860248201527f43616e6e6f7420736574206f776e657220746f207a65726f00000000000000006044820152606490fd5b89516335fdcccd60e21b815260006004820152602490fd5b600080fd5b6040519190601f01601f191682016001600160401b038111838210176200029557604052565b634e487b7160e01b600052604160045260246000fd5b51906001600160a01b03821682036200026a57565b60005b838110620002d45750506000910152565b8181015183820152602001620002c3565b81601f820112156200026a5780516001600160401b038111620002955762000317601f8201601f19166020016200026f565b92818452602082840101116200026a57620003399160208085019101620002c0565b90565b906020916200035781518092818552858086019101620002c0565b601f01601f191601019056fe60806040818152600480361015610021575b505050361561001f57600080fd5b005b600092833560e01c90816301ffc9a714611772575080630f57864e146117005780631ec3c419146116bc57806337c5dfb61461167a57806338b066f214610d375780633aeac4e11461154c5780634030d52114611512578063421656c8146110455780634607506a1461022e5780634c1697b114610e9457806351cff8d914610df15780636159ada114610db3578063643a33c314610d6f57806364db6ac214610d3757806375c67c6614610cfb57806379ba509714610c5457806385572ffb146107f25780638727bcaf146107375780638da5cb5b1461070f57806396d3b83d146106bc578063a014c3d214610678578063b0f479a114610634578063c61ff7b01461048c578063c6c0e179146103b3578063d5f5a39514610341578063db04fa49146102f1578063e555347e146102bf578063eab5b02c1461026a578063eb084ad01461022e5763f2fde38b03610011573461022a57602036600319011261022a5761018d6117f2565b9061019661197b565b6001600160a01b03918216923384146101e7575050600180546001600160a01b031916831790558254167fed8889f560326eb138920d842192f0eb3dd22b4f139c87a2c57538e05bae12788380a380f35b906020606492519162461bcd60e51b8352820152601760248201527f43616e6e6f74207472616e7366657220746f2073656c660000000000000000006044820152fd5b8280fd5b5050346102665760203660031901126102665760209181906001600160a01b036102566117f2565b1681526008845220549051908152f35b5080fd5b5050346102665780600319360112610266576102bc906102886117f2565b9061029161181e565b9161029a61197b565b60018060a01b03168452600560205283209060ff801983541691151516179055565b80f35b5091346102ee57816003193601126102ee57506102e76020926102e06117dc565b9035611d69565b9051908152f35b80fd5b503461022a578160031936011261022a576102bc9161030e6117c6565b916001600160401b0361031f61181e565b9361032861197b565b16855260205283209060ff801983541691151516179055565b50503461026657806003193601126102665761035b6117c6565b6001600160401b0361036b611808565b9161037461197b565b16835260066020528183209060018060a01b03166bffffffffffffffffffffffff60a01b82541617905560036020528120600160ff1982541617905580f35b503461022a57602036600319011261022a57818360c09460a083516103d7816118a7565b828152826020820152828582015282606082015282608082015201528235815260096020522060ff83519261040b846118a7565b60018060a01b0383541694858552600184015491602086019283526002850154928287019060a06001600160401b0396879485881685528560608c0198881c16885260038a01549960808c019a8b520154169801971515885283519889525160208901525116908601525116606084015251608083015251151560a0820152f35b509190346102665780600319360112610266576104a76117f2565b6001600160a01b0393909160243591337f0000000000000000000000000000000000000000000000000000000000000000871614158061061e575b6106085782156105fa578584169384156105eb5785967f00000000000000000000000000000000000000000000000000000000000000001691823b156105e75783516340c10f1960e01b81526001600160a01b03909216908201908152602081018590529091869183919082908490829060400103925af180156105dd579085916105c4575b5091602091847f05c19247c4d7e36288ac938dfcaee5d067b3234d6c839f277108f1c63a886e2d9452600783528086206105a38382546119cd565b9055848652600883528086206105ba8382546119cd565b905551908152a380f35b6105cd9061182d565b6105d8578338610568565b505050fd5b82513d87823e3d90fd5b8680fd5b50905163d92e233d60e01b8152fd5b9051631f2a200560e01b8152fd5b6024915190637c4b7ccf60e01b82523390820152fd5b50338552600560205260ff8286205416156104e2565b505034610266578160031936011261026657517f00000000000000000000000000000000000000000000000000000000000000006001600160a01b03168152602090f35b505034610266578160031936011261026657517f00000000000000000000000000000000000000000000000000000000000000006001600160a01b03168152602090f35b5050346102665780600319360112610266576102bc906106da6117c6565b906001600160401b036106eb61181e565b926106f461197b565b168452600360205283209060ff801983541691151516179055565b505034610266578160031936011261026657905490516001600160a01b039091168152602090f35b50919034610266576020928360031936011261022a57836107566117f2565b83516370a0823160e01b81526001600160a01b0391821693810193909352829060249082907f0000000000000000000000000000000000000000000000000000000000000000165afa9283156107e757926107b3575b5051908152f35b9091508281813d83116107e0575b6107cb81836118f8565b810103126107db575190386107ac565b600080fd5b503d6107c1565b8251903d90823e3d90fd5b50903461022a576003199060203683018113610c505783356001600160401b03938482116105e75760a0908236030112610c4c576001600160a01b03937f000000000000000000000000000000000000000000000000000000000000000085163303610c36578351946108648661188c565b828701358652602496878401359683881688036107db578581019788526044850135848111610c325761089c90833691880101611934565b98878201998a526064860135858111610c2a576108be90843691890101611934565b9560608301968752608481013590868211610c2e570136602382011215610c2a578381013590868211610c16578951916108fd8a8260051b01846118f8565b808352838a84019160061b83010191368311610c1257878f938f938f90918f9492898e9401905b828210610bc5575050509061094f9160ff95969760808b0152511694518d80825183010191016119fd565b1693838152878c5220541615610bb05750808c526005885260ff898d20541615610b9b5750509082610991858c94519a51169a518880825183010191016119fd565b1694519384518501948781818801970312610b975787810151918211610b97570184603f8201121561022a57868101516109ca81611919565b956109d78a5197886118f8565b818752898284010111610b97576109f391898988019101611a1c565b8160608851610a0181611856565b8281528289820152828a82015201528160608851610a1e81611856565b8281528289820152828a820152015281600014610b6957828216927f000000000000000000000000000000000000000000000000000000000000000016803b1561022a5787516340c10f1960e01b81526001600160a01b03851692810192835260208301849052918391839182908490829060400103925af18015610b5f579088939291610b40575b5091817fb1e312a29937cc11967b0e4a346fef1ae132424ebaba9dc6d90249dba053e87c9792610b3a95945260078752828b20610ae58c82546119cd565b9055808b5260088752828b20610afc8c82546119cd565b90557f05c19247c4d7e36288ac938dfcaee5d067b3234d6c839f277108f1c63a886e2d8784518d8152a35b8080519586958652850152830190611a3f565b0390a380f35b610b4d919294935061182d565b610b5b579085908838610aa7565b8780fd5b87513d84823e3d90fd5b505050610b3a907fb1e312a29937cc11967b0e4a346fef1ae132424ebaba9dc6d90249dba053e87c94610b27565b8380fd5b88516368692cbb60e11b815280850191909152fd5b84915089519163042784cf60e31b8352820152fd5b95945095509550505082360312610c12578b5190610be2826118c2565b82359089821682036107db57828d928f945282850135838201528152019101878f938f938f90918f948d93610924565b8e80fd5b82604186634e487b7160e01b600052526000fd5b8b80fd5b8c80fd5b8a80fd5b83516335fdcccd60e21b81523381880152602490fd5b8580fd5b8480fd5b50903461022a578260031936011261022a57600154916001600160a01b03918284163303610cbf57505082546001600160a01b03198082163390811786559316600155167f8be0079c531659141344cd1fd0a4f28419497f9722a3daafe3b4186f6b6457e08380a380f35b906020606492519162461bcd60e51b8352820152601660248201527526bab9ba10313290383937b837b9b2b21037bbb732b960511b6044820152fd5b5050346102665760203660031901126102665760ff816020936001600160401b03610d246117c6565b1681526003855220541690519015158152f35b5050346102665760203660031901126102665760209181906001600160a01b03610d5f6117f2565b1681526007845220549051908152f35b505034610266578160031936011261026657517f00000000000000000000000000000000000000000000000000000000000000006001600160a01b03168152602090f35b5050346102665760203660031901126102665760209160ff9082906001600160a01b03610dde6117f2565b1681526005855220541690519015158152f35b50903461022a57602036600319011261022a57610e0c6117f2565b610e1461197b565b47918215610e85578480808086865af13d15610e80573d610e3481611919565b90610e41845192836118f8565b81528660203d92013e5b15610e54578480f35b51639d11f56360e01b815233938101939093526001600160a01b03166024830152604482015260649150fd5b610e4b565b51630686827b60e51b81528390fd5b50919034610266576020908160031936011261022a5783359182156110355781516370a0823160e01b81523381870152947f00000000000000000000000000000000000000000000000000000000000000006001600160a01b03168287602481845afa96871561102b578697610ffc575b50848710610fe057859650803b15610c4c57835163079cc67960e41b81523392810192835260208301869052918691839182908490829060400103925af18015610fd657908591610fc2575b50507f4102a35a4f5895f4f03dcb408ea79ba8e7a4efc879b0490e354f3d7706b8679e913385526007825280852080548580821015610f98575b505050519283523392a380f35b610fa1916119f0565b905533855260088252808520610fb88582546119f0565b9055388085610f8b565b610fcb9061182d565b6105d8578338610f51565b83513d87823e3d90fd5b6044828887875192632675e5cb60e11b84528301526024820152fd5b9096508281813d8311611024575b61101481836118f8565b810103126107db57519538610f05565b503d61100a565b84513d88823e3d90fd5b8151631f2a200560e01b81528590fd5b50903461022a578060031936011261022a5781356110616117dc565b916001600160401b0390818416948587526020906003825260ff8389205416156114fb5784156114ed5782516370a0823160e01b815233828201526001600160a01b0396907f00000000000000000000000000000000000000000000000000000000000000008816908481602481855afa908115611407578b916114c0575b508781106114a45750888a526006845287858b20541690811561148d57808b913b1561026657865163079cc67960e41b815233868201908152602081018b9052909291839182908490829060400103925af180156114075761147a575b50338a5260078452848a2080548880821015611467575b50505061117e855161116581611856565b33815288868201526003878201528a6060820152611b54565b6111ab6111b98751928488850152878452611198846118c2565b885192839189808401528a830190611a3f565b03601f1981018352826118f8565b86516111c481611871565b600081526111e188516111d681611871565b62030d408152611b30565b918851936111ee8561188c565b845287840152878301528b6060830152608082015288600254168651936320487ded60e01b855286858061122586858b8401611a64565b0381855afa94851561145d578d9561142e575b5047851161141157918695949392916112679792858a51809a819582946396f4e9f960e01b84528b8401611a64565b03925af194851561140757908a92918c966113aa575b5086516001600160a01b0391909116815260208101919091527f0d8b3b16873eb7e8f62a6a78b74c48fd5d7308948ec7bfd2ce5ea41993c9c6c69661139c939092909186907fc719305561d67ce0f33f6141666cb519400a008b914496fa679a571eaae119ca90604090a38a824616998a8c8951956112fb876118a7565b3387528887018d81528b88019384526060880192835260808801944286528c60a08a01978089528d815260098d52209851166bffffffffffffffffffffffff60a01b895416178855516001880155600287019251166fffffffffffffffff0000000000000000835492518c1b16916fffffffffffffffffffffffffffffffff19161717905551600384015551151591019060ff801983541691151516179055565b82519485528401523392a480f35b85809295939750819994503d8311611400575b6113c781836118f8565b81010312610c325795519095909390918991907f0d8b3b16873eb7e8f62a6a78b74c48fd5d7308948ec7bfd2ce5ea41993c9c6c661127d565b503d6113bd565b86513d8d823e3d90fd5b8751634787a10360e11b8152478188015260248101869052604490fd5b9094508681813d8311611456575b61144681836118f8565b810103126107db57519338611238565b503d61143c565b88513d8f823e3d90fd5b611470916119f0565b9055388088611154565b611486909a919a61182d565b983861113d565b855163206abad760e01b81528085018b9052602490fd5b8360449189885192632675e5cb60e11b84528301526024820152fd5b90508481813d83116114e6575b6114d781836118f8565b81010312610c325751386110e0565b503d6114cd565b8251631f2a200560e01b8152fd5b825163206abad760e01b8152908101879052602490fd5b503461022a57602036600319011261022a578160209360ff926001600160401b0361153b6117c6565b168252855220541690519015158152f35b509190346102665780600319360112610266576115676117f2565b90611570611808565b61157861197b565b81516370a0823160e01b8152308682015260209390916001600160a01b0316908483602481855afa92831561102b57869361164b575b50821561163b57835163a9059cbb60e01b81526001600160a01b03909116968101968752602087019290925293949093839185919082908890829060400103925af19081156116325750611600578280f35b81813d831161162b575b61161481836118f8565b810103126102665751801515036102ee5738808280f35b503d61160a565b513d85823e3d90fd5b8351630686827b60e51b81528790fd5b9092508481813d8311611673575b61166381836118f8565b81010312610c4c575191386115ae565b503d611659565b505034610266576020366003190112610266576020916001600160401b036116a06117c6565b168152600683528190205490516001600160a01b039091168152f35b505034610266578160031936011261026657602090516001600160401b037f0000000000000000000000000000000000000000000000000000000000000000168152f35b503461022a57602036600319011261022a578160c0938235815260096020522060018060a01b038154169260018201549260ff60028401549160038501549401541693825195865260208601526001600160401b0391828216818701521c1660608401526080830152151560a0820152f35b9250503461022a57602036600319011261022a573563ffffffff60e01b811680910361022a57602092506385572ffb60e01b81149081156117b5575b5015158152f35b6301ffc9a760e01b149050386117ae565b600435906001600160401b03821682036107db57565b602435906001600160401b03821682036107db57565b600435906001600160a01b03821682036107db57565b602435906001600160a01b03821682036107db57565b6024359081151582036107db57565b6001600160401b03811161184057604052565b634e487b7160e01b600052604160045260246000fd5b608081019081106001600160401b0382111761184057604052565b602081019081106001600160401b0382111761184057604052565b60a081019081106001600160401b0382111761184057604052565b60c081019081106001600160401b0382111761184057604052565b604081019081106001600160401b0382111761184057604052565b606081019081106001600160401b0382111761184057604052565b90601f801991011681019081106001600160401b0382111761184057604052565b6001600160401b03811161184057601f01601f191660200190565b81601f820112156107db5780359061194b82611919565b9261195960405194856118f8565b828452602083830101116107db57816000926020809301838601378301015290565b6000546001600160a01b0316330361198f57565b60405162461bcd60e51b815260206004820152601660248201527527b7363c9031b0b63630b1363290313c9037bbb732b960511b6044820152606490fd5b919082018092116119da57565b634e487b7160e01b600052601160045260246000fd5b919082039182116119da57565b908160209103126107db57516001600160a01b03811681036107db5790565b60005b838110611a2f5750506000910152565b8181015183820152602001611a1f565b90602091611a5881518092818552858086019101611a1c565b601f01601f1916010190565b906001600160401b039093929316815260406020918183820152611a93855160a08484015260e0830190611a3f565b91611aaf8487015193603f199485858303016060860152611a3f565b8187015194848483030160808501528080875193848152019601926000905b838210611b0757505050505060c06080611b04959660018060a01b0360608201511660a085015201519282850301910152611a3f565b90565b845180516001600160a01b03168952830151888401529687019693820193600190910190611ace565b604051906397a657c960e01b602083015251602482015260248152611b04816118dd565b8051604051919291906001600160a01b0316611b6f826118c2565b601082526020936f181899199a1a9b1b9c1cb0b131b232b360811b8584015260405192611b9b846118dd565b602a8452858401926040368537845115611d535760308453845191600192831015611d53576078602187015360005b60148110611c8c57505050509160239183611c7d87611bf2611c2c9899611b04980151611ed2565b92611c196001600160401b036060611c1060ff604086015116611ed2565b93015116611ed2565b94604051998a97518092858a0190611a1c565b860193600b60fa1b948584820152611c4d8251809386602185019101611a1c565b01846021820152611c678251809385602285019101611a1c565b0192602284015283519384918785019101611a1c565b010360038101845201826118f8565b600c81018082116119da5789811015611d535783901a60046001600160f81b0319600f81611cbe85851c831688611eb2565b51169385891b94600290878704821488151715611d3e57868201809211611d3e57611cf3611cfb9493928f9260001a92611eb2565b531686611eb2565b5116906003928301809311611d29575090611d1e611d24939260001a918a611eb2565b53611ec3565b611bca565b601190634e487b7160e01b6000525260246000fd5b601186634e487b7160e01b6000525260246000fd5b634e487b7160e01b600052603260045260246000fd5b6001600160401b038216916000908382526020906006825260018060a01b03604094818686205416968715611ea757916111ab611df4611dce8796948a9b96611e529b5191611db783611856565b3383528983015260038d8301526060820152611b54565b8a519587870152868652611de1866118c2565b8a5192839188808401528c830190611a3f565b8851611dff81611871565b878152611e108a516111d681611871565b918a5195611e1d8761188c565b865286860152898501528660608501526080840152600254169087518097819482936320487ded60e01b845260048401611a64565b03915afa938415611e9c57508193611e6b575b50505090565b9091809350813d8311611e95575b611e8381836118f8565b810103126102ee575051388080611e65565b503d611e79565b51913d9150823e3d90fd5b505050505091505090565b908151811015611d53570160200190565b60001981146119da5760010190565b8015611f8d5780816000925b611f79575080611eed83611919565b92611efb60405194856118f8565b808452601f19611f0a82611919565b01366020860137915b611f1c57505090565b60001982019182116119da5781600a808304928184029184830414841517156119da57611f4c60ff9283926119f0565b166030019081116119da5760f81b6001600160f81b03191660001a90611f729085611eb2565b5380611f13565b91611f85600a91611ec3565b920480611ede565b50604051611f9a816118c2565b60018152600360fc1b60208201529056fea26469706673582212206bff8aac822aaabf378df628b222aea9ba06f2f7d9553f8ee81490750833d6a164736f6c63430008140033604060808152346200048d5762001977803803806200001e8162000492565b92833981016060828203126200048d5781516001600160401b0391908281116200048d578162000050918501620004b8565b90602090818501518481116200048d5786916200006f918701620004b8565b9401516001600160a01b0380821695909490918690036200048d5783518181116200038d576003908154906001968783811c9316801562000482575b878410146200046c578190601f9384811162000416575b508790848311600114620003af57600092620003a3575b505060001982851b1c191690871b1782555b83519283116200038d5760049384548781811c9116801562000382575b878210146200036d57908183869594931162000313575b5086918411600114620002a8576000936200029c575b505082861b92600019911b1c19161781555b60058054336001600160a01b03198083168217909355885192969091167f8be0079c531659141344cd1fd0a4f28419497f9722a3daafe3b4186f6b6457e0600080a3856200019f575b865161144c90816200052b8239f35b856000526006835260ff8760002054166200025e57508460005260068252856000208360ff1982541617905560075492680100000000000000008410156200024957830180600755831015620002345750908391600760005260002001918254161790557f6ae172837ea30b801fbfcdd4108aa1d5bf8ff775444fd70256b44e6bf3dfc3f6600080a238808080808062000190565b603290634e487b7160e01b6000525260246000fd5b604182634e487b7160e01b6000525260246000fd5b828060649362461bcd60e51b845283015260248201527f4453433a204164647265737320697320616c72656164792061206d696e7465726044820152fd5b01519150388062000135565b9190879450601f1984169286600052876000209360005b89828210620002fc5750508511620002e1575b50505050811b01815562000147565b01519060f884600019921b161c1916905538808080620002d2565b8385015187558b98909601959384019301620002bf565b909192935085600052866000208380870160051c82019289881062000363575b918a918897969594930160051c01915b828110620003535750506200011f565b600081558796508a910162000343565b9250819262000333565b602286634e487b7160e01b6000525260246000fd5b90607f169062000108565b634e487b7160e01b600052604160045260246000fd5b015190503880620000d9565b90899350601f1983169186600052896000209260005b8b828210620003ff5750508411620003e6575b505050811b018255620000eb565b015160001983871b60f8161c19169055388080620003d8565b8385015186558d97909501949384019301620003c5565b90915084600052876000208480850160051c8201928a861062000462575b918b91869594930160051c01915b82811062000452575050620000c2565b600081558594508b910162000442565b9250819262000434565b634e487b7160e01b600052602260045260246000fd5b92607f1692620000ab565b600080fd5b6040519190601f01601f191682016001600160401b038111838210176200038d57604052565b919080601f840112156200048d5782516001600160401b0381116200038d57602090620004ee601f8201601f1916830162000492565b928184528282870101116200048d5760005b8181106200051657508260009394955001015290565b85810183015184820184015282016200050056fe6080604081815260048036101561001557600080fd5b600092833560e01c90816306fdde0314610d9757508063095ea7b314610d6d57806318160ddd14610d4e57806323b872dd14610ced5780633092afd514610b40578063313ce56714610b2457806332cb6b0c14610afd578063349f0b9014610ab25780633950935114610a6257806340c10f191461094157806342966c68146108be5780636b32810b146107f957806370a08231146107c2578063715018a61461076557806379cc6790146106905780638da5cb5b1461066757806395d89b4114610563578063983b2d5614610434578063a457c2d714610390578063a9059cbb1461033f578063aa271e1a14610301578063aa2fe91b14610301578063c7d77ee5146102c1578063c8e24a2d14610286578063dd62ed3e1461023d578063eed319861461021a5763f2fde38b1461014c57600080fd5b3461021657602036600319011261021657610165610ed6565b9061016e610f54565b6001600160a01b039182169283156101c4575050600554826bffffffffffffffffffffffff60a01b821617600555167f8be0079c531659141344cd1fd0a4f28419497f9722a3daafe3b4186f6b6457e08380a380f35b906020608492519162461bcd60e51b8352820152602660248201527f4f776e61626c653a206e6577206f776e657220697320746865207a65726f206160448201526564647265737360d01b6064820152fd5b8280fd5b5050346102395781600319360112610239576020906007549051908152f35b5080fd5b5050346102395780600319360112610239578060209261025b610ed6565b610263610ef1565b6001600160a01b0391821683526001865283832091168252845220549051908152f35b5091346102be5760203660031901126102be57506b033b2e3c9fd0803ce80000006102b660209335600254610fe4565b119051908152f35b80fd5b50346102165760203660031901126102165735916007548310156102be57506102eb602092610f07565b905491519160018060a01b039160031b1c168152f35b5050346102395760203660031901126102395760209160ff9082906001600160a01b0361032c610ed6565b1681526006855220541690519015158152f35b5091346102be57816003193601126102be575061035a610ed6565b916001600160a01b03831615610382575061037b60209260243590336112a8565b5160018152f35b9051638d6d24fb60e01b8152fd5b5082346102be57826003193601126102be576103aa610ed6565b918360243592338152600160205281812060018060a01b03861682526020522054908282106103e35760208561037b8585038733611007565b608490602086519162461bcd60e51b8352820152602560248201527f45524332303a2064656372656173656420616c6c6f77616e63652062656c6f77604482015264207a65726f60d81b6064820152fd5b5091903461023957602036600319011261023957610450610ed6565b610458610f54565b6001600160a01b03811691821561055457828452600660205260ff81852054166105125782845260066020528320805460ff19166001179055600754680100000000000000008110156104ff57906104b98260016104d89401600755610f07565b90919082549060031b9160018060a01b03809116831b921b1916179055565b7f6ae172837ea30b801fbfcdd4108aa1d5bf8ff775444fd70256b44e6bf3dfc3f68280a280f35b634e487b7160e01b845260418552602484fd5b5162461bcd60e51b8152602081860181905260248201527f4453433a204164647265737320697320616c72656164792061206d696e7465726044820152606490fd5b51638d6d24fb60e01b81528490fd5b50919034610239578160031936011261023957805191809380549160019083821c9282851694851561065d575b602095868610811461064a5785895290811561062657506001146105ce575b6105ca87876105c0828c0383610fac565b5191829182610e8d565b0390f35b81529295507f8a35acfbc15ff81a39ae7d344fd709f28e8600b4aa8c65c6b64bfe7fe36bd19b5b82841061061357505050826105ca946105c0928201019438806105af565b80548685018801529286019281016105f5565b60ff19168887015250505050151560051b83010192506105c0826105ca38806105af565b634e487b7160e01b845260228352602484fd5b93607f1693610590565b50503461023957816003193601126102395760055490516001600160a01b039091168152602090f35b50346102165781600319360112610216576106a9610ed6565b9160243592338552600660205260ff828620541615610757576001600160a01b03811692831561074957841561073b578386528560205282862054851161072d575083610700916106fb823383611210565b611109565b519182527f08009940fb138ae33fbb70c10b643e840c71f1654344cc173975a815e117e68760203393a380f35b8251631c39aad360e01b8152fd5b825163f9389b3360e01b8152fd5b8251638d6d24fb60e01b8152fd5b5051634e0dc0cf60e11b8152fd5b83346102be57806003193601126102be5761077e610f54565b600580546001600160a01b0319811690915581906001600160a01b03167f8be0079c531659141344cd1fd0a4f28419497f9722a3daafe3b4186f6b6457e08280a380f35b5050346102395760203660031901126102395760209181906001600160a01b036107ea610ed6565b16815280845220549051908152f35b8284346102be57806003193601126102be579080519182906007549182855260208095018093600784527fa66cc928b5edb82af9bd49922954155ab7b0942694bea4ce44661d9a8736c68890845b8181106108a1575050508161085d910382610fac565b83519485948186019282875251809352850193925b82811061088157505050500390f35b83516001600160a01b031685528695509381019392810192600101610872565b82546001600160a01b031684529288019260019283019201610847565b509034610216576020366003190112610216578135918215610933573384528360205281842054831161092557506108f68233611109565b5190815233907f08009940fb138ae33fbb70c10b643e840c71f1654344cc173975a815e117e68760203392a380f35b9051631c39aad360e01b8152fd5b905163f9389b3360e01b8152fd5b503461021657816003193601126102165761095a610ed6565b9160243592338552600660205260ff828620541615610757576001600160a01b031691821561038257831561093357600254906b033b2e3c9fd0803ce80000006109a48684610fe4565b11610a1f5750836109b491610fe4565b6002558184528360205280842083815401905581847fddf252ad1be2c89b69c2b068fc378daa952ba7f163c4a11628f55a4df523b3ef60208451878152a3519182527f969cd201f68f120baff2bf3c59bc3b534434e08b69a71a14ab85cb79cd3b63e460203393a380f35b606490602084519162461bcd60e51b8352820152601760248201527f4453433a2045786365656473206d617820737570706c790000000000000000006044820152fd5b50503461023957806003193601126102395761037b602092610aab610a85610ed6565b338352600186528483206001600160a01b03821684528652918490205460243590610fe4565b9033611007565b50919034610239578160031936011261023957600254916b033b2e3c9fd0803ce8000000928303928311610aea576020838351908152f35b634e487b7160e01b815260118452602490fd5b505034610239578160031936011261023957602090516b033b2e3c9fd0803ce80000008152f35b5050346102395781600319360112610239576020905160128152f35b5082903461023957602036600319011261023957610b5c610ed6565b92610b65610f54565b6001600160a01b03938416908115610cde57818452600660205260ff818520541615610c9c5781845260066020528320805460ff19169055825b6007805480831015610c905790869184610bb885610f07565b949054600395861b1c1614610bee575050506000198114610bdb57600101610b9f565b634e487b7160e01b845260118352602484fd5b9194909395969260001992838101908111610c7d57906104b985610c14610c2194610f07565b9054908a1b1c1691610f07565b8354908115610c6a57500192610c3684610f07565b81939154921b1b19169055555b7fe94479a9f7e1952cc78f2d6baab678adc1b772d936c6583def489e524cb666928280a280f35b634e487b7160e01b885260319052602487fd5b634e487b7160e01b895260118352602489fd5b50505091925050610c43565b5162461bcd60e51b8152602081840152601c60248201527f4453433a2041646472657373206973206e6f742061206d696e746572000000006044820152606490fd5b51638d6d24fb60e01b81529050fd5b5091346102be5760603660031901126102be5750610d09610ed6565b610d11610ef1565b604435939091906001600160a01b03831615610d4057509261037b91602094610d3b833383611210565b6112a8565b8351638d6d24fb60e01b8152fd5b5050346102395781600319360112610239576020906002549051908152f35b50503461023957806003193601126102395760209061037b610d8d610ed6565b6024359033611007565b9291905034610e895783600319360112610e8957600354600181811c9186908281168015610e7f575b6020958686108214610e6c5750848852908115610e4a5750600114610df1575b6105ca86866105c0828b0383610fac565b929550600383527fc2575a0e9e593c00f959f8c92f12db2869c3395a3b0502d05e2516446f71f85b5b828410610e3757505050826105ca946105c0928201019438610de0565b8054868501880152928601928101610e1a565b60ff191687860152505050151560051b83010192506105c0826105ca38610de0565b634e487b7160e01b845260229052602483fd5b93607f1693610dc0565b8380fd5b6020808252825181830181905290939260005b828110610ec257505060409293506000838284010152601f8019910116010190565b818101860151848201604001528501610ea0565b600435906001600160a01b0382168203610eec57565b600080fd5b602435906001600160a01b0382168203610eec57565b600754811015610f3e5760076000527fa66cc928b5edb82af9bd49922954155ab7b0942694bea4ce44661d9a8736c6880190600090565b634e487b7160e01b600052603260045260246000fd5b6005546001600160a01b03163303610f6857565b606460405162461bcd60e51b815260206004820152602060248201527f4f776e61626c653a2063616c6c6572206973206e6f7420746865206f776e65726044820152fd5b90601f8019910116810190811067ffffffffffffffff821117610fce57604052565b634e487b7160e01b600052604160045260246000fd5b91908201809211610ff157565b634e487b7160e01b600052601160045260246000fd5b6001600160a01b039081169182156110b857169182156110685760207f8c5be1e5ebec7d5bd14f71427d1e84f3dd0314c0f7b2291e5b200ac8c7c3b925918360005260018252604060002085600052825280604060002055604051908152a3565b60405162461bcd60e51b815260206004820152602260248201527f45524332303a20617070726f766520746f20746865207a65726f206164647265604482015261737360f01b6064820152608490fd5b60405162461bcd60e51b8152602060048201526024808201527f45524332303a20617070726f76652066726f6d20746865207a65726f206164646044820152637265737360e01b6064820152608490fd5b6001600160a01b031680156111c15760009181835282602052604083205481811061117157817fddf252ad1be2c89b69c2b068fc378daa952ba7f163c4a11628f55a4df523b3ef926020928587528684520360408620558060025403600255604051908152a3565b60405162461bcd60e51b815260206004820152602260248201527f45524332303a206275726e20616d6f756e7420657863656564732062616c616e604482015261636560f01b6064820152608490fd5b60405162461bcd60e51b815260206004820152602160248201527f45524332303a206275726e2066726f6d20746865207a65726f206164647265736044820152607360f81b6064820152608490fd5b9060018060a01b0380831660005260016020526040600020908216600052602052604060002054926000198403611248575b50505050565b8084106112635761125a930391611007565b38808080611242565b60405162461bcd60e51b815260206004820152601d60248201527f45524332303a20696e73756666696369656e7420616c6c6f77616e63650000006044820152606490fd5b6001600160a01b039081169182156113c357169182156113725760008281528060205260408120549180831061131e57604082827fddf252ad1be2c89b69c2b068fc378daa952ba7f163c4a11628f55a4df523b3ef958760209652828652038282205586815220818154019055604051908152a3565b60405162461bcd60e51b815260206004820152602660248201527f45524332303a207472616e7366657220616d6f756e7420657863656564732062604482015265616c616e636560d01b6064820152608490fd5b60405162461bcd60e51b815260206004820152602360248201527f45524332303a207472616e7366657220746f20746865207a65726f206164647260448201526265737360e81b6064820152608490fd5b60405162461bcd60e51b815260206004820152602560248201527f45524332303a207472616e736665722066726f6d20746865207a65726f206164604482015264647265737360d81b6064820152608490fdfea2646970667358221220b95e14fdd8395b6c676b01b7ef23b52e6d1e2881d70a5b4a61abe55dc0f6dcf364736f6c63430008140033",
  "linkReferences": {},
  "deployedLinkReferences": {}
}