{
  "_format": "hh-sol-artifact-1",
  "contractName": "Minter",
  "sourceName": "contracts/Minter.sol",
  "abi": [
    {
      "inputs": [
        {
          "internalType": "address",
          "name": "_router",
          "type": "address"
        },
        {
          "internalType": "uint64",
          "name": "_mainRouterChainSelector",
          "type": "uint64"
        },
        {
          "internalType": "address",
          "name": "_mainRouterAddress",
          "type": "address"
        },
        {
          "internalType": "string",
          "name": "_dscName",
          "type": "string"
        },
        {
          "internalType": "string",
          "name": "_dscSymbol",
          "type": "string"
        }
      ],
      "stateMutability": "nonpayable",
      "type": "constructor"
    },
    {
      "inputs": [
        {
          "internalType": "uint64",
          "name": "destinationChainSelector",
          "type": "uint64"
        }
      ],
      "name": "DestinationChainNotAllowed",
      "type": "error"
    },
    {
      "inputs": [
        {
          "internalType": "address",
          "name": "owner",
          "type": "address"
        },
        {
          "internalType": "address",
          "name": "target",
          "type": "address"
        },
        {
          "internalType": "uint256",
          "name": "value",
          "type": "uint256"
        }
      ],
      "name": "FailedToWithdrawEth",
      "type": "error"
    },
    {
      "inputs": [
        {
          "internalType": "uint256",
          "name": "required",
          "type": "uint256"
        },
        {
          "internalType": "uint256",
          "name": "available",
          "type": "uint256"
        }
      ],
      "name": "InsufficientDSCBalance",
      "type": "error"
    },
    {
      "inputs": [],
      "name": "InvalidBurnAndMintRequest",
      "type": "error"
    },
    {
      "inputs": [
        {
          "internalType": "address",
          "name": "router",
          "type": "address"
        }
      ],
      "name": "InvalidRouter",
      "type": "error"
    },
    {
      "inputs": [
        {
          "internalType": "uint256",
          "name": "currentBalance",
          "type": "uint256"
        },
        {
          "internalType": "uint256",
          "name": "calculatedFees",
          "type": "uint256"
        }
      ],
      "name": "NotEnoughBalance",
      "type": "error"
    },
    {
      "inputs": [],
      "name": "NothingToWithdraw",
      "type": "error"
    },
    {
      "inputs": [
        {
          "internalType": "address",
          "name": "sender",
          "type": "address"
        }
      ],
      "name": "SenderNotAllowed",
      "type": "error"
    },
    {
      "inputs": [
        {
          "internalType": "uint64",
          "name": "sourceChainSelector",
          "type": "uint64"
        }
      ],
      "name": "SourceChainNotAllowed",
      "type": "error"
    },
    {
      "inputs": [
        {
          "internalType": "address",
          "name": "caller",
          "type": "address"
        }
      ],
      "name": "UnauthorizedBurn",
      "type": "error"
    },
    {
      "inputs": [
        {
          "internalType": "address",
          "name": "caller",
          "type": "address"
        }
      ],
      "name": "UnauthorizedMint",
      "type": "error"
    },
    {
      "inputs": [],
      "name": "ZeroAddress",
      "type": "error"
    },
    {
      "inputs": [],
      "name": "ZeroAmount",
      "type": "error"
    },
    {
      "anonymous": false,
      "inputs": [
        {
          "indexed": true,
          "internalType": "address",
          "name": "user",
          "type": "address"
        },
        {
          "indexed": false,
          "internalType": "uint256",
          "name": "amount",
          "type": "uint256"
        },
        {
          "indexed": true,
          "internalType": "uint64",
          "name": "sourceChain",
          "type": "uint64"
        },
        {
          "indexed": false,
          "internalType": "bytes32",
          "name": "messageId",
          "type": "bytes32"
        }
      ],
      "name": "CrossChainSwapCompleted",
      "type": "event"
    },
    {
      "anonymous": false,
      "inputs": [
        {
          "indexed": true,
          "internalType": "address",
          "name": "user",
          "type": "address"
        },
        {
          "indexed": false,
          "internalType": "uint256",
          "name": "amount",
          "type": "uint256"
        },
        {
          "indexed": true,
          "internalType": "uint64",
          "name": "sourceChain",
          "type": "uint64"
        },
        {
          "indexed": true,
          "internalType": "uint64",
          "name": "destinationChain",
          "type": "uint64"
        },
        {
          "indexed": false,
          "internalType": "bytes32",
          "name": "messageId",
          "type": "bytes32"
        }
      ],
      "name": "CrossChainSwapInitiated",
      "type": "event"
    },
    {
      "anonymous": false,
      "inputs": [
        {
          "indexed": true,
          "internalType": "address",
          "name": "user",
          "type": "address"
        },
        {
          "indexed": false,
          "internalType": "uint256",
          "name": "amount",
          "type": "uint256"
        },
        {
          "indexed": true,
          "internalType": "bytes32",
          "name": "messageId",
          "type": "bytes32"
        }
      ],
      "name": "DSCBurned",
      "type": "event"
    },
    {
      "anonymous": false,
      "inputs": [
        {
          "indexed": true,
          "internalType": "address",
          "name": "user",
          "type": "address"
        },
        {
          "indexed": false,
          "internalType": "uint256",
          "name": "amount",
          "type": "uint256"
        },
        {
          "indexed": true,
          "internalType": "bytes32",
          "name": "messageId",
          "type": "bytes32"
        }
      ],
      "name": "DSCMinted",
      "type": "event"
    },
    {
      "anonymous": false,
      "inputs": [
        {
          "indexed": true,
          "internalType": "bytes32",
          "name": "messageId",
          "type": "bytes32"
        },
        {
          "indexed": true,
          "internalType": "uint64",
          "name": "sourceChainSelector",
          "type": "uint64"
        },
        {
          "indexed": false,
          "internalType": "address",
          "name": "sender",
          "type": "address"
        },
        {
          "indexed": false,
          "internalType": "string",
          "name": "message",
          "type": "string"
        }
      ],
      "name": "MessageReceived",
      "type": "event"
    },
    {
      "anonymous": false,
      "inputs": [
        {
          "indexed": true,
          "internalType": "bytes32",
          "name": "messageId",
          "type": "bytes32"
        },
        {
          "indexed": true,
          "internalType": "uint64",
          "name": "destinationChainSelector",
          "type": "uint64"
        },
        {
          "indexed": false,
          "internalType": "address",
          "name": "receiver",
          "type": "address"
        },
        {
          "indexed": false,
          "internalType": "uint256",
          "name": "fees",
          "type": "uint256"
        }
      ],
      "name": "MessageSent",
      "type": "event"
    },
    {
      "anonymous": false,
      "inputs": [
        {
          "indexed": true,
          "internalType": "address",
          "name": "from",
          "type": "address"
        },
        {
          "indexed": true,
          "internalType": "address",
          "name": "to",
          "type": "address"
        }
      ],
      "name": "OwnershipTransferRequested",
      "type": "event"
    },
    {
      "anonymous": false,
      "inputs": [
        {
          "indexed": true,
          "internalType": "address",
          "name": "from",
          "type": "address"
        },
        {
          "indexed": true,
          "internalType": "address",
          "name": "to",
          "type": "address"
        }
      ],
      "name": "OwnershipTransferred",
      "type": "event"
    },
    {
      "inputs": [],
      "name": "MAIN_ROUTER_ADDRESS",
      "outputs": [
        {
          "internalType": "address",
          "name": "",
          "type": "address"
        }
      ],
      "stateMutability": "view",
      "type": "function"
    },
    {
      "inputs": [],
      "name": "MAIN_ROUTER_CHAIN_SELECTOR",
      "outputs": [
        {
          "internalType": "uint64",
          "name": "",
          "type": "uint64"
        }
      ],
      "stateMutability": "view",
      "type": "function"
    },
    {
      "inputs": [],
      "name": "acceptOwnership",
      "outputs": [],
      "stateMutability": "nonpayable",
      "type": "function"
    },
    {
      "inputs": [
        {
          "internalType": "uint64",
          "name": "_destinationChainSelector",
          "type": "uint64"
        },
        {
          "internalType": "bool",
          "name": "allowed",
          "type": "bool"
        }
      ],
      "name": "allowlistDestinationChain",
      "outputs": [],
      "stateMutability": "nonpayable",
      "type": "function"
    },
    {
      "inputs": [
        {
          "internalType": "address",
          "name": "_sender",
          "type": "address"
        },
        {
          "internalType": "bool",
          "name": "allowed",
          "type": "bool"
        }
      ],
      "name": "allowlistSender",
      "outputs": [],
      "stateMutability": "nonpayable",
      "type": "function"
    },
    {
      "inputs": [
        {
          "internalType": "uint64",
          "name": "_sourceChainSelector",
          "type": "uint64"
        },
        {
          "internalType": "bool",
          "name": "allowed",
          "type": "bool"
        }
      ],
      "name": "allowlistSourceChain",
      "outputs": [],
      "stateMutability": "nonpayable",
      "type": "function"
    },
    {
      "inputs": [
        {
          "internalType": "uint64",
          "name": "",
          "type": "uint64"
        }
      ],
      "name": "allowlistedDestinationChains",
      "outputs": [
        {
          "internalType": "bool",
          "name": "",
          "type": "bool"
        }
      ],
      "stateMutability": "view",
      "type": "function"
    },
    {
      "inputs": [
        {
          "internalType": "address",
          "name": "",
          "type": "address"
        }
      ],
      "name": "allowlistedSenders",
      "outputs": [
        {
          "internalType": "bool",
          "name": "",
          "type": "bool"
        }
      ],
      "stateMutability": "view",
      "type": "function"
    },
    {
      "inputs": [
        {
          "internalType": "uint64",
          "name": "",
          "type": "uint64"
        }
      ],
      "name": "allowlistedSourceChains",
      "outputs": [
        {
          "internalType": "bool",
          "name": "",
          "type": "bool"
        }
      ],
      "stateMutability": "view",
      "type": "function"
    },
    {
      "inputs": [
        {
          "internalType": "uint256",
          "name": "amount",
          "type": "uint256"
        },
        {
          "internalType": "uint64",
          "name": "destinationChain",
          "type": "uint64"
        }
      ],
      "name": "burnAndMint",
      "outputs": [],
      "stateMutability": "nonpayable",
      "type": "function"
    },
    {
      "inputs": [
        {
          "internalType": "uint256",
          "name": "amount",
          "type": "uint256"
        }
      ],
      "name": "burnDSC",
      "outputs": [],
      "stateMutability": "nonpayable",
      "type": "function"
    },
    {
      "inputs": [
        {
          "components": [
            {
              "internalType": "bytes32",
              "name": "messageId",
              "type": "bytes32"
            },
            {
              "internalType": "uint64",
              "name": "sourceChainSelector",
              "type": "uint64"
            },
            {
              "internalType": "bytes",
              "name": "sender",
              "type": "bytes"
            },
            {
              "internalType": "bytes",
              "name": "data",
              "type": "bytes"
            },
            {
              "components": [
                {
                  "internalType": "address",
                  "name": "token",
                  "type": "address"
                },
                {
                  "internalType": "uint256",
                  "name": "amount",
                  "type": "uint256"
                }
              ],
              "internalType": "struct Client.EVMTokenAmount[]",
              "name": "destTokenAmounts",
              "type": "tuple[]"
            }
          ],
          "internalType": "struct Client.Any2EVMMessage",
          "name": "message",
          "type": "tuple"
        }
      ],
      "name": "ccipReceive",
      "outputs": [],
      "stateMutability": "nonpayable",
      "type": "function"
    },
    {
      "inputs": [
        {
          "internalType": "uint64",
          "name": "",
          "type": "uint64"
        }
      ],
      "name": "chainToMinter",
      "outputs": [
        {
          "internalType": "address",
          "name": "",
          "type": "address"
        }
      ],
      "stateMutability": "view",
      "type": "function"
    },
    {
      "inputs": [],
      "name": "dscToken",
      "outputs": [
        {
          "internalType": "contract DSC",
          "name": "",
          "type": "address"
        }
      ],
      "stateMutability": "view",
      "type": "function"
    },
    {
      "inputs": [
        {
          "internalType": "uint256",
          "name": "amount",
          "type": "uint256"
        },
        {
          "internalType": "uint64",
          "name": "destinationChain",
          "type": "uint64"
        }
      ],
      "name": "getBurnAndMintFee",
      "outputs": [
        {
          "internalType": "uint256",
          "name": "fee",
          "type": "uint256"
        }
      ],
      "stateMutability": "view",
      "type": "function"
    },
    {
      "inputs": [
        {
          "internalType": "address",
          "name": "user",
          "type": "address"
        }
      ],
      "name": "getDSCBalance",
      "outputs": [
        {
          "internalType": "uint256",
          "name": "",
          "type": "uint256"
        }
      ],
      "stateMutability": "view",
      "type": "function"
    },
    {
      "inputs": [
        {
          "internalType": "bytes32",
          "name": "messageId",
          "type": "bytes32"
        }
      ],
      "name": "getPendingSwap",
      "outputs": [
        {
          "components": [
            {
              "internalType": "address",
              "name": "user",
              "type": "address"
            },
            {
              "internalType": "uint256",
              "name": "amount",
              "type": "uint256"
            },
            {
              "internalType": "uint64",
              "name": "sourceChain",
              "type": "uint64"
            },
            {
              "internalType": "uint64",
              "name": "destinationChain",
              "type": "uint64"
            },
            {
              "internalType": "uint256",
              "name": "timestamp",
              "type": "uint256"
            },
            {
              "internalType": "bool",
              "name": "completed",
              "type": "bool"
            }
          ],
          "internalType": "struct Minter.SwapRequest",
          "name": "",
          "type": "tuple"
        }
      ],
      "stateMutability": "view",
      "type": "function"
    },
    {
      "inputs": [],
      "name": "getRouter",
      "outputs": [
        {
          "internalType": "address",
          "name": "",
          "type": "address"
        }
      ],
      "stateMutability": "view",
      "type": "function"
    },
    {
      "inputs": [
        {
          "internalType": "address",
          "name": "user",
          "type": "address"
        }
      ],
      "name": "getUserBorrowedAmount",
      "outputs": [
        {
          "internalType": "uint256",
          "name": "",
          "type": "uint256"
        }
      ],
      "stateMutability": "view",
      "type": "function"
    },
    {
      "inputs": [
        {
          "internalType": "address",
          "name": "user",
          "type": "address"
        }
      ],
      "name": "getUserTotalBorrowed",
      "outputs": [
        {
          "internalType": "uint256",
          "name": "",
          "type": "uint256"
        }
      ],
      "stateMutability": "view",
      "type": "function"
    },
    {
      "inputs": [
        {
          "internalType": "address",
          "name": "user",
          "type": "address"
        },
        {
          "internalType": "uint256",
          "name": "amount",
          "type": "uint256"
        }
      ],
      "name": "mintDSC",
      "outputs": [],
      "stateMutability": "nonpayable",
      "type": "function"
    },
    {
      "inputs": [],
      "name": "owner",
      "outputs": [
        {
          "internalType": "address",
          "name": "",
          "type": "address"
        }
      ],
      "stateMutability": "view",
      "type": "function"
    },
    {
      "inputs": [
        {
          "internalType": "bytes32",
          "name": "",
          "type": "bytes32"
        }
      ],
      "name": "pendingSwaps",
      "outputs": [
        {
          "internalType": "address",
          "name": "user",
          "type": "address"
        },
        {
          "internalType": "uint256",
          "name": "amount",
          "type": "uint256"
        },
        {
          "internalType": "uint64",
          "name": "sourceChain",
          "type": "uint64"
        },
        {
          "internalType": "uint64",
          "name": "destinationChain",
          "type": "uint64"
        },
        {
          "internalType": "uint256",
          "name": "timestamp",
          "type": "uint256"
        },
        {
          "internalType": "bool",
          "name": "completed",
          "type": "bool"
        }
      ],
      "stateMutability": "view",
      "type": "function"
    },
    {
      "inputs": [
        {
          "internalType": "uint64",
          "name": "_chainSelector",
          "type": "uint64"
        },
        {
          "internalType": "address",
          "name": "_minterAddress",
          "type": "address"
        }
      ],
      "name": "setChainMinter",
      "outputs": [],
      "stateMutability": "nonpayable",
      "type": "function"
    },
    {
      "inputs": [
        {
          "internalType": "bytes4",
          "name": "interfaceId",
          "type": "bytes4"
        }
      ],
      "name": "supportsInterface",
      "outputs": [
        {
          "internalType": "bool",
          "name": "",
          "type": "bool"
        }
      ],
      "stateMutability": "view",
      "type": "function"
    },
    {
      "inputs": [
        {
          "internalType": "address",
          "name": "to",
          "type": "address"
        }
      ],
      "name": "transferOwnership",
      "outputs": [],
      "stateMutability": "nonpayable",
      "type": "function"
    },
    {
      "inputs": [
        {
          "internalType": "address",
          "name": "",
          "type": "address"
        }
      ],
      "name": "userBorrowedAmounts",
      "outputs": [
        {
          "internalType": "uint256",
          "name": "",
          "type": "uint256"
        }
      ],
      "stateMutability": "view",
      "type": "function"
    },
    {
      "inputs": [
        {
          "internalType": "address",
          "name": "",
          "type": "address"
        }
      ],
      "name": "userTotalBorrowed",
      "outputs": [
        {
          "internalType": "uint256",
          "name": "",
          "type": "uint256"
        }
      ],
      "stateMutability": "view",
      "type": "function"
    },
    {
      "inputs": [
        {
          "internalType": "address",
          "name": "_beneficiary",
          "type": "address"
        }
      ],
      "name": "withdraw",
      "outputs": [],
      "stateMutability": "nonpayable",
      "type": "function"
    },
    {
      "inputs": [
        {
          "internalType": "address",
          "name": "_beneficiary",
          "type": "address"
        },
        {
          "internalType": "address",
          "name": "_token",
          "type": "address"
        }
      ],
      "name": "withdrawToken",
      "outputs": [],
      "stateMutability": "nonpayable",
      "type": "function"
    },
    {
      "stateMutability": "payable",
      "type": "receive"
    }
  ],
  "bytecode": "0x6101006040523461028557613b888038038061001a8161028a565b92833981019060a08183031261028557610033816102af565b602082015190926001600160401b0382169283830361028557610058604082016102af565b60608201519091906001600160401b038111610285578361007a9183016102e6565b60808201519093906001600160401b0381116102855761009a92016102e6565b6001600160a01b03861695909390861561026f57608052331561022a57600080546001600160a01b031916331790556001600160a01b03821695861561021957600280546001600160a01b03191691909117905560a05260c052604051916118ce91828401916001600160401b038311858410176102035761012e61013c9286956122ba8739606085526060850190610336565b908382036020850152610336565b9060403091015203906000f080156101f75760e05260005260046020526040600020600160ff1982541617905560005260056020526040600020600160ff198254161790553060005260056020526040600020600160ff19825416179055604051611f5e908161035c823960805181818161065f0152610844015260a0518161162a015260c0518181816104b50152610ca0015260e051818181610507015281816106a40152818161079201528181610ddd0152610fb50152f35b6040513d6000823e3d90fd5b634e487b7160e01b600052604160045260246000fd5b63d92e233d60e01b60005260046000fd5b60405162461bcd60e51b815260206004820152601860248201527f43616e6e6f7420736574206f776e657220746f207a65726f00000000000000006044820152606490fd5b6335fdcccd60e21b600052600060045260246000fd5b600080fd5b6040519190601f01601f191682016001600160401b0381118382101761020357604052565b51906001600160a01b038216820361028557565b60005b8381106102d65750506000910152565b81810151838201526020016102c6565b81601f820112156102855780516001600160401b03811161020357610314601f8201601f191660200161028a565b92818452602082840101116102855761033391602080850191016102c3565b90565b9060209161034f815180928185528580860191016102c3565b601f01601f191601019056fe608080604052600436101561001d575b50361561001b57600080fd5b005b600090813560e01c90816301ffc9a7146116c6575080630f57864e1461164e5780631ec3c4191461160a57806337c5dfb6146115c957806338b066f214610c515780633aeac4e11461149b5780634030d5211461145e578063421656c814610f5d5780634607506a1461022d5780634c1697b114610dac57806351cff8d914610d0e5780636159ada114610ccf578063643a33c314610c8a57806364db6ac214610c5157806375c67c6614610c1457806379ba509714610b6957806385572ffb146108105780638727bcaf1461074d5780638da5cb5b1461072657806396d3b83d146106d3578063a014c3d21461068e578063b0f479a114610649578063c61ff7b014610494578063c6c0e179146103b6578063d5f5a3951461033d578063db04fa49146102ea578063e555347e146102bb578063eab5b02c14610266578063eb084ad01461022d5763f2fde38b0361000f573461022a57602036600319011261022a57610189611747565b610191611b8e565b6001600160a01b03163381146101e557600180546001600160a01b0319168217905581546001600160a01b03167fed8889f560326eb138920d842192f0eb3dd22b4f139c87a2c57538e05bae12788380a380f35b60405162461bcd60e51b815260206004820152601760248201527f43616e6e6f74207472616e7366657220746f2073656c660000000000000000006044820152606490fd5b80fd5b503461022a57602036600319011261022a576020906040906001600160a01b03610255611747565b168152600883522054604051908152f35b503461022a57604036600319011261022a576102b8610283611747565b61028b611773565b90610294611b8e565b60018060a01b031683526005602052604083209060ff801983541691151516179055565b80f35b503461022a57604036600319011261022a5760206102e26102da611731565b600435611a47565b604051908152f35b503461022a57604036600319011261022a576102b861030761171b565b6001600160401b03610317611773565b91610320611b8e565b1683526004602052604083209060ff801983541691151516179055565b503461022a57604036600319011261022a5761035761171b565b6001600160401b0361036761175d565b91610370611b8e565b16908183526006602052604083209060018060a01b03166bffffffffffffffffffffffff60a01b8254161790558152600360205260408120600160ff1982541617905580f35b503461022a57602036600319011261022a5760408160c09260a083516103db816117e9565b82815282602082015282858201528260608201528260808201520152600435815260096020522060405161040e816117e9565b60018060a01b03825416918282526001600160401b03600182015460208401908152816002840154916040860190828416825282606088019460401c16845260a060ff600460038901549860808b01998a5201541697019615158752604051978852516020880152511660408601525116606084015251608083015251151560a0820152f35b503461022a57604036600319011261022a576104ae611747565b90602435337f00000000000000000000000000000000000000000000000000000000000000006001600160a01b0316141580610632575b61061f578015610610576001600160a01b0383169081156106015791928392907f00000000000000000000000000000000000000000000000000000000000000006001600160a01b0316803b156105fd576040516340c10f1960e01b81526001600160a01b039290921660048301526024820183905284908290604490829084905af19081156105f25784916105d5575b507f05c19247c4d7e36288ac938dfcaee5d067b3234d6c839f277108f1c63a886e2d91836020925260078252604085206105b18282546118dc565b905583855260088252604085206105c98282546118dc565b9055604051908152a380f35b906105df9161181f565b826000126105ee578238610576565b5050fd5b6040513d86823e3d90fd5b8480fd5b63d92e233d60e01b8352600483fd5b631f2a200560e01b8252600482fd5b637c4b7ccf60e01b825233600452602482fd5b50338252600560205260ff604083205416156104e5565b503461022a578060031936011261022a576040517f00000000000000000000000000000000000000000000000000000000000000006001600160a01b03168152602090f35b503461022a578060031936011261022a576040517f00000000000000000000000000000000000000000000000000000000000000006001600160a01b03168152602090f35b503461022a57604036600319011261022a576102b86106f061171b565b6001600160401b03610700611773565b91610709611b8e565b1683526003602052604083209060ff801983541691151516179055565b503461022a578060031936011261022a57546040516001600160a01b039091168152602090f35b503461022a57602036600319011261022a57610767611747565b6040516370a0823160e01b81526001600160a01b0391821660048201529190602090839060249082907f0000000000000000000000000000000000000000000000000000000000000000165afa90811561080457906107cc575b602090604051908152f35b506020813d6020116107fc575b816107e66020938361181f565b810103126107f757602090516107c1565b600080fd5b3d91506107d9565b604051903d90823e3d90fd5b503461022a57602036600319011261022a57600435906001600160401b03821161022a5760a0600319833603011261022a577f00000000000000000000000000000000000000000000000000000000000000006001600160a01b03163303610b56576040519061087f826117ce565b826004013582526024830135906001600160401b038216820361022a576020830191825260448401356001600160401b038111610ade576108c6906004369187010161187e565b926040810193845260648501356001600160401b038111610ada576108f1906004369188010161187e565b94606082019586526084810135906001600160401b038211610b52570136602382011215610ada576004810135610927816118c5565b91610935604051938461181f565b818352602060048185019360061b8301010190368211610b4e57602401915b818310610b065750505060808201526001600160401b03835116845161098a60018060a01b039160208082518301019101611be0565b1690808452600460205260ff60408520541615610af45750808352600560205260ff60408420541615610ae257506001600160401b03905192511692516109e160018060a01b039160208082518301019101611be0565b169351908151820191602081818501940312610ade576020810151906001600160401b038211610ada570182603f82011215610ade57602081015190610a2682611863565b93610a34604051958661181f565b82855260408284010111610ada57839291610a7791604060207fb1e312a29937cc11967b0e4a346fef1ae132424ebaba9dc6d90249dba053e87c970191016118e9565b806060604051610a8681611782565b8281528260208201528260408201520152806060604051610aa681611782565b828152826020820152826040820152015294610ad4604051928392835260406020840152604083019061190c565b0390a380f35b8280fd5b5080fd5b6368692cbb60e11b8352600452602482fd5b63042784cf60e31b8452600452602483fd5b604083360312610b4e57604051610b1c81611804565b83356001600160a01b0381168103610b4a579181604093602093528286013583820152815201920191610954565b8780fd5b8580fd5b8380fd5b6335fdcccd60e21b815233600452602490fd5b503461022a578060031936011261022a576001546001600160a01b0381163303610bd65781546001600160a01b031980821633908117855592166001556001600160a01b03167f8be0079c531659141344cd1fd0a4f28419497f9722a3daafe3b4186f6b6457e08380a380f35b60405162461bcd60e51b815260206004820152601660248201527526bab9ba10313290383937b837b9b2b21037bbb732b960511b6044820152606490fd5b503461022a57602036600319011261022a5760ff60406020926001600160401b03610c3d61171b565b168152600384522054166040519015158152f35b503461022a57602036600319011261022a576020906040906001600160a01b03610c79611747565b168152600783522054604051908152f35b503461022a578060031936011261022a576040517f00000000000000000000000000000000000000000000000000000000000000006001600160a01b03168152602090f35b503461022a57602036600319011261022a5760209060ff906040906001600160a01b03610cfa611747565b168152600584522054166040519015158152f35b503461022a57602036600319011261022a57610d28611747565b90610d31611b8e565b478015610d9d578180808084875af13d15610d98573d610d5081611863565b90610d5e604051928361181f565b81528360203d92013e5b15610d71575080f35b639d11f56360e01b8252336004526001600160a01b03909216602452604491909152606490fd5b610d68565b630686827b60e51b8252600482fd5b503461022a57602036600319011261022a57600435908115610f4e576040516370a0823160e01b81523360048201527f00000000000000000000000000000000000000000000000000000000000000006001600160a01b03169290602081602481875afa908115610efb578391610f1c575b50818110610f0657508282933b156105ee5760405163079cc67960e41b8152336004820152602481018390529083908290604490829084905af1908115610efb578391610ee3575b505033825260076020528060408320541015610eac575b6040519081527f4102a35a4f5895f4f03dcb408ea79ba8e7a4efc879b0490e354f3d7706b8679e60203392a380f35b338252600760205260408220610ec3828254611840565b9055338252600860205260408220610edc828254611840565b9055610e7d565b81610eed9161181f565b610ef8578138610e66565b50fd5b6040513d85823e3d90fd5b60449291632675e5cb60e11b8352600452602452fd5b90506020813d602011610f46575b81610f376020938361181f565b810103126107f7575138610e1e565b3d9150610f2a565b631f2a200560e01b8152600490fd5b503461022a57604036600319011261022a57600435610f7a611731565b6001600160401b03811691828452600360205260ff6040852054161561144a57801561143b576040516370a0823160e01b81523360048201527f00000000000000000000000000000000000000000000000000000000000000006001600160a01b03169290602081602481875afa90811561134a578691611409575b508281106113f25750838552600660205260408520546001600160a01b03169283156113de57803b15610b4e5760405163079cc67960e41b8152336004820152602481018490529086908290604490829084905af1801561134a576113ca575b50338552600760205281604086205410156113ac575b61109660405161107b81611782565b33815283602082015260036040820152856060820152611bff565b6110cb6110d960405192866020850152602084526110b560408561181f565b604051928391602080840152604083019061190c565b03601f19810183528261181f565b6110e1611931565b6110fb6040516110f0816117b3565b62030d408152611e10565b9160405193611109856117ce565b845260208401526040830152866060830152608082015260018060a01b0360025416604051926320487ded60e01b84526020848061114b868560048401611979565b0381855afa9384156113a157889461136d575b504784116113555791602091849361118c956040518097819582946396f4e9f960e01b845260048401611979565b03925af193841561134a57859287956112f1575b50604080516001600160a01b03929092168252602082019290925284917fc719305561d67ce0f33f6141666cb519400a008b914496fa679a571eaae119ca91a36001600160401b034616916112bd6040516111fa816117e9565b338152600460208201858152604083018781526060840190898252608085019142835260a08601938c8552888d52600960205260408d209660018060a01b039060018060a01b03905116166bffffffffffffffffffffffff60a01b8854161787555160018701556001600160401b03600287019251166fffffffffffffffff00000000000000008354925160401b16916fffffffffffffffffffffffffffffffff19161717905551600384015551151591019060ff801983541691151516179055565b60405191825260208201527f0d8b3b16873eb7e8f62a6a78b74c48fd5d7308948ec7bfd2ce5ea41993c9c6c660403392a480f35b92509093506020823d602011611342575b8161130f6020938361181f565b81010312610b4e5790519284917fc719305561d67ce0f33f6141666cb519400a008b914496fa679a571eaae119ca6111a0565b3d9150611302565b6040513d88823e3d90fd5b634787a10360e11b8852476004526024849052604488fd5b9093506020813d602011611399575b816113896020938361181f565b810103126107f75751923861115e565b3d915061137c565b6040513d8a823e3d90fd5b3385526007602052604085206113c3838254611840565b905561106c565b856113d79196929661181f565b9338611056565b63206abad760e01b86526004859052602486fd5b632675e5cb60e11b86526004839052602452604485fd5b90506020813d602011611433575b816114246020938361181f565b81010312610b4e575138610ff6565b3d9150611417565b631f2a200560e01b8452600484fd5b63206abad760e01b84526004839052602484fd5b503461022a57602036600319011261022a5760ff60406020926001600160401b0361148761171b565b168152600484522054166040519015158152f35b503461022a57604036600319011261022a576114b5611747565b6114bd61175d565b6114c5611b8e565b6040516370a0823160e01b8152306004820152916001600160a01b039190911690602083602481855afa9283156105f2578493611595575b5082156115865760405163a9059cbb60e01b81526001600160a01b0391909116600482015260248101929092526020908290604490829086905af1801561157b57611546575080f35b6020813d602011611573575b8161155f6020938361181f565b81010312610ade57518015150361022a5780f35b3d9150611552565b6040513d84823e3d90fd5b630686827b60e51b8452600484fd5b9092506020813d6020116115c1575b816115b16020938361181f565b81010312610b52575191386114fd565b3d91506115a4565b503461022a57602036600319011261022a576020906001600160401b036115ee61171b565b16815260068252604060018060a01b0391205416604051908152f35b503461022a578060031936011261022a5760206040516001600160401b037f0000000000000000000000000000000000000000000000000000000000000000168152f35b503461022a57602036600319011261022a57604060c091600435815260096020522060018060a01b03815416906001810154906001600160401b03600282015460ff6004600385015494015416936040519586526020860152818116604086015260401c1660608401526080830152151560a0820152f35b905034610ade576020366003190112610ade5760043563ffffffff60e01b8116809103610ada57602092506385572ffb60e01b811490811561170a575b5015158152f35b6301ffc9a760e01b14905038611703565b600435906001600160401b03821682036107f757565b602435906001600160401b03821682036107f757565b600435906001600160a01b03821682036107f757565b602435906001600160a01b03821682036107f757565b6024359081151582036107f757565b608081019081106001600160401b0382111761179d57604052565b634e487b7160e01b600052604160045260246000fd5b602081019081106001600160401b0382111761179d57604052565b60a081019081106001600160401b0382111761179d57604052565b60c081019081106001600160401b0382111761179d57604052565b604081019081106001600160401b0382111761179d57604052565b90601f801991011681019081106001600160401b0382111761179d57604052565b9190820391821161184d57565b634e487b7160e01b600052601160045260246000fd5b6001600160401b03811161179d57601f01601f191660200190565b81601f820112156107f75780359061189582611863565b926118a3604051948561181f565b828452602083830101116107f757816000926020809301838601378301015290565b6001600160401b03811161179d5760051b60200190565b9190820180921161184d57565b60005b8381106118fc5750506000910152565b81810151838201526020016118ec565b90602091611925815180928185528580860191016118e9565b601f01601f1916010190565b6040519061194060208361181f565b600080835282815b82811061195457505050565b60209060405161196381611804565b6000815260008382015282828501015201611948565b906001600160401b0390939293168152604060208201526119bf6119a9845160a0604085015260e084019061190c565b6020850151838203603f1901606085015261190c565b90604084015191603f198282030160808301526020808451928381520193019060005b818110611a1c575050506080611a19939460018060a01b0360608201511660a084015201519060c0603f198285030191015261190c565b90565b825180516001600160a01b0316865260209081015181870152604090950194909201916001016119e2565b6001600160401b0382169182600052600660205260018060a01b0360406000205416908115611b85576110cb611ad0611aa5602095611b349760405191611a8d83611782565b33835288830152600360408301526060820152611bff565b6040519486860152858552611abb60408661181f565b6040519283918780840152604083019061190c565b611ad8611931565b611ae76040516110f0816117b3565b9160405194611af5866117ce565b855285850152604084015260006060840152608083015260018060a01b0360025416906040518095819482936320487ded60e01b845260048401611979565b03915afa908115611b7957600091611b4a575090565b90506020813d602011611b71575b81611b656020938361181f565b810103126107f7575190565b3d9150611b58565b6040513d6000823e3d90fd5b50505050600090565b6000546001600160a01b03163303611ba257565b60405162461bcd60e51b815260206004820152601660248201527527b7363c9031b0b63630b1363290313c9037bbb732b960511b6044820152606490fd5b908160209103126107f757516001600160a01b03811681036107f75790565b8051604080519290916001600160a01b0316611c1b838561181f565b601084526f181899199a1a9b1b9c1cb0b131b232b360811b6020850152606090835194611c48838761181f565b602a86526020860191601f198401368437865115611dfa5760308353865160011015611dfa576078602188015360005b60148110611d4357505050611a19936001846020611cd69895839795611cc56001600160401b03611cac85889a0151611e47565b93611cbc60ff8a89015116611e47565b96015116611e47565b95519a8b98518092858b01906118e9565b8701600b60fa1b83820152611cf482518093856021850191016118e9565b0101600b60fa1b83820152611d138251809360206002850191016118e9565b0101600b60fa1b83820152611d328251809360206002850191016118e9565b01010301601f19810183528261181f565b600c810180821161184d576020811015611dfa5782901a6001600160f81b0319611d74600483901c600f1686611e36565b51168260011b908382046002148415171561184d5781600201908160021161184d57611da49060001a918c611e36565b536000916001600160f81b031990611dbf90600f1687611e36565b5116906003019182600311611de6576001939291611ddf911a918b611e36565b5301611c78565b634e487b7160e01b81526011600452602490fd5b634e487b7160e01b600052603260045260246000fd5b604051906397a657c960e01b602083015251602482015260248152611a1960448261181f565b908151811015611dfa570160200190565b8015611f085780816000925b611ef0575080611e6283611863565b92611e70604051948561181f565b808452601f19611e7f82611863565b01366020860137915b611e9157505090565b600019820191821161184d5781600a820491600a830290838204600a148415171561184d5760ff91611ec291611840565b1660300160ff811161184d5760f81b6001600160f81b03191660001a90611ee99085611e36565b5380611e88565b91600019811461184d576001600a9101920480611e53565b50604051611f1760408261181f565b60018152600360fc1b60208201529056fea2646970667358221220fd7ece8dc57e7dcf928cb70e98698d23eb84c85763e71fb68736ba311a67828064736f6c634300081c00336080604052346104a0576118ce80380380610019816104a5565b9283398101906060818303126104a05780516001600160401b0381116104a057826100459183016104ca565b60208201519092906001600160401b0381116104a0576040916100699184016104ca565b9101516001600160a01b038116908190036104a05782516001600160401b03811161027257600354600181811c91168015610496575b602082101461039f57601f8111610431575b506020601f82116001146103ca57819293946000926103bf575b50508160011b916000199060031b1c1916176003555b81516001600160401b03811161027257600454600181811c911680156103b5575b602082101461039f57601f811161033a575b50602092601f82116001146102d557928192936000926102ca575b50508160011b916000199060031b1c1916176004555b60058054336001600160a01b03198216811790925560405191906001600160a01b03167f8be0079c531659141344cd1fd0a4f28419497f9722a3daafe3b4186f6b6457e0600080a3816101a2575b60405161139890816105368239f35b81600052600660205260ff6040600020541661028857508060005260066020526040600020600160ff198254161790556007546801000000000000000081101561027257600181018060075581101561025c57600760009081527fa66cc928b5edb82af9bd49922954155ab7b0942694bea4ce44661d9a8736c6889190910180546001600160a01b031916831790557f6ae172837ea30b801fbfcdd4108aa1d5bf8ff775444fd70256b44e6bf3dfc3f69080a23880610193565b634e487b7160e01b600052603260045260246000fd5b634e487b7160e01b600052604160045260246000fd5b62461bcd60e51b815260206004820181905260248201527f4453433a204164647265737320697320616c72656164792061206d696e7465726044820152606490fd5b01519050388061012f565b601f198216936004600052806000209160005b8681106103225750836001959610610309575b505050811b01600455610145565b015160001960f88460031b161c191690553880806102fb565b919260206001819286850151815501940192016102e8565b60046000527f8a35acfbc15ff81a39ae7d344fd709f28e8600b4aa8c65c6b64bfe7fe36bd19b601f830160051c81019160208410610395575b601f0160051c01905b8181106103895750610114565b6000815560010161037c565b9091508190610373565b634e487b7160e01b600052602260045260246000fd5b90607f1690610102565b0151905038806100cb565b601f198216906003600052806000209160005b81811061041957509583600195969710610400575b505050811b016003556100e1565b015160001960f88460031b161c191690553880806103f2565b9192602060018192868b0151815501940192016103dd565b60036000527fc2575a0e9e593c00f959f8c92f12db2869c3395a3b0502d05e2516446f71f85b601f830160051c8101916020841061048c575b601f0160051c01905b81811061048057506100b1565b60008155600101610473565b909150819061046a565b90607f169061009f565b600080fd5b6040519190601f01601f191682016001600160401b0381118382101761027257604052565b81601f820112156104a0578051906001600160401b038211610272576104f9601f8301601f19166020016104a5565b92828452602083830101116104a05760005b82811061052057505060206000918301015290565b8060208092840101518282870101520161050b56fe608080604052600436101561001357600080fd5b60003560e01c90816306fdde0314610d4b57508063095ea7b314610d2557806318160ddd14610d0757806323b872dd14610cbf5780633092afd514610b41578063313ce56714610b2557806332cb6b0c14610afd578063349f0b9014610ab25780633950935114610a6057806340c10f191461093657806342966c68146108cd5780636b32810b1461080157806370a08231146107c7578063715018a61461076a57806379cc6790146106945780638da5cb5b1461066b57806395d89b4114610563578063983b2d5614610435578063a457c2d71461038e578063a9059cbb1461033c578063aa271e1a146102fd578063aa2fe91b146102fd578063c7d77ee5146102bb578063c8e24a2d14610284578063dd62ed3e14610233578063eed31986146102155763f2fde38b1461014857600080fd5b3461021057602036600319011261021057610161610e50565b610169610fe4565b6001600160a01b031680156101bc57600580546001600160a01b0319811683179091556001600160a01b03167f8be0079c531659141344cd1fd0a4f28419497f9722a3daafe3b4186f6b6457e0600080a3005b60405162461bcd60e51b815260206004820152602660248201527f4f776e61626c653a206e6577206f776e657220697320746865207a65726f206160448201526564647265737360d01b6064820152608490fd5b600080fd5b34610210576000366003190112610210576020600754604051908152f35b346102105760403660031901126102105761024c610e50565b610254610e66565b6001600160a01b039182166000908152600160209081526040808320949093168252928352819020549051908152f35b346102105760203660031901126102105760206102a5600435600254610ecf565b6b033b2e3c9fd0803ce800000060405191118152f35b3461021057602036600319011261021057600435600754811015610210576102e4602091610e7c565b905460405160039290921b1c6001600160a01b03168152f35b34610210576020366003190112610210576001600160a01b0361031e610e50565b166000526006602052602060ff604060002054166040519015158152f35b3461021057604036600319011261021057610355610e50565b6001600160a01b0381161561037d576103729060243590336110d9565b602060405160018152f35b638d6d24fb60e01b60005260046000fd5b34610210576040366003190112610210576103a7610e50565b60243590336000526001602052604060002060018060a01b038216600052602052604060002054918083106103e25761037292039033610edc565b60405162461bcd60e51b815260206004820152602560248201527f45524332303a2064656372656173656420616c6c6f77616e63652062656c6f77604482015264207a65726f60d81b6064820152608490fd5b346102105760203660031901126102105761044e610e50565b610456610fe4565b6001600160a01b03811690811561037d5781600052600660205260ff6040600020541661051f578160005260066020526040600020600160ff198254161790556007549068010000000000000000821015610509576104be8260016104e29401600755610e7c565b81546001600160a01b0393841660039290921b91821b9390911b1916919091179055565b7f6ae172837ea30b801fbfcdd4108aa1d5bf8ff775444fd70256b44e6bf3dfc3f6600080a2005b634e487b7160e01b600052604160045260246000fd5b606460405162461bcd60e51b815260206004820152602060248201527f4453433a204164647265737320697320616c72656164792061206d696e7465726044820152fd5b346102105760003660031901126102105760405160006004548060011c90600181168015610661575b60208310811461064d5782855290811561062957506001146105c9575b6105c5836105b981850382610ead565b60405191829182610e07565b0390f35b91905060046000527f8a35acfbc15ff81a39ae7d344fd709f28e8600b4aa8c65c6b64bfe7fe36bd19b916000905b80821061060f575090915081016020016105b96105a9565b9192600181602092548385880101520191019092916105f7565b60ff191660208086019190915291151560051b840190910191506105b990506105a9565b634e487b7160e01b84526022600452602484fd5b91607f169161058c565b34610210576000366003190112610210576005546040516001600160a01b039091168152602090f35b34610210576040366003190112610210576106ad610e50565b6024359033600052600660205260ff6040600020541615610759576001600160a01b03811690811561037d57821561074857816000526000602052604060002054831161073757826107099161070482338361103c565b611258565b6040519182527f08009940fb138ae33fbb70c10b643e840c71f1654344cc173975a815e117e68760203393a3005b631c39aad360e01b60005260046000fd5b63f9389b3360e01b60005260046000fd5b634e0dc0cf60e11b60005260046000fd5b3461021057600036600319011261021057610783610fe4565b600580546001600160a01b031981169091556000906001600160a01b03167f8be0079c531659141344cd1fd0a4f28419497f9722a3daafe3b4186f6b6457e08280a3005b34610210576020366003190112610210576001600160a01b036107e8610e50565b1660005260006020526020604060002054604051908152f35b34610210576000366003190112610210576040518060206007549283815201809260076000527fa66cc928b5edb82af9bd49922954155ab7b0942694bea4ce44661d9a8736c6889060005b8181106108ae5750505081610862910382610ead565b6040519182916020830190602084525180915260408301919060005b81811061088c575050500390f35b82516001600160a01b031684528594506020938401939092019160010161087e565b82546001600160a01b031684526020909301926001928301920161084c565b34610210576020366003190112610210576004358015610748573360005260006020526040600020548111610737576109068133611258565b60405190815233907f08009940fb138ae33fbb70c10b643e840c71f1654344cc173975a815e117e68760203392a3005b346102105760403660031901126102105761094f610e50565b6024359033600052600660205260ff6040600020541615610759576001600160a01b031690811561037d578015610748576002549161098e8284610ecf565b6b033b2e3c9fd0803ce800000010610a1b576109ac82600094610ecf565b600255808352826020526040832082815401905580837fddf252ad1be2c89b69c2b068fc378daa952ba7f163c4a11628f55a4df523b3ef6020604051868152a36040519182527f969cd201f68f120baff2bf3c59bc3b534434e08b69a71a14ab85cb79cd3b63e460203393a380f35b60405162461bcd60e51b815260206004820152601760248201527f4453433a2045786365656473206d617820737570706c790000000000000000006044820152606490fd5b3461021057604036600319011261021057610372610a7c610e50565b336000526001602052604060002060018060a01b038216600052602052610aab60406000206024359054610ecf565b9033610edc565b34610210576000366003190112610210576b033b2e3c9fd0803ce80000006002548103908111610ae757602090604051908152f35b634e487b7160e01b600052601160045260246000fd5b346102105760003660031901126102105760206b033b2e3c9fd0803ce8000000604051908152f35b3461021057600036600319011261021057602060405160128152f35b3461021057602036600319011261021057610b5a610e50565b610b62610fe4565b6001600160a01b0316801561037d5780600052600660205260ff6040600020541615610c7a576000818152600660205260408120805460ff191690555b6007549081811015610c735782610bb582610e7c565b905460039190911b1c6001600160a01b031614610bd6576001915001610b9f565b6000198201918211610ae7576104be610bf1610c0993610e7c565b905460039190911b1c6001600160a01b031691610e7c565b6007548015610c5d5760001901610c1f81610e7c565b81549060018060a01b039060031b1b191690556007555b7fe94479a9f7e1952cc78f2d6baab678adc1b772d936c6583def489e524cb66692600080a2005b634e487b7160e01b600052603160045260246000fd5b5050610c36565b60405162461bcd60e51b815260206004820152601c60248201527f4453433a2041646472657373206973206e6f742061206d696e746572000000006044820152606490fd5b3461021057606036600319011261021057610cd8610e50565b610ce0610e66565b604435906001600160a01b0381161561037d5761037292610d0283338361103c565b6110d9565b34610210576000366003190112610210576020600254604051908152f35b3461021057604036600319011261021057610372610d41610e50565b6024359033610edc565b346102105760003660031901126102105760006003548060011c90600181168015610dfd575b60208310811461064d578285529081156106295750600114610d9d576105c5836105b981850382610ead565b91905060036000527fc2575a0e9e593c00f959f8c92f12db2869c3395a3b0502d05e2516446f71f85b916000905b808210610de3575090915081016020016105b96105a9565b919260018160209254838588010152019101909291610dcb565b91607f1691610d71565b91909160208152825180602083015260005b818110610e3a575060409293506000838284010152601f8019910116010190565b8060208092870101516040828601015201610e19565b600435906001600160a01b038216820361021057565b602435906001600160a01b038216820361021057565b600754811015610e9757600760005260206000200190600090565b634e487b7160e01b600052603260045260246000fd5b90601f8019910116810190811067ffffffffffffffff82111761050957604052565b91908201809211610ae757565b6001600160a01b0316908115610f93576001600160a01b0316918215610f435760207f8c5be1e5ebec7d5bd14f71427d1e84f3dd0314c0f7b2291e5b200ac8c7c3b925918360005260018252604060002085600052825280604060002055604051908152a3565b60405162461bcd60e51b815260206004820152602260248201527f45524332303a20617070726f766520746f20746865207a65726f206164647265604482015261737360f01b6064820152608490fd5b60405162461bcd60e51b8152602060048201526024808201527f45524332303a20617070726f76652066726f6d20746865207a65726f206164646044820152637265737360e01b6064820152608490fd5b6005546001600160a01b03163303610ff857565b606460405162461bcd60e51b815260206004820152602060248201527f4f776e61626c653a2063616c6c6572206973206e6f7420746865206f776e65726044820152fd5b9060018060a01b0382166000526001602052604060002060018060a01b038216600052602052604060002054926000198403611079575b50505050565b8084106110945761108b930391610edc565b38808080611073565b60405162461bcd60e51b815260206004820152601d60248201527f45524332303a20696e73756666696369656e7420616c6c6f77616e63650000006044820152606490fd5b6001600160a01b0316908115611205576001600160a01b03169182156111b45781600052600060205260406000205481811061116057817fddf252ad1be2c89b69c2b068fc378daa952ba7f163c4a11628f55a4df523b3ef9260209285600052600084520360406000205584600052600082526040600020818154019055604051908152a3565b60405162461bcd60e51b815260206004820152602660248201527f45524332303a207472616e7366657220616d6f756e7420657863656564732062604482015265616c616e636560d01b6064820152608490fd5b60405162461bcd60e51b815260206004820152602360248201527f45524332303a207472616e7366657220746f20746865207a65726f206164647260448201526265737360e81b6064820152608490fd5b60405162461bcd60e51b815260206004820152602560248201527f45524332303a207472616e736665722066726f6d20746865207a65726f206164604482015264647265737360d81b6064820152608490fd5b6001600160a01b0316801561131357806000526000602052604060002054918083106112c3576020817fddf252ad1be2c89b69c2b068fc378daa952ba7f163c4a11628f55a4df523b3ef926000958587528684520360408620558060025403600255604051908152a3565b60405162461bcd60e51b815260206004820152602260248201527f45524332303a206275726e20616d6f756e7420657863656564732062616c616e604482015261636560f01b6064820152608490fd5b60405162461bcd60e51b815260206004820152602160248201527f45524332303a206275726e2066726f6d20746865207a65726f206164647265736044820152607360f81b6064820152608490fdfea264697066735822122012d13afdfc7b0f18160f776c442d49771b971f8b29fd1fbb9bb671020787c39564736f6c634300081c0033",
  "linkReferences": {},
  "deployedLinkReferences": {}
}