{
  "_format": "hh-sol-artifact-1",
  "contractName": "DSC",
  "sourceName": "contracts/DSC.sol",
  "abi": [
    {
      "inputs": [
        {
          "internalType": "string",
          "name": "_name",
          "type": "string"
        },
        {
          "internalType": "string",
          "name": "_symbol",
          "type": "string"
        },
        {
          "internalType": "address",
          "name": "_initialMinter",
          "type": "address"
        }
      ],
      "stateMutability": "nonpayable",
      "type": "constructor"
    },
    {
      "inputs": [],
      "name": "DSC__BurnAmountExceedsBalance",
      "type": "error"
    },
    {
      "inputs": [],
      "name": "DSC__MustBeMoreThanZero",
      "type": "error"
    },
    {
      "inputs": [],
      "name": "DSC__NotMinter",
      "type": "error"
    },
    {
      "inputs": [],
      "name": "DSC__NotZeroAddress",
      "type": "error"
    },
    {
      "anonymous": false,
      "inputs": [
        {
          "indexed": true,
          "internalType": "address",
          "name": "owner",
          "type": "address"
        },
        {
          "indexed": true,
          "internalType": "address",
          "name": "spender",
          "type": "address"
        },
        {
          "indexed": false,
          "internalType": "uint256",
          "name": "value",
          "type": "uint256"
        }
      ],
      "name": "Approval",
      "type": "event"
    },
    {
      "anonymous": false,
      "inputs": [
        {
          "indexed": true,
          "internalType": "address",
          "name": "minter",
          "type": "address"
        }
      ],
      "name": "MinterAdded",
      "type": "event"
    },
    {
      "anonymous": false,
      "inputs": [
        {
          "indexed": true,
          "internalType": "address",
          "name": "minter",
          "type": "address"
        }
      ],
      "name": "MinterRemoved",
      "type": "event"
    },
    {
      "anonymous": false,
      "inputs": [
        {
          "indexed": true,
          "internalType": "address",
          "name": "previousOwner",
          "type": "address"
        },
        {
          "indexed": true,
          "internalType": "address",
          "name": "newOwner",
          "type": "address"
        }
      ],
      "name": "OwnershipTransferred",
      "type": "event"
    },
    {
      "anonymous": false,
      "inputs": [
        {
          "indexed": true,
          "internalType": "address",
          "name": "from",
          "type": "address"
        },
        {
          "indexed": false,
          "internalType": "uint256",
          "name": "amount",
          "type": "uint256"
        },
        {
          "indexed": true,
          "internalType": "address",
          "name": "burner",
          "type": "address"
        }
      ],
      "name": "TokensBurned",
      "type": "event"
    },
    {
      "anonymous": false,
      "inputs": [
        {
          "indexed": true,
          "internalType": "address",
          "name": "to",
          "type": "address"
        },
        {
          "indexed": false,
          "internalType": "uint256",
          "name": "amount",
          "type": "uint256"
        },
        {
          "indexed": true,
          "internalType": "address",
          "name": "minter",
          "type": "address"
        }
      ],
      "name": "TokensMinted",
      "type": "event"
    },
    {
      "anonymous": false,
      "inputs": [
        {
          "indexed": true,
          "internalType": "address",
          "name": "from",
          "type": "address"
        },
        {
          "indexed": true,
          "internalType": "address",
          "name": "to",
          "type": "address"
        },
        {
          "indexed": false,
          "internalType": "uint256",
          "name": "value",
          "type": "uint256"
        }
      ],
      "name": "Transfer",
      "type": "event"
    },
    {
      "inputs": [],
      "name": "MAX_SUPPLY",
      "outputs": [
        {
          "internalType": "uint256",
          "name": "",
          "type": "uint256"
        }
      ],
      "stateMutability": "view",
      "type": "function"
    },
    {
      "inputs": [
        {
          "internalType": "address",
          "name": "_minter",
          "type": "address"
        }
      ],
      "name": "addMinter",
      "outputs": [],
      "stateMutability": "nonpayable",
      "type": "function"
    },
    {
      "inputs": [
        {
          "internalType": "address",
          "name": "owner",
          "type": "address"
        },
        {
          "internalType": "address",
          "name": "spender",
          "type": "address"
        }
      ],
      "name": "allowance",
      "outputs": [
        {
          "internalType": "uint256",
          "name": "",
          "type": "uint256"
        }
      ],
      "stateMutability": "view",
      "type": "function"
    },
    {
      "inputs": [
        {
          "internalType": "address",
          "name": "spender",
          "type": "address"
        },
        {
          "internalType": "uint256",
          "name": "amount",
          "type": "uint256"
        }
      ],
      "name": "approve",
      "outputs": [
        {
          "internalType": "bool",
          "name": "",
          "type": "bool"
        }
      ],
      "stateMutability": "nonpayable",
      "type": "function"
    },
    {
      "inputs": [
        {
          "internalType": "address",
          "name": "",
          "type": "address"
        }
      ],
      "name": "authorizedMinters",
      "outputs": [
        {
          "internalType": "bool",
          "name": "",
          "type": "bool"
        }
      ],
      "stateMutability": "view",
      "type": "function"
    },
    {
      "inputs": [
        {
          "internalType": "address",
          "name": "account",
          "type": "address"
        }
      ],
      "name": "balanceOf",
      "outputs": [
        {
          "internalType": "uint256",
          "name": "",
          "type": "uint256"
        }
      ],
      "stateMutability": "view",
      "type": "function"
    },
    {
      "inputs": [
        {
          "internalType": "uint256",
          "name": "_amount",
          "type": "uint256"
        }
      ],
      "name": "burn",
      "outputs": [],
      "stateMutability": "nonpayable",
      "type": "function"
    },
    {
      "inputs": [
        {
          "internalType": "address",
          "name": "_from",
          "type": "address"
        },
        {
          "internalType": "uint256",
          "name": "_amount",
          "type": "uint256"
        }
      ],
      "name": "burnFrom",
      "outputs": [],
      "stateMutability": "nonpayable",
      "type": "function"
    },
    {
      "inputs": [],
      "name": "decimals",
      "outputs": [
        {
          "internalType": "uint8",
          "name": "",
          "type": "uint8"
        }
      ],
      "stateMutability": "pure",
      "type": "function"
    },
    {
      "inputs": [
        {
          "internalType": "address",
          "name": "spender",
          "type": "address"
        },
        {
          "internalType": "uint256",
          "name": "subtractedValue",
          "type": "uint256"
        }
      ],
      "name": "decreaseAllowance",
      "outputs": [
        {
          "internalType": "bool",
          "name": "",
          "type": "bool"
        }
      ],
      "stateMutability": "nonpayable",
      "type": "function"
    },
    {
      "inputs": [],
      "name": "getMinters",
      "outputs": [
        {
          "internalType": "address[]",
          "name": "",
          "type": "address[]"
        }
      ],
      "stateMutability": "view",
      "type": "function"
    },
    {
      "inputs": [],
      "name": "getMintersCount",
      "outputs": [
        {
          "internalType": "uint256",
          "name": "",
          "type": "uint256"
        }
      ],
      "stateMutability": "view",
      "type": "function"
    },
    {
      "inputs": [
        {
          "internalType": "address",
          "name": "spender",
          "type": "address"
        },
        {
          "internalType": "uint256",
          "name": "addedValue",
          "type": "uint256"
        }
      ],
      "name": "increaseAllowance",
      "outputs": [
        {
          "internalType": "bool",
          "name": "",
          "type": "bool"
        }
      ],
      "stateMutability": "nonpayable",
      "type": "function"
    },
    {
      "inputs": [
        {
          "internalType": "address",
          "name": "_address",
          "type": "address"
        }
      ],
      "name": "isMinter",
      "outputs": [
        {
          "internalType": "bool",
          "name": "",
          "type": "bool"
        }
      ],
      "stateMutability": "view",
      "type": "function"
    },
    {
      "inputs": [
        {
          "internalType": "address",
          "name": "_to",
          "type": "address"
        },
        {
          "internalType": "uint256",
          "name": "_amount",
          "type": "uint256"
        }
      ],
      "name": "mint",
      "outputs": [],
      "stateMutability": "nonpayable",
      "type": "function"
    },
    {
      "inputs": [
        {
          "internalType": "uint256",
          "name": "",
          "type": "uint256"
        }
      ],
      "name": "mintersList",
      "outputs": [
        {
          "internalType": "address",
          "name": "",
          "type": "address"
        }
      ],
      "stateMutability": "view",
      "type": "function"
    },
    {
      "inputs": [],
      "name": "name",
      "outputs": [
        {
          "internalType": "string",
          "name": "",
          "type": "string"
        }
      ],
      "stateMutability": "view",
      "type": "function"
    },
    {
      "inputs": [],
      "name": "owner",
      "outputs": [
        {
          "internalType": "address",
          "name": "",
          "type": "address"
        }
      ],
      "stateMutability": "view",
      "type": "function"
    },
    {
      "inputs": [],
      "name": "remainingMintableSupply",
      "outputs": [
        {
          "internalType": "uint256",
          "name": "",
          "type": "uint256"
        }
      ],
      "stateMutability": "view",
      "type": "function"
    },
    {
      "inputs": [
        {
          "internalType": "address",
          "name": "_minter",
          "type": "address"
        }
      ],
      "name": "removeMinter",
      "outputs": [],
      "stateMutability": "nonpayable",
      "type": "function"
    },
    {
      "inputs": [],
      "name": "renounceOwnership",
      "outputs": [],
      "stateMutability": "nonpayable",
      "type": "function"
    },
    {
      "inputs": [],
      "name": "symbol",
      "outputs": [
        {
          "internalType": "string",
          "name": "",
          "type": "string"
        }
      ],
      "stateMutability": "view",
      "type": "function"
    },
    {
      "inputs": [],
      "name": "totalSupply",
      "outputs": [
        {
          "internalType": "uint256",
          "name": "",
          "type": "uint256"
        }
      ],
      "stateMutability": "view",
      "type": "function"
    },
    {
      "inputs": [
        {
          "internalType": "address",
          "name": "to",
          "type": "address"
        },
        {
          "internalType": "uint256",
          "name": "amount",
          "type": "uint256"
        }
      ],
      "name": "transfer",
      "outputs": [
        {
          "internalType": "bool",
          "name": "",
          "type": "bool"
        }
      ],
      "stateMutability": "nonpayable",
      "type": "function"
    },
    {
      "inputs": [
        {
          "internalType": "address",
          "name": "from",
          "type": "address"
        },
        {
          "internalType": "address",
          "name": "to",
          "type": "address"
        },
        {
          "internalType": "uint256",
          "name": "amount",
          "type": "uint256"
        }
      ],
      "name": "transferFrom",
      "outputs": [
        {
          "internalType": "bool",
          "name": "",
          "type": "bool"
        }
      ],
      "stateMutability": "nonpayable",
      "type": "function"
    },
    {
      "inputs": [
        {
          "internalType": "address",
          "name": "newOwner",
          "type": "address"
        }
      ],
      "name": "transferOwnership",
      "outputs": [],
      "stateMutability": "nonpayable",
      "type": "function"
    },
    {
      "inputs": [
        {
          "internalType": "uint256",
          "name": "_amount",
          "type": "uint256"
        }
      ],
      "name": "wouldExceedMaxSupply",
      "outputs": [
        {
          "internalType": "bool",
          "name": "",
          "type": "bool"
        }
      ],
      "stateMutability": "view",
      "type": "function"
    }
  ],
  "bytecode": "0x6080604052346104a0576118ce80380380610019816104a5565b9283398101906060818303126104a05780516001600160401b0381116104a057826100459183016104ca565b60208201519092906001600160401b0381116104a0576040916100699184016104ca565b9101516001600160a01b038116908190036104a05782516001600160401b03811161027257600354600181811c91168015610496575b602082101461039f57601f8111610431575b506020601f82116001146103ca57819293946000926103bf575b50508160011b916000199060031b1c1916176003555b81516001600160401b03811161027257600454600181811c911680156103b5575b602082101461039f57601f811161033a575b50602092601f82116001146102d557928192936000926102ca575b50508160011b916000199060031b1c1916176004555b60058054336001600160a01b03198216811790925560405191906001600160a01b03167f8be0079c531659141344cd1fd0a4f28419497f9722a3daafe3b4186f6b6457e0600080a3816101a2575b60405161139890816105368239f35b81600052600660205260ff6040600020541661028857508060005260066020526040600020600160ff198254161790556007546801000000000000000081101561027257600181018060075581101561025c57600760009081527fa66cc928b5edb82af9bd49922954155ab7b0942694bea4ce44661d9a8736c6889190910180546001600160a01b031916831790557f6ae172837ea30b801fbfcdd4108aa1d5bf8ff775444fd70256b44e6bf3dfc3f69080a23880610193565b634e487b7160e01b600052603260045260246000fd5b634e487b7160e01b600052604160045260246000fd5b62461bcd60e51b815260206004820181905260248201527f4453433a204164647265737320697320616c72656164792061206d696e7465726044820152606490fd5b01519050388061012f565b601f198216936004600052806000209160005b8681106103225750836001959610610309575b505050811b01600455610145565b015160001960f88460031b161c191690553880806102fb565b919260206001819286850151815501940192016102e8565b60046000527f8a35acfbc15ff81a39ae7d344fd709f28e8600b4aa8c65c6b64bfe7fe36bd19b601f830160051c81019160208410610395575b601f0160051c01905b8181106103895750610114565b6000815560010161037c565b9091508190610373565b634e487b7160e01b600052602260045260246000fd5b90607f1690610102565b0151905038806100cb565b601f198216906003600052806000209160005b81811061041957509583600195969710610400575b505050811b016003556100e1565b015160001960f88460031b161c191690553880806103f2565b9192602060018192868b0151815501940192016103dd565b60036000527fc2575a0e9e593c00f959f8c92f12db2869c3395a3b0502d05e2516446f71f85b601f830160051c8101916020841061048c575b601f0160051c01905b81811061048057506100b1565b60008155600101610473565b909150819061046a565b90607f169061009f565b600080fd5b6040519190601f01601f191682016001600160401b0381118382101761027257604052565b81601f820112156104a0578051906001600160401b038211610272576104f9601f8301601f19166020016104a5565b92828452602083830101116104a05760005b82811061052057505060206000918301015290565b8060208092840101518282870101520161050b56fe608080604052600436101561001357600080fd5b60003560e01c90816306fdde0314610d4b57508063095ea7b314610d2557806318160ddd14610d0757806323b872dd14610cbf5780633092afd514610b41578063313ce56714610b2557806332cb6b0c14610afd578063349f0b9014610ab25780633950935114610a6057806340c10f191461093657806342966c68146108cd5780636b32810b1461080157806370a08231146107c7578063715018a61461076a57806379cc6790146106945780638da5cb5b1461066b57806395d89b4114610563578063983b2d5614610435578063a457c2d71461038e578063a9059cbb1461033c578063aa271e1a146102fd578063aa2fe91b146102fd578063c7d77ee5146102bb578063c8e24a2d14610284578063dd62ed3e14610233578063eed31986146102155763f2fde38b1461014857600080fd5b3461021057602036600319011261021057610161610e50565b610169610fe4565b6001600160a01b031680156101bc57600580546001600160a01b0319811683179091556001600160a01b03167f8be0079c531659141344cd1fd0a4f28419497f9722a3daafe3b4186f6b6457e0600080a3005b60405162461bcd60e51b815260206004820152602660248201527f4f776e61626c653a206e6577206f776e657220697320746865207a65726f206160448201526564647265737360d01b6064820152608490fd5b600080fd5b34610210576000366003190112610210576020600754604051908152f35b346102105760403660031901126102105761024c610e50565b610254610e66565b6001600160a01b039182166000908152600160209081526040808320949093168252928352819020549051908152f35b346102105760203660031901126102105760206102a5600435600254610ecf565b6b033b2e3c9fd0803ce800000060405191118152f35b3461021057602036600319011261021057600435600754811015610210576102e4602091610e7c565b905460405160039290921b1c6001600160a01b03168152f35b34610210576020366003190112610210576001600160a01b0361031e610e50565b166000526006602052602060ff604060002054166040519015158152f35b3461021057604036600319011261021057610355610e50565b6001600160a01b0381161561037d576103729060243590336110d9565b602060405160018152f35b638d6d24fb60e01b60005260046000fd5b34610210576040366003190112610210576103a7610e50565b60243590336000526001602052604060002060018060a01b038216600052602052604060002054918083106103e25761037292039033610edc565b60405162461bcd60e51b815260206004820152602560248201527f45524332303a2064656372656173656420616c6c6f77616e63652062656c6f77604482015264207a65726f60d81b6064820152608490fd5b346102105760203660031901126102105761044e610e50565b610456610fe4565b6001600160a01b03811690811561037d5781600052600660205260ff6040600020541661051f578160005260066020526040600020600160ff198254161790556007549068010000000000000000821015610509576104be8260016104e29401600755610e7c565b81546001600160a01b0393841660039290921b91821b9390911b1916919091179055565b7f6ae172837ea30b801fbfcdd4108aa1d5bf8ff775444fd70256b44e6bf3dfc3f6600080a2005b634e487b7160e01b600052604160045260246000fd5b606460405162461bcd60e51b815260206004820152602060248201527f4453433a204164647265737320697320616c72656164792061206d696e7465726044820152fd5b346102105760003660031901126102105760405160006004548060011c90600181168015610661575b60208310811461064d5782855290811561062957506001146105c9575b6105c5836105b981850382610ead565b60405191829182610e07565b0390f35b91905060046000527f8a35acfbc15ff81a39ae7d344fd709f28e8600b4aa8c65c6b64bfe7fe36bd19b916000905b80821061060f575090915081016020016105b96105a9565b9192600181602092548385880101520191019092916105f7565b60ff191660208086019190915291151560051b840190910191506105b990506105a9565b634e487b7160e01b84526022600452602484fd5b91607f169161058c565b34610210576000366003190112610210576005546040516001600160a01b039091168152602090f35b34610210576040366003190112610210576106ad610e50565b6024359033600052600660205260ff6040600020541615610759576001600160a01b03811690811561037d57821561074857816000526000602052604060002054831161073757826107099161070482338361103c565b611258565b6040519182527f08009940fb138ae33fbb70c10b643e840c71f1654344cc173975a815e117e68760203393a3005b631c39aad360e01b60005260046000fd5b63f9389b3360e01b60005260046000fd5b634e0dc0cf60e11b60005260046000fd5b3461021057600036600319011261021057610783610fe4565b600580546001600160a01b031981169091556000906001600160a01b03167f8be0079c531659141344cd1fd0a4f28419497f9722a3daafe3b4186f6b6457e08280a3005b34610210576020366003190112610210576001600160a01b036107e8610e50565b1660005260006020526020604060002054604051908152f35b34610210576000366003190112610210576040518060206007549283815201809260076000527fa66cc928b5edb82af9bd49922954155ab7b0942694bea4ce44661d9a8736c6889060005b8181106108ae5750505081610862910382610ead565b6040519182916020830190602084525180915260408301919060005b81811061088c575050500390f35b82516001600160a01b031684528594506020938401939092019160010161087e565b82546001600160a01b031684526020909301926001928301920161084c565b34610210576020366003190112610210576004358015610748573360005260006020526040600020548111610737576109068133611258565b60405190815233907f08009940fb138ae33fbb70c10b643e840c71f1654344cc173975a815e117e68760203392a3005b346102105760403660031901126102105761094f610e50565b6024359033600052600660205260ff6040600020541615610759576001600160a01b031690811561037d578015610748576002549161098e8284610ecf565b6b033b2e3c9fd0803ce800000010610a1b576109ac82600094610ecf565b600255808352826020526040832082815401905580837fddf252ad1be2c89b69c2b068fc378daa952ba7f163c4a11628f55a4df523b3ef6020604051868152a36040519182527f969cd201f68f120baff2bf3c59bc3b534434e08b69a71a14ab85cb79cd3b63e460203393a380f35b60405162461bcd60e51b815260206004820152601760248201527f4453433a2045786365656473206d617820737570706c790000000000000000006044820152606490fd5b3461021057604036600319011261021057610372610a7c610e50565b336000526001602052604060002060018060a01b038216600052602052610aab60406000206024359054610ecf565b9033610edc565b34610210576000366003190112610210576b033b2e3c9fd0803ce80000006002548103908111610ae757602090604051908152f35b634e487b7160e01b600052601160045260246000fd5b346102105760003660031901126102105760206b033b2e3c9fd0803ce8000000604051908152f35b3461021057600036600319011261021057602060405160128152f35b3461021057602036600319011261021057610b5a610e50565b610b62610fe4565b6001600160a01b0316801561037d5780600052600660205260ff6040600020541615610c7a576000818152600660205260408120805460ff191690555b6007549081811015610c735782610bb582610e7c565b905460039190911b1c6001600160a01b031614610bd6576001915001610b9f565b6000198201918211610ae7576104be610bf1610c0993610e7c565b905460039190911b1c6001600160a01b031691610e7c565b6007548015610c5d5760001901610c1f81610e7c565b81549060018060a01b039060031b1b191690556007555b7fe94479a9f7e1952cc78f2d6baab678adc1b772d936c6583def489e524cb66692600080a2005b634e487b7160e01b600052603160045260246000fd5b5050610c36565b60405162461bcd60e51b815260206004820152601c60248201527f4453433a2041646472657373206973206e6f742061206d696e746572000000006044820152606490fd5b3461021057606036600319011261021057610cd8610e50565b610ce0610e66565b604435906001600160a01b0381161561037d5761037292610d0283338361103c565b6110d9565b34610210576000366003190112610210576020600254604051908152f35b3461021057604036600319011261021057610372610d41610e50565b6024359033610edc565b346102105760003660031901126102105760006003548060011c90600181168015610dfd575b60208310811461064d578285529081156106295750600114610d9d576105c5836105b981850382610ead565b91905060036000527fc2575a0e9e593c00f959f8c92f12db2869c3395a3b0502d05e2516446f71f85b916000905b808210610de3575090915081016020016105b96105a9565b919260018160209254838588010152019101909291610dcb565b91607f1691610d71565b91909160208152825180602083015260005b818110610e3a575060409293506000838284010152601f8019910116010190565b8060208092870101516040828601015201610e19565b600435906001600160a01b038216820361021057565b602435906001600160a01b038216820361021057565b600754811015610e9757600760005260206000200190600090565b634e487b7160e01b600052603260045260246000fd5b90601f8019910116810190811067ffffffffffffffff82111761050957604052565b91908201809211610ae757565b6001600160a01b0316908115610f93576001600160a01b0316918215610f435760207f8c5be1e5ebec7d5bd14f71427d1e84f3dd0314c0f7b2291e5b200ac8c7c3b925918360005260018252604060002085600052825280604060002055604051908152a3565b60405162461bcd60e51b815260206004820152602260248201527f45524332303a20617070726f766520746f20746865207a65726f206164647265604482015261737360f01b6064820152608490fd5b60405162461bcd60e51b8152602060048201526024808201527f45524332303a20617070726f76652066726f6d20746865207a65726f206164646044820152637265737360e01b6064820152608490fd5b6005546001600160a01b03163303610ff857565b606460405162461bcd60e51b815260206004820152602060248201527f4f776e61626c653a2063616c6c6572206973206e6f7420746865206f776e65726044820152fd5b9060018060a01b0382166000526001602052604060002060018060a01b038216600052602052604060002054926000198403611079575b50505050565b8084106110945761108b930391610edc565b38808080611073565b60405162461bcd60e51b815260206004820152601d60248201527f45524332303a20696e73756666696369656e7420616c6c6f77616e63650000006044820152606490fd5b6001600160a01b0316908115611205576001600160a01b03169182156111b45781600052600060205260406000205481811061116057817fddf252ad1be2c89b69c2b068fc378daa952ba7f163c4a11628f55a4df523b3ef9260209285600052600084520360406000205584600052600082526040600020818154019055604051908152a3565b60405162461bcd60e51b815260206004820152602660248201527f45524332303a207472616e7366657220616d6f756e7420657863656564732062604482015265616c616e636560d01b6064820152608490fd5b60405162461bcd60e51b815260206004820152602360248201527f45524332303a207472616e7366657220746f20746865207a65726f206164647260448201526265737360e81b6064820152608490fd5b60405162461bcd60e51b815260206004820152602560248201527f45524332303a207472616e736665722066726f6d20746865207a65726f206164604482015264647265737360d81b6064820152608490fd5b6001600160a01b0316801561131357806000526000602052604060002054918083106112c3576020817fddf252ad1be2c89b69c2b068fc378daa952ba7f163c4a11628f55a4df523b3ef926000958587528684520360408620558060025403600255604051908152a3565b60405162461bcd60e51b815260206004820152602260248201527f45524332303a206275726e20616d6f756e7420657863656564732062616c616e604482015261636560f01b6064820152608490fd5b60405162461bcd60e51b815260206004820152602160248201527f45524332303a206275726e2066726f6d20746865207a65726f206164647265736044820152607360f81b6064820152608490fdfea264697066735822122012d13afdfc7b0f18160f776c442d49771b971f8b29fd1fbb9bb671020787c39564736f6c634300081c0033",
  "linkReferences": {},
  "deployedLinkReferences": {}
}