{
  "_format": "hh-sol-artifact-1",
  "contractName": "DSC",
  "sourceName": "contracts/DSC.sol",
  "abi": [
    {
      "inputs": [
        {
          "internalType": "string",
          "name": "_name",
          "type": "string"
        },
        {
          "internalType": "string",
          "name": "_symbol",
          "type": "string"
        },
        {
          "internalType": "address",
          "name": "_initialMinter",
          "type": "address"
        }
      ],
      "stateMutability": "nonpayable",
      "type": "constructor"
    },
    {
      "inputs": [],
      "name": "DSC__BurnAmountExceedsBalance",
      "type": "error"
    },
    {
      "inputs": [],
      "name": "DSC__MustBeMoreThanZero",
      "type": "error"
    },
    {
      "inputs": [],
      "name": "DSC__NotMinter",
      "type": "error"
    },
    {
      "inputs": [],
      "name": "DSC__NotZeroAddress",
      "type": "error"
    },
    {
      "anonymous": false,
      "inputs": [
        {
          "indexed": true,
          "internalType": "address",
          "name": "owner",
          "type": "address"
        },
        {
          "indexed": true,
          "internalType": "address",
          "name": "spender",
          "type": "address"
        },
        {
          "indexed": false,
          "internalType": "uint256",
          "name": "value",
          "type": "uint256"
        }
      ],
      "name": "Approval",
      "type": "event"
    },
    {
      "anonymous": false,
      "inputs": [
        {
          "indexed": true,
          "internalType": "address",
          "name": "minter",
          "type": "address"
        }
      ],
      "name": "MinterAdded",
      "type": "event"
    },
    {
      "anonymous": false,
      "inputs": [
        {
          "indexed": true,
          "internalType": "address",
          "name": "minter",
          "type": "address"
        }
      ],
      "name": "MinterRemoved",
      "type": "event"
    },
    {
      "anonymous": false,
      "inputs": [
        {
          "indexed": true,
          "internalType": "address",
          "name": "previousOwner",
          "type": "address"
        },
        {
          "indexed": true,
          "internalType": "address",
          "name": "newOwner",
          "type": "address"
        }
      ],
      "name": "OwnershipTransferred",
      "type": "event"
    },
    {
      "anonymous": false,
      "inputs": [
        {
          "indexed": true,
          "internalType": "address",
          "name": "from",
          "type": "address"
        },
        {
          "indexed": false,
          "internalType": "uint256",
          "name": "amount",
          "type": "uint256"
        },
        {
          "indexed": true,
          "internalType": "address",
          "name": "burner",
          "type": "address"
        }
      ],
      "name": "TokensBurned",
      "type": "event"
    },
    {
      "anonymous": false,
      "inputs": [
        {
          "indexed": true,
          "internalType": "address",
          "name": "to",
          "type": "address"
        },
        {
          "indexed": false,
          "internalType": "uint256",
          "name": "amount",
          "type": "uint256"
        },
        {
          "indexed": true,
          "internalType": "address",
          "name": "minter",
          "type": "address"
        }
      ],
      "name": "TokensMinted",
      "type": "event"
    },
    {
      "anonymous": false,
      "inputs": [
        {
          "indexed": true,
          "internalType": "address",
          "name": "from",
          "type": "address"
        },
        {
          "indexed": true,
          "internalType": "address",
          "name": "to",
          "type": "address"
        },
        {
          "indexed": false,
          "internalType": "uint256",
          "name": "value",
          "type": "uint256"
        }
      ],
      "name": "Transfer",
      "type": "event"
    },
    {
      "inputs": [],
      "name": "MAX_SUPPLY",
      "outputs": [
        {
          "internalType": "uint256",
          "name": "",
          "type": "uint256"
        }
      ],
      "stateMutability": "view",
      "type": "function"
    },
    {
      "inputs": [
        {
          "internalType": "address",
          "name": "_minter",
          "type": "address"
        }
      ],
      "name": "addMinter",
      "outputs": [],
      "stateMutability": "nonpayable",
      "type": "function"
    },
    {
      "inputs": [
        {
          "internalType": "address",
          "name": "owner",
          "type": "address"
        },
        {
          "internalType": "address",
          "name": "spender",
          "type": "address"
        }
      ],
      "name": "allowance",
      "outputs": [
        {
          "internalType": "uint256",
          "name": "",
          "type": "uint256"
        }
      ],
      "stateMutability": "view",
      "type": "function"
    },
    {
      "inputs": [
        {
          "internalType": "address",
          "name": "spender",
          "type": "address"
        },
        {
          "internalType": "uint256",
          "name": "amount",
          "type": "uint256"
        }
      ],
      "name": "approve",
      "outputs": [
        {
          "internalType": "bool",
          "name": "",
          "type": "bool"
        }
      ],
      "stateMutability": "nonpayable",
      "type": "function"
    },
    {
      "inputs": [
        {
          "internalType": "address",
          "name": "",
          "type": "address"
        }
      ],
      "name": "authorizedMinters",
      "outputs": [
        {
          "internalType": "bool",
          "name": "",
          "type": "bool"
        }
      ],
      "stateMutability": "view",
      "type": "function"
    },
    {
      "inputs": [
        {
          "internalType": "address",
          "name": "account",
          "type": "address"
        }
      ],
      "name": "balanceOf",
      "outputs": [
        {
          "internalType": "uint256",
          "name": "",
          "type": "uint256"
        }
      ],
      "stateMutability": "view",
      "type": "function"
    },
    {
      "inputs": [
        {
          "internalType": "uint256",
          "name": "_amount",
          "type": "uint256"
        }
      ],
      "name": "burn",
      "outputs": [],
      "stateMutability": "nonpayable",
      "type": "function"
    },
    {
      "inputs": [
        {
          "internalType": "address",
          "name": "_from",
          "type": "address"
        },
        {
          "internalType": "uint256",
          "name": "_amount",
          "type": "uint256"
        }
      ],
      "name": "burnFrom",
      "outputs": [],
      "stateMutability": "nonpayable",
      "type": "function"
    },
    {
      "inputs": [],
      "name": "decimals",
      "outputs": [
        {
          "internalType": "uint8",
          "name": "",
          "type": "uint8"
        }
      ],
      "stateMutability": "pure",
      "type": "function"
    },
    {
      "inputs": [
        {
          "internalType": "address",
          "name": "spender",
          "type": "address"
        },
        {
          "internalType": "uint256",
          "name": "subtractedValue",
          "type": "uint256"
        }
      ],
      "name": "decreaseAllowance",
      "outputs": [
        {
          "internalType": "bool",
          "name": "",
          "type": "bool"
        }
      ],
      "stateMutability": "nonpayable",
      "type": "function"
    },
    {
      "inputs": [],
      "name": "getMinters",
      "outputs": [
        {
          "internalType": "address[]",
          "name": "",
          "type": "address[]"
        }
      ],
      "stateMutability": "view",
      "type": "function"
    },
    {
      "inputs": [],
      "name": "getMintersCount",
      "outputs": [
        {
          "internalType": "uint256",
          "name": "",
          "type": "uint256"
        }
      ],
      "stateMutability": "view",
      "type": "function"
    },
    {
      "inputs": [
        {
          "internalType": "address",
          "name": "spender",
          "type": "address"
        },
        {
          "internalType": "uint256",
          "name": "addedValue",
          "type": "uint256"
        }
      ],
      "name": "increaseAllowance",
      "outputs": [
        {
          "internalType": "bool",
          "name": "",
          "type": "bool"
        }
      ],
      "stateMutability": "nonpayable",
      "type": "function"
    },
    {
      "inputs": [
        {
          "internalType": "address",
          "name": "_address",
          "type": "address"
        }
      ],
      "name": "isMinter",
      "outputs": [
        {
          "internalType": "bool",
          "name": "",
          "type": "bool"
        }
      ],
      "stateMutability": "view",
      "type": "function"
    },
    {
      "inputs": [
        {
          "internalType": "address",
          "name": "_to",
          "type": "address"
        },
        {
          "internalType": "uint256",
          "name": "_amount",
          "type": "uint256"
        }
      ],
      "name": "mint",
      "outputs": [],
      "stateMutability": "nonpayable",
      "type": "function"
    },
    {
      "inputs": [
        {
          "internalType": "uint256",
          "name": "",
          "type": "uint256"
        }
      ],
      "name": "mintersList",
      "outputs": [
        {
          "internalType": "address",
          "name": "",
          "type": "address"
        }
      ],
      "stateMutability": "view",
      "type": "function"
    },
    {
      "inputs": [],
      "name": "name",
      "outputs": [
        {
          "internalType": "string",
          "name": "",
          "type": "string"
        }
      ],
      "stateMutability": "view",
      "type": "function"
    },
    {
      "inputs": [],
      "name": "owner",
      "outputs": [
        {
          "internalType": "address",
          "name": "",
          "type": "address"
        }
      ],
      "stateMutability": "view",
      "type": "function"
    },
    {
      "inputs": [],
      "name": "remainingMintableSupply",
      "outputs": [
        {
          "internalType": "uint256",
          "name": "",
          "type": "uint256"
        }
      ],
      "stateMutability": "view",
      "type": "function"
    },
    {
      "inputs": [
        {
          "internalType": "address",
          "name": "_minter",
          "type": "address"
        }
      ],
      "name": "removeMinter",
      "outputs": [],
      "stateMutability": "nonpayable",
      "type": "function"
    },
    {
      "inputs": [],
      "name": "renounceOwnership",
      "outputs": [],
      "stateMutability": "nonpayable",
      "type": "function"
    },
    {
      "inputs": [],
      "name": "symbol",
      "outputs": [
        {
          "internalType": "string",
          "name": "",
          "type": "string"
        }
      ],
      "stateMutability": "view",
      "type": "function"
    },
    {
      "inputs": [],
      "name": "totalSupply",
      "outputs": [
        {
          "internalType": "uint256",
          "name": "",
          "type": "uint256"
        }
      ],
      "stateMutability": "view",
      "type": "function"
    },
    {
      "inputs": [
        {
          "internalType": "address",
          "name": "to",
          "type": "address"
        },
        {
          "internalType": "uint256",
          "name": "amount",
          "type": "uint256"
        }
      ],
      "name": "transfer",
      "outputs": [
        {
          "internalType": "bool",
          "name": "",
          "type": "bool"
        }
      ],
      "stateMutability": "nonpayable",
      "type": "function"
    },
    {
      "inputs": [
        {
          "internalType": "address",
          "name": "from",
          "type": "address"
        },
        {
          "internalType": "address",
          "name": "to",
          "type": "address"
        },
        {
          "internalType": "uint256",
          "name": "amount",
          "type": "uint256"
        }
      ],
      "name": "transferFrom",
      "outputs": [
        {
          "internalType": "bool",
          "name": "",
          "type": "bool"
        }
      ],
      "stateMutability": "nonpayable",
      "type": "function"
    },
    {
      "inputs": [
        {
          "internalType": "address",
          "name": "newOwner",
          "type": "address"
        }
      ],
      "name": "transferOwnership",
      "outputs": [],
      "stateMutability": "nonpayable",
      "type": "function"
    },
    {
      "inputs": [
        {
          "internalType": "uint256",
          "name": "_amount",
          "type": "uint256"
        }
      ],
      "name": "wouldExceedMaxSupply",
      "outputs": [
        {
          "internalType": "bool",
          "name": "",
          "type": "bool"
        }
      ],
      "stateMutability": "view",
      "type": "function"
    }
  ],
  "bytecode": "0x604060808152346200048d5762001977803803806200001e8162000492565b92833981016060828203126200048d5781516001600160401b0391908281116200048d578162000050918501620004b8565b90602090818501518481116200048d5786916200006f918701620004b8565b9401516001600160a01b0380821695909490918690036200048d5783518181116200038d576003908154906001968783811c9316801562000482575b878410146200046c578190601f9384811162000416575b508790848311600114620003af57600092620003a3575b505060001982851b1c191690871b1782555b83519283116200038d5760049384548781811c9116801562000382575b878210146200036d57908183869594931162000313575b5086918411600114620002a8576000936200029c575b505082861b92600019911b1c19161781555b60058054336001600160a01b03198083168217909355885192969091167f8be0079c531659141344cd1fd0a4f28419497f9722a3daafe3b4186f6b6457e0600080a3856200019f575b865161144c90816200052b8239f35b856000526006835260ff8760002054166200025e57508460005260068252856000208360ff1982541617905560075492680100000000000000008410156200024957830180600755831015620002345750908391600760005260002001918254161790557f6ae172837ea30b801fbfcdd4108aa1d5bf8ff775444fd70256b44e6bf3dfc3f6600080a238808080808062000190565b603290634e487b7160e01b6000525260246000fd5b604182634e487b7160e01b6000525260246000fd5b828060649362461bcd60e51b845283015260248201527f4453433a204164647265737320697320616c72656164792061206d696e7465726044820152fd5b01519150388062000135565b9190879450601f1984169286600052876000209360005b89828210620002fc5750508511620002e1575b50505050811b01815562000147565b01519060f884600019921b161c1916905538808080620002d2565b8385015187558b98909601959384019301620002bf565b909192935085600052866000208380870160051c82019289881062000363575b918a918897969594930160051c01915b828110620003535750506200011f565b600081558796508a910162000343565b9250819262000333565b602286634e487b7160e01b6000525260246000fd5b90607f169062000108565b634e487b7160e01b600052604160045260246000fd5b015190503880620000d9565b90899350601f1983169186600052896000209260005b8b828210620003ff5750508411620003e6575b505050811b018255620000eb565b015160001983871b60f8161c19169055388080620003d8565b8385015186558d97909501949384019301620003c5565b90915084600052876000208480850160051c8201928a861062000462575b918b91869594930160051c01915b82811062000452575050620000c2565b600081558594508b910162000442565b9250819262000434565b634e487b7160e01b600052602260045260246000fd5b92607f1692620000ab565b600080fd5b6040519190601f01601f191682016001600160401b038111838210176200038d57604052565b919080601f840112156200048d5782516001600160401b0381116200038d57602090620004ee601f8201601f1916830162000492565b928184528282870101116200048d5760005b8181106200051657508260009394955001015290565b85810183015184820184015282016200050056fe6080604081815260048036101561001557600080fd5b600092833560e01c90816306fdde0314610d9757508063095ea7b314610d6d57806318160ddd14610d4e57806323b872dd14610ced5780633092afd514610b40578063313ce56714610b2457806332cb6b0c14610afd578063349f0b9014610ab25780633950935114610a6257806340c10f191461094157806342966c68146108be5780636b32810b146107f957806370a08231146107c2578063715018a61461076557806379cc6790146106905780638da5cb5b1461066757806395d89b4114610563578063983b2d5614610434578063a457c2d714610390578063a9059cbb1461033f578063aa271e1a14610301578063aa2fe91b14610301578063c7d77ee5146102c1578063c8e24a2d14610286578063dd62ed3e1461023d578063eed319861461021a5763f2fde38b1461014c57600080fd5b3461021657602036600319011261021657610165610ed6565b9061016e610f54565b6001600160a01b039182169283156101c4575050600554826bffffffffffffffffffffffff60a01b821617600555167f8be0079c531659141344cd1fd0a4f28419497f9722a3daafe3b4186f6b6457e08380a380f35b906020608492519162461bcd60e51b8352820152602660248201527f4f776e61626c653a206e6577206f776e657220697320746865207a65726f206160448201526564647265737360d01b6064820152fd5b8280fd5b5050346102395781600319360112610239576020906007549051908152f35b5080fd5b5050346102395780600319360112610239578060209261025b610ed6565b610263610ef1565b6001600160a01b0391821683526001865283832091168252845220549051908152f35b5091346102be5760203660031901126102be57506b033b2e3c9fd0803ce80000006102b660209335600254610fe4565b119051908152f35b80fd5b50346102165760203660031901126102165735916007548310156102be57506102eb602092610f07565b905491519160018060a01b039160031b1c168152f35b5050346102395760203660031901126102395760209160ff9082906001600160a01b0361032c610ed6565b1681526006855220541690519015158152f35b5091346102be57816003193601126102be575061035a610ed6565b916001600160a01b03831615610382575061037b60209260243590336112a8565b5160018152f35b9051638d6d24fb60e01b8152fd5b5082346102be57826003193601126102be576103aa610ed6565b918360243592338152600160205281812060018060a01b03861682526020522054908282106103e35760208561037b8585038733611007565b608490602086519162461bcd60e51b8352820152602560248201527f45524332303a2064656372656173656420616c6c6f77616e63652062656c6f77604482015264207a65726f60d81b6064820152fd5b5091903461023957602036600319011261023957610450610ed6565b610458610f54565b6001600160a01b03811691821561055457828452600660205260ff81852054166105125782845260066020528320805460ff19166001179055600754680100000000000000008110156104ff57906104b98260016104d89401600755610f07565b90919082549060031b9160018060a01b03809116831b921b1916179055565b7f6ae172837ea30b801fbfcdd4108aa1d5bf8ff775444fd70256b44e6bf3dfc3f68280a280f35b634e487b7160e01b845260418552602484fd5b5162461bcd60e51b8152602081860181905260248201527f4453433a204164647265737320697320616c72656164792061206d696e7465726044820152606490fd5b51638d6d24fb60e01b81528490fd5b50919034610239578160031936011261023957805191809380549160019083821c9282851694851561065d575b602095868610811461064a5785895290811561062657506001146105ce575b6105ca87876105c0828c0383610fac565b5191829182610e8d565b0390f35b81529295507f8a35acfbc15ff81a39ae7d344fd709f28e8600b4aa8c65c6b64bfe7fe36bd19b5b82841061061357505050826105ca946105c0928201019438806105af565b80548685018801529286019281016105f5565b60ff19168887015250505050151560051b83010192506105c0826105ca38806105af565b634e487b7160e01b845260228352602484fd5b93607f1693610590565b50503461023957816003193601126102395760055490516001600160a01b039091168152602090f35b50346102165781600319360112610216576106a9610ed6565b9160243592338552600660205260ff828620541615610757576001600160a01b03811692831561074957841561073b578386528560205282862054851161072d575083610700916106fb823383611210565b611109565b519182527f08009940fb138ae33fbb70c10b643e840c71f1654344cc173975a815e117e68760203393a380f35b8251631c39aad360e01b8152fd5b825163f9389b3360e01b8152fd5b8251638d6d24fb60e01b8152fd5b5051634e0dc0cf60e11b8152fd5b83346102be57806003193601126102be5761077e610f54565b600580546001600160a01b0319811690915581906001600160a01b03167f8be0079c531659141344cd1fd0a4f28419497f9722a3daafe3b4186f6b6457e08280a380f35b5050346102395760203660031901126102395760209181906001600160a01b036107ea610ed6565b16815280845220549051908152f35b8284346102be57806003193601126102be579080519182906007549182855260208095018093600784527fa66cc928b5edb82af9bd49922954155ab7b0942694bea4ce44661d9a8736c68890845b8181106108a1575050508161085d910382610fac565b83519485948186019282875251809352850193925b82811061088157505050500390f35b83516001600160a01b031685528695509381019392810192600101610872565b82546001600160a01b031684529288019260019283019201610847565b509034610216576020366003190112610216578135918215610933573384528360205281842054831161092557506108f68233611109565b5190815233907f08009940fb138ae33fbb70c10b643e840c71f1654344cc173975a815e117e68760203392a380f35b9051631c39aad360e01b8152fd5b905163f9389b3360e01b8152fd5b503461021657816003193601126102165761095a610ed6565b9160243592338552600660205260ff828620541615610757576001600160a01b031691821561038257831561093357600254906b033b2e3c9fd0803ce80000006109a48684610fe4565b11610a1f5750836109b491610fe4565b6002558184528360205280842083815401905581847fddf252ad1be2c89b69c2b068fc378daa952ba7f163c4a11628f55a4df523b3ef60208451878152a3519182527f969cd201f68f120baff2bf3c59bc3b534434e08b69a71a14ab85cb79cd3b63e460203393a380f35b606490602084519162461bcd60e51b8352820152601760248201527f4453433a2045786365656473206d617820737570706c790000000000000000006044820152fd5b50503461023957806003193601126102395761037b602092610aab610a85610ed6565b338352600186528483206001600160a01b03821684528652918490205460243590610fe4565b9033611007565b50919034610239578160031936011261023957600254916b033b2e3c9fd0803ce8000000928303928311610aea576020838351908152f35b634e487b7160e01b815260118452602490fd5b505034610239578160031936011261023957602090516b033b2e3c9fd0803ce80000008152f35b5050346102395781600319360112610239576020905160128152f35b5082903461023957602036600319011261023957610b5c610ed6565b92610b65610f54565b6001600160a01b03938416908115610cde57818452600660205260ff818520541615610c9c5781845260066020528320805460ff19169055825b6007805480831015610c905790869184610bb885610f07565b949054600395861b1c1614610bee575050506000198114610bdb57600101610b9f565b634e487b7160e01b845260118352602484fd5b9194909395969260001992838101908111610c7d57906104b985610c14610c2194610f07565b9054908a1b1c1691610f07565b8354908115610c6a57500192610c3684610f07565b81939154921b1b19169055555b7fe94479a9f7e1952cc78f2d6baab678adc1b772d936c6583def489e524cb666928280a280f35b634e487b7160e01b885260319052602487fd5b634e487b7160e01b895260118352602489fd5b50505091925050610c43565b5162461bcd60e51b8152602081840152601c60248201527f4453433a2041646472657373206973206e6f742061206d696e746572000000006044820152606490fd5b51638d6d24fb60e01b81529050fd5b5091346102be5760603660031901126102be5750610d09610ed6565b610d11610ef1565b604435939091906001600160a01b03831615610d4057509261037b91602094610d3b833383611210565b6112a8565b8351638d6d24fb60e01b8152fd5b5050346102395781600319360112610239576020906002549051908152f35b50503461023957806003193601126102395760209061037b610d8d610ed6565b6024359033611007565b9291905034610e895783600319360112610e8957600354600181811c9186908281168015610e7f575b6020958686108214610e6c5750848852908115610e4a5750600114610df1575b6105ca86866105c0828b0383610fac565b929550600383527fc2575a0e9e593c00f959f8c92f12db2869c3395a3b0502d05e2516446f71f85b5b828410610e3757505050826105ca946105c0928201019438610de0565b8054868501880152928601928101610e1a565b60ff191687860152505050151560051b83010192506105c0826105ca38610de0565b634e487b7160e01b845260229052602483fd5b93607f1693610dc0565b8380fd5b6020808252825181830181905290939260005b828110610ec257505060409293506000838284010152601f8019910116010190565b818101860151848201604001528501610ea0565b600435906001600160a01b0382168203610eec57565b600080fd5b602435906001600160a01b0382168203610eec57565b600754811015610f3e5760076000527fa66cc928b5edb82af9bd49922954155ab7b0942694bea4ce44661d9a8736c6880190600090565b634e487b7160e01b600052603260045260246000fd5b6005546001600160a01b03163303610f6857565b606460405162461bcd60e51b815260206004820152602060248201527f4f776e61626c653a2063616c6c6572206973206e6f7420746865206f776e65726044820152fd5b90601f8019910116810190811067ffffffffffffffff821117610fce57604052565b634e487b7160e01b600052604160045260246000fd5b91908201809211610ff157565b634e487b7160e01b600052601160045260246000fd5b6001600160a01b039081169182156110b857169182156110685760207f8c5be1e5ebec7d5bd14f71427d1e84f3dd0314c0f7b2291e5b200ac8c7c3b925918360005260018252604060002085600052825280604060002055604051908152a3565b60405162461bcd60e51b815260206004820152602260248201527f45524332303a20617070726f766520746f20746865207a65726f206164647265604482015261737360f01b6064820152608490fd5b60405162461bcd60e51b8152602060048201526024808201527f45524332303a20617070726f76652066726f6d20746865207a65726f206164646044820152637265737360e01b6064820152608490fd5b6001600160a01b031680156111c15760009181835282602052604083205481811061117157817fddf252ad1be2c89b69c2b068fc378daa952ba7f163c4a11628f55a4df523b3ef926020928587528684520360408620558060025403600255604051908152a3565b60405162461bcd60e51b815260206004820152602260248201527f45524332303a206275726e20616d6f756e7420657863656564732062616c616e604482015261636560f01b6064820152608490fd5b60405162461bcd60e51b815260206004820152602160248201527f45524332303a206275726e2066726f6d20746865207a65726f206164647265736044820152607360f81b6064820152608490fd5b9060018060a01b0380831660005260016020526040600020908216600052602052604060002054926000198403611248575b50505050565b8084106112635761125a930391611007565b38808080611242565b60405162461bcd60e51b815260206004820152601d60248201527f45524332303a20696e73756666696369656e7420616c6c6f77616e63650000006044820152606490fd5b6001600160a01b039081169182156113c357169182156113725760008281528060205260408120549180831061131e57604082827fddf252ad1be2c89b69c2b068fc378daa952ba7f163c4a11628f55a4df523b3ef958760209652828652038282205586815220818154019055604051908152a3565b60405162461bcd60e51b815260206004820152602660248201527f45524332303a207472616e7366657220616d6f756e7420657863656564732062604482015265616c616e636560d01b6064820152608490fd5b60405162461bcd60e51b815260206004820152602360248201527f45524332303a207472616e7366657220746f20746865207a65726f206164647260448201526265737360e81b6064820152608490fd5b60405162461bcd60e51b815260206004820152602560248201527f45524332303a207472616e736665722066726f6d20746865207a65726f206164604482015264647265737360d81b6064820152608490fdfea2646970667358221220b95e14fdd8395b6c676b01b7ef23b52e6d1e2881d70a5b4a61abe55dc0f6dcf364736f6c63430008140033",
  "linkReferences": {},
  "deployedLinkReferences": {}
}