{
  "_format": "hh-sol-artifact-1",
  "contractName": "MainRouter",
  "sourceName": "contracts/MainRouter.sol",
  "abi": [
    {
      "inputs": [
        {
          "internalType": "address",
          "name": "_router",
          "type": "address"
        },
        {
          "internalType": "address",
          "name": "_functionsRouter",
          "type": "address"
        },
        {
          "internalType": "bytes32",
          "name": "_donId",
          "type": "bytes32"
        },
        {
          "internalType": "uint64",
          "name": "_subscriptionId",
          "type": "uint64"
        }
      ],
      "stateMutability": "nonpayable",
      "type": "constructor"
    },
    {
      "inputs": [
        {
          "internalType": "uint64",
          "name": "destinationChainSelector",
          "type": "uint64"
        }
      ],
      "name": "DestinationChainNotAllowed",
      "type": "error"
    },
    {
      "inputs": [],
      "name": "EmptyArgs",
      "type": "error"
    },
    {
      "inputs": [],
      "name": "EmptySource",
      "type": "error"
    },
    {
      "inputs": [
        {
          "internalType": "address",
          "name": "owner",
          "type": "address"
        },
        {
          "internalType": "address",
          "name": "target",
          "type": "address"
        },
        {
          "internalType": "uint256",
          "name": "value",
          "type": "uint256"
        }
      ],
      "name": "FailedToWithdrawEth",
      "type": "error"
    },
    {
      "inputs": [
        {
          "internalType": "uint256",
          "name": "healthFactor",
          "type": "uint256"
        }
      ],
      "name": "HealthFactorTooLow",
      "type": "error"
    },
    {
      "inputs": [
        {
          "internalType": "uint256",
          "name": "required",
          "type": "uint256"
        },
        {
          "internalType": "uint256",
          "name": "available",
          "type": "uint256"
        }
      ],
      "name": "InsufficientCollateral",
      "type": "error"
    },
    {
      "inputs": [
        {
          "internalType": "uint256",
          "name": "score",
          "type": "uint256"
        }
      ],
      "name": "InvalidCreditScore",
      "type": "error"
    },
    {
      "inputs": [
        {
          "internalType": "address",
          "name": "router",
          "type": "address"
        }
      ],
      "name": "InvalidRouter",
      "type": "error"
    },
    {
      "inputs": [],
      "name": "NoInlineSecrets",
      "type": "error"
    },
    {
      "inputs": [
        {
          "internalType": "uint256",
          "name": "currentBalance",
          "type": "uint256"
        },
        {
          "internalType": "uint256",
          "name": "calculatedFees",
          "type": "uint256"
        }
      ],
      "name": "NotEnoughBalance",
      "type": "error"
    },
    {
      "inputs": [],
      "name": "NothingToWithdraw",
      "type": "error"
    },
    {
      "inputs": [],
      "name": "OnlyRouterCanFulfill",
      "type": "error"
    },
    {
      "inputs": [
        {
          "internalType": "address",
          "name": "sender",
          "type": "address"
        }
      ],
      "name": "SenderNotAllowed",
      "type": "error"
    },
    {
      "inputs": [
        {
          "internalType": "uint64",
          "name": "sourceChainSelector",
          "type": "uint64"
        }
      ],
      "name": "SourceChainNotAllowed",
      "type": "error"
    },
    {
      "anonymous": false,
      "inputs": [
        {
          "indexed": true,
          "internalType": "address",
          "name": "user",
          "type": "address"
        },
        {
          "indexed": false,
          "internalType": "uint256",
          "name": "amount",
          "type": "uint256"
        },
        {
          "indexed": false,
          "internalType": "uint64",
          "name": "destinationChain",
          "type": "uint64"
        },
        {
          "indexed": false,
          "internalType": "uint256",
          "name": "creditScore",
          "type": "uint256"
        }
      ],
      "name": "BorrowApproved",
      "type": "event"
    },
    {
      "anonymous": false,
      "inputs": [
        {
          "indexed": true,
          "internalType": "address",
          "name": "user",
          "type": "address"
        },
        {
          "indexed": false,
          "internalType": "uint256",
          "name": "newScore",
          "type": "uint256"
        }
      ],
      "name": "CreditScoreUpdated",
      "type": "event"
    },
    {
      "anonymous": false,
      "inputs": [
        {
          "indexed": true,
          "internalType": "address",
          "name": "user",
          "type": "address"
        },
        {
          "indexed": true,
          "internalType": "address",
          "name": "token",
          "type": "address"
        },
        {
          "indexed": false,
          "internalType": "uint256",
          "name": "amount",
          "type": "uint256"
        },
        {
          "indexed": false,
          "internalType": "uint64",
          "name": "sourceChain",
          "type": "uint64"
        }
      ],
      "name": "DepositReceived",
      "type": "event"
    },
    {
      "anonymous": false,
      "inputs": [
        {
          "indexed": true,
          "internalType": "bytes32",
          "name": "messageId",
          "type": "bytes32"
        },
        {
          "indexed": true,
          "internalType": "uint64",
          "name": "sourceChainSelector",
          "type": "uint64"
        },
        {
          "indexed": false,
          "internalType": "address",
          "name": "sender",
          "type": "address"
        },
        {
          "indexed": false,
          "internalType": "string",
          "name": "message",
          "type": "string"
        }
      ],
      "name": "MessageReceived",
      "type": "event"
    },
    {
      "anonymous": false,
      "inputs": [
        {
          "indexed": true,
          "internalType": "bytes32",
          "name": "messageId",
          "type": "bytes32"
        },
        {
          "indexed": true,
          "internalType": "uint64",
          "name": "destinationChainSelector",
          "type": "uint64"
        },
        {
          "indexed": false,
          "internalType": "address",
          "name": "receiver",
          "type": "address"
        },
        {
          "indexed": false,
          "internalType": "string",
          "name": "message",
          "type": "string"
        },
        {
          "indexed": false,
          "internalType": "uint256",
          "name": "fees",
          "type": "uint256"
        }
      ],
      "name": "MessageSent",
      "type": "event"
    },
    {
      "anonymous": false,
      "inputs": [
        {
          "indexed": true,
          "internalType": "address",
          "name": "from",
          "type": "address"
        },
        {
          "indexed": true,
          "internalType": "address",
          "name": "to",
          "type": "address"
        }
      ],
      "name": "OwnershipTransferRequested",
      "type": "event"
    },
    {
      "anonymous": false,
      "inputs": [
        {
          "indexed": true,
          "internalType": "address",
          "name": "from",
          "type": "address"
        },
        {
          "indexed": true,
          "internalType": "address",
          "name": "to",
          "type": "address"
        }
      ],
      "name": "OwnershipTransferred",
      "type": "event"
    },
    {
      "anonymous": false,
      "inputs": [
        {
          "indexed": true,
          "internalType": "bytes32",
          "name": "id",
          "type": "bytes32"
        }
      ],
      "name": "RequestFulfilled",
      "type": "event"
    },
    {
      "anonymous": false,
      "inputs": [
        {
          "indexed": true,
          "internalType": "bytes32",
          "name": "id",
          "type": "bytes32"
        }
      ],
      "name": "RequestSent",
      "type": "event"
    },
    {
      "inputs": [],
      "name": "CREDIT_SCORE_MULTIPLIER",
      "outputs": [
        {
          "internalType": "uint256",
          "name": "",
          "type": "uint256"
        }
      ],
      "stateMutability": "view",
      "type": "function"
    },
    {
      "inputs": [],
      "name": "MAX_LTV",
      "outputs": [
        {
          "internalType": "uint256",
          "name": "",
          "type": "uint256"
        }
      ],
      "stateMutability": "view",
      "type": "function"
    },
    {
      "inputs": [],
      "name": "MIN_HEALTH_FACTOR",
      "outputs": [
        {
          "internalType": "uint256",
          "name": "",
          "type": "uint256"
        }
      ],
      "stateMutability": "view",
      "type": "function"
    },
    {
      "inputs": [],
      "name": "acceptOwnership",
      "outputs": [],
      "stateMutability": "nonpayable",
      "type": "function"
    },
    {
      "inputs": [
        {
          "internalType": "uint64",
          "name": "_destinationChainSelector",
          "type": "uint64"
        },
        {
          "internalType": "bool",
          "name": "allowed",
          "type": "bool"
        }
      ],
      "name": "allowlistDestinationChain",
      "outputs": [],
      "stateMutability": "nonpayable",
      "type": "function"
    },
    {
      "inputs": [
        {
          "internalType": "address",
          "name": "_sender",
          "type": "address"
        },
        {
          "internalType": "bool",
          "name": "allowed",
          "type": "bool"
        }
      ],
      "name": "allowlistSender",
      "outputs": [],
      "stateMutability": "nonpayable",
      "type": "function"
    },
    {
      "inputs": [
        {
          "internalType": "uint64",
          "name": "_sourceChainSelector",
          "type": "uint64"
        },
        {
          "internalType": "bool",
          "name": "allowed",
          "type": "bool"
        }
      ],
      "name": "allowlistSourceChain",
      "outputs": [],
      "stateMutability": "nonpayable",
      "type": "function"
    },
    {
      "inputs": [
        {
          "internalType": "uint64",
          "name": "",
          "type": "uint64"
        }
      ],
      "name": "allowlistedDestinationChains",
      "outputs": [
        {
          "internalType": "bool",
          "name": "",
          "type": "bool"
        }
      ],
      "stateMutability": "view",
      "type": "function"
    },
    {
      "inputs": [
        {
          "internalType": "address",
          "name": "",
          "type": "address"
        }
      ],
      "name": "allowlistedSenders",
      "outputs": [
        {
          "internalType": "bool",
          "name": "",
          "type": "bool"
        }
      ],
      "stateMutability": "view",
      "type": "function"
    },
    {
      "inputs": [
        {
          "internalType": "uint64",
          "name": "",
          "type": "uint64"
        }
      ],
      "name": "allowlistedSourceChains",
      "outputs": [
        {
          "internalType": "bool",
          "name": "",
          "type": "bool"
        }
      ],
      "stateMutability": "view",
      "type": "function"
    },
    {
      "inputs": [
        {
          "internalType": "address",
          "name": "user",
          "type": "address"
        },
        {
          "internalType": "uint256",
          "name": "amount",
          "type": "uint256"
        },
        {
          "internalType": "uint64",
          "name": "destinationChain",
          "type": "uint64"
        }
      ],
      "name": "approveBorrow",
      "outputs": [],
      "stateMutability": "nonpayable",
      "type": "function"
    },
    {
      "inputs": [
        {
          "components": [
            {
              "internalType": "bytes32",
              "name": "messageId",
              "type": "bytes32"
            },
            {
              "internalType": "uint64",
              "name": "sourceChainSelector",
              "type": "uint64"
            },
            {
              "internalType": "bytes",
              "name": "sender",
              "type": "bytes"
            },
            {
              "internalType": "bytes",
              "name": "data",
              "type": "bytes"
            },
            {
              "components": [
                {
                  "internalType": "address",
                  "name": "token",
                  "type": "address"
                },
                {
                  "internalType": "uint256",
                  "name": "amount",
                  "type": "uint256"
                }
              ],
              "internalType": "struct Client.EVMTokenAmount[]",
              "name": "destTokenAmounts",
              "type": "tuple[]"
            }
          ],
          "internalType": "struct Client.Any2EVMMessage",
          "name": "message",
          "type": "tuple"
        }
      ],
      "name": "ccipReceive",
      "outputs": [],
      "stateMutability": "nonpayable",
      "type": "function"
    },
    {
      "inputs": [
        {
          "internalType": "address",
          "name": "",
          "type": "address"
        }
      ],
      "name": "creditScores",
      "outputs": [
        {
          "internalType": "uint256",
          "name": "",
          "type": "uint256"
        }
      ],
      "stateMutability": "view",
      "type": "function"
    },
    {
      "inputs": [],
      "name": "donId",
      "outputs": [
        {
          "internalType": "bytes32",
          "name": "",
          "type": "bytes32"
        }
      ],
      "stateMutability": "view",
      "type": "function"
    },
    {
      "inputs": [],
      "name": "gasLimit",
      "outputs": [
        {
          "internalType": "uint32",
          "name": "",
          "type": "uint32"
        }
      ],
      "stateMutability": "view",
      "type": "function"
    },
    {
      "inputs": [
        {
          "internalType": "address",
          "name": "user",
          "type": "address"
        }
      ],
      "name": "getHealthFactor",
      "outputs": [
        {
          "internalType": "uint256",
          "name": "",
          "type": "uint256"
        }
      ],
      "stateMutability": "view",
      "type": "function"
    },
    {
      "inputs": [],
      "name": "getRouter",
      "outputs": [
        {
          "internalType": "address",
          "name": "",
          "type": "address"
        }
      ],
      "stateMutability": "view",
      "type": "function"
    },
    {
      "inputs": [
        {
          "internalType": "address",
          "name": "user",
          "type": "address"
        }
      ],
      "name": "getUserCreditScore",
      "outputs": [
        {
          "internalType": "uint256",
          "name": "",
          "type": "uint256"
        }
      ],
      "stateMutability": "view",
      "type": "function"
    },
    {
      "inputs": [
        {
          "internalType": "address",
          "name": "user",
          "type": "address"
        }
      ],
      "name": "getUserProfile",
      "outputs": [
        {
          "components": [
            {
              "internalType": "uint256",
              "name": "totalDeposited",
              "type": "uint256"
            },
            {
              "internalType": "uint256",
              "name": "totalBorrowed",
              "type": "uint256"
            },
            {
              "internalType": "uint256",
              "name": "creditScore",
              "type": "uint256"
            },
            {
              "internalType": "uint256",
              "name": "healthFactor",
              "type": "uint256"
            },
            {
              "internalType": "bool",
              "name": "hasNFT",
              "type": "bool"
            },
            {
              "internalType": "uint256",
              "name": "lastUpdated",
              "type": "uint256"
            }
          ],
          "internalType": "struct MainRouter.UserProfile",
          "name": "",
          "type": "tuple"
        }
      ],
      "stateMutability": "view",
      "type": "function"
    },
    {
      "inputs": [
        {
          "internalType": "bytes32",
          "name": "requestId",
          "type": "bytes32"
        },
        {
          "internalType": "bytes",
          "name": "response",
          "type": "bytes"
        },
        {
          "internalType": "bytes",
          "name": "err",
          "type": "bytes"
        }
      ],
      "name": "handleOracleFulfillment",
      "outputs": [],
      "stateMutability": "nonpayable",
      "type": "function"
    },
    {
      "inputs": [],
      "name": "lastRequestId",
      "outputs": [
        {
          "internalType": "bytes32",
          "name": "",
          "type": "bytes32"
        }
      ],
      "stateMutability": "view",
      "type": "function"
    },
    {
      "inputs": [],
      "name": "owner",
      "outputs": [
        {
          "internalType": "address",
          "name": "",
          "type": "address"
        }
      ],
      "stateMutability": "view",
      "type": "function"
    },
    {
      "inputs": [
        {
          "internalType": "address",
          "name": "",
          "type": "address"
        }
      ],
      "name": "priceFeeds",
      "outputs": [
        {
          "internalType": "contract AggregatorV3Interface",
          "name": "",
          "type": "address"
        }
      ],
      "stateMutability": "view",
      "type": "function"
    },
    {
      "inputs": [
        {
          "internalType": "address",
          "name": "user",
          "type": "address"
        },
        {
          "internalType": "string",
          "name": "source",
          "type": "string"
        }
      ],
      "name": "requestCreditScoreUpdate",
      "outputs": [
        {
          "internalType": "bytes32",
          "name": "requestId",
          "type": "bytes32"
        }
      ],
      "stateMutability": "nonpayable",
      "type": "function"
    },
    {
      "inputs": [
        {
          "internalType": "bytes32",
          "name": "",
          "type": "bytes32"
        }
      ],
      "name": "requestToUser",
      "outputs": [
        {
          "internalType": "address",
          "name": "",
          "type": "address"
        }
      ],
      "stateMutability": "view",
      "type": "function"
    },
    {
      "inputs": [
        {
          "internalType": "address",
          "name": "_token",
          "type": "address"
        },
        {
          "internalType": "address",
          "name": "_priceFeed",
          "type": "address"
        }
      ],
      "name": "setPriceFeed",
      "outputs": [],
      "stateMutability": "nonpayable",
      "type": "function"
    },
    {
      "inputs": [],
      "name": "subscriptionId",
      "outputs": [
        {
          "internalType": "uint64",
          "name": "",
          "type": "uint64"
        }
      ],
      "stateMutability": "view",
      "type": "function"
    },
    {
      "inputs": [
        {
          "internalType": "bytes4",
          "name": "interfaceId",
          "type": "bytes4"
        }
      ],
      "name": "supportsInterface",
      "outputs": [
        {
          "internalType": "bool",
          "name": "",
          "type": "bool"
        }
      ],
      "stateMutability": "view",
      "type": "function"
    },
    {
      "inputs": [
        {
          "internalType": "address",
          "name": "to",
          "type": "address"
        }
      ],
      "name": "transferOwnership",
      "outputs": [],
      "stateMutability": "nonpayable",
      "type": "function"
    },
    {
      "inputs": [
        {
          "internalType": "address",
          "name": "",
          "type": "address"
        }
      ],
      "name": "userBorrows",
      "outputs": [
        {
          "internalType": "uint256",
          "name": "",
          "type": "uint256"
        }
      ],
      "stateMutability": "view",
      "type": "function"
    },
    {
      "inputs": [
        {
          "internalType": "address",
          "name": "",
          "type": "address"
        },
        {
          "internalType": "address",
          "name": "",
          "type": "address"
        }
      ],
      "name": "userDeposits",
      "outputs": [
        {
          "internalType": "uint256",
          "name": "",
          "type": "uint256"
        }
      ],
      "stateMutability": "view",
      "type": "function"
    },
    {
      "inputs": [
        {
          "internalType": "address",
          "name": "",
          "type": "address"
        }
      ],
      "name": "userProfiles",
      "outputs": [
        {
          "internalType": "uint256",
          "name": "totalDeposited",
          "type": "uint256"
        },
        {
          "internalType": "uint256",
          "name": "totalBorrowed",
          "type": "uint256"
        },
        {
          "internalType": "uint256",
          "name": "creditScore",
          "type": "uint256"
        },
        {
          "internalType": "uint256",
          "name": "healthFactor",
          "type": "uint256"
        },
        {
          "internalType": "bool",
          "name": "hasNFT",
          "type": "bool"
        },
        {
          "internalType": "uint256",
          "name": "lastUpdated",
          "type": "uint256"
        }
      ],
      "stateMutability": "view",
      "type": "function"
    },
    {
      "inputs": [
        {
          "internalType": "address",
          "name": "_beneficiary",
          "type": "address"
        }
      ],
      "name": "withdraw",
      "outputs": [],
      "stateMutability": "nonpayable",
      "type": "function"
    },
    {
      "inputs": [
        {
          "internalType": "address",
          "name": "_beneficiary",
          "type": "address"
        },
        {
          "internalType": "address",
          "name": "_token",
          "type": "address"
        }
      ],
      "name": "withdrawToken",
      "outputs": [],
      "stateMutability": "nonpayable",
      "type": "function"
    },
    {
      "stateMutability": "payable",
      "type": "receive"
    }
  ],
  "bytecode": "0x60c03461016557601f612d1538819003918201601f19168301916001600160401b0383118484101761016a578084926080946040528339810103126101655761004781610180565b9061005460208201610180565b91606060408301519201519160018060401b038316809303610165576001600160a01b03821691821561014f57608052331561010a57600080546001600160a01b031990811633179091556001600160a01b0390941660a052600c805460028054909616909317909455600b556001600160601b031916176a0493e00000000000000000179055604051612b8090816101958239608051818181610cb10152610fae015260a0518181816104d201526119920152f35b60405162461bcd60e51b815260206004820152601860248201527f43616e6e6f7420736574206f776e657220746f207a65726f00000000000000006044820152606490fd5b6335fdcccd60e21b600052600060045260246000fd5b600080fd5b634e487b7160e01b600052604160045260246000fd5b51906001600160a01b03821682036101655756fe6080604052600436101561001b575b361561001957600080fd5b005b60003560e01c806301ffc9a71461023657806307de83941461023157806309c1ba2e1461022c5780630ca761751461022757806330268bb414610222578063332d56d71461021d57806335e5b7bb146102185780633aeac4e1146102135780634030d5211461020e578063436d8039146102095780634dd601b4146101e657806351cff8d9146102045780636159ada1146101ff57806375c67c66146101fa57806376e11286146101f557806377593cc4146101f057806379ba5097146101eb57806380bb7273146101e657806381bf8d3d146101e157806385572ffb146101dc57806386da4cb6146101d75780638da5cb5b146101d25780638dbe7b9d146101cd57806396d3b83d146101c8578063987ee156146101c35780639dcb511a146101be578063b0f479a1146101b9578063b5627e42146101b4578063db04fa49146101af578063eab5b02c146101aa578063f2fde38b146101a5578063f68016b7146101a0578063fc2a88c31461019b5763fe6bcd7c0361000e576111b8565b61119a565b611173565b6110b3565b611058565b611000565b610fdd565b610f98565b610f53565b610e63565b610e0b565b610de3565b610dba565b610d9e565b610c7f565b610c63565b6109cc565b610ba2565b610b65565b610b1a565b610adb565b610a99565b610a09565b610987565b610948565b610846565b61063d565b610576565b610542565b61047e565b61031f565b6102a2565b3461028c57602036600319011261028c5760043563ffffffff60e01b811680910361028c576020906385572ffb60e01b811490811561027b575b506040519015158152f35b6301ffc9a760e01b14905038610270565b600080fd5b6001600160a01b0381160361028c57565b3461028c57604036600319011261028c576004356102bf81610291565b6024356001600160401b03811161028c573660238201121561028c5780600401356001600160401b03811161028c57366024828401011161028c5761031b92602461030b930190611275565b6040519081529081906020820190565b0390f35b3461028c57600036600319011261028c5760206001600160401b03600c5416604051908152f35b634e487b7160e01b600052604160045260246000fd5b60c081019081106001600160401b0382111761037757604052565b610346565b60e081019081106001600160401b0382111761037757604052565b604081019081106001600160401b0382111761037757604052565b608081019081106001600160401b0382111761037757604052565b90601f801991011681019081106001600160401b0382111761037757604052565b604051906103fd60a0836103cd565b565b604051906103fd6020836103cd565b6001600160401b03811161037757601f01601f191660200190565b9291926104358261040e565b9161044360405193846103cd565b82948184528183011161028c578281602093846000960137010152565b9080601f8301121561028c5781602061047b93359101610429565b90565b3461028c57606036600319011261028c576004356024356001600160401b03811161028c576104b1903690600401610460565b6044356001600160401b03811161028c576104d0903690600401610460565b7f00000000000000000000000000000000000000000000000000000000000000006001600160a01b031633036105315761050a9183611a14565b7f85e1543bf2f84fe80c6badbce3648c8539ad1df4d2b3d822938ca0538be727e6600080a2005b63c6829f8360e01b60005260046000fd5b3461028c57602036600319011261028c57600435600052600e602052602060018060a01b0360406000205416604051908152f35b3461028c57602036600319011261028c5760043561059381610291565b60018060a01b031660005260066020526040600020805461031b6001830154926002810154906003810154600560ff60048401541692015492604051968796879260a094919796959260c08501988552602085015260408401526060830152151560808201520152565b604435906001600160401b038216820361028c57565b600435906001600160401b038216820361028c57565b35906001600160401b038216820361028c57565b3461028c57606036600319011261028c5760043561065a81610291565b6024356106656105fd565b6001600160401b03811680600052600360205260ff604060002054161561080d57506001600160a01b038316600090815260096020526040902054926101f484106107f7576106b381611ade565b8084116107de57506001600160a01b03811660009081526008602052604090206106de8482546113aa565b90556001600160a01b03811660009081526006602052604090206001016107068482546113aa565b90556001600160a01b038116600090815260066020526040902042906005015561072f81611b50565b936714d1120d7b16000085106107c8576107c3907f22984f68941237d785be47dbc3a4034a25a23bd9832c103015dd92ace6247172949560036107848560018060a01b03166000526006602052604060002090565b0155610791848785611bc9565b604080519687526001600160401b039094166020870152928501929092526001600160a01b0316929081906060820190565b0390a2005b63b8dfb2c160e01b600052600485905260246000fd5b632c1f8ef160e21b600052600484905260245260446000fd5b63273a244b60e21b600052600484905260246000fd5b63206abad760e01b60005260045260246000fd5b604090600319011261028c5760043561083981610291565b9060243561047b81610291565b3461028c5761085436610821565b61085c611ca1565b6040516370a0823160e01b81523060048201526001600160a01b03919091169190602081602481865afa90811561090357600091610919575b5080156109085760405163a9059cbb60e01b81526001600160a01b03929092166004830152602482015290602090829060449082906000905af18015610903576108db57005b6100199060203d6020116108fc575b6108f481836103cd565b8101906113d2565b503d6108ea565b6113c6565b630686827b60e51b60005260046000fd5b61093b915060203d602011610941575b61093381836103cd565b8101906113b7565b38610895565b503d610929565b3461028c57602036600319011261028c576001600160401b03610969610613565b166000526004602052602060ff604060002054166040519015158152f35b3461028c5760206109c361099a36610821565b6001600160a01b0391821660009081526007855260408082209290931681526020919091522090565b54604051908152f35b3461028c57602036600319011261028c576004356109e981610291565b60018060a01b031660005260096020526020604060002054604051908152f35b3461028c57602036600319011261028c57600435610a2681610291565b610a2e611ca1565b47801561090857600080808084865af13d15610a94573d610a4e8161040e565b90610a5c60405192836103cd565b8152600060203d92013e5b15610a6e57005b639d11f56360e01b600052336004526001600160a01b0390911660245260445260646000fd5b610a67565b3461028c57602036600319011261028c57600435610ab681610291565b60018060a01b03166000526005602052602060ff604060002054166040519015158152f35b3461028c57602036600319011261028c576001600160401b03610afc610613565b166000526003602052602060ff604060002054166040519015158152f35b3461028c57610019610b2b36610821565b90610b34611ca1565b6001600160a01b039081166000908152600a6020526040902080546001600160a01b03191692909116919091179055565b3461028c57602036600319011261028c57600435610b8281610291565b60018060a01b031660005260086020526020604060002054604051908152f35b3461028c57600036600319011261028c576001546001600160a01b03163303610c25576000546001600160a01b0316600080546001600160a01b03191633179055600180546001600160a01b031916905533906001600160a01b03167f8be0079c531659141344cd1fd0a4f28419497f9722a3daafe3b4186f6b6457e0600080a3005b60405162461bcd60e51b815260206004820152601660248201527526bab9ba10313290383937b837b9b2b21037bbb732b960511b6044820152606490fd5b3461028c57600036600319011261028c576020604051604b8152f35b3461028c57602036600319011261028c576004356001600160401b03811161028c5760a0600319823603011261028c577f00000000000000000000000000000000000000000000000000000000000000006001600160a01b03163303610d8957600090610cea6103ee565b81600401358152610cfd60248301610629565b602082015260448201356001600160401b038111610d8557610d259060043691850101610460565b604082015260648201356001600160401b038111610d8557610d4d9060043691850101610460565b606082015260848201356001600160401b038111610d8557610d82926004610d7892369201016113e7565b6080820152611d88565b80f35b8380fd5b6335fdcccd60e21b6000523360045260246000fd5b3461028c57600036600319011261028c576020604051600a8152f35b3461028c57600036600319011261028c576000546040516001600160a01b039091168152602090f35b3461028c57600036600319011261028c576020600b54604051908152f35b8015150361028c57565b3461028c57604036600319011261028c57610019610e27610613565b6001600160401b0360243591610e3c83610e01565b610e44611ca1565b16600052600360205260406000209060ff801983541691151516179055565b3461028c57602036600319011261028c57600435610e8081610291565b600060a0604051610e908161035c565b828152826020820152826040820152826060820152826080820152015260018060a01b0316600052600660205261031b6040600020600560405191610ed48361035c565b8054835260018101546020840152600281015460408401526003810154606084015260ff60048201541615156080840152015460a08201526040519182918291909160a08060c0830194805184526020810151602085015260408101516040850152606081015160608501526080810151151560808501520151910152565b3461028c57602036600319011261028c57600435610f7081610291565b60018060a01b0316600052600a602052602060018060a01b0360406000205416604051908152f35b3461028c57600036600319011261028c576040517f00000000000000000000000000000000000000000000000000000000000000006001600160a01b03168152602090f35b3461028c57600036600319011261028c5760206040516714d1120d7b1600008152f35b3461028c57604036600319011261028c5761001961101c610613565b6001600160401b036024359161103183610e01565b611039611ca1565b16600052600460205260406000209060ff801983541691151516179055565b3461028c57604036600319011261028c5761001960043561107881610291565b6024359061108582610e01565b61108d611ca1565b60018060a01b0316600052600560205260406000209060ff801983541691151516179055565b3461028c57602036600319011261028c576004356110d081610291565b6110d8611ca1565b6001600160a01b031633811461112e57600180546001600160a01b03191682179055600080546001600160a01b0316907fed8889f560326eb138920d842192f0eb3dd22b4f139c87a2c57538e05bae12789080a3005b60405162461bcd60e51b815260206004820152601760248201527f43616e6e6f74207472616e7366657220746f2073656c660000000000000000006044820152606490fd5b3461028c57600036600319011261028c57602063ffffffff600c5460401c16604051908152f35b3461028c57600036600319011261028c576020600d54604051908152f35b3461028c57602036600319011261028c5760206111df6004356111da81610291565b611b50565b604051908152f35b6001600160401b0381116103775760051b60200190565b6040805190919061120f83826103cd565b6001815291601f19018260005b82811061122857505050565b80606060208093850101520161121c565b634e487b7160e01b600052603260045260246000fd5b80511561125c5760200190565b611239565b805182101561125c5760209160051b010190565b91611301611328916112ce6112c861135c95604051936112948561037c565b60008552600060208601526000604086015260608086015260606080860152606060a0860152606060c08601523691610429565b82611e68565b6112fc6112d96111fe565b6112e287611505565b6112eb8261124f565b526112f58161124f565b50826115c9565b611725565b600c5461131e6001600160401b0382169160401c63ffffffff1690565b90600b549261193a565b9161133d83600052600e602052604060002090565b80546001600160a01b0319166001600160a01b03909216919091179055565b61047b81600d55565b634e487b7160e01b600052601160045260246000fd5b600201908160021161138957565b611365565b600301908160031161138957565b906020820180921161138957565b9190820180921161138957565b9081602091031261028c575190565b6040513d6000823e3d90fd5b9081602091031261028c575161047b81610e01565b81601f8201121561028c578035906113fe826111e7565b9261140c60405194856103cd565b82845260208085019360061b8301019181831161028c57602001925b828410611436575050505090565b60408483031261028c576020604091825161145081610397565b863561145b81610291565b81528287013583820152815201930192611428565b9061147a8261040e565b61148760405191826103cd565b8281528092611498601f199161040e565b0190602036910137565b80516001101561125c5760210190565b90815181101561125c570160200190565b908160011b918083046002149015171561138957565b9060648202918083046064149015171561138957565b90600a820291808304600a149015171561138957565b90604051606061151581836103cd565b602a8252601f1901366020830137603061152e8261124f565b53607861153a826114a2565b5360005b6014811061154b57509150565b6001906115a3611578606087901b6bffffffffffffffffffffffff1916831a61157d600482901c600f1683565b611ea2565b61159c61159161158c876114c3565b61137b565b9160001a91886114b2565b53600f1690565b6115c26115b76115b2846114c3565b61138e565b9160001a91856114b2565b530161153e565b8151156115d65760a00152565b63fe936cb760e01b60005260046000fd5b604051906115f66040836103cd565b600c82526b31b7b232a637b1b0ba34b7b760a11b6020830152565b634e487b7160e01b600052602160045260246000fd5b6003111561163157565b611611565b604051906116456040836103cd565b60088252676c616e677561676560c01b6020830152565b6001111561163157565b604051906116756040836103cd565b6006825265736f7572636560d01b6020830152565b604051906116996040836103cd565b60048252636172677360e01b6020830152565b604051906116bb6040836103cd565b600f82526e39b2b1b932ba39a637b1b0ba34b7b760891b6020830152565b604051906116e86040836103cd565b60078252667365637265747360c81b6020830152565b6040519061170d6040836103cd565b600982526862797465734172677360b81b6020830152565b61172d611f00565b9061173f6117396115e7565b83611f31565b61175c815161174d81611627565b61175681611627565b83612017565b611767611739611636565b61178160408201516117788161165c565b6117568161165c565b61178c611739611666565b61179a606082015183611f31565b60a08101805151611899575b50608081019081515161181a575b60c09150018051516117c7575b50515190565b916117d36117396116fe565b6117dc82612044565b60005b8351805182101561180757906118016117fa82600194611261565b51856120b4565b016117df565b5050915061181481612091565b386117c1565b60208101805161182981611627565b61183281611627565b156118885760c09261186b6118839261185261184c6116ac565b88611f31565b5161185c81611627565b61186581611627565b86612017565b61187c6118766116d9565b86611f31565b51846120b4565b6117b4565b63a80d31f760e01b60005260046000fd5b926118ab6118a561168a565b84611f31565b6118b483612044565b60005b845180518210156118df57906118d96118d282600194611261565b5186611f31565b016118b7565b505092506118ec82612091565b386117a6565b60005b8381106119055750506000910152565b81810151838201526020016118f5565b9060209161192e815180928185528580860191016118f2565b601f01601f1916010190565b92906020926001600160401b039263ffffffff611979604051978896879663230e93b160e11b885216600487015260a0602487015260a4860190611915565b60016044860152921660648401526084830152038160007f00000000000000000000000000000000000000000000000000000000000000006001600160a01b03165af1908115610903576000916119f5575b50807f1131472297a800fee664d1d89cfa8f7676ff07189ecc53f80bbb5f4969099db8600080a290565b611a0e915060203d6020116109415761093381836103cd565b386119cb565b909151611aba57600052600e602052611a45604060002060018060a01b0390541691602080825183010191016113b7565b906103e88211611ab0575b6001600160a01b0316600081815260096020908152604080832085905560068252918290206002810185905542600590910155905192835290917f79c012a0cfae660e09134956bc432c8497ec80e86a3a108d130e8b3fca52b3ad9190a2565b6103e89150611a50565b5050565b8115611ac8570490565b634e487b7160e01b600052601260045260246000fd5b60018060a01b0316806000526006602052604060002054906000526009602052604060002054600a810290808204600a14901517156113895760649004604b019081604b1161138957605a8211611b47575b818102918183041490151715611389576064900490565b605a9150611b30565b6001600160a01b0316600090815260066020908152604080832054600890925290912054908115611bc157605081029080820460501481151715611389576804563918244f4000000290808204670de0b6b3a7640000149015171561138957611bbb61047b926114d9565b90611abe565b505060001990565b91611c996000611c8b611c6594611c85611c78611c9e98611c85611c78611c4b60ff611c43611c3c611c2c606060405198611c038a6103b2565b6001600160a01b0316808a5260208a019e8f5260408a019c8d5260019190990190815297611505565b9b516001600160a01b0316611505565b98516127c2565b9451166127c2565b95602160206040519d8e8c83829e519485930191016118f2565b8a01600b60fa1b6020820152019061214d565b600b60fa1b815260010190565b9061214d565b03601f1981018452836103cd565b6122b5565b50565b6000546001600160a01b03163303611cb557565b60405162461bcd60e51b815260206004820152601660248201527527b7363c9031b0b63630b1363290313c9037bbb732b960511b6044820152606490fd5b9081602091031261028c575161047b81610291565b60208183031261028c578051906001600160401b03821161028c570181601f8201121561028c578051611d3a8161040e565b92611d4860405194856103cd565b8184526020828401011161028c5761047b91602080850191016118f2565b6001600160a01b03909116815260406020820181905261047b92910190611915565b80517fb1e312a29937cc11967b0e4a346fef1ae132424ebaba9dc6d90249dba053e87c6001600160401b03611dc760208501516001600160401b031690565b611e37611e076060611df5611de960408a015160208082518301019101611cf3565b6001600160a01b031690565b97015160208082518301019101611d08565b611e0f612491565b8360ff611e20606084015160ff1690565b1615611e3c575b5050604051938493169683611d66565b0390a3565b81516020830151604090930151611e619390916001600160a01b0391821691166124da565b3883611e27565b6000825115611e8257506000808252604082015260600152565b6322ce3edd60e01b8152600490fd5b60ff166030019060ff821161138957565b60ff811690600a821015611eca57611eba9150611e91565b60f81b6001600160f81b03191690565b5060570160ff81116113895760f81b6001600160f81b03191690565b60405190611ef382610397565b6000602083606081520152565b604051611f0c81610397565b6000611f16611ee6565b808352611f2c61010060208501928484526125c6565b505290565b8151611c9e9291906001600160401b031660178111611f82578151611f6d91611f6790611f6060605b60ff1690565b1760ff1690565b90612748565b505b5190611f79611ee6565b50805191612a8d565b60ff8111611faf578151611fa99190611fa190601860605b1790612748565b508251612a0d565b50611f6f565b61ffff8111611fd4578151611fa99190611fcc9060196060611f9a565b508251612994565b63ffffffff8111611ffb578151611fa99190611ff390601a6060611f9a565b50825161291b565b8151611fa9919061200f90601b6060611f9a565b50825161289d565b906103fd9161202681516126d8565b506040519160208301526020825261203f6040836103cd565b6120b4565b602090612053609f8251612748565b5001805190600182018092116113895752565b601f1981019190821161138957565b60001981019190821161138957565b9190820391821161138957565b6020906120a060ff8251612748565b500180516000198101919082116113895752565b8151611c9e9291906001600160401b0316601781116120e1578151611f6d91611f6790611f606040611f5a565b60ff81116120fd578151611fa99190611fa19060186040611f9a565b61ffff811161211a578151611fa99190611fcc9060196040611f9a565b63ffffffff8111612139578151611fa99190611ff390601a6040611f9a565b8151611fa9919061200f90601b6040611f9a565b90612160602092828151948592016118f2565b0190565b90602061047b928181520190611915565b604051906121846020836103cd565b600080835282815b82811061219857505050565b6020906040516121a781610397565b600081526000838201528282850101520161218c565b906001600160401b0390939293168152604060208201526122036121ed845160a0604085015260e0840190611915565b6020850151838203603f19016060850152611915565b90604084015191603f198282030160808301526020808451928381520193019060005b8181106122605750505060608401516001600160a01b031660a0820152919261047b9290608001519060c0603f1982850301910152611915565b825180516001600160a01b031686526020908101518187015260409095019490920191600101612226565b9392916122b09060409260018060a01b03168652606060208701526060860190611915565b930152565b60408051600060208083019190915281529291906122d390846103cd565b6040516122f5816122e78560208301612164565b03601f1981018352826103cd565b6122fd612175565b6123136123086103ff565b62030d408152612868565b9161231c6103ee565b9586526020860152604085015260006060850152608084015260025461234a906001600160a01b0316611de9565b6040516320487ded60e01b8152936020858061236a8487600484016121bd565b0381855afa94851561090357600095612470575b50478511612456576123ab85926020926040519788809481936396f4e9f960e01b835289600484016121bd565b03925af193841561090357600094612404575b506001600160401b0384926123fe7f72bf88fdd9d3b2023da1448d9689b4d63d2cffa089fd364b50e6077331986f7c93604051938493169660008461228b565b0390a390565b6123fe94507f72bf88fdd9d3b2023da1448d9689b4d63d2cffa089fd364b50e6077331986f7c919261244c6001600160401b039260203d6020116109415761093381836103cd565b95509291506123be565b634787a10360e11b60005247600452602485905260446000fd5b61248a91955060203d6020116109415761093381836103cd565b933861237e565b600060606040516124a1816103b2565b82815282602082015282604082015201526040516124be816103b2565b6000815260006020820152600060408201526000606082015290565b90919260018060a01b038216928360005260076020526125108160406000209060018060a01b0316600052602052604060002090565b80549086820180921161138957558360005260066020526040600020805493868501809511611389577ff664b7cf4a6eb64372b17892837e5eda83dc15187b074ff156cf853d8bf1e22094612586925542600561257f8360018060a01b03166000526006602052604060002090565b0155611b50565b846000526006602052600360406000200155611e3760405192839260018060a01b031696839092916001600160401b036020916040840195845216910152565b906125cf611ee6565b50601f8116806125fe575b508060208301526040519081835260008252810160200190811061028c5760405290565b6020036020811161138957810180911161138957386125da565b90612621611ee6565b50805161262c611ee6565b5061263a8251821115612a86565b8251519161264882846113aa565b90602085015182116126c1575b6020918551838151968201019582116126b9575b505001905b602081101561269357600019906020036101000a019081199051169082511617905290565b90916126ae6126a86126b4928551815261139c565b9361139c565b91612066565b61266e565b523880612669565b6126d36126cd836114c3565b86612b33565b612655565b6126e0611ee6565b508051516001810190818111611389576020830151811015612719575b60c26020845192830101538051821161271557505090565b5290565b8160011b82810460021483151715611389576127429061273b855191866125c6565b5084612618565b506126fd565b90612751611ee6565b508151516001810191828211611389576020840151821015612784575b6020845192830101538051821161271557505090565b8260011b83810460021484151715611389576127ad906127a6865191876125c6565b5085612618565b5061276e565b60001981146113895760010190565b80156128485780816000925b61282d5750806127dd83611470565b92905b6127e957505090565b6127f290612075565b90612818611eba612813611f5a600a85049461280d866114ef565b90612084565b611e91565b60001a61282583856114b2565b5390816127e0565b9161283a612842916127b3565b92600a900490565b806127ce565b506040516128576040826103cd565b60018152600360fc1b602082015290565b604051906397a657c960e01b60208301525160248201526024815261047b6044826103cd565b601f8111611389576101000a90565b906128a6611ee6565b5081515180600801918260081161138957602084015183116128f3575b6128d56128d0600861288e565b612075565b90600885519384010191198251161790528051821161271557505090565b8260011b8381046002148415171561138957612915906127a6865191876125c6565b506128c3565b90612924611ee6565b50815151806004019182600411611389576020840151831161296c575b61294e6128d0600461288e565b90600485519384010191198251161790528051821161271557505090565b8260011b838104600214841517156113895761298e906127a6865191876125c6565b50612941565b9061299d611ee6565b5081515180600201918260021161138957602084015183116129e5575b6129c76128d0600261288e565b90600285519384010191198251161790528051821161271557505090565b8260011b8381046002148415171561138957612a07906127a6865191876125c6565b506129ba565b90612a16611ee6565b508151518060010191826001116113895760208401518311612a5e575b612a406128d0600161288e565b90600185519384010191198251161790528051821161271557505090565b8260011b8381046002148415171561138957612a80906127a6865191876125c6565b50612a33565b1561028c57565b91612a96611ee6565b50612aa48251821115612a86565b602083515192612ab483856113aa565b828601518111612b1c575b855183815196820101958211612b14575b505001905b6020811015612afa57600019906020036101000a019081199051169082511617905290565b90916126ae6126a8612b0f928551815261139c565b612ad5565b523880612ad0565b612b2e612b28826114c3565b87612b33565b612abf565b90611c9e91612b44815192826125c6565b5061261856fea2646970667358221220a43853b70075e8d1c8f5c20413d76bbd71c4787a65734b9e76ff57d31573348264736f6c634300081c0033",
  "linkReferences": {},
  "deployedLinkReferences": {}
}