{
  "_format": "hh-sol-artifact-1",
  "contractName": "MainRouter",
  "sourceName": "contracts/MainRouter.sol",
  "abi": [
    {
      "inputs": [
        {
          "internalType": "address",
          "name": "_router",
          "type": "address"
        },
        {
          "internalType": "address",
          "name": "_functionsRouter",
          "type": "address"
        },
        {
          "internalType": "bytes32",
          "name": "_donId",
          "type": "bytes32"
        },
        {
          "internalType": "uint64",
          "name": "_subscriptionId",
          "type": "uint64"
        }
      ],
      "stateMutability": "nonpayable",
      "type": "constructor"
    },
    {
      "inputs": [
        {
          "internalType": "uint64",
          "name": "destinationChainSelector",
          "type": "uint64"
        }
      ],
      "name": "DestinationChainNotAllowed",
      "type": "error"
    },
    {
      "inputs": [],
      "name": "EmptyArgs",
      "type": "error"
    },
    {
      "inputs": [],
      "name": "EmptySource",
      "type": "error"
    },
    {
      "inputs": [
        {
          "internalType": "address",
          "name": "owner",
          "type": "address"
        },
        {
          "internalType": "address",
          "name": "target",
          "type": "address"
        },
        {
          "internalType": "uint256",
          "name": "value",
          "type": "uint256"
        }
      ],
      "name": "FailedToWithdrawEth",
      "type": "error"
    },
    {
      "inputs": [
        {
          "internalType": "uint256",
          "name": "healthFactor",
          "type": "uint256"
        }
      ],
      "name": "HealthFactorTooLow",
      "type": "error"
    },
    {
      "inputs": [],
      "name": "InsufficientCollateral",
      "type": "error"
    },
    {
      "inputs": [],
      "name": "InvalidCreditScore",
      "type": "error"
    },
    {
      "inputs": [
        {
          "internalType": "address",
          "name": "router",
          "type": "address"
        }
      ],
      "name": "InvalidRouter",
      "type": "error"
    },
    {
      "inputs": [],
      "name": "NoInlineSecrets",
      "type": "error"
    },
    {
      "inputs": [
        {
          "internalType": "uint256",
          "name": "currentBalance",
          "type": "uint256"
        },
        {
          "internalType": "uint256",
          "name": "calculatedFees",
          "type": "uint256"
        }
      ],
      "name": "NotEnoughBalance",
      "type": "error"
    },
    {
      "inputs": [],
      "name": "NothingToWithdraw",
      "type": "error"
    },
    {
      "inputs": [],
      "name": "OnlyRouterCanFulfill",
      "type": "error"
    },
    {
      "inputs": [
        {
          "internalType": "address",
          "name": "sender",
          "type": "address"
        }
      ],
      "name": "SenderNotAllowed",
      "type": "error"
    },
    {
      "inputs": [
        {
          "internalType": "uint64",
          "name": "sourceChainSelector",
          "type": "uint64"
        }
      ],
      "name": "SourceChainNotAllowed",
      "type": "error"
    },
    {
      "anonymous": false,
      "inputs": [
        {
          "indexed": true,
          "internalType": "address",
          "name": "user",
          "type": "address"
        },
        {
          "indexed": false,
          "internalType": "uint256",
          "name": "amount",
          "type": "uint256"
        },
        {
          "indexed": false,
          "internalType": "uint64",
          "name": "destinationChain",
          "type": "uint64"
        },
        {
          "indexed": false,
          "internalType": "uint256",
          "name": "creditScore",
          "type": "uint256"
        }
      ],
      "name": "BorrowApproved",
      "type": "event"
    },
    {
      "anonymous": false,
      "inputs": [
        {
          "indexed": true,
          "internalType": "address",
          "name": "user",
          "type": "address"
        },
        {
          "indexed": false,
          "internalType": "uint256",
          "name": "newScore",
          "type": "uint256"
        }
      ],
      "name": "CreditScoreUpdated",
      "type": "event"
    },
    {
      "anonymous": false,
      "inputs": [
        {
          "indexed": true,
          "internalType": "address",
          "name": "user",
          "type": "address"
        },
        {
          "indexed": true,
          "internalType": "address",
          "name": "token",
          "type": "address"
        },
        {
          "indexed": false,
          "internalType": "uint256",
          "name": "amount",
          "type": "uint256"
        },
        {
          "indexed": false,
          "internalType": "uint64",
          "name": "sourceChain",
          "type": "uint64"
        }
      ],
      "name": "DepositReceived",
      "type": "event"
    },
    {
      "anonymous": false,
      "inputs": [
        {
          "indexed": true,
          "internalType": "uint64",
          "name": "chainSelector",
          "type": "uint64"
        },
        {
          "indexed": false,
          "internalType": "bool",
          "name": "allowed",
          "type": "bool"
        }
      ],
      "name": "DestinationChainAllowlisted",
      "type": "event"
    },
    {
      "anonymous": false,
      "inputs": [
        {
          "indexed": true,
          "internalType": "bytes32",
          "name": "messageId",
          "type": "bytes32"
        },
        {
          "indexed": true,
          "internalType": "uint64",
          "name": "sourceChainSelector",
          "type": "uint64"
        },
        {
          "indexed": false,
          "internalType": "address",
          "name": "sender",
          "type": "address"
        },
        {
          "indexed": false,
          "internalType": "string",
          "name": "message",
          "type": "string"
        }
      ],
      "name": "MessageReceived",
      "type": "event"
    },
    {
      "anonymous": false,
      "inputs": [
        {
          "indexed": true,
          "internalType": "bytes32",
          "name": "messageId",
          "type": "bytes32"
        },
        {
          "indexed": true,
          "internalType": "uint64",
          "name": "destinationChainSelector",
          "type": "uint64"
        },
        {
          "indexed": false,
          "internalType": "address",
          "name": "receiver",
          "type": "address"
        },
        {
          "indexed": false,
          "internalType": "string",
          "name": "message",
          "type": "string"
        },
        {
          "indexed": false,
          "internalType": "uint256",
          "name": "fees",
          "type": "uint256"
        }
      ],
      "name": "MessageSent",
      "type": "event"
    },
    {
      "anonymous": false,
      "inputs": [
        {
          "indexed": true,
          "internalType": "address",
          "name": "from",
          "type": "address"
        },
        {
          "indexed": true,
          "internalType": "address",
          "name": "to",
          "type": "address"
        }
      ],
      "name": "OwnershipTransferRequested",
      "type": "event"
    },
    {
      "anonymous": false,
      "inputs": [
        {
          "indexed": true,
          "internalType": "address",
          "name": "from",
          "type": "address"
        },
        {
          "indexed": true,
          "internalType": "address",
          "name": "to",
          "type": "address"
        }
      ],
      "name": "OwnershipTransferred",
      "type": "event"
    },
    {
      "anonymous": false,
      "inputs": [
        {
          "indexed": true,
          "internalType": "address",
          "name": "token",
          "type": "address"
        },
        {
          "indexed": true,
          "internalType": "address",
          "name": "priceFeed",
          "type": "address"
        }
      ],
      "name": "PriceFeedSet",
      "type": "event"
    },
    {
      "anonymous": false,
      "inputs": [
        {
          "indexed": true,
          "internalType": "bytes32",
          "name": "id",
          "type": "bytes32"
        }
      ],
      "name": "RequestFulfilled",
      "type": "event"
    },
    {
      "anonymous": false,
      "inputs": [
        {
          "indexed": true,
          "internalType": "bytes32",
          "name": "id",
          "type": "bytes32"
        }
      ],
      "name": "RequestSent",
      "type": "event"
    },
    {
      "anonymous": false,
      "inputs": [
        {
          "indexed": true,
          "internalType": "address",
          "name": "sender",
          "type": "address"
        },
        {
          "indexed": false,
          "internalType": "bool",
          "name": "allowed",
          "type": "bool"
        }
      ],
      "name": "SenderAllowlisted",
      "type": "event"
    },
    {
      "inputs": [],
      "name": "CREDIT_SCORE_MULTIPLIER",
      "outputs": [
        {
          "internalType": "uint256",
          "name": "",
          "type": "uint256"
        }
      ],
      "stateMutability": "view",
      "type": "function"
    },
    {
      "inputs": [],
      "name": "MAX_LTV",
      "outputs": [
        {
          "internalType": "uint256",
          "name": "",
          "type": "uint256"
        }
      ],
      "stateMutability": "view",
      "type": "function"
    },
    {
      "inputs": [],
      "name": "MIN_HEALTH_FACTOR",
      "outputs": [
        {
          "internalType": "uint256",
          "name": "",
          "type": "uint256"
        }
      ],
      "stateMutability": "view",
      "type": "function"
    },
    {
      "inputs": [],
      "name": "acceptOwnership",
      "outputs": [],
      "stateMutability": "nonpayable",
      "type": "function"
    },
    {
      "inputs": [
        {
          "internalType": "uint64",
          "name": "_destinationChainSelector",
          "type": "uint64"
        },
        {
          "internalType": "bool",
          "name": "allowed",
          "type": "bool"
        }
      ],
      "name": "allowlistDestinationChain",
      "outputs": [],
      "stateMutability": "nonpayable",
      "type": "function"
    },
    {
      "inputs": [
        {
          "internalType": "address",
          "name": "_sender",
          "type": "address"
        },
        {
          "internalType": "bool",
          "name": "allowed",
          "type": "bool"
        }
      ],
      "name": "allowlistSender",
      "outputs": [],
      "stateMutability": "nonpayable",
      "type": "function"
    },
    {
      "inputs": [
        {
          "internalType": "uint64",
          "name": "_sourceChainSelector",
          "type": "uint64"
        },
        {
          "internalType": "bool",
          "name": "allowed",
          "type": "bool"
        }
      ],
      "name": "allowlistSourceChain",
      "outputs": [],
      "stateMutability": "nonpayable",
      "type": "function"
    },
    {
      "inputs": [
        {
          "internalType": "uint64",
          "name": "",
          "type": "uint64"
        }
      ],
      "name": "allowlistedDestinationChains",
      "outputs": [
        {
          "internalType": "bool",
          "name": "",
          "type": "bool"
        }
      ],
      "stateMutability": "view",
      "type": "function"
    },
    {
      "inputs": [
        {
          "internalType": "address",
          "name": "",
          "type": "address"
        }
      ],
      "name": "allowlistedSenders",
      "outputs": [
        {
          "internalType": "bool",
          "name": "",
          "type": "bool"
        }
      ],
      "stateMutability": "view",
      "type": "function"
    },
    {
      "inputs": [
        {
          "internalType": "uint64",
          "name": "",
          "type": "uint64"
        }
      ],
      "name": "allowlistedSourceChains",
      "outputs": [
        {
          "internalType": "bool",
          "name": "",
          "type": "bool"
        }
      ],
      "stateMutability": "view",
      "type": "function"
    },
    {
      "inputs": [
        {
          "internalType": "address",
          "name": "user",
          "type": "address"
        },
        {
          "internalType": "uint256",
          "name": "amount",
          "type": "uint256"
        },
        {
          "internalType": "uint64",
          "name": "destinationChain",
          "type": "uint64"
        }
      ],
      "name": "approveBorrow",
      "outputs": [],
      "stateMutability": "nonpayable",
      "type": "function"
    },
    {
      "inputs": [
        {
          "components": [
            {
              "internalType": "bytes32",
              "name": "messageId",
              "type": "bytes32"
            },
            {
              "internalType": "uint64",
              "name": "sourceChainSelector",
              "type": "uint64"
            },
            {
              "internalType": "bytes",
              "name": "sender",
              "type": "bytes"
            },
            {
              "internalType": "bytes",
              "name": "data",
              "type": "bytes"
            },
            {
              "components": [
                {
                  "internalType": "address",
                  "name": "token",
                  "type": "address"
                },
                {
                  "internalType": "uint256",
                  "name": "amount",
                  "type": "uint256"
                }
              ],
              "internalType": "struct Client.EVMTokenAmount[]",
              "name": "destTokenAmounts",
              "type": "tuple[]"
            }
          ],
          "internalType": "struct Client.Any2EVMMessage",
          "name": "message",
          "type": "tuple"
        }
      ],
      "name": "ccipReceive",
      "outputs": [],
      "stateMutability": "nonpayable",
      "type": "function"
    },
    {
      "inputs": [
        {
          "internalType": "address",
          "name": "",
          "type": "address"
        }
      ],
      "name": "creditScores",
      "outputs": [
        {
          "internalType": "uint256",
          "name": "",
          "type": "uint256"
        }
      ],
      "stateMutability": "view",
      "type": "function"
    },
    {
      "inputs": [],
      "name": "donId",
      "outputs": [
        {
          "internalType": "bytes32",
          "name": "",
          "type": "bytes32"
        }
      ],
      "stateMutability": "view",
      "type": "function"
    },
    {
      "inputs": [],
      "name": "gasLimit",
      "outputs": [
        {
          "internalType": "uint32",
          "name": "",
          "type": "uint32"
        }
      ],
      "stateMutability": "view",
      "type": "function"
    },
    {
      "inputs": [
        {
          "internalType": "address",
          "name": "user",
          "type": "address"
        }
      ],
      "name": "getHealthFactor",
      "outputs": [
        {
          "internalType": "uint256",
          "name": "",
          "type": "uint256"
        }
      ],
      "stateMutability": "view",
      "type": "function"
    },
    {
      "inputs": [],
      "name": "getRouter",
      "outputs": [
        {
          "internalType": "address",
          "name": "",
          "type": "address"
        }
      ],
      "stateMutability": "view",
      "type": "function"
    },
    {
      "inputs": [
        {
          "internalType": "address",
          "name": "user",
          "type": "address"
        }
      ],
      "name": "getUserCreditScore",
      "outputs": [
        {
          "internalType": "uint256",
          "name": "",
          "type": "uint256"
        }
      ],
      "stateMutability": "view",
      "type": "function"
    },
    {
      "inputs": [
        {
          "internalType": "address",
          "name": "user",
          "type": "address"
        }
      ],
      "name": "getUserProfile",
      "outputs": [
        {
          "components": [
            {
              "internalType": "uint256",
              "name": "totalDeposited",
              "type": "uint256"
            },
            {
              "internalType": "uint256",
              "name": "totalBorrowed",
              "type": "uint256"
            },
            {
              "internalType": "uint256",
              "name": "creditScore",
              "type": "uint256"
            },
            {
              "internalType": "uint256",
              "name": "healthFactor",
              "type": "uint256"
            },
            {
              "internalType": "bool",
              "name": "hasNFT",
              "type": "bool"
            },
            {
              "internalType": "uint256",
              "name": "lastUpdated",
              "type": "uint256"
            }
          ],
          "internalType": "struct MainRouter.UserProfile",
          "name": "",
          "type": "tuple"
        }
      ],
      "stateMutability": "view",
      "type": "function"
    },
    {
      "inputs": [
        {
          "internalType": "bytes32",
          "name": "requestId",
          "type": "bytes32"
        },
        {
          "internalType": "bytes",
          "name": "response",
          "type": "bytes"
        },
        {
          "internalType": "bytes",
          "name": "err",
          "type": "bytes"
        }
      ],
      "name": "handleOracleFulfillment",
      "outputs": [],
      "stateMutability": "nonpayable",
      "type": "function"
    },
    {
      "inputs": [],
      "name": "lastRequestId",
      "outputs": [
        {
          "internalType": "bytes32",
          "name": "",
          "type": "bytes32"
        }
      ],
      "stateMutability": "view",
      "type": "function"
    },
    {
      "inputs": [],
      "name": "owner",
      "outputs": [
        {
          "internalType": "address",
          "name": "",
          "type": "address"
        }
      ],
      "stateMutability": "view",
      "type": "function"
    },
    {
      "inputs": [
        {
          "internalType": "address",
          "name": "",
          "type": "address"
        }
      ],
      "name": "priceFeeds",
      "outputs": [
        {
          "internalType": "address",
          "name": "",
          "type": "address"
        }
      ],
      "stateMutability": "view",
      "type": "function"
    },
    {
      "inputs": [
        {
          "internalType": "address",
          "name": "user",
          "type": "address"
        },
        {
          "internalType": "address",
          "name": "token",
          "type": "address"
        },
        {
          "internalType": "uint256",
          "name": "amount",
          "type": "uint256"
        },
        {
          "internalType": "uint64",
          "name": "sourceChain",
          "type": "uint64"
        }
      ],
      "name": "processDeposit",
      "outputs": [],
      "stateMutability": "nonpayable",
      "type": "function"
    },
    {
      "inputs": [
        {
          "internalType": "address",
          "name": "user",
          "type": "address"
        },
        {
          "internalType": "string",
          "name": "source",
          "type": "string"
        }
      ],
      "name": "requestCreditScoreUpdate",
      "outputs": [
        {
          "internalType": "bytes32",
          "name": "requestId",
          "type": "bytes32"
        }
      ],
      "stateMutability": "nonpayable",
      "type": "function"
    },
    {
      "inputs": [
        {
          "internalType": "bytes32",
          "name": "",
          "type": "bytes32"
        }
      ],
      "name": "requestToUser",
      "outputs": [
        {
          "internalType": "address",
          "name": "",
          "type": "address"
        }
      ],
      "stateMutability": "view",
      "type": "function"
    },
    {
      "inputs": [
        {
          "internalType": "address",
          "name": "user",
          "type": "address"
        },
        {
          "internalType": "uint256",
          "name": "score",
          "type": "uint256"
        }
      ],
      "name": "setCreditScore",
      "outputs": [],
      "stateMutability": "nonpayable",
      "type": "function"
    },
    {
      "inputs": [
        {
          "internalType": "address",
          "name": "_token",
          "type": "address"
        },
        {
          "internalType": "address",
          "name": "_priceFeed",
          "type": "address"
        }
      ],
      "name": "setPriceFeed",
      "outputs": [],
      "stateMutability": "nonpayable",
      "type": "function"
    },
    {
      "inputs": [],
      "name": "subscriptionId",
      "outputs": [
        {
          "internalType": "uint64",
          "name": "",
          "type": "uint64"
        }
      ],
      "stateMutability": "view",
      "type": "function"
    },
    {
      "inputs": [
        {
          "internalType": "bytes4",
          "name": "interfaceId",
          "type": "bytes4"
        }
      ],
      "name": "supportsInterface",
      "outputs": [
        {
          "internalType": "bool",
          "name": "",
          "type": "bool"
        }
      ],
      "stateMutability": "view",
      "type": "function"
    },
    {
      "inputs": [
        {
          "internalType": "address",
          "name": "to",
          "type": "address"
        }
      ],
      "name": "transferOwnership",
      "outputs": [],
      "stateMutability": "nonpayable",
      "type": "function"
    },
    {
      "inputs": [
        {
          "internalType": "address",
          "name": "",
          "type": "address"
        }
      ],
      "name": "userBorrows",
      "outputs": [
        {
          "internalType": "uint256",
          "name": "",
          "type": "uint256"
        }
      ],
      "stateMutability": "view",
      "type": "function"
    },
    {
      "inputs": [
        {
          "internalType": "address",
          "name": "",
          "type": "address"
        },
        {
          "internalType": "address",
          "name": "",
          "type": "address"
        }
      ],
      "name": "userDeposits",
      "outputs": [
        {
          "internalType": "uint256",
          "name": "",
          "type": "uint256"
        }
      ],
      "stateMutability": "view",
      "type": "function"
    },
    {
      "inputs": [
        {
          "internalType": "address",
          "name": "",
          "type": "address"
        }
      ],
      "name": "userProfiles",
      "outputs": [
        {
          "internalType": "uint256",
          "name": "totalDeposited",
          "type": "uint256"
        },
        {
          "internalType": "uint256",
          "name": "totalBorrowed",
          "type": "uint256"
        },
        {
          "internalType": "uint256",
          "name": "creditScore",
          "type": "uint256"
        },
        {
          "internalType": "uint256",
          "name": "healthFactor",
          "type": "uint256"
        },
        {
          "internalType": "bool",
          "name": "hasNFT",
          "type": "bool"
        },
        {
          "internalType": "uint256",
          "name": "lastUpdated",
          "type": "uint256"
        }
      ],
      "stateMutability": "view",
      "type": "function"
    },
    {
      "inputs": [
        {
          "internalType": "address",
          "name": "_beneficiary",
          "type": "address"
        }
      ],
      "name": "withdraw",
      "outputs": [],
      "stateMutability": "nonpayable",
      "type": "function"
    },
    {
      "inputs": [
        {
          "internalType": "address",
          "name": "_beneficiary",
          "type": "address"
        },
        {
          "internalType": "address",
          "name": "_token",
          "type": "address"
        }
      ],
      "name": "withdrawToken",
      "outputs": [],
      "stateMutability": "nonpayable",
      "type": "function"
    },
    {
      "stateMutability": "payable",
      "type": "receive"
    }
  ],
  "bytecode": "0x60c03461016557601f61297338819003918201601f19168301916001600160401b0383118484101761016a578084926080946040528339810103126101655761004781610180565b9061005460208201610180565b91606060408301519201519160018060401b038316809303610165576001600160a01b03821691821561014f57608052331561010a57600080546001600160a01b031990811633179091556001600160a01b0390941660a052600c805460028054909616909317909455600b556001600160601b031916176a0493e000000000000000001790556040516127de90816101958239608051818181610cb30152611083015260a0518181816104c80152611b980152f35b60405162461bcd60e51b815260206004820152601860248201527f43616e6e6f7420736574206f776e657220746f207a65726f00000000000000006044820152606490fd5b6335fdcccd60e21b600052600060045260246000fd5b600080fd5b634e487b7160e01b600052604160045260246000fd5b51906001600160a01b03821682036101655756fe6080604052600436101561001b575b361561001957600080fd5b005b60003560e01c806301ffc9a71461025657806307de83941461025157806309c1ba2e1461024c5780630ca761751461024757806330268bb414610242578063332d56d71461023d57806335e5b7bb146102385780633aeac4e1146102335780634030d5211461022e578063436d8039146102295780634dd601b41461020657806351cff8d9146102245780636159ada11461021f57806375c67c661461021a57806376e112861461021557806377593cc41461021057806379ba50971461020b57806380bb72731461020657806381bf8d3d1461020157806385572ffb146101fc57806386da4cb6146101f75780638da5cb5b146101f25780638dbe7b9d146101ed57806396d3b83d146101e857806397ed81cf146101e3578063987ee156146101de5780639dcb511a146101d9578063b0f479a1146101d4578063b5627e42146101cf578063cc168d7c146101ca578063db04fa49146101c5578063eab5b02c146101c0578063f2fde38b146101bb578063f68016b7146101b6578063fc2a88c3146101b15763fe6bcd7c0361000e576113d8565b6113ba565b611393565b6112d3565b611253565b6111fb565b6110d5565b6110b2565b61106d565b611028565b610f38565b610e95565b610e0d565b610de5565b610dbc565b610da0565b610c81565b610c65565b6109ac565b610ba4565b610b67565b610afa565b610abb565b610a79565b6109e9565b610967565b610928565b610826565b610649565b61056c565b610538565b610474565b61033f565b6102c2565b346102ac5760203660031901126102ac5760043563ffffffff60e01b81168091036102ac576020906385572ffb60e01b811490811561029b575b506040519015158152f35b6301ffc9a760e01b14905038610290565b600080fd5b6001600160a01b038116036102ac57565b346102ac5760403660031901126102ac576004356102df816102b1565b6024356001600160401b0381116102ac57366023820112156102ac5780600401356001600160401b0381116102ac5736602482840101116102ac5761033b92602461032b930190611495565b6040519081529081906020820190565b0390f35b346102ac5760003660031901126102ac5760206001600160401b03600c5416604051908152f35b634e487b7160e01b600052604160045260246000fd5b60c081019081106001600160401b0382111761039757604052565b610366565b60e081019081106001600160401b0382111761039757604052565b604081019081106001600160401b0382111761039757604052565b90601f801991011681019081106001600160401b0382111761039757604052565b6040519061040260a0836103d2565b565b6001600160401b03811161039757601f01601f191660200190565b92919261042b82610404565b9161043960405193846103d2565b8294818452818301116102ac578281602093846000960137010152565b9080601f830112156102ac578160206104719335910161041f565b90565b346102ac5760603660031901126102ac576004356024356001600160401b0381116102ac576104a7903690600401610456565b6044356001600160401b0381116102ac576104c6903690600401610456565b7f00000000000000000000000000000000000000000000000000000000000000006001600160a01b03163303610527576105009183611c1a565b7f85e1543bf2f84fe80c6badbce3648c8539ad1df4d2b3d822938ca0538be727e6600080a2005b63c6829f8360e01b60005260046000fd5b346102ac5760203660031901126102ac57600435600052600e602052602060018060a01b0360406000205416604051908152f35b346102ac5760203660031901126102ac57600435610589816102b1565b60018060a01b031660005260066020526040600020805461033b6001830154926002810154906003810154600560ff60048401541692015492604051968796879260a094919796959260c08501988552602085015260408401526060830152151560808201520152565b604435906001600160401b03821682036102ac57565b600435906001600160401b03821682036102ac57565b606435906001600160401b03821682036102ac57565b35906001600160401b03821682036102ac57565b346102ac5760603660031901126102ac57600435610666816102b1565b6024356106716105f3565b6001600160401b03811680600052600360205260ff60406000205416156107ed57506001600160a01b038316600090815260096020526040902054926101f484106107dc576106bf81611cc4565b6001600160a01b03821660009081526008602052604090206106e3908590546115c5565b9081116107cb576001600160a01b03821660009081526008602090815260408083208490556006909152902060018101919091554260059091015561072781611cf4565b936714d1120d7b16000085106107b5576107b0907f22984f68941237d785be47dbc3a4034a25a23bd9832c103015dd92ace62471729495600361077c8560018060a01b03166000526006602052604060002090565b0155604080519687526001600160401b039094166020870152928501929092526001600160a01b0316929081906060820190565b0390a2005b63b8dfb2c160e01b600052600485905260246000fd5b633a23d82560e01b60005260046000fd5b6301069b4760e21b60005260046000fd5b63206abad760e01b60005260045260246000fd5b60409060031901126102ac57600435610819816102b1565b90602435610471816102b1565b346102ac5761083436610801565b61083c611d6d565b6040516370a0823160e01b81523060048201526001600160a01b03919091169190602081602481865afa9081156108e3576000916108f9575b5080156108e85760405163a9059cbb60e01b81526001600160a01b03929092166004830152602482015290602090829060449082906000905af180156108e3576108bb57005b6100199060203d6020116108dc575b6108d481836103d2565b8101906115ed565b503d6108ca565b6115e1565b630686827b60e51b60005260046000fd5b61091b915060203d602011610921575b61091381836103d2565b8101906115d2565b38610875565b503d610909565b346102ac5760203660031901126102ac576001600160401b03610949610609565b166000526004602052602060ff604060002054166040519015158152f35b346102ac5760206109a361097a36610801565b6001600160a01b0391821660009081526007855260408082209290931681526020919091522090565b54604051908152f35b346102ac5760203660031901126102ac576004356109c9816102b1565b60018060a01b031660005260096020526020604060002054604051908152f35b346102ac5760203660031901126102ac57600435610a06816102b1565b610a0e611d6d565b4780156108e857600080808084865af13d15610a74573d610a2e81610404565b90610a3c60405192836103d2565b8152600060203d92013e5b15610a4e57005b639d11f56360e01b600052336004526001600160a01b0390911660245260445260646000fd5b610a47565b346102ac5760203660031901126102ac57600435610a96816102b1565b60018060a01b03166000526005602052602060ff604060002054166040519015158152f35b346102ac5760203660031901126102ac576001600160401b03610adc610609565b166000526003602052602060ff604060002054166040519015158152f35b346102ac57610b0836610801565b90610b11611d6d565b6001600160a01b039081166000818152600a6020526040812080546001600160a01b03191694909316938417909255907fd2d8394cf7549a5ddbc2ba3dd7b2de8d53c891472d1f2907008ed6a10045fdae9080a3005b346102ac5760203660031901126102ac57600435610b84816102b1565b60018060a01b031660005260086020526020604060002054604051908152f35b346102ac5760003660031901126102ac576001546001600160a01b03163303610c27576000546001600160a01b0316600080546001600160a01b03191633179055600180546001600160a01b031916905533906001600160a01b03167f8be0079c531659141344cd1fd0a4f28419497f9722a3daafe3b4186f6b6457e0600080a3005b60405162461bcd60e51b815260206004820152601660248201527526bab9ba10313290383937b837b9b2b21037bbb732b960511b6044820152606490fd5b346102ac5760003660031901126102ac576020604051604b8152f35b346102ac5760203660031901126102ac576004356001600160401b0381116102ac5760a060031982360301126102ac577f00000000000000000000000000000000000000000000000000000000000000006001600160a01b03163303610d8b57600090610cec6103f3565b81600401358152610cff60248301610635565b602082015260448201356001600160401b038111610d8757610d279060043691850101610456565b604082015260648201356001600160401b038111610d8757610d4f9060043691850101610456565b606082015260848201356001600160401b038111610d8757610d84926004610d7a9236920101611602565b6080820152611de1565b80f35b8380fd5b6335fdcccd60e21b6000523360045260246000fd5b346102ac5760003660031901126102ac576020604051600a8152f35b346102ac5760003660031901126102ac576000546040516001600160a01b039091168152602090f35b346102ac5760003660031901126102ac576020600b54604051908152f35b801515036102ac57565b346102ac5760403660031901126102ac57610e26610609565b7f9e831877a5c5b0c6bf39118c59f437de0882033ff7d60a84dbc1f453584a0d1160206001600160401b0360243593610e5e85610e03565b610e66611d6d565b16928360005260038252610e8a8160406000209060ff801983541691151516179055565b6040519015158152a2005b346102ac5760403660031901126102ac57600435610eb2816102b1565b602435610ebd611d6d565b6103e88111610f2f575b6001600160a01b0391909116600081815260096020908152604080832085905560068252918290206002810185905542600590910155905192835290917f79c012a0cfae660e09134956bc432c8497ec80e86a3a108d130e8b3fca52b3ad91819081016107b0565b506103e8610ec7565b346102ac5760203660031901126102ac57600435610f55816102b1565b600060a0604051610f658161037c565b828152826020820152826040820152826060820152826080820152015260018060a01b0316600052600660205261033b6040600020600560405191610fa98361037c565b8054835260018101546020840152600281015460408401526003810154606084015260ff60048201541615156080840152015460a08201526040519182918291909160a08060c0830194805184526020810151602085015260408101516040850152606081015160608501526080810151151560808501520151910152565b346102ac5760203660031901126102ac57600435611045816102b1565b60018060a01b0316600052600a602052602060018060a01b0360406000205416604051908152f35b346102ac5760003660031901126102ac576040517f00000000000000000000000000000000000000000000000000000000000000006001600160a01b03168152602090f35b346102ac5760003660031901126102ac5760206040516714d1120d7b1600008152f35b346102ac5760803660031901126102ac576004356110f2816102b1565b6024356110fe816102b1565b6044359161110a61061f565b6001600160a01b0382811660008181526007602090815260408083209488168352939052919091209093908054938685018095116111f6577ff664b7cf4a6eb64372b17892837e5eda83dc15187b074ff156cf853d8bf1e220946111d1925561118861117e61117885611f4c565b896116b7565b6305f5e100900490565b6001600160a01b03821660009081526006602052604090206111ac909182546115c5565b90556001600160a01b038116600090815260066020526040902042906005015561200f565b604080519586526001600160401b039290921660208601526001600160a01b031693a3005b611585565b346102ac5760403660031901126102ac57610019611217610609565b6001600160401b036024359161122c83610e03565b611234611d6d565b16600052600460205260406000209060ff801983541691151516179055565b346102ac5760403660031901126102ac57600435611270816102b1565b7f9a3d70b7815e59466fffdf86a6fda9753a1d8228523b33db2345e12200b3030c6020602435926112a084610e03565b6112a8611d6d565b6001600160a01b031660008181526005835260409020805460ff191660ff8615151617905592610e8a565b346102ac5760203660031901126102ac576004356112f0816102b1565b6112f8611d6d565b6001600160a01b031633811461134e57600180546001600160a01b03191682179055600080546001600160a01b0316907fed8889f560326eb138920d842192f0eb3dd22b4f139c87a2c57538e05bae12789080a3005b60405162461bcd60e51b815260206004820152601760248201527f43616e6e6f74207472616e7366657220746f2073656c660000000000000000006044820152606490fd5b346102ac5760003660031901126102ac57602063ffffffff600c5460401c16604051908152f35b346102ac5760003660031901126102ac576020600d54604051908152f35b346102ac5760203660031901126102ac5760206113ff6004356113fa816102b1565b611cf4565b604051908152f35b6001600160401b0381116103975760051b60200190565b6040805190919061142f83826103d2565b6001815291601f19018260005b82811061144857505050565b80606060208093850101520161143c565b634e487b7160e01b600052603260045260246000fd5b80511561147c5760200190565b611459565b805182101561147c5760209160051b010190565b91611521611548916114ee6114e861157c95604051936114b48561039c565b60008552600060208601526000604086015260608086015260606080860152606060a0860152606060c0860152369161041f565b82612037565b61151c6114f961141e565b6115028761170b565b61150b8261146f565b526115158161146f565b50826117cf565b61192b565b600c5461153e6001600160401b0382169160401c63ffffffff1690565b90600b5492611b40565b9161155d83600052600e602052604060002090565b80546001600160a01b0319166001600160a01b03909216919091179055565b61047181600d55565b634e487b7160e01b600052601160045260246000fd5b60020190816002116111f657565b60030190816003116111f657565b90602082018092116111f657565b919082018092116111f657565b908160209103126102ac575190565b6040513d6000823e3d90fd5b908160209103126102ac575161047181610e03565b81601f820112156102ac5780359061161982611407565b9261162760405194856103d2565b82845260208085019360061b830101918183116102ac57602001925b828410611651575050505090565b6040848303126102ac576020604091825161166b816103b7565b8635611676816102b1565b81528287013583820152815201930192611643565b908160011b91808304600214901517156111f657565b906064820291808304606414901517156111f657565b818102929181159184041417156111f657565b81156116d4570490565b634e487b7160e01b600052601260045260246000fd5b80516001101561147c5760210190565b90815181101561147c570160200190565b90604051606061171b81836103d2565b602a8252601f190136602083013760306117348261146f565b536078611740826116ea565b5360005b6014811061175157509150565b6001906117a961177e606087901b6bffffffffffffffffffffffff1916831a611783600482901c600f1683565b612060565b6117a26117976117928761168b565b61159b565b9160001a91886116fa565b53600f1690565b6117c86117bd6117b88461168b565b6115a9565b9160001a91856116fa565b5301611744565b8151156117dc5760a00152565b63fe936cb760e01b60005260046000fd5b604051906117fc6040836103d2565b600c82526b31b7b232a637b1b0ba34b7b760a11b6020830152565b634e487b7160e01b600052602160045260246000fd5b6003111561183757565b611817565b6040519061184b6040836103d2565b60088252676c616e677561676560c01b6020830152565b6001111561183757565b6040519061187b6040836103d2565b6006825265736f7572636560d01b6020830152565b6040519061189f6040836103d2565b60048252636172677360e01b6020830152565b604051906118c16040836103d2565b600f82526e39b2b1b932ba39a637b1b0ba34b7b760891b6020830152565b604051906118ee6040836103d2565b60078252667365637265747360c81b6020830152565b604051906119136040836103d2565b600982526862797465734172677360b81b6020830152565b6119336120bc565b9061194561193f6117ed565b836120ed565b61196281516119538161182d565b61195c8161182d565b836121d6565b61196d61193f61183c565b611987604082015161197e81611862565b61195c81611862565b61199261193f61186c565b6119a06060820151836120ed565b60a08101805151611a9f575b506080810190815151611a20575b60c09150018051516119cd575b50515190565b916119d961193f611904565b6119e282612203565b60005b83518051821015611a0d5790611a07611a0082600194611481565b5185612266565b016119e5565b50509150611a1a81612243565b386119c7565b602081018051611a2f8161182d565b611a388161182d565b15611a8e5760c092611a71611a8992611a58611a526118b2565b886120ed565b51611a628161182d565b611a6b8161182d565b866121d6565b611a82611a7c6118df565b866120ed565b5184612266565b6119ba565b63a80d31f760e01b60005260046000fd5b92611ab1611aab611890565b846120ed565b611aba83612203565b60005b84518051821015611ae55790611adf611ad882600194611481565b51866120ed565b01611abd565b50509250611af282612243565b386119ac565b60005b838110611b0b5750506000910152565b8181015183820152602001611afb565b90602091611b3481518092818552858086019101611af8565b601f01601f1916010190565b92906020926001600160401b039263ffffffff611b7f604051978896879663230e93b160e11b885216600487015260a0602487015260a4860190611b1b565b60016044860152921660648401526084830152038160007f00000000000000000000000000000000000000000000000000000000000000006001600160a01b03165af19081156108e357600091611bfb575b50807f1131472297a800fee664d1d89cfa8f7676ff07189ecc53f80bbb5f4969099db8600080a290565b611c14915060203d6020116109215761091381836103d2565b38611bd1565b909151611cc057600052600e602052611c4b604060002060018060a01b0390541691602080825183010191016115d2565b906103e88211611cb6575b6001600160a01b0316600081815260096020908152604080832085905560068252918290206002810185905542600590910155905192835290917f79c012a0cfae660e09134956bc432c8497ec80e86a3a108d130e8b3fca52b3ad9190a2565b6103e89150611c56565b5050565b60018060a01b03166000526006602052604060002054604b810290808204604b14901517156111f6576064900490565b6001600160a01b0316600090815260066020908152604080832054600890925290912054908115611d65576050810290808204605014811517156111f6576804563918244f4000000290808204670de0b6b3a764000014901517156111f657611d5f610471926116a1565b906116ca565b505060001990565b6000546001600160a01b03163303611d8157565b60405162461bcd60e51b815260206004820152601660248201527527b7363c9031b0b63630b1363290313c9037bbb732b960511b6044820152606490fd5b6001600160a01b03909116815260406020820181905261047192910190611b1b565b80516001600160401b036020830151169160408101516020818051810103126102ac576020606091015191611e15836102b1565b015180518101906020818184019303126102ac576020810151906001600160401b0382116102ac57019181603f840112156102ac57602083015192611e5984610404565b92611e6760405194856103d2565b848452604082860101116102ac577fb1e312a29937cc11967b0e4a346fef1ae132424ebaba9dc6d90249dba053e87c93611ea8916040602086019101611af8565b604051918291611ec291906001600160a01b031683611dbf565b0390a3565b519069ffffffffffffffffffff821682036102ac57565b908160a09103126102ac57611ef281611ec7565b91602082015191604081015191610471608060608401519301611ec7565b15611f1757565b60405162461bcd60e51b815260206004820152600d60248201526c496e76616c696420707269636560981b6044820152606490fd5b6001600160a01b039081166000908152600a6020526040902054168015611fd55760a060049160405192838092633fabe5a360e21b82525afa9081156108e357600091611fa1575b5061047160008213611f10565b611fc3915060a03d60a011611fce575b611fbb81836103d2565b810190611ede565b505050905038611f94565b503d611fb1565b60405162461bcd60e51b8152602060048201526012602482015271141c9a58d94819995959081b9bdd081cd95d60721b6044820152606490fd5b61201881611cf4565b6001600160a01b03909116600090815260066020526040902060030155565b600082511561205157506000808252604082015260600152565b6322ce3edd60e01b8152600490fd5b60ff16600a8110156120875760300160ff81116111f65760f81b6001600160f81b03191690565b60570160ff81116111f65760f81b6001600160f81b03191690565b604051906120af826103b7565b6000602083606081520152565b6040516120c8816103b7565b60006120d26120a2565b8083526120e861010060208501928484526122ff565b505290565b815161213e9291906001600160401b031660178111612141578151612129916121239061211c60605b60ff1690565b1760ff1690565b90612481565b505b51906121356120a2565b508051916126eb565b50565b60ff811161216e578151612168919061216090601860605b1790612481565b50825161266b565b5061212b565b61ffff8111612193578151612168919061218b9060196060612159565b5082516125f2565b63ffffffff81116121ba57815161216891906121b290601a6060612159565b508251612579565b815161216891906121ce90601b6060612159565b5082516124fb565b90610402916121e58151612411565b50604051916020830152602082526121fe6040836103d2565b612266565b602090612212609f8251612481565b5001805190600182018092116111f65752565b601f198101919082116111f657565b6000198101919082116111f657565b60209061225260ff8251612481565b500180516000198101919082116111f65752565b815161213e9291906001600160401b031660178111612293578151612129916121239061211c6040612116565b60ff81116122af57815161216891906121609060186040612159565b61ffff81116122cc578151612168919061218b9060196040612159565b63ffffffff81116122eb57815161216891906121b290601a6040612159565b815161216891906121ce90601b6040612159565b906123086120a2565b50601f811680612337575b50806020830152604051908183526000825281016020019081106102ac5760405290565b602003602081116111f65781018091116111f65738612313565b9061235a6120a2565b5080516123656120a2565b5061237382518211156126e4565b8251519161238182846115c5565b90602085015182116123fa575b6020918551838151968201019582116123f2575b505001905b60208110156123cc57600019906020036101000a019081199051169082511617905290565b90916123e76123e16123ed92855181526115b7565b936115b7565b91612225565b6123a7565b5238806123a2565b61240c6124068361168b565b86612791565b61238e565b6124196120a2565b5080515160018101908181116111f6576020830151811015612452575b60c26020845192830101538051821161244e57505090565b5290565b8160011b828104600214831517156111f65761247b90612474855191866122ff565b5084612351565b50612436565b9061248a6120a2565b5081515160018101918282116111f65760208401518210156124bd575b6020845192830101538051821161244e57505090565b8260011b838104600214841517156111f6576124e6906124df865191876122ff565b5085612351565b506124a7565b601f81116111f6576101000a90565b906125046120a2565b508151518060080191826008116111f65760208401518311612551575b61253361252e60086124ec565b612234565b90600885519384010191198251161790528051821161244e57505090565b8260011b838104600214841517156111f657612573906124df865191876122ff565b50612521565b906125826120a2565b508151518060040191826004116111f657602084015183116125ca575b6125ac61252e60046124ec565b90600485519384010191198251161790528051821161244e57505090565b8260011b838104600214841517156111f6576125ec906124df865191876122ff565b5061259f565b906125fb6120a2565b508151518060020191826002116111f65760208401518311612643575b61262561252e60026124ec565b90600285519384010191198251161790528051821161244e57505090565b8260011b838104600214841517156111f657612665906124df865191876122ff565b50612618565b906126746120a2565b508151518060010191826001116111f657602084015183116126bc575b61269e61252e60016124ec565b90600185519384010191198251161790528051821161244e57505090565b8260011b838104600214841517156111f6576126de906124df865191876122ff565b50612691565b156102ac57565b916126f46120a2565b5061270282518211156126e4565b60208351519261271283856115c5565b82860151811161277a575b855183815196820101958211612772575b505001905b602081101561275857600019906020036101000a019081199051169082511617905290565b90916123e76123e161276d92855181526115b7565b612733565b52388061272e565b61278c6127868261168b565b87612791565b61271d565b9061213e916127a2815192826122ff565b5061235156fea2646970667358221220755ccfbe7b5fac0c08d3298f4d8411adcd1cbd3f131f27ec97ae9a0eaf6df97e64736f6c634300081c0033",
  "linkReferences": {},
  "deployedLinkReferences": {}
}