{
  "_format": "hh-sol-artifact-1",
  "contractName": "MainRouter",
  "sourceName": "contracts/MainRouter.sol",
  "abi": [
    {
      "inputs": [
        {
          "internalType": "address",
          "name": "_router",
          "type": "address"
        },
        {
          "internalType": "address",
          "name": "_functionsRouter",
          "type": "address"
        },
        {
          "internalType": "bytes32",
          "name": "_donId",
          "type": "bytes32"
        },
        {
          "internalType": "uint64",
          "name": "_subscriptionId",
          "type": "uint64"
        }
      ],
      "stateMutability": "nonpayable",
      "type": "constructor"
    },
    {
      "inputs": [
        {
          "internalType": "uint64",
          "name": "destinationChainSelector",
          "type": "uint64"
        }
      ],
      "name": "DestinationChainNotAllowed",
      "type": "error"
    },
    {
      "inputs": [],
      "name": "EmptyArgs",
      "type": "error"
    },
    {
      "inputs": [],
      "name": "EmptySource",
      "type": "error"
    },
    {
      "inputs": [
        {
          "internalType": "address",
          "name": "owner",
          "type": "address"
        },
        {
          "internalType": "address",
          "name": "target",
          "type": "address"
        },
        {
          "internalType": "uint256",
          "name": "value",
          "type": "uint256"
        }
      ],
      "name": "FailedToWithdrawEth",
      "type": "error"
    },
    {
      "inputs": [
        {
          "internalType": "uint256",
          "name": "healthFactor",
          "type": "uint256"
        }
      ],
      "name": "HealthFactorTooLow",
      "type": "error"
    },
    {
      "inputs": [],
      "name": "InsufficientCollateral",
      "type": "error"
    },
    {
      "inputs": [],
      "name": "InvalidCreditScore",
      "type": "error"
    },
    {
      "inputs": [
        {
          "internalType": "address",
          "name": "router",
          "type": "address"
        }
      ],
      "name": "InvalidRouter",
      "type": "error"
    },
    {
      "inputs": [],
      "name": "NoInlineSecrets",
      "type": "error"
    },
    {
      "inputs": [
        {
          "internalType": "uint256",
          "name": "currentBalance",
          "type": "uint256"
        },
        {
          "internalType": "uint256",
          "name": "calculatedFees",
          "type": "uint256"
        }
      ],
      "name": "NotEnoughBalance",
      "type": "error"
    },
    {
      "inputs": [],
      "name": "NothingToWithdraw",
      "type": "error"
    },
    {
      "inputs": [],
      "name": "OnlyRouterCanFulfill",
      "type": "error"
    },
    {
      "inputs": [
        {
          "internalType": "address",
          "name": "sender",
          "type": "address"
        }
      ],
      "name": "SenderNotAllowed",
      "type": "error"
    },
    {
      "inputs": [
        {
          "internalType": "uint64",
          "name": "sourceChainSelector",
          "type": "uint64"
        }
      ],
      "name": "SourceChainNotAllowed",
      "type": "error"
    },
    {
      "anonymous": false,
      "inputs": [
        {
          "indexed": true,
          "internalType": "address",
          "name": "user",
          "type": "address"
        },
        {
          "indexed": false,
          "internalType": "uint256",
          "name": "amount",
          "type": "uint256"
        },
        {
          "indexed": false,
          "internalType": "uint64",
          "name": "destinationChain",
          "type": "uint64"
        },
        {
          "indexed": false,
          "internalType": "uint256",
          "name": "creditScore",
          "type": "uint256"
        }
      ],
      "name": "BorrowApproved",
      "type": "event"
    },
    {
      "anonymous": false,
      "inputs": [
        {
          "indexed": true,
          "internalType": "address",
          "name": "user",
          "type": "address"
        },
        {
          "indexed": false,
          "internalType": "uint256",
          "name": "newScore",
          "type": "uint256"
        }
      ],
      "name": "CreditScoreUpdated",
      "type": "event"
    },
    {
      "anonymous": false,
      "inputs": [
        {
          "indexed": true,
          "internalType": "address",
          "name": "user",
          "type": "address"
        },
        {
          "indexed": true,
          "internalType": "address",
          "name": "token",
          "type": "address"
        },
        {
          "indexed": false,
          "internalType": "uint256",
          "name": "amount",
          "type": "uint256"
        },
        {
          "indexed": false,
          "internalType": "uint64",
          "name": "sourceChain",
          "type": "uint64"
        }
      ],
      "name": "DepositReceived",
      "type": "event"
    },
    {
      "anonymous": false,
      "inputs": [
        {
          "indexed": true,
          "internalType": "uint64",
          "name": "chainSelector",
          "type": "uint64"
        },
        {
          "indexed": false,
          "internalType": "bool",
          "name": "allowed",
          "type": "bool"
        }
      ],
      "name": "DestinationChainAllowlisted",
      "type": "event"
    },
    {
      "anonymous": false,
      "inputs": [
        {
          "indexed": true,
          "internalType": "bytes32",
          "name": "messageId",
          "type": "bytes32"
        },
        {
          "indexed": true,
          "internalType": "uint64",
          "name": "sourceChainSelector",
          "type": "uint64"
        },
        {
          "indexed": false,
          "internalType": "address",
          "name": "sender",
          "type": "address"
        },
        {
          "indexed": false,
          "internalType": "string",
          "name": "message",
          "type": "string"
        }
      ],
      "name": "MessageReceived",
      "type": "event"
    },
    {
      "anonymous": false,
      "inputs": [
        {
          "indexed": true,
          "internalType": "bytes32",
          "name": "messageId",
          "type": "bytes32"
        },
        {
          "indexed": true,
          "internalType": "uint64",
          "name": "destinationChainSelector",
          "type": "uint64"
        },
        {
          "indexed": false,
          "internalType": "address",
          "name": "receiver",
          "type": "address"
        },
        {
          "indexed": false,
          "internalType": "string",
          "name": "message",
          "type": "string"
        },
        {
          "indexed": false,
          "internalType": "uint256",
          "name": "fees",
          "type": "uint256"
        }
      ],
      "name": "MessageSent",
      "type": "event"
    },
    {
      "anonymous": false,
      "inputs": [
        {
          "indexed": true,
          "internalType": "address",
          "name": "from",
          "type": "address"
        },
        {
          "indexed": true,
          "internalType": "address",
          "name": "to",
          "type": "address"
        }
      ],
      "name": "OwnershipTransferRequested",
      "type": "event"
    },
    {
      "anonymous": false,
      "inputs": [
        {
          "indexed": true,
          "internalType": "address",
          "name": "from",
          "type": "address"
        },
        {
          "indexed": true,
          "internalType": "address",
          "name": "to",
          "type": "address"
        }
      ],
      "name": "OwnershipTransferred",
      "type": "event"
    },
    {
      "anonymous": false,
      "inputs": [
        {
          "indexed": true,
          "internalType": "address",
          "name": "token",
          "type": "address"
        },
        {
          "indexed": true,
          "internalType": "address",
          "name": "priceFeed",
          "type": "address"
        }
      ],
      "name": "PriceFeedSet",
      "type": "event"
    },
    {
      "anonymous": false,
      "inputs": [
        {
          "indexed": true,
          "internalType": "bytes32",
          "name": "id",
          "type": "bytes32"
        }
      ],
      "name": "RequestFulfilled",
      "type": "event"
    },
    {
      "anonymous": false,
      "inputs": [
        {
          "indexed": true,
          "internalType": "bytes32",
          "name": "id",
          "type": "bytes32"
        }
      ],
      "name": "RequestSent",
      "type": "event"
    },
    {
      "anonymous": false,
      "inputs": [
        {
          "indexed": true,
          "internalType": "address",
          "name": "sender",
          "type": "address"
        },
        {
          "indexed": false,
          "internalType": "bool",
          "name": "allowed",
          "type": "bool"
        }
      ],
      "name": "SenderAllowlisted",
      "type": "event"
    },
    {
      "inputs": [],
      "name": "CREDIT_SCORE_MULTIPLIER",
      "outputs": [
        {
          "internalType": "uint256",
          "name": "",
          "type": "uint256"
        }
      ],
      "stateMutability": "view",
      "type": "function"
    },
    {
      "inputs": [],
      "name": "MAX_LTV",
      "outputs": [
        {
          "internalType": "uint256",
          "name": "",
          "type": "uint256"
        }
      ],
      "stateMutability": "view",
      "type": "function"
    },
    {
      "inputs": [],
      "name": "MIN_HEALTH_FACTOR",
      "outputs": [
        {
          "internalType": "uint256",
          "name": "",
          "type": "uint256"
        }
      ],
      "stateMutability": "view",
      "type": "function"
    },
    {
      "inputs": [],
      "name": "acceptOwnership",
      "outputs": [],
      "stateMutability": "nonpayable",
      "type": "function"
    },
    {
      "inputs": [
        {
          "internalType": "uint64",
          "name": "_destinationChainSelector",
          "type": "uint64"
        },
        {
          "internalType": "bool",
          "name": "allowed",
          "type": "bool"
        }
      ],
      "name": "allowlistDestinationChain",
      "outputs": [],
      "stateMutability": "nonpayable",
      "type": "function"
    },
    {
      "inputs": [
        {
          "internalType": "address",
          "name": "_sender",
          "type": "address"
        },
        {
          "internalType": "bool",
          "name": "allowed",
          "type": "bool"
        }
      ],
      "name": "allowlistSender",
      "outputs": [],
      "stateMutability": "nonpayable",
      "type": "function"
    },
    {
      "inputs": [
        {
          "internalType": "uint64",
          "name": "_sourceChainSelector",
          "type": "uint64"
        },
        {
          "internalType": "bool",
          "name": "allowed",
          "type": "bool"
        }
      ],
      "name": "allowlistSourceChain",
      "outputs": [],
      "stateMutability": "nonpayable",
      "type": "function"
    },
    {
      "inputs": [
        {
          "internalType": "uint64",
          "name": "",
          "type": "uint64"
        }
      ],
      "name": "allowlistedDestinationChains",
      "outputs": [
        {
          "internalType": "bool",
          "name": "",
          "type": "bool"
        }
      ],
      "stateMutability": "view",
      "type": "function"
    },
    {
      "inputs": [
        {
          "internalType": "address",
          "name": "",
          "type": "address"
        }
      ],
      "name": "allowlistedSenders",
      "outputs": [
        {
          "internalType": "bool",
          "name": "",
          "type": "bool"
        }
      ],
      "stateMutability": "view",
      "type": "function"
    },
    {
      "inputs": [
        {
          "internalType": "uint64",
          "name": "",
          "type": "uint64"
        }
      ],
      "name": "allowlistedSourceChains",
      "outputs": [
        {
          "internalType": "bool",
          "name": "",
          "type": "bool"
        }
      ],
      "stateMutability": "view",
      "type": "function"
    },
    {
      "inputs": [
        {
          "internalType": "address",
          "name": "user",
          "type": "address"
        },
        {
          "internalType": "uint256",
          "name": "amount",
          "type": "uint256"
        },
        {
          "internalType": "uint64",
          "name": "destinationChain",
          "type": "uint64"
        }
      ],
      "name": "approveBorrow",
      "outputs": [],
      "stateMutability": "nonpayable",
      "type": "function"
    },
    {
      "inputs": [
        {
          "components": [
            {
              "internalType": "bytes32",
              "name": "messageId",
              "type": "bytes32"
            },
            {
              "internalType": "uint64",
              "name": "sourceChainSelector",
              "type": "uint64"
            },
            {
              "internalType": "bytes",
              "name": "sender",
              "type": "bytes"
            },
            {
              "internalType": "bytes",
              "name": "data",
              "type": "bytes"
            },
            {
              "components": [
                {
                  "internalType": "address",
                  "name": "token",
                  "type": "address"
                },
                {
                  "internalType": "uint256",
                  "name": "amount",
                  "type": "uint256"
                }
              ],
              "internalType": "struct Client.EVMTokenAmount[]",
              "name": "destTokenAmounts",
              "type": "tuple[]"
            }
          ],
          "internalType": "struct Client.Any2EVMMessage",
          "name": "message",
          "type": "tuple"
        }
      ],
      "name": "ccipReceive",
      "outputs": [],
      "stateMutability": "nonpayable",
      "type": "function"
    },
    {
      "inputs": [
        {
          "internalType": "address",
          "name": "",
          "type": "address"
        }
      ],
      "name": "creditScores",
      "outputs": [
        {
          "internalType": "uint256",
          "name": "",
          "type": "uint256"
        }
      ],
      "stateMutability": "view",
      "type": "function"
    },
    {
      "inputs": [],
      "name": "donId",
      "outputs": [
        {
          "internalType": "bytes32",
          "name": "",
          "type": "bytes32"
        }
      ],
      "stateMutability": "view",
      "type": "function"
    },
    {
      "inputs": [],
      "name": "gasLimit",
      "outputs": [
        {
          "internalType": "uint32",
          "name": "",
          "type": "uint32"
        }
      ],
      "stateMutability": "view",
      "type": "function"
    },
    {
      "inputs": [
        {
          "internalType": "address",
          "name": "user",
          "type": "address"
        }
      ],
      "name": "getHealthFactor",
      "outputs": [
        {
          "internalType": "uint256",
          "name": "",
          "type": "uint256"
        }
      ],
      "stateMutability": "view",
      "type": "function"
    },
    {
      "inputs": [],
      "name": "getRouter",
      "outputs": [
        {
          "internalType": "address",
          "name": "",
          "type": "address"
        }
      ],
      "stateMutability": "view",
      "type": "function"
    },
    {
      "inputs": [
        {
          "internalType": "address",
          "name": "user",
          "type": "address"
        }
      ],
      "name": "getUserCreditScore",
      "outputs": [
        {
          "internalType": "uint256",
          "name": "",
          "type": "uint256"
        }
      ],
      "stateMutability": "view",
      "type": "function"
    },
    {
      "inputs": [
        {
          "internalType": "address",
          "name": "user",
          "type": "address"
        }
      ],
      "name": "getUserProfile",
      "outputs": [
        {
          "components": [
            {
              "internalType": "uint256",
              "name": "totalDeposited",
              "type": "uint256"
            },
            {
              "internalType": "uint256",
              "name": "totalBorrowed",
              "type": "uint256"
            },
            {
              "internalType": "uint256",
              "name": "creditScore",
              "type": "uint256"
            },
            {
              "internalType": "uint256",
              "name": "healthFactor",
              "type": "uint256"
            },
            {
              "internalType": "bool",
              "name": "hasNFT",
              "type": "bool"
            },
            {
              "internalType": "uint256",
              "name": "lastUpdated",
              "type": "uint256"
            }
          ],
          "internalType": "struct MainRouter.UserProfile",
          "name": "",
          "type": "tuple"
        }
      ],
      "stateMutability": "view",
      "type": "function"
    },
    {
      "inputs": [
        {
          "internalType": "bytes32",
          "name": "requestId",
          "type": "bytes32"
        },
        {
          "internalType": "bytes",
          "name": "response",
          "type": "bytes"
        },
        {
          "internalType": "bytes",
          "name": "err",
          "type": "bytes"
        }
      ],
      "name": "handleOracleFulfillment",
      "outputs": [],
      "stateMutability": "nonpayable",
      "type": "function"
    },
    {
      "inputs": [],
      "name": "lastRequestId",
      "outputs": [
        {
          "internalType": "bytes32",
          "name": "",
          "type": "bytes32"
        }
      ],
      "stateMutability": "view",
      "type": "function"
    },
    {
      "inputs": [],
      "name": "owner",
      "outputs": [
        {
          "internalType": "address",
          "name": "",
          "type": "address"
        }
      ],
      "stateMutability": "view",
      "type": "function"
    },
    {
      "inputs": [
        {
          "internalType": "address",
          "name": "",
          "type": "address"
        }
      ],
      "name": "priceFeeds",
      "outputs": [
        {
          "internalType": "address",
          "name": "",
          "type": "address"
        }
      ],
      "stateMutability": "view",
      "type": "function"
    },
    {
      "inputs": [
        {
          "internalType": "address",
          "name": "user",
          "type": "address"
        },
        {
          "internalType": "address",
          "name": "token",
          "type": "address"
        },
        {
          "internalType": "uint256",
          "name": "amount",
          "type": "uint256"
        },
        {
          "internalType": "uint64",
          "name": "sourceChain",
          "type": "uint64"
        }
      ],
      "name": "processDeposit",
      "outputs": [],
      "stateMutability": "nonpayable",
      "type": "function"
    },
    {
      "inputs": [
        {
          "internalType": "address",
          "name": "user",
          "type": "address"
        },
        {
          "internalType": "string",
          "name": "source",
          "type": "string"
        }
      ],
      "name": "requestCreditScoreUpdate",
      "outputs": [
        {
          "internalType": "bytes32",
          "name": "requestId",
          "type": "bytes32"
        }
      ],
      "stateMutability": "nonpayable",
      "type": "function"
    },
    {
      "inputs": [
        {
          "internalType": "bytes32",
          "name": "",
          "type": "bytes32"
        }
      ],
      "name": "requestToUser",
      "outputs": [
        {
          "internalType": "address",
          "name": "",
          "type": "address"
        }
      ],
      "stateMutability": "view",
      "type": "function"
    },
    {
      "inputs": [
        {
          "internalType": "address",
          "name": "user",
          "type": "address"
        },
        {
          "internalType": "uint256",
          "name": "score",
          "type": "uint256"
        }
      ],
      "name": "setCreditScore",
      "outputs": [],
      "stateMutability": "nonpayable",
      "type": "function"
    },
    {
      "inputs": [
        {
          "internalType": "address",
          "name": "_token",
          "type": "address"
        },
        {
          "internalType": "address",
          "name": "_priceFeed",
          "type": "address"
        }
      ],
      "name": "setPriceFeed",
      "outputs": [],
      "stateMutability": "nonpayable",
      "type": "function"
    },
    {
      "inputs": [],
      "name": "subscriptionId",
      "outputs": [
        {
          "internalType": "uint64",
          "name": "",
          "type": "uint64"
        }
      ],
      "stateMutability": "view",
      "type": "function"
    },
    {
      "inputs": [
        {
          "internalType": "bytes4",
          "name": "interfaceId",
          "type": "bytes4"
        }
      ],
      "name": "supportsInterface",
      "outputs": [
        {
          "internalType": "bool",
          "name": "",
          "type": "bool"
        }
      ],
      "stateMutability": "view",
      "type": "function"
    },
    {
      "inputs": [
        {
          "internalType": "address",
          "name": "to",
          "type": "address"
        }
      ],
      "name": "transferOwnership",
      "outputs": [],
      "stateMutability": "nonpayable",
      "type": "function"
    },
    {
      "inputs": [
        {
          "internalType": "address",
          "name": "",
          "type": "address"
        }
      ],
      "name": "userBorrows",
      "outputs": [
        {
          "internalType": "uint256",
          "name": "",
          "type": "uint256"
        }
      ],
      "stateMutability": "view",
      "type": "function"
    },
    {
      "inputs": [
        {
          "internalType": "address",
          "name": "",
          "type": "address"
        },
        {
          "internalType": "address",
          "name": "",
          "type": "address"
        }
      ],
      "name": "userDeposits",
      "outputs": [
        {
          "internalType": "uint256",
          "name": "",
          "type": "uint256"
        }
      ],
      "stateMutability": "view",
      "type": "function"
    },
    {
      "inputs": [
        {
          "internalType": "address",
          "name": "",
          "type": "address"
        }
      ],
      "name": "userProfiles",
      "outputs": [
        {
          "internalType": "uint256",
          "name": "totalDeposited",
          "type": "uint256"
        },
        {
          "internalType": "uint256",
          "name": "totalBorrowed",
          "type": "uint256"
        },
        {
          "internalType": "uint256",
          "name": "creditScore",
          "type": "uint256"
        },
        {
          "internalType": "uint256",
          "name": "healthFactor",
          "type": "uint256"
        },
        {
          "internalType": "bool",
          "name": "hasNFT",
          "type": "bool"
        },
        {
          "internalType": "uint256",
          "name": "lastUpdated",
          "type": "uint256"
        }
      ],
      "stateMutability": "view",
      "type": "function"
    },
    {
      "inputs": [
        {
          "internalType": "address",
          "name": "_beneficiary",
          "type": "address"
        }
      ],
      "name": "withdraw",
      "outputs": [],
      "stateMutability": "nonpayable",
      "type": "function"
    },
    {
      "inputs": [
        {
          "internalType": "address",
          "name": "_beneficiary",
          "type": "address"
        },
        {
          "internalType": "address",
          "name": "_token",
          "type": "address"
        }
      ],
      "name": "withdrawToken",
      "outputs": [],
      "stateMutability": "nonpayable",
      "type": "function"
    },
    {
      "stateMutability": "payable",
      "type": "receive"
    }
  ],
  "bytecode": "0x60c03462000160576001600160401b03601f62002cb638819003918201601f191684019183831185841017620001655780859260809460405283398101031262000160576200004e826200017b565b916200005d602082016200017b565b906060604082015191015192831680930362000160576001600160a01b03938085169081156200014757608052331562000102576a0493e000000000000000009460018060a01b031993338560005416176000551660a052600c54926002541617600255600b5560018060601b0319161717600c55604051612b259081620001918239608051818181610cbe0152611069015260a0518181816104cb01526117a00152f35b60405162461bcd60e51b815260206004820152601860248201527f43616e6e6f7420736574206f776e657220746f207a65726f00000000000000006044820152606490fd5b6040516335fdcccd60e21b815260006004820152602490fd5b600080fd5b634e487b7160e01b600052604160045260246000fd5b51906001600160a01b0382168203620001605756fe6080604052600436101561001b575b361561001957600080fd5b005b60003560e01c806301ffc9a71461025657806307de83941461025157806309c1ba2e1461024c5780630ca761751461024757806330268bb414610242578063332d56d71461023d57806335e5b7bb146102385780633aeac4e1146102335780634030d5211461022e578063436d8039146102295780634dd601b41461020657806351cff8d9146102245780636159ada11461021f57806375c67c661461021a57806376e112861461021557806377593cc41461021057806379ba50971461020b57806380bb72731461020657806381bf8d3d1461020157806385572ffb146101fc57806386da4cb6146101f75780638da5cb5b146101f25780638dbe7b9d146101ed57806396d3b83d146101e857806397ed81cf146101e3578063987ee156146101de5780639dcb511a146101d9578063b0f479a1146101d4578063b5627e42146101cf578063cc168d7c146101ca578063db04fa49146101c5578063eab5b02c146101c0578063f2fde38b146101bb578063f68016b7146101b6578063fc2a88c3146101b15763fe6bcd7c0361000e576113c4565b6113a6565b61137f565b6112c0565b611240565b6111e8565b6110bb565b611098565b611053565b611014565b610f26565b610e7f565b610df7565b610dcf565b610da6565b610d8a565b610c88565b610c6c565b6109a6565b610bad565b610b70565b610b02565b610ac3565b610a81565b6109e3565b610961565b610922565b610822565b61063f565b610570565b61053c565b61047c565b610339565b6102c2565b346102ac5760203660031901126102ac5760043563ffffffff60e01b81168091036102ac576020906385572ffb60e01b811490811561029b575b506040519015158152f35b6301ffc9a760e01b14905038610290565b600080fd5b6001600160a01b038116036102ac57565b346102ac5760403660031901126102ac576004356102df816102b1565b6024356001600160401b038082116102ac57366023830112156102ac5781600401359081116102ac5736602482840101116102ac576103359260246103259301906115ee565b6040519081529081906020820190565b0390f35b346102ac5760003660031901126102ac5760206001600160401b03600c5416604051908152f35b634e487b7160e01b600052604160045260246000fd5b60c081019081106001600160401b0382111761039157604052565b610360565b604081019081106001600160401b0382111761039157604052565b606081019081106001600160401b0382111761039157604052565b90601f801991011681019081106001600160401b0382111761039157604052565b6040519060a082018281106001600160401b0382111761039157604052565b6001600160401b03811161039157601f01601f191660200190565b9291926104338261040c565b9161044160405193846103cc565b8294818452818301116102ac578281602093846000960137010152565b9080601f830112156102ac5781602061047993359101610427565b90565b346102ac5760603660031901126102ac576004356001600160401b036024358181116102ac576104b090369060040161045e565b906044359081116102ac576104c990369060040161045e565b7f00000000000000000000000000000000000000000000000000000000000000006001600160a01b0316330361052a5761050391836125fd565b7f85e1543bf2f84fe80c6badbce3648c8539ad1df4d2b3d822938ca0538be727e6600080a2005b60405163c6829f8360e01b8152600490fd5b346102ac5760203660031901126102ac57600435600052600e602052602060018060a01b0360406000205416604051908152f35b346102ac5760203660031901126102ac5760043561058d816102b1565b60018060a01b0316600052600660205260c060406000208054906001810154906002810154600382015490600560ff600485015416930154936040519586526020860152604085015260608401521515608083015260a0820152f35b604435906001600160401b03821682036102ac57565b600435906001600160401b03821682036102ac57565b606435906001600160401b03821682036102ac57565b35906001600160401b03821682036102ac57565b346102ac5760603660031901126102ac5760043561065c816102b1565b6024356106676105e9565b6001600160401b0381169283600052600360205260409360ff856000205416156107e657506001600160a01b0381166000908152600960205260409020546101f481106107d5576106b78261279f565b6001600160a01b03831660009081526008602052604090206106db90869054611527565b9081116107c4576001600160a01b03831660009081526008602090815260408083208490556006909152902060018101919091554260059091015561071f826127cf565b6714d1120d7b16000081106107ab57907f22984f68941237d785be47dbc3a4034a25a23bd9832c103015dd92ace624717294956107a69260036107748660018060a01b03166000526006602052604060002090565b0155519586526001600160401b03909316602086015260408501929092526001600160a01b0316929081906060820190565b0390a2005b855163b8dfb2c160e01b81526004810191909152602490fd5b8551633a23d82560e01b8152600490fd5b84516301069b4760e21b8152600490fd5b60249085519063206abad760e01b82526004820152fd5b60409060031901126102ac57600435610815816102b1565b90602435610479816102b1565b346102ac57610830366107fd565b610838611495565b6040516370a0823160e01b81523060048201526020926001600160a01b039290921691908381602481865afa9081156108de576000916108f5575b5080156108e35760405163a9059cbb60e01b81526001600160a01b039290921660048301526024820152908290829060449082906000905af180156108de576108b857005b8161001992903d106108d7575b6108cf81836103cc565b810190612ada565b503d6108c5565b61173c565b604051630686827b60e51b8152600490fd5b6109159150843d861161091b575b61090d81836103cc565b8101906116e5565b38610873565b503d610903565b346102ac5760203660031901126102ac576001600160401b036109436105ff565b166000526004602052602060ff604060002054166040519015158152f35b346102ac57602061099d610974366107fd565b6001600160a01b0391821660009081526007855260408082209290931681526020919091522090565b54604051908152f35b346102ac5760203660031901126102ac576004356109c3816102b1565b60018060a01b031660005260096020526020604060002054604051908152f35b346102ac5760203660031901126102ac57600435610a00816102b1565b610a08611495565b4780156108e3576000918280808085855af13d15610a7c573d610a2a8161040c565b90610a3860405192836103cc565b81528460203d92013e5b15610a4b578280f35b604051639d11f56360e01b81523360048201526001600160a01b039190911660248201526044810191909152606490fd5b610a42565b346102ac5760203660031901126102ac57600435610a9e816102b1565b60018060a01b03166000526005602052602060ff604060002054166040519015158152f35b346102ac5760203660031901126102ac576001600160401b03610ae46105ff565b166000526003602052602060ff604060002054166040519015158152f35b346102ac57610b10366107fd565b90610b19611495565b6001600160a01b039081166000818152600a6020526040812080546001600160a01b03191685851617905592909116907fd2d8394cf7549a5ddbc2ba3dd7b2de8d53c891472d1f2907008ed6a10045fdae8380a380f35b346102ac5760203660031901126102ac57600435610b8d816102b1565b60018060a01b031660005260086020526020604060002054604051908152f35b346102ac57600080600319360112610c69576001546001600160a01b039081163303610c2b5781546001600160a01b0316600080546001600160a01b0319163317905590600180546001600160a01b03191690553391167f8be0079c531659141344cd1fd0a4f28419497f9722a3daafe3b4186f6b6457e08380a380f35b60405162461bcd60e51b815260206004820152601660248201527526bab9ba10313290383937b837b9b2b21037bbb732b960511b6044820152606490fd5b80fd5b346102ac5760003660031901126102ac576020604051604b8152f35b346102ac576003196020368201126102ac576004908135906001600160401b03908183116102ac5760a09083360301126102ac577f00000000000000000000000000000000000000000000000000000000000000006001600160a01b03163303610d7357610cf46103ed565b91808401358352610d076024820161062b565b602084015260448101358281116102ac57610d279085369184010161045e565b604084015260648101358281116102ac57610d479085369184010161045e565b606084015260848101359182116102ac5761001993610d69923692010161140a565b60808201526126c5565b6040516335fdcccd60e21b81523381850152602490fd5b346102ac5760003660031901126102ac576020604051600a8152f35b346102ac5760003660031901126102ac576000546040516001600160a01b039091168152602090f35b346102ac5760003660031901126102ac576020600b54604051908152f35b801515036102ac57565b346102ac5760403660031901126102ac57610e106105ff565b7f9e831877a5c5b0c6bf39118c59f437de0882033ff7d60a84dbc1f453584a0d1160206001600160401b0360243593610e4885610ded565b610e50611495565b16928360005260038252610e748160406000209060ff801983541691151516179055565b6040519015158152a2005b346102ac5760403660031901126102ac57600435610e9c816102b1565b7f79c012a0cfae660e09134956bc432c8497ec80e86a3a108d130e8b3fca52b3ad6107a6602435610ecb611495565b6103e8808211610f1e575b506001600160a01b0393909316600081815260096020908152604080832087905560069091529020600281018590559093904290600501556040519081529081906020820190565b905038610ed6565b346102ac5760203660031901126102ac5761033560a0600435610f48816102b1565b60409182918251610f5881610376565b60009281848093528260208201528286820152826060820152826080820152015260018060a01b03168152600660205220906005815192610f9884610376565b80548452600181015460208501526002810154838501526003810154606085015260ff60048201541615156080850152015460a0830152519182918291909160a08060c0830194805184526020810151602085015260408101516040850152606081015160608501526080810151151560808501520151910152565b346102ac5760203660031901126102ac576020600435611033816102b1565b60018060a01b03809116600052600a825260406000205416604051908152f35b346102ac5760003660031901126102ac576040517f00000000000000000000000000000000000000000000000000000000000000006001600160a01b03168152602090f35b346102ac5760003660031901126102ac5760206040516714d1120d7b1600008152f35b346102ac5760803660031901126102ac576004356110d8816102b1565b6024356110e4816102b1565b604435916110f0610615565b6001600160a01b03828116600081815260076020908152604080832085891684529091529020909491928154918783018093116111e3577ff664b7cf4a6eb64372b17892837e5eda83dc15187b074ff156cf853d8bf1e220956111de936111ba9255611171611167611161876128f6565b8b61154a565b6305f5e100900490565b6001600160a01b038216600090815260066020526040902061119590918254611527565b90556001600160a01b0381166000908152600660205260409020429060050155612849565b6040519384931696839092916001600160401b036020916040840195845216910152565b0390a3005b6114e7565b346102ac5760403660031901126102ac576100196112046105ff565b6001600160401b036024359161121983610ded565b611221611495565b16600052600460205260406000209060ff801983541691151516179055565b346102ac5760403660031901126102ac5760043561125d816102b1565b7f9a3d70b7815e59466fffdf86a6fda9753a1d8228523b33db2345e12200b3030c60206024359261128d84610ded565b611295611495565b6001600160a01b031660008181526005835260409020805460ff191660ff8615151617905592610e74565b346102ac5760203660031901126102ac576004356112dd816102b1565b6112e5611495565b6001600160a01b031633811461133a57600180546001600160a01b031916821790556000546001600160a01b03167fed8889f560326eb138920d842192f0eb3dd22b4f139c87a2c57538e05bae1278600080a3005b60405162461bcd60e51b815260206004820152601760248201527f43616e6e6f74207472616e7366657220746f2073656c660000000000000000006044820152606490fd5b346102ac5760003660031901126102ac576020600c5463ffffffff6040519160401c168152f35b346102ac5760003660031901126102ac576020600d54604051908152f35b346102ac5760203660031901126102ac5760206113eb6004356113e6816102b1565b6127cf565b604051908152f35b6001600160401b0381116103915760051b60200190565b81601f820112156102ac57803590611421826113f3565b92604092611431845195866103cc565b808552602091828087019260061b850101938185116102ac578301915b84831061145e5750505050505090565b85838303126102ac57838691825161147581610396565b8535611480816102b1565b8152828601358382015281520192019161144e565b6000546001600160a01b031633036114a957565b60405162461bcd60e51b815260206004820152601660248201527527b7363c9031b0b63630b1363290313c9037bbb732b960511b6044820152606490fd5b634e487b7160e01b600052601160045260246000fd5b90602082018092116111e357565b60020190816002116111e357565b60030190816003116111e357565b919082018092116111e357565b908160011b91808304600214901517156111e357565b818102929181159184041417156111e357565b8115611567570490565b634e487b7160e01b600052601260045260246000fd5b60405161158981610396565b600181528060005b6020808210156115ac57906060602092828501015201611591565b50505090565b634e487b7160e01b600052603260045260246000fd5b8051156115d55760200190565b6115b2565b80518210156115d55760209160051b010190565b919060405160e08101916001600160401b0391808410838511176103915761165b61165561168e936116dc976116a89760405260008552600060208601526000604086015260608086015260606080860152606060a0860152606060c08601523691610427565b82611b33565b61168961166661157d565b61166f886129d9565b611678826115c8565b52611682816115c8565b5082611b5c565b611960565b600c5490600b549263ffffffff8360401c16921690611748565b916116bd83600052600e602052604060002090565b80546001600160a01b0319166001600160a01b03909216919091179055565b61047981600d55565b908160209103126102ac575190565b60005b8381106117075750506000910152565b81810151838201526020016116f7565b90602091611730815180928185528580860191016116f4565b601f01601f1916010190565b6040513d6000823e3d90fd5b92906020926001600160401b039263ffffffff611787604051978896879663230e93b160e11b885216600487015260a0602487015260a4860190611717565b60016044860152921660648401526084830152038160007f00000000000000000000000000000000000000000000000000000000000000006001600160a01b03165af19081156108de57600091611803575b50807f1131472297a800fee664d1d89cfa8f7676ff07189ecc53f80bbb5f4969099db8600080a290565b61181b915060203d811161091b5761090d81836103cc565b386117d9565b6040519061182e82610396565b600c82526b31b7b232a637b1b0ba34b7b760a11b6020830152565b634e487b7160e01b600052602160045260246000fd5b6003111561186957565b611849565b6040519061187b82610396565b60088252676c616e677561676560c01b6020830152565b6001111561186957565b604051906118a982610396565b6006825265736f7572636560d01b6020830152565b604051906118cb82610396565b60048252636172677360e01b6020830152565b60001981146111e35760010190565b604051906118fa82610396565b600f82526e39b2b1b932ba39a637b1b0ba34b7b760891b6020830152565b6040519061192582610396565b60078252667365637265747360c81b6020830152565b6040519061194882610396565b600982526862797465734172677360b81b6020830152565b611968611b95565b9061197a611974611821565b836122be565b61199781516119888161185f565b6119918161185f565b83611c46565b6119a261197461186e565b6119bc60408201516119b381611892565b61199181611892565b6119c761197461189c565b6119d56060820151836122be565b60a08101805151611ada575b506080810190815151611a5a575b60c0915001805151611a02575b50515190565b91611a0e61197461193b565b611a1782612342565b60005b83518051821015611a475790611a3d611a3682611a42946115da565b5185612209565b6118de565b611a1a565b50509150611a54816123ce565b386119fc565b602081018051611a698161185f565b611a728161185f565b15611ac85760c092611aab611ac392611a92611a8c6118ed565b886122be565b51611a9c8161185f565b611aa58161185f565b86611c46565b611abc611ab6611918565b866122be565b5184612209565b6119ef565b60405163a80d31f760e01b8152600490fd5b92611aec611ae66118be565b846122be565b611af583612342565b60005b84518051821015611b205790611a3d611b1482611b1b946115da565b51866122be565b611af8565b50509250611b2d826123ce565b386119e1565b815115611b4a576000808252604082015260600152565b6040516322ce3edd60e01b8152600490fd5b815115611b695760a00152565b60405163fe936cb760e01b8152600490fd5b60405190611b8882610396565b6000602083606081520152565b604051611ba181610396565b611ba9611b7b565b8082526020820160008152611bbc611b7b565b5061010060208301526040518092526000825261012082019182106102ac576000916040525290565b601f198101919082116111e357565b90611bfd611b7b565b50601f811680611c2c575b50806020830152604051908183526000825281016020019081106102ac5760405290565b602003602081116111e35781018091116111e35738611c08565b90815191611c52611b7b565b5082515160018101908181116111e3576020850151811015611cad575b60c26020611ca39651928301015380518211611ca5575b505060405191602083015260208252611c9e82610396565b612209565b565b523880611c86565b8160011b94828604600214831517156111e357602081611cdf611ca398611cd860c295519184611bf4565b5082612151565b5096505050611c6f565b611cf1611b7b565b5080515160018101908181116111e3576020830151811015611d2a575b605b60208451928301015380518211611d2657505090565b5290565b8160011b828104600214831517156111e357611d5390611d4c85519186611bf4565b5084612151565b50611d0e565b611d61611b7b565b5080515160018101908181116111e3576020830151811015611d96575b605a60208451928301015380518211611d2657505090565b8160011b828104600214831517156111e357611db890611d4c85519186611bf4565b50611d7e565b611dc6611b7b565b5080515160018101908181116111e3576020830151811015611dfb575b605960208451928301015380518211611d2657505090565b8160011b828104600214831517156111e357611e1d90611d4c85519186611bf4565b50611de3565b611e2b611b7b565b5080515160018101908181116111e3576020830151811015611e60575b605860208451928301015380518211611d2657505090565b8160011b828104600214831517156111e357611e8290611d4c85519186611bf4565b50611e48565b611e90611b7b565b5080515160018101908181116111e3576020830151811015611ec5575b607b60208451928301015380518211611d2657505090565b8160011b828104600214831517156111e357611ee790611d4c85519186611bf4565b50611ead565b611ef5611b7b565b5080515160018101908181116111e3576020830151811015611f2a575b607a60208451928301015380518211611d2657505090565b8160011b828104600214831517156111e357611f4c90611d4c85519186611bf4565b50611f12565b611f5a611b7b565b5080515160018101908181116111e3576020830151811015611f8f575b607960208451928301015380518211611d2657505090565b8160011b828104600214831517156111e357611fb190611d4c85519186611bf4565b50611f77565b611fbf611b7b565b5080515160018101908181116111e3576020830151811015611ff4575b607860208451928301015380518211611d2657505090565b8160011b828104600214831517156111e35761201690611d4c85519186611bf4565b50611fdc565b90612025611b7b565b5081515160018101918282116111e3576020840151821015612058575b60208451928301015380518211611d2657505090565b8260011b838104600214841517156111e3576120819061207a86519187611bf4565b5085612151565b50612042565b9061209482519183611bf4565b5061209d611b7b565b508051906120a9611b7b565b506120b78151831115612202565b825151926120c58385611527565b91602092828480940151821161213a575b5183815197820101968211612132575b505001915b8181101561210c5760001991036101000a0190811990511690825116179052565b919261212761212161212d92865181526114fd565b946114fd565b92611be5565b6120eb565b5238806120e6565b61214c61214683611534565b82612087565b6120d6565b9061215a611b7b565b508051612165611b7b565b506121738251821115612202565b825151916121818284611527565b60209182918287015181116121eb575b8651838151978201019682116121e3575b505001915b818110156121c95760001991036101000a019081199051169082511617905290565b91926121276121216121de92865181526114fd565b6121a7565b5238806121a2565b6121fd6121f782611534565b88612087565b612191565b156102ac57565b81516122409291906001600160401b0381169060178211612243576122389150604060ff84519216179061201c565b505b51612151565b50565b5060ff8111612268576122629061225a8351611e23565b508251612597565b5061223a565b61ffff8111612287576122629061227f8351611dbe565b508251612530565b63ffffffff81116122a857612262906122a08351611d59565b5082516124c7565b612262906122b68351611ce9565b50825161245b565b81516122409291906001600160401b03811690601782116122ed576122389150606060ff84519216179061201c565b5060ff8111612304576122629061225a8351611fb7565b61ffff811161231b576122629061227f8351611f52565b63ffffffff811161233457612262906122a08351611eed565b612262906122b68351611e88565b80519061234d611b7b565b5081515160018101908181116111e357602084015181101561239b575b609f6020809551928301015380518211612393575b505001805190600182018092116111e35752565b52388061237f565b8160011b93828504600214831517156111e3576020816123c48297611cd8609f95519184611bf4565b509550505061236a565b8051906123d9611b7b565b5081515160018101908181116111e3576020840151811015612428575b60ff6020809551928301015380518211612420575b50500180516000198101919082116111e35752565b52388061240b565b8160011b93828504600214831517156111e3576020816124518297611cd860ff95519184611bf4565b50955050506123f6565b90612464611b7b565b508151518060080191826008116111e357602084015183116124a6575b6008845192830101906001600160401b031982511617905280518211611d2657505090565b8260011b838104600214841517156111e3576124c29085612087565b612481565b906124d0611b7b565b508151518060040191826004116111e3576020840151831161250f575b60048451928301019063ffffffff1982511617905280518211611d2657505090565b8260011b838104600214841517156111e35761252b9085612087565b6124ed565b90612539611b7b565b508151518060020191826002116111e35760208401518311612576575b60028451928301019061ffff1982511617905280518211611d2657505090565b8260011b838104600214841517156111e3576125929085612087565b612556565b906125a0611b7b565b508151518060010191826001116111e357602084015183116125dc575b60018451928301019060ff1982511617905280518211611d2657505090565b8260011b838104600214841517156111e3576125f89085612087565b6125bd565b90915161269f57600052600e6020527f79c012a0cfae660e09134956bc432c8497ec80e86a3a108d130e8b3fca52b3ad602061264f60018060a01b0360406000205416938280825183010191016116e5565b6103e8808211612697575b506001600160a01b0384166000908152600960209081526040808320849055600690915290819020600281018390554260059091015551908152a2565b90503861265a565b5050565b6001600160a01b03909116815260406020820181905261047992910190611717565b80516001600160401b0360209080828501511693604081015183818051810103126102ac57836060910151916126fa836102b1565b015191825183019284818186019503126102ac57848101519182116102ac57019282603f850112156102ac57808401516127338161040c565b9361274160405195866103cc565b818552604082870101116102ac577fb1e312a29937cc11967b0e4a346fef1ae132424ebaba9dc6d90249dba053e87c94604061278093860191016116f4565b60405191829161279a91906001600160a01b0316836126a3565b0390a3565b60018060a01b03166000526006602052604060002054604b810290808204604b14901517156111e3576064900490565b60018060a01b0316600052600660205260406000205460086020526040600020548015612841576050820291808304605014811517156111e3576804563918244f4000000291808304670de0b6b3a764000014901517156111e357606481029081046064036111e3576104799161155d565b505060001990565b612852816127cf565b6001600160a01b03909116600090815260066020526040902060030155565b519069ffffffffffffffffffff821682036102ac57565b908160a09103126102ac5761289c81612871565b91602082015191604081015191610479608060608401519301612871565b156128c157565b60405162461bcd60e51b815260206004820152600d60248201526c496e76616c696420707269636560981b6044820152606490fd5b6001600160a01b039081166000908152600a602052604090205416801561297e5760a060049160405192838092633fabe5a360e21b82525afa9081156108de5760009161294b575b50610479600082136128ba565b61296c915060a03d8111612977575b61296481836103cc565b810190612888565b50505090503861293e565b503d61295a565b60405162461bcd60e51b8152602060048201526012602482015271141c9a58d94819995959081b9bdd081cd95d60721b6044820152606490fd5b8051600110156115d55760210190565b9081518110156115d5570160200190565b906040516129e6816103b1565b602a8152604036602083013760306129fd826115c8565b536078612a09826129b8565b536000805b60148110612a1d575090925050565b612a9390612a6f6bffffffffffffffffffffffff198760601b16821a600f90612a4a828260041c16612a98565b612a68612a5e612a5987611534565b61150b565b91881a91896129c8565b5316612a98565b612a8d612a83612a7e84611534565b611519565b91851a91866129c8565b536118de565b612a0e565b60ff16600a811015612abf5760300160ff81116111e35760f81b6001600160f81b03191690565b60570160ff81116111e35760f81b6001600160f81b03191690565b908160209103126102ac575161047981610ded56fea2646970667358221220636b3f596d6df072a995ee8c1d190e0b8c34d53ff25f7b17e9013e2a17f18a1564736f6c63430008140033",
  "linkReferences": {},
  "deployedLinkReferences": {}
}